{
  "_format": "hh-sol-artifact-1",
  "contractName": "Good",
  "sourceName": "contracts/good.sol",
  "abi": [
    {
      "anonymous": false,
      "inputs": [
        {
          "indexed": false,
          "internalType": "address",
          "name": "previousAdmin",
          "type": "address"
        },
        {
          "indexed": false,
          "internalType": "address",
          "name": "newAdmin",
          "type": "address"
        }
      ],
      "name": "AdminChanged",
      "type": "event"
    },
    {
      "anonymous": false,
      "inputs": [
        {
          "indexed": true,
          "internalType": "address",
          "name": "owner",
          "type": "address"
        },
        {
          "indexed": true,
          "internalType": "address",
          "name": "spender",
          "type": "address"
        },
        {
          "indexed": false,
          "internalType": "uint256",
          "name": "value",
          "type": "uint256"
        }
      ],
      "name": "Approval",
      "type": "event"
    },
    {
      "anonymous": false,
      "inputs": [
        {
          "indexed": true,
          "internalType": "address",
          "name": "beacon",
          "type": "address"
        }
      ],
      "name": "BeaconUpgraded",
      "type": "event"
    },
    {
      "anonymous": false,
      "inputs": [
        {
          "indexed": true,
          "internalType": "address",
          "name": "delegator",
          "type": "address"
        },
        {
          "indexed": true,
          "internalType": "address",
          "name": "fromDelegate",
          "type": "address"
        },
        {
          "indexed": true,
          "internalType": "address",
          "name": "toDelegate",
          "type": "address"
        }
      ],
      "name": "DelegateChanged",
      "type": "event"
    },
    {
      "anonymous": false,
      "inputs": [
        {
          "indexed": true,
          "internalType": "address",
          "name": "delegate",
          "type": "address"
        },
        {
          "indexed": false,
          "internalType": "uint256",
          "name": "previousBalance",
          "type": "uint256"
        },
        {
          "indexed": false,
          "internalType": "uint256",
          "name": "newBalance",
          "type": "uint256"
        }
      ],
      "name": "DelegateVotesChanged",
      "type": "event"
    },
    {
      "anonymous": false,
      "inputs": [
        {
          "indexed": false,
          "internalType": "uint256",
          "name": "feeAmount",
          "type": "uint256"
        }
      ],
      "name": "FeeUpdated",
      "type": "event"
    },
    {
      "anonymous": false,
      "inputs": [
        {
          "indexed": false,
          "internalType": "uint8",
          "name": "version",
          "type": "uint8"
        }
      ],
      "name": "Initialized",
      "type": "event"
    },
    {
      "anonymous": false,
      "inputs": [
        {
          "indexed": true,
          "internalType": "address",
          "name": "previousOwner",
          "type": "address"
        },
        {
          "indexed": true,
          "internalType": "address",
          "name": "newOwner",
          "type": "address"
        }
      ],
      "name": "OwnershipTransferred",
      "type": "event"
    },
    {
      "anonymous": false,
      "inputs": [
        {
          "indexed": false,
          "internalType": "address",
          "name": "account",
          "type": "address"
        }
      ],
      "name": "Paused",
      "type": "event"
    },
    {
      "anonymous": false,
      "inputs": [
        {
          "indexed": true,
          "internalType": "address",
          "name": "from",
          "type": "address"
        },
        {
          "indexed": true,
          "internalType": "address",
          "name": "to",
          "type": "address"
        },
        {
          "indexed": false,
          "internalType": "uint256",
          "name": "value",
          "type": "uint256"
        }
      ],
      "name": "Transfer",
      "type": "event"
    },
    {
      "anonymous": false,
      "inputs": [
        {
          "indexed": false,
          "internalType": "address",
          "name": "newTreasury",
          "type": "address"
        }
      ],
      "name": "TreasuryAddressUpdated",
      "type": "event"
    },
    {
      "anonymous": false,
      "inputs": [
        {
          "indexed": false,
          "internalType": "address",
          "name": "account",
          "type": "address"
        }
      ],
      "name": "Unpaused",
      "type": "event"
    },
    {
      "anonymous": false,
      "inputs": [
        {
          "indexed": true,
          "internalType": "address",
          "name": "implementation",
          "type": "address"
        }
      ],
      "name": "Upgraded",
      "type": "event"
    },
    {
      "anonymous": false,
      "inputs": [
        {
          "indexed": false,
          "internalType": "address",
          "name": "whitelistAccount",
          "type": "address"
        },
        {
          "indexed": false,
          "internalType": "bool",
          "name": "value",
          "type": "bool"
        }
      ],
      "name": "WhitelistAddressUpdated",
      "type": "event"
    },
    {
      "inputs": [],
      "name": "DOMAIN_SEPARATOR",
      "outputs": [
        {
          "internalType": "bytes32",
          "name": "",
          "type": "bytes32"
        }
      ],
      "stateMutability": "view",
      "type": "function"
    },
    {
      "inputs": [
        {
          "internalType": "address",
          "name": "owner",
          "type": "address"
        },
        {
          "internalType": "address",
          "name": "spender",
          "type": "address"
        }
      ],
      "name": "allowance",
      "outputs": [
        {
          "internalType": "uint256",
          "name": "",
          "type": "uint256"
        }
      ],
      "stateMutability": "view",
      "type": "function"
    },
    {
      "inputs": [
        {
          "internalType": "address",
          "name": "spender",
          "type": "address"
        },
        {
          "internalType": "uint256",
          "name": "amount",
          "type": "uint256"
        }
      ],
      "name": "approve",
      "outputs": [
        {
          "internalType": "bool",
          "name": "",
          "type": "bool"
        }
      ],
      "stateMutability": "nonpayable",
      "type": "function"
    },
    {
      "inputs": [
        {
          "internalType": "address",
          "name": "account",
          "type": "address"
        }
      ],
      "name": "balanceOf",
      "outputs": [
        {
          "internalType": "uint256",
          "name": "",
          "type": "uint256"
        }
      ],
      "stateMutability": "view",
      "type": "function"
    },
    {
      "inputs": [
        {
          "internalType": "address",
          "name": "account",
          "type": "address"
        },
        {
          "internalType": "uint32",
          "name": "pos",
          "type": "uint32"
        }
      ],
      "name": "checkpoints",
      "outputs": [
        {
          "components": [
            {
              "internalType": "uint32",
              "name": "fromBlock",
              "type": "uint32"
            },
            {
              "internalType": "uint224",
              "name": "votes",
              "type": "uint224"
            }
          ],
          "internalType": "struct ERC20VotesUpgradeable.Checkpoint",
          "name": "",
          "type": "tuple"
        }
      ],
      "stateMutability": "view",
      "type": "function"
    },
    {
      "inputs": [],
      "name": "decimals",
      "outputs": [
        {
          "internalType": "uint8",
          "name": "",
          "type": "uint8"
        }
      ],
      "stateMutability": "view",
      "type": "function"
    },
    {
      "inputs": [
        {
          "internalType": "address",
          "name": "spender",
          "type": "address"
        },
        {
          "internalType": "uint256",
          "name": "subtractedValue",
          "type": "uint256"
        }
      ],
      "name": "decreaseAllowance",
      "outputs": [
        {
          "internalType": "bool",
          "name": "",
          "type": "bool"
        }
      ],
      "stateMutability": "nonpayable",
      "type": "function"
    },
    {
      "inputs": [
        {
          "internalType": "address",
          "name": "delegatee",
          "type": "address"
        }
      ],
      "name": "delegate",
      "outputs": [],
      "stateMutability": "nonpayable",
      "type": "function"
    },
    {
      "inputs": [
        {
          "internalType": "address",
          "name": "delegatee",
          "type": "address"
        },
        {
          "internalType": "uint256",
          "name": "nonce",
          "type": "uint256"
        },
        {
          "internalType": "uint256",
          "name": "expiry",
          "type": "uint256"
        },
        {
          "internalType": "uint8",
          "name": "v",
          "type": "uint8"
        },
        {
          "internalType": "bytes32",
          "name": "r",
          "type": "bytes32"
        },
        {
          "internalType": "bytes32",
          "name": "s",
          "type": "bytes32"
        }
      ],
      "name": "delegateBySig",
      "outputs": [],
      "stateMutability": "nonpayable",
      "type": "function"
    },
    {
      "inputs": [
        {
          "internalType": "address",
          "name": "account",
          "type": "address"
        }
      ],
      "name": "delegates",
      "outputs": [
        {
          "internalType": "address",
          "name": "",
          "type": "address"
        }
      ],
      "stateMutability": "view",
      "type": "function"
    },
    {
      "inputs": [],
      "name": "fee",
      "outputs": [
        {
          "internalType": "uint256",
          "name": "",
          "type": "uint256"
        }
      ],
      "stateMutability": "view",
      "type": "function"
    },
    {
      "inputs": [
        {
          "internalType": "address",
          "name": "account",
          "type": "address"
        }
      ],
      "name": "getCurrentVotes",
      "outputs": [
        {
          "internalType": "uint96",
          "name": "",
          "type": "uint96"
        }
      ],
      "stateMutability": "view",
      "type": "function"
    },
    {
      "inputs": [
        {
          "internalType": "uint256",
          "name": "blockNumber",
          "type": "uint256"
        }
      ],
      "name": "getPastTotalSupply",
      "outputs": [
        {
          "internalType": "uint256",
          "name": "",
          "type": "uint256"
        }
      ],
      "stateMutability": "view",
      "type": "function"
    },
    {
      "inputs": [
        {
          "internalType": "address",
          "name": "account",
          "type": "address"
        },
        {
          "internalType": "uint256",
          "name": "blockNumber",
          "type": "uint256"
        }
      ],
      "name": "getPastVotes",
      "outputs": [
        {
          "internalType": "uint256",
          "name": "",
          "type": "uint256"
        }
      ],
      "stateMutability": "view",
      "type": "function"
    },
    {
      "inputs": [
        {
          "internalType": "address",
          "name": "account",
          "type": "address"
        },
        {
          "internalType": "uint256",
          "name": "blockNumber",
          "type": "uint256"
        }
      ],
      "name": "getPriorVotes",
      "outputs": [
        {
          "internalType": "uint96",
          "name": "",
          "type": "uint96"
        }
      ],
      "stateMutability": "view",
      "type": "function"
    },
    {
      "inputs": [
        {
          "internalType": "address",
          "name": "account",
          "type": "address"
        }
      ],
      "name": "getVotes",
      "outputs": [
        {
          "internalType": "uint256",
          "name": "",
          "type": "uint256"
        }
      ],
      "stateMutability": "view",
      "type": "function"
    },
    {
      "inputs": [
        {
          "internalType": "address",
          "name": "spender",
          "type": "address"
        },
        {
          "internalType": "uint256",
          "name": "addedValue",
          "type": "uint256"
        }
      ],
      "name": "increaseAllowance",
      "outputs": [
        {
          "internalType": "bool",
          "name": "",
          "type": "bool"
        }
      ],
      "stateMutability": "nonpayable",
      "type": "function"
    },
    {
      "inputs": [
        {
          "internalType": "address",
          "name": "initialHolder",
          "type": "address"
        },
        {
          "internalType": "uint256",
          "name": "initialSupply",
          "type": "uint256"
        }
      ],
      "name": "initialize",
      "outputs": [],
      "stateMutability": "nonpayable",
      "type": "function"
    },
    {
      "inputs": [],
      "name": "name",
      "outputs": [
        {
          "internalType": "string",
          "name": "",
          "type": "string"
        }
      ],
      "stateMutability": "view",
      "type": "function"
    },
    {
      "inputs": [
        {
          "internalType": "address",
          "name": "owner",
          "type": "address"
        }
      ],
      "name": "nonces",
      "outputs": [
        {
          "internalType": "uint256",
          "name": "",
          "type": "uint256"
        }
      ],
      "stateMutability": "view",
      "type": "function"
    },
    {
      "inputs": [
        {
          "internalType": "address",
          "name": "account",
          "type": "address"
        }
      ],
      "name": "numCheckpoints",
      "outputs": [
        {
          "internalType": "uint32",
          "name": "",
          "type": "uint32"
        }
      ],
      "stateMutability": "view",
      "type": "function"
    },
    {
      "inputs": [],
      "name": "owner",
      "outputs": [
        {
          "internalType": "address",
          "name": "",
          "type": "address"
        }
      ],
      "stateMutability": "view",
      "type": "function"
    },
    {
      "inputs": [],
      "name": "paused",
      "outputs": [
        {
          "internalType": "bool",
          "name": "",
          "type": "bool"
        }
      ],
      "stateMutability": "view",
      "type": "function"
    },
    {
      "inputs": [
        {
          "internalType": "address",
          "name": "owner",
          "type": "address"
        },
        {
          "internalType": "address",
          "name": "spender",
          "type": "address"
        },
        {
          "internalType": "uint256",
          "name": "value",
          "type": "uint256"
        },
        {
          "internalType": "uint256",
          "name": "deadline",
          "type": "uint256"
        },
        {
          "internalType": "uint8",
          "name": "v",
          "type": "uint8"
        },
        {
          "internalType": "bytes32",
          "name": "r",
          "type": "bytes32"
        },
        {
          "internalType": "bytes32",
          "name": "s",
          "type": "bytes32"
        }
      ],
      "name": "permit",
      "outputs": [],
      "stateMutability": "nonpayable",
      "type": "function"
    },
    {
      "inputs": [],
      "name": "proxiableUUID",
      "outputs": [
        {
          "internalType": "bytes32",
          "name": "",
          "type": "bytes32"
        }
      ],
      "stateMutability": "view",
      "type": "function"
    },
    {
      "inputs": [],
      "name": "renounceOwnership",
      "outputs": [],
      "stateMutability": "nonpayable",
      "type": "function"
    },
    {
      "inputs": [
        {
          "internalType": "uint256",
          "name": "_fee",
          "type": "uint256"
        }
      ],
      "name": "setFee",
      "outputs": [],
      "stateMutability": "nonpayable",
      "type": "function"
    },
    {
      "inputs": [
        {
          "internalType": "address",
          "name": "_treasury",
          "type": "address"
        }
      ],
      "name": "setTreasuryAddress",
      "outputs": [],
      "stateMutability": "nonpayable",
      "type": "function"
    },
    {
      "inputs": [
        {
          "internalType": "address",
          "name": "_whitelist",
          "type": "address"
        },
        {
          "internalType": "bool",
          "name": "_status",
          "type": "bool"
        }
      ],
      "name": "setWhitelistAddress",
      "outputs": [],
      "stateMutability": "nonpayable",
      "type": "function"
    },
    {
      "inputs": [],
      "name": "symbol",
      "outputs": [
        {
          "internalType": "string",
          "name": "",
          "type": "string"
        }
      ],
      "stateMutability": "view",
      "type": "function"
    },
    {
      "inputs": [],
      "name": "totalSupply",
      "outputs": [
        {
          "internalType": "uint256",
          "name": "",
          "type": "uint256"
        }
      ],
      "stateMutability": "view",
      "type": "function"
    },
    {
      "inputs": [
        {
          "internalType": "address",
          "name": "to",
          "type": "address"
        },
        {
          "internalType": "uint256",
          "name": "amount",
          "type": "uint256"
        }
      ],
      "name": "transfer",
      "outputs": [
        {
          "internalType": "bool",
          "name": "",
          "type": "bool"
        }
      ],
      "stateMutability": "nonpayable",
      "type": "function"
    },
    {
      "inputs": [
        {
          "internalType": "address",
          "name": "from",
          "type": "address"
        },
        {
          "internalType": "address",
          "name": "to",
          "type": "address"
        },
        {
          "internalType": "uint256",
          "name": "amount",
          "type": "uint256"
        }
      ],
      "name": "transferFrom",
      "outputs": [
        {
          "internalType": "bool",
          "name": "",
          "type": "bool"
        }
      ],
      "stateMutability": "nonpayable",
      "type": "function"
    },
    {
      "inputs": [
        {
          "internalType": "address",
          "name": "newOwner",
          "type": "address"
        }
      ],
      "name": "transferOwnership",
      "outputs": [],
      "stateMutability": "nonpayable",
      "type": "function"
    },
    {
      "inputs": [],
      "name": "treasury",
      "outputs": [
        {
          "internalType": "address",
          "name": "",
          "type": "address"
        }
      ],
      "stateMutability": "view",
      "type": "function"
    },
    {
      "inputs": [
        {
          "internalType": "address",
          "name": "newImplementation",
          "type": "address"
        }
      ],
      "name": "upgradeTo",
      "outputs": [],
      "stateMutability": "nonpayable",
      "type": "function"
    },
    {
      "inputs": [
        {
          "internalType": "address",
          "name": "newImplementation",
          "type": "address"
        },
        {
          "internalType": "bytes",
          "name": "data",
          "type": "bytes"
        }
      ],
      "name": "upgradeToAndCall",
      "outputs": [],
      "stateMutability": "payable",
      "type": "function"
    },
    {
      "inputs": [
        {
          "internalType": "address",
          "name": "",
          "type": "address"
        }
      ],
      "name": "whitelistedAddress",
      "outputs": [
        {
          "internalType": "bool",
          "name": "",
          "type": "bool"
        }
      ],
      "stateMutability": "view",
      "type": "function"
    }
  ],
  "bytecode": "0x60a06040523060601b60805234801561001757600080fd5b5060805160601c6132df6100526000396000818161083e0152818161088701528181610aac01528181610aec0152610b7f01526132df6000f3fe6080604052600436106102255760003560e01c806370a0823111610123578063a9059cbb116100ab578063d505accf1161006f578063d505accf14610693578063dd62ed3e146106b3578063ddca3f43146106d3578063f1127ed8146106ea578063f2fde38b1461073457610225565b8063a9059cbb146105e2578063b4b5ea5714610602578063c30796ab14610622578063c3cda52014610653578063cd6dc6871461067357610225565b80638da5cb5b116100f25780638da5cb5b1461054e5780638e539e8c1461056d57806395d89b411461058d5780639ab24eb0146105a2578063a457c2d7146105c257610225565b806370a08231146104a6578063715018a6146104dc578063782d6fe1146104f15780637ecebe001461052e57610225565b80633f914aef116101b15780635c975abb116101755780635c975abb146103f757806361d027b3146104105780636605bfda1461043157806369fe0e2d146104515780636fcfff451461047157610225565b80633f914aef146103575780634f1ef2861461037757806352d1902d1461038a578063587cde1e1461039f5780635c19a95c146103d757610225565b8063313ce567116101f8578063313ce567146102c45780633644e515146102e05780633659cfe6146102f557806339509351146103175780633a46b1a81461033757610225565b806306fdde031461022a578063095ea7b31461025557806318160ddd1461028557806323b872dd146102a4575b600080fd5b34801561023657600080fd5b5061023f610754565b60405161024c9190612fce565b60405180910390f35b34801561026157600080fd5b50610275610270366004612ecf565b6107e6565b604051901515815260200161024c565b34801561029157600080fd5b506099545b60405190815260200161024c565b3480156102b057600080fd5b506102756102bf366004612d34565b6107fe565b3480156102d057600080fd5b506040516012815260200161024c565b3480156102ec57600080fd5b50610296610824565b34801561030157600080fd5b50610315610310366004612ce8565b610833565b005b34801561032357600080fd5b50610275610332366004612ecf565b61091c565b34801561034357600080fd5b50610296610352366004612ecf565b61093e565b34801561036357600080fd5b50610315610372366004612dd8565b6109b2565b610315610385366004612e12565b610aa1565b34801561039657600080fd5b50610296610b72565b3480156103ab57600080fd5b506103bf6103ba366004612ce8565b610c25565b6040516001600160a01b03909116815260200161024c565b3480156103e357600080fd5b506103156103f2366004612ce8565b610c47565b34801561040357600080fd5b506101c65460ff16610275565b34801561041c57600080fd5b506101f8546103bf906001600160a01b031681565b34801561043d57600080fd5b5061031561044c366004612ce8565b610c51565b34801561045d57600080fd5b5061031561046c366004612f9a565b610d43565b34801561047d57600080fd5b5061049161048c366004612ce8565b610da4565b60405163ffffffff909116815260200161024c565b3480156104b257600080fd5b506102966104c1366004612ce8565b6001600160a01b031660009081526097602052604090205490565b3480156104e857600080fd5b50610315610dcd565b3480156104fd57600080fd5b5061051161050c366004612ecf565b610e04565b6040516bffffffffffffffffffffffff909116815260200161024c565b34801561053a57600080fd5b50610296610549366004612ce8565b610e18565b34801561055a57600080fd5b50610194546001600160a01b03166103bf565b34801561057957600080fd5b50610296610588366004612f9a565b610e36565b34801561059957600080fd5b5061023f610e93565b3480156105ae57600080fd5b506102966105bd366004612ce8565b610ea2565b3480156105ce57600080fd5b506102756105dd366004612ecf565b610f39565b3480156105ee57600080fd5b506102756105fd366004612ecf565b610fbf565b34801561060e57600080fd5b5061051161061d366004612ce8565b610fcd565b34801561062e57600080fd5b5061027561063d366004612ce8565b6101fa6020526000908152604090205460ff1681565b34801561065f57600080fd5b5061031561066e366004612ef8565b610fdb565b34801561067f57600080fd5b5061031561068e366004612ecf565b611111565b34801561069f57600080fd5b506103156106ae366004612d6f565b61121b565b3480156106bf57600080fd5b506102966106ce366004612d02565b61137f565b3480156106df57600080fd5b506102966101f95481565b3480156106f657600080fd5b5061070a610705366004612f4f565b6113aa565b60408051825163ffffffff1681526020928301516001600160e01b0316928101929092520161024c565b34801561074057600080fd5b5061031561074f366004612ce8565b61143d565b6060609a805461076390613201565b80601f016020809104026020016040519081016040528092919081815260200182805461078f90613201565b80156107dc5780601f106107b1576101008083540402835291602001916107dc565b820191906000526020600020905b8154815290600101906020018083116107bf57829003601f168201915b5050505050905090565b6000336107f48185856114d6565b5060019392505050565b60003361080c8582856115fa565b610817858585611674565b60019150505b9392505050565b600061082e61178d565b905090565b306001600160a01b037f00000000000000000000000000000000000000000000000000000000000000001614156108855760405162461bcd60e51b815260040161087c90613001565b60405180910390fd5b7f00000000000000000000000000000000000000000000000000000000000000006001600160a01b03166108ce600080516020613263833981519152546001600160a01b031690565b6001600160a01b0316146108f45760405162461bcd60e51b815260040161087c9061304d565b6108fd81611808565b6040805160008082526020820190925261091991839190611880565b50565b6000336107f481858561092f838361137f565b6109399190613167565b6114d6565b600043821061098f5760405162461bcd60e51b815260206004820152601f60248201527f4552433230566f7465733a20626c6f636b206e6f7420796574206d696e656400604482015260640161087c565b6001600160a01b03831660009081526101316020526040902061081d90836119fa565b610194546001600160a01b031633146109dd5760405162461bcd60e51b815260040161087c906130e7565b6001600160a01b038216610a3d5760405162461bcd60e51b815260206004820152602160248201527f73657457686974656c697374416464726573733a205a65726f206164647265736044820152607360f81b606482015260840161087c565b6001600160a01b03821660008181526101fa6020908152604091829020805460ff19168515159081179091558251938452908301527fc03feb136ee85ef1974671b8c663f063c37bc61afb187b94ddfb1a959d73d180910160405180910390a15050565b306001600160a01b037f0000000000000000000000000000000000000000000000000000000000000000161415610aea5760405162461bcd60e51b815260040161087c90613001565b7f00000000000000000000000000000000000000000000000000000000000000006001600160a01b0316610b33600080516020613263833981519152546001600160a01b031690565b6001600160a01b031614610b595760405162461bcd60e51b815260040161087c9061304d565b610b6282611808565b610b6e82826001611880565b5050565b6000306001600160a01b037f00000000000000000000000000000000000000000000000000000000000000001614610c125760405162461bcd60e51b815260206004820152603860248201527f555550535570677261646561626c653a206d757374206e6f742062652063616c60448201527f6c6564207468726f7567682064656c656761746563616c6c0000000000000000606482015260840161087c565b5060008051602061326383398151915290565b6001600160a01b0380821660009081526101306020526040902054165b919050565b6109193382611ad3565b610194546001600160a01b03163314610c7c5760405162461bcd60e51b815260040161087c906130e7565b6001600160a01b038116610cd25760405162461bcd60e51b815260206004820181905260248201527f7365745472656173757279416464726573733a205a65726f2061646472657373604482015260640161087c565b6101f880546001600160a01b0319166001600160a01b03831690811790915560008181526101fa6020908152604091829020805460ff1916600117905590519182527fb6a5e89655cf506139085f051af608195ed056f8dc550b180a1c38d401e2b6c491015b60405180910390a150565b610194546001600160a01b03163314610d6e5760405162461bcd60e51b815260040161087c906130e7565b6101f98190556040518181527f8c4d35e54a3f2ef1134138fd8ea3daee6a3c89e10d2665996babdf70261e2c7690602001610d38565b6001600160a01b03811660009081526101316020526040812054610dc790611b6a565b92915050565b610194546001600160a01b03163314610df85760405162461bcd60e51b815260040161087c906130e7565b610e026000611bd3565b565b600061081d610e13848461093e565b611c26565b6001600160a01b038116600090815260fd6020526040812054610dc7565b6000438210610e875760405162461bcd60e51b815260206004820152601f60248201527f4552433230566f7465733a20626c6f636b206e6f7420796574206d696e656400604482015260640161087c565b610dc7610132836119fa565b6060609b805461076390613201565b6001600160a01b038116600090815261013160205260408120548015610f26576001600160a01b038316600090815261013160205260409020610ee66001836131be565b81548110610f0457634e487b7160e01b600052603260045260246000fd5b60009182526020909120015464010000000090046001600160e01b0316610f29565b60005b6001600160e01b03169392505050565b60003381610f47828661137f565b905083811015610fa75760405162461bcd60e51b815260206004820152602560248201527f45524332303a2064656372656173656420616c6c6f77616e63652062656c6f77604482015264207a65726f60d81b606482015260840161087c565b610fb482868684036114d6565b506001949350505050565b6000336107f4818585611674565b6000610dc7610e1383610ea2565b8342111561102b5760405162461bcd60e51b815260206004820152601d60248201527f4552433230566f7465733a207369676e61747572652065787069726564000000604482015260640161087c565b604080517fe48329057bfd03d55e49b547132e39cffd9c1820ad7b9d4c5307691425d15adf60208201526001600160a01b0388169181019190915260608101869052608081018590526000906110a59061109d9060a00160405160208183030381529060405280519060200120611c93565b858585611ce1565b90506110b081611d09565b86146110fe5760405162461bcd60e51b815260206004820152601960248201527f4552433230566f7465733a20696e76616c6964206e6f6e636500000000000000604482015260640161087c565b6111088188611ad3565b50505050505050565b600061111d6001611d31565b90508015611135576000805461ff0019166101001790555b61113d611db6565b61118360405180604001604052806008815260200167476f6f642044414f60c01b8152506040518060400160405280600481526020016311d3d3d160e21b815250611de5565b6111a86040518060400160405280600481526020016319dbdbd960e21b815250611e16565b6111b0611e60565b6111b8611e87565b6111c0611e60565b6111ca8383611ebb565b60036101f9558015611216576000805461ff0019169055604051600181527f7f26b83ff96e1f2b6a682f133852f6798a09c465da95921460cefb38474024989060200160405180910390a15b505050565b8342111561126b5760405162461bcd60e51b815260206004820152601d60248201527f45524332305065726d69743a206578706972656420646561646c696e65000000604482015260640161087c565b60007f6e71edae12b1b97f4d1f60370fef10105fa2faae0126114a169c64845d6126c988888861129a8c611d09565b6040805160208101969096526001600160a01b0394851690860152929091166060840152608083015260a082015260c0810186905260e00160405160208183030381529060405280519060200120905060006112f582611c93565b9050600061130582878787611ce1565b9050896001600160a01b0316816001600160a01b0316146113685760405162461bcd60e51b815260206004820152601e60248201527f45524332305065726d69743a20696e76616c6964207369676e61747572650000604482015260640161087c565b6113738a8a8a6114d6565b50505050505050505050565b6001600160a01b03918216600090815260986020908152604080832093909416825291909152205490565b60408051808201909152600080825260208201526001600160a01b038316600090815261013160205260409020805463ffffffff84169081106113fd57634e487b7160e01b600052603260045260246000fd5b60009182526020918290206040805180820190915291015463ffffffff8116825264010000000090046001600160e01b0316918101919091529392505050565b610194546001600160a01b031633146114685760405162461bcd60e51b815260040161087c906130e7565b6001600160a01b0381166114cd5760405162461bcd60e51b815260206004820152602660248201527f4f776e61626c653a206e6577206f776e657220697320746865207a65726f206160448201526564647265737360d01b606482015260840161087c565b61091981611bd3565b6001600160a01b0383166115385760405162461bcd60e51b8152602060048201526024808201527f45524332303a20617070726f76652066726f6d20746865207a65726f206164646044820152637265737360e01b606482015260840161087c565b6001600160a01b0382166115995760405162461bcd60e51b815260206004820152602260248201527f45524332303a20617070726f766520746f20746865207a65726f206164647265604482015261737360f01b606482015260840161087c565b6001600160a01b0383811660008181526098602090815260408083209487168084529482529182902085905590518481527f8c5be1e5ebec7d5bd14f71427d1e84f3dd0314c0f7b2291e5b200ac8c7c3b925910160405180910390a3505050565b6000611606848461137f565b9050600019811461166e57818110156116615760405162461bcd60e51b815260206004820152601d60248201527f45524332303a20696e73756666696369656e7420616c6c6f77616e6365000000604482015260640161087c565b61166e84848484036114d6565b50505050565b6001600160a01b03831660009081526101fa602052604090205460ff16806116b557506001600160a01b03821660009081526101fa602052604090205460ff165b156116ca576116c5838383611ec5565b611216565b60006116ee6103e86116e86101f954856120a490919063ffffffff16565b906120b0565b6101f85490915061170a9085906001600160a01b031683611ec5565b61171e848461171985856120bc565b611ec5565b6101f860009054906101000a90046001600160a01b03166001600160a01b031663a1485f646040518163ffffffff1660e01b8152600401600060405180830381600087803b15801561176f57600080fd5b505af1158015611783573d6000803e3d6000fd5b5050505050505050565b600061082e7f8b73c3c69bb8fe3d512ecc4cf759cc79239f7b179b0ffacaa9a75d522b39400f6117bc60c95490565b60ca546040805160208101859052908101839052606081018290524660808201523060a082015260009060c0016040516020818303038152906040528051906020012090509392505050565b3361181c610194546001600160a01b031690565b6001600160a01b0316146109195760405162461bcd60e51b815260206004820152602560248201527f4f6e6c79206f776e65722063616e207570677261646520696d706c656d656e7460448201526430ba34b7b760d91b606482015260840161087c565b7f4910fdfa16fed3260ed0e7147f7cc6da11a60208b5b9406d12a635614ffd91435460ff16156118b3576116c5836120c8565b826001600160a01b03166352d1902d6040518163ffffffff1660e01b815260040160206040518083038186803b1580156118ec57600080fd5b505afa92505050801561191c575060408051601f3d908101601f1916820190925261191991810190612f82565b60015b61197f5760405162461bcd60e51b815260206004820152602e60248201527f45524331393637557067726164653a206e657720696d706c656d656e7461746960448201526d6f6e206973206e6f74205555505360901b606482015260840161087c565b60008051602061326383398151915281146119ee5760405162461bcd60e51b815260206004820152602960248201527f45524331393637557067726164653a20756e737570706f727465642070726f786044820152681a58589b195555525160ba1b606482015260840161087c565b50611216838383612164565b8154600090815b81811015611a6c576000611a158284612189565b905084868281548110611a3857634e487b7160e01b600052603260045260246000fd5b60009182526020909120015463ffffffff161115611a5857809250611a66565b611a63816001613167565b91505b50611a01565b8115611abe5784611a7e6001846131be565b81548110611a9c57634e487b7160e01b600052603260045260246000fd5b60009182526020909120015464010000000090046001600160e01b0316611ac1565b60005b6001600160e01b031695945050505050565b6000611ade83610c25565b90506000611b01846001600160a01b031660009081526097602052604090205490565b6001600160a01b038581166000818152610130602052604080822080546001600160a01b031916898616908117909155905194955093928616927f3134e8a2e6d97e929a7e54011ea5485d7d196dd5f0ba4d4ef95803e8e3fc257f9190a461166e8284836121a4565b600063ffffffff821115611bcf5760405162461bcd60e51b815260206004820152602660248201527f53616665436173743a2076616c756520646f65736e27742066697420696e203360448201526532206269747360d01b606482015260840161087c565b5090565b61019480546001600160a01b038381166001600160a01b0319831681179093556040519116919082907f8be0079c531659141344cd1fd0a4f28419497f9722a3daafe3b4186f6b6457e090600090a35050565b60006bffffffffffffffffffffffff821115611bcf5760405162461bcd60e51b815260206004820152602660248201527f53616665436173743a2076616c756520646f65736e27742066697420696e203960448201526536206269747360d01b606482015260840161087c565b6000610dc7611ca061178d565b8360405161190160f01b6020820152602281018390526042810182905260009060620160405160208183030381529060405280519060200120905092915050565b6000806000611cf2878787876122e3565b91509150611cff816123d0565b5095945050505050565b6001600160a01b038116600090815260fd602052604090208054600181018255905b50919050565b60008054610100900460ff1615611d78578160ff166001148015611d545750303b155b611d705760405162461bcd60e51b815260040161087c90613099565b506000610c42565b60005460ff808416911610611d9f5760405162461bcd60e51b815260040161087c90613099565b506000805460ff191660ff83161790556001610c42565b600054610100900460ff16611ddd5760405162461bcd60e51b815260040161087c9061311c565b610e026125d3565b600054610100900460ff16611e0c5760405162461bcd60e51b815260040161087c9061311c565b610b6e8282612603565b600054610100900460ff16611e3d5760405162461bcd60e51b815260040161087c9061311c565b61091981604051806040016040528060018152602001603160f81b815250612651565b600054610100900460ff16610e025760405162461bcd60e51b815260040161087c9061311c565b600054610100900460ff16611eae5760405162461bcd60e51b815260040161087c9061311c565b6101c6805460ff19169055565b610b6e8282612692565b6001600160a01b038316611f295760405162461bcd60e51b815260206004820152602560248201527f45524332303a207472616e736665722066726f6d20746865207a65726f206164604482015264647265737360d81b606482015260840161087c565b6001600160a01b038216611f8b5760405162461bcd60e51b815260206004820152602360248201527f45524332303a207472616e7366657220746f20746865207a65726f206164647260448201526265737360e81b606482015260840161087c565b611f9683838361271d565b6001600160a01b0383166000908152609760205260409020548181101561200e5760405162461bcd60e51b815260206004820152602660248201527f45524332303a207472616e7366657220616d6f756e7420657863656564732062604482015265616c616e636560d01b606482015260840161087c565b6001600160a01b03808516600090815260976020526040808220858503905591851681529081208054849290612045908490613167565b92505081905550826001600160a01b0316846001600160a01b03167fddf252ad1be2c89b69c2b068fc378daa952ba7f163c4a11628f55a4df523b3ef8460405161209191815260200190565b60405180910390a361166e848484612784565b600061081d828461319f565b600061081d828461317f565b600061081d82846131be565b6001600160a01b0381163b6121355760405162461bcd60e51b815260206004820152602d60248201527f455243313936373a206e657720696d706c656d656e746174696f6e206973206e60448201526c1bdd08184818dbdb9d1c9858dd609a1b606482015260840161087c565b60008051602061326383398151915280546001600160a01b0319166001600160a01b0392909216919091179055565b61216d8361278f565b60008251118061217a5750805b156112165761166e83836127cf565b6000612198600284841861317f565b61081d90848416613167565b816001600160a01b0316836001600160a01b0316141580156121c65750600081115b15611216576001600160a01b03831615612255576001600160a01b0383166000908152610131602052604081208190612202906120bc856128c3565b91509150846001600160a01b03167fdec2bacdd2f05b59de34da9b523dff8be42e5e38e818c82fdb0bae774387a724838360405161224a929190918252602082015260400190565b60405180910390a250505b6001600160a01b03821615611216576001600160a01b038216600090815261013160205260408120819061228c90612a74856128c3565b91509150836001600160a01b03167fdec2bacdd2f05b59de34da9b523dff8be42e5e38e818c82fdb0bae774387a72483836040516122d4929190918252602082015260400190565b60405180910390a25050505050565b6000807f7fffffffffffffffffffffffffffffff5d576e7357a4501ddfe92f46681b20a083111561231a57506000905060036123c7565b8460ff16601b1415801561233257508460ff16601c14155b1561234357506000905060046123c7565b6040805160008082526020820180845289905260ff881692820192909252606081018690526080810185905260019060a0016020604051602081039080840390855afa158015612397573d6000803e3d6000fd5b5050604051601f1901519150506001600160a01b0381166123c0576000600192509250506123c7565b9150600090505b94509492505050565b60008160048111156123f257634e487b7160e01b600052602160045260246000fd5b14156123fd57610919565b600181600481111561241f57634e487b7160e01b600052602160045260246000fd5b141561246d5760405162461bcd60e51b815260206004820152601860248201527f45434453413a20696e76616c6964207369676e61747572650000000000000000604482015260640161087c565b600281600481111561248f57634e487b7160e01b600052602160045260246000fd5b14156124dd5760405162461bcd60e51b815260206004820152601f60248201527f45434453413a20696e76616c6964207369676e6174757265206c656e67746800604482015260640161087c565b60038160048111156124ff57634e487b7160e01b600052602160045260246000fd5b14156125585760405162461bcd60e51b815260206004820152602260248201527f45434453413a20696e76616c6964207369676e6174757265202773272076616c604482015261756560f01b606482015260840161087c565b600481600481111561257a57634e487b7160e01b600052602160045260246000fd5b14156109195760405162461bcd60e51b815260206004820152602260248201527f45434453413a20696e76616c6964207369676e6174757265202776272076616c604482015261756560f01b606482015260840161087c565b600054610100900460ff166125fa5760405162461bcd60e51b815260040161087c9061311c565b610e0233611bd3565b600054610100900460ff1661262a5760405162461bcd60e51b815260040161087c9061311c565b815161263d90609a906020850190612c30565b50805161121690609b906020840190612c30565b600054610100900460ff166126785760405162461bcd60e51b815260040161087c9061311c565b81516020928301208151919092012060c99190915560ca55565b61269c8282612a80565b6099546001600160e01b03101561270e5760405162461bcd60e51b815260206004820152603060248201527f4552433230566f7465733a20746f74616c20737570706c79207269736b73206f60448201526f766572666c6f77696e6720766f74657360801b606482015260840161087c565b61166e610132612a74836128c3565b6101c65460ff16156112165760405162461bcd60e51b815260206004820152602a60248201527f45524332305061757361626c653a20746f6b656e207472616e736665722077686044820152691a5b19481c185d5cd95960b21b606482015260840161087c565b611216838383612b73565b612798816120c8565b6040516001600160a01b038216907fbc7cd75a20ee27fd9adebab32041f755214dbc6bffa90cc0225b39da2e5c2d3b90600090a250565b60606001600160a01b0383163b6128375760405162461bcd60e51b815260206004820152602660248201527f416464726573733a2064656c65676174652063616c6c20746f206e6f6e2d636f6044820152651b9d1c9858dd60d21b606482015260840161087c565b600080846001600160a01b0316846040516128529190612fb2565b600060405180830381855af49150503d806000811461288d576040519150601f19603f3d011682016040523d82523d6000602084013e612892565b606091505b50915091506128ba828260405180606001604052806027815260200161328360279139612b8e565b95945050505050565b82546000908190801561291c57856128dc6001836131be565b815481106128fa57634e487b7160e01b600052603260045260246000fd5b60009182526020909120015464010000000090046001600160e01b031661291f565b60005b6001600160e01b0316925061293883858763ffffffff16565b9150600081118015612984575043866129526001846131be565b8154811061297057634e487b7160e01b600052603260045260246000fd5b60009182526020909120015463ffffffff16145b156129f25761299282612bc7565b8661299e6001846131be565b815481106129bc57634e487b7160e01b600052603260045260246000fd5b9060005260206000200160000160046101000a8154816001600160e01b0302191690836001600160e01b03160217905550612a6b565b856040518060400160405280612a0743611b6a565b63ffffffff168152602001612a1b85612bc7565b6001600160e01b039081169091528254600181018455600093845260209384902083519101805493909401519091166401000000000263ffffffff91821663ffffffff1990931692909217161790555b50935093915050565b600061081d8284613167565b6001600160a01b038216612ad65760405162461bcd60e51b815260206004820152601f60248201527f45524332303a206d696e7420746f20746865207a65726f206164647265737300604482015260640161087c565b612ae26000838361271d565b8060996000828254612af49190613167565b90915550506001600160a01b03821660009081526097602052604081208054839290612b21908490613167565b90915550506040518181526001600160a01b038316906000907fddf252ad1be2c89b69c2b068fc378daa952ba7f163c4a11628f55a4df523b3ef9060200160405180910390a3610b6e60008383612784565b611216612b7f84610c25565b612b8884610c25565b836121a4565b60608315612b9d57508161081d565b825115612bad5782518084602001fd5b8160405162461bcd60e51b815260040161087c9190612fce565b60006001600160e01b03821115611bcf5760405162461bcd60e51b815260206004820152602760248201527f53616665436173743a2076616c756520646f65736e27742066697420696e20326044820152663234206269747360c81b606482015260840161087c565b828054612c3c90613201565b90600052602060002090601f016020900481019282612c5e5760008555612ca4565b82601f10612c7757805160ff1916838001178555612ca4565b82800160010185558215612ca4579182015b82811115612ca4578251825591602001919060010190612c89565b50611bcf9291505b80821115611bcf5760008155600101612cac565b80356001600160a01b0381168114610c4257600080fd5b803560ff81168114610c4257600080fd5b600060208284031215612cf9578081fd5b61081d82612cc0565b60008060408385031215612d14578081fd5b612d1d83612cc0565b9150612d2b60208401612cc0565b90509250929050565b600080600060608486031215612d48578081fd5b612d5184612cc0565b9250612d5f60208501612cc0565b9150604084013590509250925092565b600080600080600080600060e0888a031215612d89578283fd5b612d9288612cc0565b9650612da060208901612cc0565b95506040880135945060608801359350612dbc60808901612cd7565b925060a0880135915060c0880135905092959891949750929550565b60008060408385031215612dea578182fd5b612df383612cc0565b915060208301358015158114612e07578182fd5b809150509250929050565b60008060408385031215612e24578182fd5b612e2d83612cc0565b9150602083013567ffffffffffffffff80821115612e49578283fd5b818501915085601f830112612e5c578283fd5b813581811115612e6e57612e6e61324c565b604051601f8201601f19908116603f01168101908382118183101715612e9657612e9661324c565b81604052828152886020848701011115612eae578586fd5b82602086016020830137856020848301015280955050505050509250929050565b60008060408385031215612ee1578182fd5b612eea83612cc0565b946020939093013593505050565b60008060008060008060c08789031215612f10578182fd5b612f1987612cc0565b95506020870135945060408701359350612f3560608801612cd7565b92506080870135915060a087013590509295509295509295565b60008060408385031215612f61578182fd5b612f6a83612cc0565b9150602083013563ffffffff81168114612e07578182fd5b600060208284031215612f93578081fd5b5051919050565b600060208284031215612fab578081fd5b5035919050565b60008251612fc48184602087016131d5565b9190910192915050565b6000602082528251806020840152612fed8160408501602087016131d5565b601f01601f19169190910160400192915050565b6020808252602c908201527f46756e6374696f6e206d7573742062652063616c6c6564207468726f7567682060408201526b19195b1959d85d1958d85b1b60a21b606082015260800190565b6020808252602c908201527f46756e6374696f6e206d7573742062652063616c6c6564207468726f7567682060408201526b6163746976652070726f787960a01b606082015260800190565b6020808252602e908201527f496e697469616c697a61626c653a20636f6e747261637420697320616c72656160408201526d191e481a5b9a5d1a585b1a5e995960921b606082015260800190565b6020808252818101527f4f776e61626c653a2063616c6c6572206973206e6f7420746865206f776e6572604082015260600190565b6020808252602b908201527f496e697469616c697a61626c653a20636f6e7472616374206973206e6f74206960408201526a6e697469616c697a696e6760a81b606082015260800190565b6000821982111561317a5761317a613236565b500190565b60008261319a57634e487b7160e01b81526012600452602481fd5b500490565b60008160001904831182151516156131b9576131b9613236565b500290565b6000828210156131d0576131d0613236565b500390565b60005b838110156131f05781810151838201526020016131d8565b8381111561166e5750506000910152565b60028104600182168061321557607f821691505b60208210811415611d2b57634e487b7160e01b600052602260045260246000fd5b634e487b7160e01b600052601160045260246000fd5b634e487b7160e01b600052604160045260246000fdfe360894a13ba1a3210667c828492db98dca3e2076cc3735a920a3ca505d382bbc416464726573733a206c6f772d6c6576656c2064656c65676174652063616c6c206661696c6564a2646970667358221220f3a92419f97689710814529b018e1c82ede3dc04fb76f0777fd2cd3e4881db2864736f6c63430008020033",
  "linkReferences": {},
  "deployedLinkReferences": {}
}