{
  "_format": "hh-sol-artifact-1",
  "contractName": "Good",
  "sourceName": "contracts/good.sol",
  "abi": [
    {
      "anonymous": false,
      "inputs": [
        {
          "indexed": false,
          "internalType": "address",
          "name": "previousAdmin",
          "type": "address"
        },
        {
          "indexed": false,
          "internalType": "address",
          "name": "newAdmin",
          "type": "address"
        }
      ],
      "name": "AdminChanged",
      "type": "event"
    },
    {
      "anonymous": false,
      "inputs": [
        {
          "indexed": true,
          "internalType": "address",
          "name": "owner",
          "type": "address"
        },
        {
          "indexed": true,
          "internalType": "address",
          "name": "spender",
          "type": "address"
        },
        {
          "indexed": false,
          "internalType": "uint256",
          "name": "value",
          "type": "uint256"
        }
      ],
      "name": "Approval",
      "type": "event"
    },
    {
      "anonymous": false,
      "inputs": [
        {
          "indexed": true,
          "internalType": "address",
          "name": "beacon",
          "type": "address"
        }
      ],
      "name": "BeaconUpgraded",
      "type": "event"
    },
    {
      "anonymous": false,
      "inputs": [
        {
          "indexed": true,
          "internalType": "address",
          "name": "delegator",
          "type": "address"
        },
        {
          "indexed": true,
          "internalType": "address",
          "name": "fromDelegate",
          "type": "address"
        },
        {
          "indexed": true,
          "internalType": "address",
          "name": "toDelegate",
          "type": "address"
        }
      ],
      "name": "DelegateChanged",
      "type": "event"
    },
    {
      "anonymous": false,
      "inputs": [
        {
          "indexed": true,
          "internalType": "address",
          "name": "delegate",
          "type": "address"
        },
        {
          "indexed": false,
          "internalType": "uint256",
          "name": "previousBalance",
          "type": "uint256"
        },
        {
          "indexed": false,
          "internalType": "uint256",
          "name": "newBalance",
          "type": "uint256"
        }
      ],
      "name": "DelegateVotesChanged",
      "type": "event"
    },
    {
      "anonymous": false,
      "inputs": [
        {
          "indexed": false,
          "internalType": "uint256",
          "name": "feeAmount",
          "type": "uint256"
        }
      ],
      "name": "FeeUpdated",
      "type": "event"
    },
    {
      "anonymous": false,
      "inputs": [
        {
          "indexed": false,
          "internalType": "uint8",
          "name": "version",
          "type": "uint8"
        }
      ],
      "name": "Initialized",
      "type": "event"
    },
    {
      "anonymous": false,
      "inputs": [
        {
          "indexed": true,
          "internalType": "address",
          "name": "previousOwner",
          "type": "address"
        },
        {
          "indexed": true,
          "internalType": "address",
          "name": "newOwner",
          "type": "address"
        }
      ],
      "name": "OwnershipTransferred",
      "type": "event"
    },
    {
      "anonymous": false,
      "inputs": [
        {
          "indexed": false,
          "internalType": "address",
          "name": "account",
          "type": "address"
        }
      ],
      "name": "Paused",
      "type": "event"
    },
    {
      "anonymous": false,
      "inputs": [
        {
          "indexed": true,
          "internalType": "address",
          "name": "from",
          "type": "address"
        },
        {
          "indexed": true,
          "internalType": "address",
          "name": "to",
          "type": "address"
        },
        {
          "indexed": false,
          "internalType": "uint256",
          "name": "value",
          "type": "uint256"
        }
      ],
      "name": "Transfer",
      "type": "event"
    },
    {
      "anonymous": false,
      "inputs": [
        {
          "indexed": false,
          "internalType": "address",
          "name": "newTreasury",
          "type": "address"
        }
      ],
      "name": "TreasuryAddressUpdated",
      "type": "event"
    },
    {
      "anonymous": false,
      "inputs": [
        {
          "indexed": false,
          "internalType": "address",
          "name": "account",
          "type": "address"
        }
      ],
      "name": "Unpaused",
      "type": "event"
    },
    {
      "anonymous": false,
      "inputs": [
        {
          "indexed": true,
          "internalType": "address",
          "name": "implementation",
          "type": "address"
        }
      ],
      "name": "Upgraded",
      "type": "event"
    },
    {
      "anonymous": false,
      "inputs": [
        {
          "indexed": false,
          "internalType": "address",
          "name": "whitelistAccount",
          "type": "address"
        },
        {
          "indexed": false,
          "internalType": "bool",
          "name": "value",
          "type": "bool"
        }
      ],
      "name": "WhitelistAddressUpdated",
      "type": "event"
    },
    {
      "inputs": [],
      "name": "DOMAIN_SEPARATOR",
      "outputs": [
        {
          "internalType": "bytes32",
          "name": "",
          "type": "bytes32"
        }
      ],
      "stateMutability": "view",
      "type": "function"
    },
    {
      "inputs": [
        {
          "internalType": "address",
          "name": "owner",
          "type": "address"
        },
        {
          "internalType": "address",
          "name": "spender",
          "type": "address"
        }
      ],
      "name": "allowance",
      "outputs": [
        {
          "internalType": "uint256",
          "name": "",
          "type": "uint256"
        }
      ],
      "stateMutability": "view",
      "type": "function"
    },
    {
      "inputs": [
        {
          "internalType": "address",
          "name": "spender",
          "type": "address"
        },
        {
          "internalType": "uint256",
          "name": "amount",
          "type": "uint256"
        }
      ],
      "name": "approve",
      "outputs": [
        {
          "internalType": "bool",
          "name": "",
          "type": "bool"
        }
      ],
      "stateMutability": "nonpayable",
      "type": "function"
    },
    {
      "inputs": [
        {
          "internalType": "address",
          "name": "account",
          "type": "address"
        }
      ],
      "name": "balanceOf",
      "outputs": [
        {
          "internalType": "uint256",
          "name": "",
          "type": "uint256"
        }
      ],
      "stateMutability": "view",
      "type": "function"
    },
    {
      "inputs": [
        {
          "internalType": "address",
          "name": "account",
          "type": "address"
        },
        {
          "internalType": "uint32",
          "name": "pos",
          "type": "uint32"
        }
      ],
      "name": "checkpoints",
      "outputs": [
        {
          "components": [
            {
              "internalType": "uint32",
              "name": "fromBlock",
              "type": "uint32"
            },
            {
              "internalType": "uint224",
              "name": "votes",
              "type": "uint224"
            }
          ],
          "internalType": "struct ERC20VotesUpgradeable.Checkpoint",
          "name": "",
          "type": "tuple"
        }
      ],
      "stateMutability": "view",
      "type": "function"
    },
    {
      "inputs": [],
      "name": "decimals",
      "outputs": [
        {
          "internalType": "uint8",
          "name": "",
          "type": "uint8"
        }
      ],
      "stateMutability": "view",
      "type": "function"
    },
    {
      "inputs": [
        {
          "internalType": "address",
          "name": "spender",
          "type": "address"
        },
        {
          "internalType": "uint256",
          "name": "subtractedValue",
          "type": "uint256"
        }
      ],
      "name": "decreaseAllowance",
      "outputs": [
        {
          "internalType": "bool",
          "name": "",
          "type": "bool"
        }
      ],
      "stateMutability": "nonpayable",
      "type": "function"
    },
    {
      "inputs": [
        {
          "internalType": "address",
          "name": "delegatee",
          "type": "address"
        }
      ],
      "name": "delegate",
      "outputs": [],
      "stateMutability": "nonpayable",
      "type": "function"
    },
    {
      "inputs": [
        {
          "internalType": "address",
          "name": "delegatee",
          "type": "address"
        },
        {
          "internalType": "uint256",
          "name": "nonce",
          "type": "uint256"
        },
        {
          "internalType": "uint256",
          "name": "expiry",
          "type": "uint256"
        },
        {
          "internalType": "uint8",
          "name": "v",
          "type": "uint8"
        },
        {
          "internalType": "bytes32",
          "name": "r",
          "type": "bytes32"
        },
        {
          "internalType": "bytes32",
          "name": "s",
          "type": "bytes32"
        }
      ],
      "name": "delegateBySig",
      "outputs": [],
      "stateMutability": "nonpayable",
      "type": "function"
    },
    {
      "inputs": [
        {
          "internalType": "address",
          "name": "account",
          "type": "address"
        }
      ],
      "name": "delegates",
      "outputs": [
        {
          "internalType": "address",
          "name": "",
          "type": "address"
        }
      ],
      "stateMutability": "view",
      "type": "function"
    },
    {
      "inputs": [],
      "name": "fee",
      "outputs": [
        {
          "internalType": "uint256",
          "name": "",
          "type": "uint256"
        }
      ],
      "stateMutability": "view",
      "type": "function"
    },
    {
      "inputs": [
        {
          "internalType": "address",
          "name": "account",
          "type": "address"
        }
      ],
      "name": "getCurrentVotes",
      "outputs": [
        {
          "internalType": "uint96",
          "name": "",
          "type": "uint96"
        }
      ],
      "stateMutability": "view",
      "type": "function"
    },
    {
      "inputs": [
        {
          "internalType": "uint256",
          "name": "blockNumber",
          "type": "uint256"
        }
      ],
      "name": "getPastTotalSupply",
      "outputs": [
        {
          "internalType": "uint256",
          "name": "",
          "type": "uint256"
        }
      ],
      "stateMutability": "view",
      "type": "function"
    },
    {
      "inputs": [
        {
          "internalType": "address",
          "name": "account",
          "type": "address"
        },
        {
          "internalType": "uint256",
          "name": "blockNumber",
          "type": "uint256"
        }
      ],
      "name": "getPastVotes",
      "outputs": [
        {
          "internalType": "uint256",
          "name": "",
          "type": "uint256"
        }
      ],
      "stateMutability": "view",
      "type": "function"
    },
    {
      "inputs": [
        {
          "internalType": "address",
          "name": "account",
          "type": "address"
        },
        {
          "internalType": "uint256",
          "name": "blockNumber",
          "type": "uint256"
        }
      ],
      "name": "getPriorVotes",
      "outputs": [
        {
          "internalType": "uint96",
          "name": "",
          "type": "uint96"
        }
      ],
      "stateMutability": "view",
      "type": "function"
    },
    {
      "inputs": [
        {
          "internalType": "address",
          "name": "account",
          "type": "address"
        }
      ],
      "name": "getVotes",
      "outputs": [
        {
          "internalType": "uint256",
          "name": "",
          "type": "uint256"
        }
      ],
      "stateMutability": "view",
      "type": "function"
    },
    {
      "inputs": [
        {
          "internalType": "address",
          "name": "spender",
          "type": "address"
        },
        {
          "internalType": "uint256",
          "name": "addedValue",
          "type": "uint256"
        }
      ],
      "name": "increaseAllowance",
      "outputs": [
        {
          "internalType": "bool",
          "name": "",
          "type": "bool"
        }
      ],
      "stateMutability": "nonpayable",
      "type": "function"
    },
    {
      "inputs": [
        {
          "internalType": "address",
          "name": "initialHolder",
          "type": "address"
        },
        {
          "internalType": "uint256",
          "name": "initialSupply",
          "type": "uint256"
        }
      ],
      "name": "initialize",
      "outputs": [],
      "stateMutability": "nonpayable",
      "type": "function"
    },
    {
      "inputs": [],
      "name": "name",
      "outputs": [
        {
          "internalType": "string",
          "name": "",
          "type": "string"
        }
      ],
      "stateMutability": "view",
      "type": "function"
    },
    {
      "inputs": [
        {
          "internalType": "address",
          "name": "owner",
          "type": "address"
        }
      ],
      "name": "nonces",
      "outputs": [
        {
          "internalType": "uint256",
          "name": "",
          "type": "uint256"
        }
      ],
      "stateMutability": "view",
      "type": "function"
    },
    {
      "inputs": [
        {
          "internalType": "address",
          "name": "account",
          "type": "address"
        }
      ],
      "name": "numCheckpoints",
      "outputs": [
        {
          "internalType": "uint32",
          "name": "",
          "type": "uint32"
        }
      ],
      "stateMutability": "view",
      "type": "function"
    },
    {
      "inputs": [],
      "name": "owner",
      "outputs": [
        {
          "internalType": "address",
          "name": "",
          "type": "address"
        }
      ],
      "stateMutability": "view",
      "type": "function"
    },
    {
      "inputs": [],
      "name": "paused",
      "outputs": [
        {
          "internalType": "bool",
          "name": "",
          "type": "bool"
        }
      ],
      "stateMutability": "view",
      "type": "function"
    },
    {
      "inputs": [
        {
          "internalType": "address",
          "name": "owner",
          "type": "address"
        },
        {
          "internalType": "address",
          "name": "spender",
          "type": "address"
        },
        {
          "internalType": "uint256",
          "name": "value",
          "type": "uint256"
        },
        {
          "internalType": "uint256",
          "name": "deadline",
          "type": "uint256"
        },
        {
          "internalType": "uint8",
          "name": "v",
          "type": "uint8"
        },
        {
          "internalType": "bytes32",
          "name": "r",
          "type": "bytes32"
        },
        {
          "internalType": "bytes32",
          "name": "s",
          "type": "bytes32"
        }
      ],
      "name": "permit",
      "outputs": [],
      "stateMutability": "nonpayable",
      "type": "function"
    },
    {
      "inputs": [],
      "name": "proxiableUUID",
      "outputs": [
        {
          "internalType": "bytes32",
          "name": "",
          "type": "bytes32"
        }
      ],
      "stateMutability": "view",
      "type": "function"
    },
    {
      "inputs": [],
      "name": "renounceOwnership",
      "outputs": [],
      "stateMutability": "nonpayable",
      "type": "function"
    },
    {
      "inputs": [
        {
          "internalType": "uint256",
          "name": "_fee",
          "type": "uint256"
        }
      ],
      "name": "setFee",
      "outputs": [],
      "stateMutability": "nonpayable",
      "type": "function"
    },
    {
      "inputs": [
        {
          "internalType": "address",
          "name": "_treasury",
          "type": "address"
        }
      ],
      "name": "setTreasuryAddress",
      "outputs": [],
      "stateMutability": "nonpayable",
      "type": "function"
    },
    {
      "inputs": [
        {
          "internalType": "address",
          "name": "_whitelist",
          "type": "address"
        },
        {
          "internalType": "bool",
          "name": "_status",
          "type": "bool"
        }
      ],
      "name": "setWhitelistAddress",
      "outputs": [],
      "stateMutability": "nonpayable",
      "type": "function"
    },
    {
      "inputs": [],
      "name": "symbol",
      "outputs": [
        {
          "internalType": "string",
          "name": "",
          "type": "string"
        }
      ],
      "stateMutability": "view",
      "type": "function"
    },
    {
      "inputs": [],
      "name": "totalSupply",
      "outputs": [
        {
          "internalType": "uint256",
          "name": "",
          "type": "uint256"
        }
      ],
      "stateMutability": "view",
      "type": "function"
    },
    {
      "inputs": [
        {
          "internalType": "address",
          "name": "to",
          "type": "address"
        },
        {
          "internalType": "uint256",
          "name": "amount",
          "type": "uint256"
        }
      ],
      "name": "transfer",
      "outputs": [
        {
          "internalType": "bool",
          "name": "",
          "type": "bool"
        }
      ],
      "stateMutability": "nonpayable",
      "type": "function"
    },
    {
      "inputs": [
        {
          "internalType": "address",
          "name": "from",
          "type": "address"
        },
        {
          "internalType": "address",
          "name": "to",
          "type": "address"
        },
        {
          "internalType": "uint256",
          "name": "amount",
          "type": "uint256"
        }
      ],
      "name": "transferFrom",
      "outputs": [
        {
          "internalType": "bool",
          "name": "",
          "type": "bool"
        }
      ],
      "stateMutability": "nonpayable",
      "type": "function"
    },
    {
      "inputs": [
        {
          "internalType": "address",
          "name": "newOwner",
          "type": "address"
        }
      ],
      "name": "transferOwnership",
      "outputs": [],
      "stateMutability": "nonpayable",
      "type": "function"
    },
    {
      "inputs": [],
      "name": "treasury",
      "outputs": [
        {
          "internalType": "address",
          "name": "",
          "type": "address"
        }
      ],
      "stateMutability": "view",
      "type": "function"
    },
    {
      "inputs": [
        {
          "internalType": "address",
          "name": "newImplementation",
          "type": "address"
        }
      ],
      "name": "upgradeTo",
      "outputs": [],
      "stateMutability": "nonpayable",
      "type": "function"
    },
    {
      "inputs": [
        {
          "internalType": "address",
          "name": "newImplementation",
          "type": "address"
        },
        {
          "internalType": "bytes",
          "name": "data",
          "type": "bytes"
        }
      ],
      "name": "upgradeToAndCall",
      "outputs": [],
      "stateMutability": "payable",
      "type": "function"
    },
    {
      "inputs": [
        {
          "internalType": "address",
          "name": "",
          "type": "address"
        }
      ],
      "name": "whitelistedAddress",
      "outputs": [
        {
          "internalType": "bool",
          "name": "",
          "type": "bool"
        }
      ],
      "stateMutability": "view",
      "type": "function"
    }
  ],
  "bytecode": "0x60a06040523060601b60805234801561001757600080fd5b5060805160601c61319a61005260003960008181610858015281816108a101528181610aa301528181610ae30152610b76015261319a6000f3fe6080604052600436106102255760003560e01c806370a0823111610123578063a9059cbb116100ab578063d505accf1161006f578063d505accf146106ad578063dd62ed3e146106cd578063ddca3f43146106ed578063f1127ed814610704578063f2fde38b1461074e57600080fd5b8063a9059cbb146105fc578063b4b5ea571461061c578063c30796ab1461063c578063c3cda5201461066d578063cd6dc6871461068d57600080fd5b80638da5cb5b116100f25780638da5cb5b146105685780638e539e8c1461058757806395d89b41146105a75780639ab24eb0146105bc578063a457c2d7146105dc57600080fd5b806370a08231146104c0578063715018a6146104f6578063782d6fe11461050b5780637ecebe001461054857600080fd5b80633f914aef116101b15780635c975abb116101755780635c975abb1461041157806361d027b31461042a5780636605bfda1461044b57806369fe0e2d1461046b5780636fcfff451461048b57600080fd5b80633f914aef146103575780634f1ef2861461037757806352d1902d1461038a578063587cde1e1461039f5780635c19a95c146103f157600080fd5b8063313ce567116101f8578063313ce567146102c45780633644e515146102e05780633659cfe6146102f557806339509351146103175780633a46b1a81461033757600080fd5b806306fdde031461022a578063095ea7b31461025557806318160ddd1461028557806323b872dd146102a4575b600080fd5b34801561023657600080fd5b5061023f61076e565b60405161024c9190612be6565b60405180910390f35b34801561026157600080fd5b50610275610270366004612c35565b610800565b604051901515815260200161024c565b34801561029157600080fd5b506099545b60405190815260200161024c565b3480156102b057600080fd5b506102756102bf366004612c5f565b610818565b3480156102d057600080fd5b506040516012815260200161024c565b3480156102ec57600080fd5b5061029661083e565b34801561030157600080fd5b50610315610310366004612c9b565b61084d565b005b34801561032357600080fd5b50610275610332366004612c35565b610936565b34801561034357600080fd5b50610296610352366004612c35565b610958565b34801561036357600080fd5b50610315610372366004612cb6565b6109cc565b610315610385366004612d08565b610a98565b34801561039657600080fd5b50610296610b69565b3480156103ab57600080fd5b506103d96103ba366004612c9b565b6001600160a01b03908116600090815261013060205260409020541690565b6040516001600160a01b03909116815260200161024c565b3480156103fd57600080fd5b5061031561040c366004612c9b565b610c1c565b34801561041d57600080fd5b506101c65460ff16610275565b34801561043657600080fd5b506101f8546103d9906001600160a01b031681565b34801561045757600080fd5b50610315610466366004612c9b565b610c26565b34801561047757600080fd5b50610315610486366004612dca565b610cf5565b34801561049757600080fd5b506104ab6104a6366004612c9b565b610d33565b60405163ffffffff909116815260200161024c565b3480156104cc57600080fd5b506102966104db366004612c9b565b6001600160a01b031660009081526097602052604090205490565b34801561050257600080fd5b50610315610d5c565b34801561051757600080fd5b5061052b610526366004612c35565b610d70565b6040516bffffffffffffffffffffffff909116815260200161024c565b34801561055457600080fd5b50610296610563366004612c9b565b610d84565b34801561057457600080fd5b50610194546001600160a01b03166103d9565b34801561059357600080fd5b506102966105a2366004612dca565b610da2565b3480156105b357600080fd5b5061023f610dff565b3480156105c857600080fd5b506102966105d7366004612c9b565b610e0e565b3480156105e857600080fd5b506102756105f7366004612c35565b610e97565b34801561060857600080fd5b50610275610617366004612c35565b610f1d565b34801561062857600080fd5b5061052b610637366004612c9b565b610f2b565b34801561064857600080fd5b50610275610657366004612c9b565b6101fa6020526000908152604090205460ff1681565b34801561067957600080fd5b50610315610688366004612df4565b610f39565b34801561069957600080fd5b506103156106a8366004612c35565b61106f565b3480156106b957600080fd5b506103156106c8366004612e4c565b611215565b3480156106d957600080fd5b506102966106e8366004612eb6565b611379565b3480156106f957600080fd5b506102966101f95481565b34801561071057600080fd5b5061072461071f366004612ee9565b6113a4565b60408051825163ffffffff1681526020928301516001600160e01b0316928101929092520161024c565b34801561075a57600080fd5b50610315610769366004612c9b565b611429565b6060609a805461077d90612f1e565b80601f01602080910402602001604051908101604052809291908181526020018280546107a990612f1e565b80156107f65780601f106107cb576101008083540402835291602001916107f6565b820191906000526020600020905b8154815290600101906020018083116107d957829003601f168201915b5050505050905090565b60003361080e81858561149f565b5060019392505050565b6000336108268582856115c3565b61083185858561163d565b60019150505b9392505050565b6000610848611751565b905090565b306001600160a01b037f000000000000000000000000000000000000000000000000000000000000000016141561089f5760405162461bcd60e51b815260040161089690612f53565b60405180910390fd5b7f00000000000000000000000000000000000000000000000000000000000000006001600160a01b03166108e860008051602061311e833981519152546001600160a01b031690565b6001600160a01b03161461090e5760405162461bcd60e51b815260040161089690612f9f565b610917816117cc565b6040805160008082526020820190925261093391839190611844565b50565b60003361080e8185856109498383611379565b6109539190613001565b61149f565b60004382106109a95760405162461bcd60e51b815260206004820152601f60248201527f4552433230566f7465733a20626c6f636b206e6f7420796574206d696e6564006044820152606401610896565b6001600160a01b03831660009081526101316020526040902061083790836119be565b6109d4611a7b565b6001600160a01b038216610a345760405162461bcd60e51b815260206004820152602160248201527f73657457686974656c697374416464726573733a205a65726f206164647265736044820152607360f81b6064820152608401610896565b6001600160a01b03821660008181526101fa6020908152604091829020805460ff19168515159081179091558251938452908301527fc03feb136ee85ef1974671b8c663f063c37bc61afb187b94ddfb1a959d73d180910160405180910390a15050565b306001600160a01b037f0000000000000000000000000000000000000000000000000000000000000000161415610ae15760405162461bcd60e51b815260040161089690612f53565b7f00000000000000000000000000000000000000000000000000000000000000006001600160a01b0316610b2a60008051602061311e833981519152546001600160a01b031690565b6001600160a01b031614610b505760405162461bcd60e51b815260040161089690612f9f565b610b59826117cc565b610b6582826001611844565b5050565b6000306001600160a01b037f00000000000000000000000000000000000000000000000000000000000000001614610c095760405162461bcd60e51b815260206004820152603860248201527f555550535570677261646561626c653a206d757374206e6f742062652063616c60448201527f6c6564207468726f7567682064656c656761746563616c6c00000000000000006064820152608401610896565b5060008051602061311e83398151915290565b6109333382611ad6565b610c2e611a7b565b6001600160a01b038116610c845760405162461bcd60e51b815260206004820181905260248201527f7365745472656173757279416464726573733a205a65726f20616464726573736044820152606401610896565b6101f880546001600160a01b0319166001600160a01b03831690811790915560008181526101fa6020908152604091829020805460ff1916600117905590519182527fb6a5e89655cf506139085f051af608195ed056f8dc550b180a1c38d401e2b6c491015b60405180910390a150565b610cfd611a7b565b6101f98190556040518181527f8c4d35e54a3f2ef1134138fd8ea3daee6a3c89e10d2665996babdf70261e2c7690602001610cea565b6001600160a01b03811660009081526101316020526040812054610d5690611b51565b92915050565b610d64611a7b565b610d6e6000611bba565b565b6000610837610d7f8484610958565b611c0d565b6001600160a01b038116600090815260fd6020526040812054610d56565b6000438210610df35760405162461bcd60e51b815260206004820152601f60248201527f4552433230566f7465733a20626c6f636b206e6f7420796574206d696e6564006044820152606401610896565b610d56610132836119be565b6060609b805461077d90612f1e565b6001600160a01b038116600090815261013160205260408120548015610e84576001600160a01b038316600090815261013160205260409020610e52600183613019565b81548110610e6257610e62613030565b60009182526020909120015464010000000090046001600160e01b0316610e87565b60005b6001600160e01b03169392505050565b60003381610ea58286611379565b905083811015610f055760405162461bcd60e51b815260206004820152602560248201527f45524332303a2064656372656173656420616c6c6f77616e63652062656c6f77604482015264207a65726f60d81b6064820152608401610896565b610f12828686840361149f565b506001949350505050565b60003361080e81858561163d565b6000610d56610d7f83610e0e565b83421115610f895760405162461bcd60e51b815260206004820152601d60248201527f4552433230566f7465733a207369676e617475726520657870697265640000006044820152606401610896565b604080517fe48329057bfd03d55e49b547132e39cffd9c1820ad7b9d4c5307691425d15adf60208201526001600160a01b03881691810191909152606081018690526080810185905260009061100390610ffb9060a00160405160208183030381529060405280519060200120611c7a565b858585611cc8565b905061100e81611cf0565b861461105c5760405162461bcd60e51b815260206004820152601960248201527f4552433230566f7465733a20696e76616c6964206e6f6e6365000000000000006044820152606401610896565b6110668188611ad6565b50505050505050565b600054610100900460ff161580801561108f5750600054600160ff909116105b806110a95750303b1580156110a9575060005460ff166001145b61110c5760405162461bcd60e51b815260206004820152602e60248201527f496e697469616c697a61626c653a20636f6e747261637420697320616c72656160448201526d191e481a5b9a5d1a585b1a5e995960921b6064820152608401610896565b6000805460ff19166001179055801561112f576000805461ff0019166101001790555b611137611d18565b61117d60405180604001604052806008815260200167476f6f642044414f60c01b8152506040518060400160405280600481526020016311d3d3d160e21b815250611d47565b6111a26040518060400160405280600481526020016319dbdbd960e21b815250611d78565b6111aa611dc2565b6111b2611de9565b6111ba611dc2565b6111c48383611e1d565b60036101f9558015611210576000805461ff0019169055604051600181527f7f26b83ff96e1f2b6a682f133852f6798a09c465da95921460cefb38474024989060200160405180910390a15b505050565b834211156112655760405162461bcd60e51b815260206004820152601d60248201527f45524332305065726d69743a206578706972656420646561646c696e650000006044820152606401610896565b60007f6e71edae12b1b97f4d1f60370fef10105fa2faae0126114a169c64845d6126c98888886112948c611cf0565b6040805160208101969096526001600160a01b0394851690860152929091166060840152608083015260a082015260c0810186905260e00160405160208183030381529060405280519060200120905060006112ef82611c7a565b905060006112ff82878787611cc8565b9050896001600160a01b0316816001600160a01b0316146113625760405162461bcd60e51b815260206004820152601e60248201527f45524332305065726d69743a20696e76616c6964207369676e617475726500006044820152606401610896565b61136d8a8a8a61149f565b50505050505050505050565b6001600160a01b03918216600090815260986020908152604080832093909416825291909152205490565b60408051808201909152600080825260208201526001600160a01b038316600090815261013160205260409020805463ffffffff84169081106113e9576113e9613030565b60009182526020918290206040805180820190915291015463ffffffff8116825264010000000090046001600160e01b0316918101919091529392505050565b611431611a7b565b6001600160a01b0381166114965760405162461bcd60e51b815260206004820152602660248201527f4f776e61626c653a206e6577206f776e657220697320746865207a65726f206160448201526564647265737360d01b6064820152608401610896565b61093381611bba565b6001600160a01b0383166115015760405162461bcd60e51b8152602060048201526024808201527f45524332303a20617070726f76652066726f6d20746865207a65726f206164646044820152637265737360e01b6064820152608401610896565b6001600160a01b0382166115625760405162461bcd60e51b815260206004820152602260248201527f45524332303a20617070726f766520746f20746865207a65726f206164647265604482015261737360f01b6064820152608401610896565b6001600160a01b0383811660008181526098602090815260408083209487168084529482529182902085905590518481527f8c5be1e5ebec7d5bd14f71427d1e84f3dd0314c0f7b2291e5b200ac8c7c3b925910160405180910390a3505050565b60006115cf8484611379565b90506000198114611637578181101561162a5760405162461bcd60e51b815260206004820152601d60248201527f45524332303a20696e73756666696369656e7420616c6c6f77616e63650000006044820152606401610896565b611637848484840361149f565b50505050565b6001600160a01b03831660009081526101fa602052604090205460ff168061167e57506001600160a01b03821660009081526101fa602052604090205460ff165b1561168e57611210838383611e27565b60006116b26103e86116ac6101f9548561200690919063ffffffff16565b90612012565b6101f8549091506116ce9085906001600160a01b031683611e27565b6116e284846116dd858561201e565b611e27565b6101f860009054906101000a90046001600160a01b03166001600160a01b031663a1485f646040518163ffffffff1660e01b8152600401600060405180830381600087803b15801561173357600080fd5b505af1158015611747573d6000803e3d6000fd5b5050505050505050565b60006108487f8b73c3c69bb8fe3d512ecc4cf759cc79239f7b179b0ffacaa9a75d522b39400f61178060c95490565b60ca546040805160208101859052908101839052606081018290524660808201523060a082015260009060c0016040516020818303038152906040528051906020012090509392505050565b336117e0610194546001600160a01b031690565b6001600160a01b0316146109335760405162461bcd60e51b815260206004820152602560248201527f4f6e6c79206f776e65722063616e207570677261646520696d706c656d656e7460448201526430ba34b7b760d91b6064820152608401610896565b7f4910fdfa16fed3260ed0e7147f7cc6da11a60208b5b9406d12a635614ffd91435460ff1615611877576112108361202a565b826001600160a01b03166352d1902d6040518163ffffffff1660e01b815260040160206040518083038186803b1580156118b057600080fd5b505afa9250505080156118e0575060408051601f3d908101601f191682019092526118dd91810190613046565b60015b6119435760405162461bcd60e51b815260206004820152602e60248201527f45524331393637557067726164653a206e657720696d706c656d656e7461746960448201526d6f6e206973206e6f74205555505360901b6064820152608401610896565b60008051602061311e83398151915281146119b25760405162461bcd60e51b815260206004820152602960248201527f45524331393637557067726164653a20756e737570706f727465642070726f786044820152681a58589b195555525160ba1b6064820152608401610896565b506112108383836120c6565b8154600090815b81811015611a225760006119d982846120eb565b9050848682815481106119ee576119ee613030565b60009182526020909120015463ffffffff161115611a0e57809250611a1c565b611a19816001613001565b91505b506119c5565b8115611a665784611a34600184613019565b81548110611a4457611a44613030565b60009182526020909120015464010000000090046001600160e01b0316611a69565b60005b6001600160e01b031695945050505050565b610194546001600160a01b03163314610d6e5760405162461bcd60e51b815260206004820181905260248201527f4f776e61626c653a2063616c6c6572206973206e6f7420746865206f776e65726044820152606401610896565b6001600160a01b0382811660008181526101306020818152604080842080546097845282862054949093528787166001600160a01b03198416811790915590519190951694919391928592917f3134e8a2e6d97e929a7e54011ea5485d7d196dd5f0ba4d4ef95803e8e3fc257f9190a4611637828483612106565b600063ffffffff821115611bb65760405162461bcd60e51b815260206004820152602660248201527f53616665436173743a2076616c756520646f65736e27742066697420696e203360448201526532206269747360d01b6064820152608401610896565b5090565b61019480546001600160a01b038381166001600160a01b0319831681179093556040519116919082907f8be0079c531659141344cd1fd0a4f28419497f9722a3daafe3b4186f6b6457e090600090a35050565b60006bffffffffffffffffffffffff821115611bb65760405162461bcd60e51b815260206004820152602660248201527f53616665436173743a2076616c756520646f65736e27742066697420696e203960448201526536206269747360d01b6064820152608401610896565b6000610d56611c87611751565b8360405161190160f01b6020820152602281018390526042810182905260009060620160405160208183030381529060405280519060200120905092915050565b6000806000611cd987878787612245565b91509150611ce681612332565b5095945050505050565b6001600160a01b038116600090815260fd602052604090208054600181018255905b50919050565b600054610100900460ff16611d3f5760405162461bcd60e51b81526004016108969061305f565b610d6e6124ed565b600054610100900460ff16611d6e5760405162461bcd60e51b81526004016108969061305f565b610b65828261251d565b600054610100900460ff16611d9f5760405162461bcd60e51b81526004016108969061305f565b61093381604051806040016040528060018152602001603160f81b81525061256b565b600054610100900460ff16610d6e5760405162461bcd60e51b81526004016108969061305f565b600054610100900460ff16611e105760405162461bcd60e51b81526004016108969061305f565b6101c6805460ff19169055565b610b6582826125ac565b6001600160a01b038316611e8b5760405162461bcd60e51b815260206004820152602560248201527f45524332303a207472616e736665722066726f6d20746865207a65726f206164604482015264647265737360d81b6064820152608401610896565b6001600160a01b038216611eed5760405162461bcd60e51b815260206004820152602360248201527f45524332303a207472616e7366657220746f20746865207a65726f206164647260448201526265737360e81b6064820152608401610896565b611ef8838383612637565b6001600160a01b03831660009081526097602052604090205481811015611f705760405162461bcd60e51b815260206004820152602660248201527f45524332303a207472616e7366657220616d6f756e7420657863656564732062604482015265616c616e636560d01b6064820152608401610896565b6001600160a01b03808516600090815260976020526040808220858503905591851681529081208054849290611fa7908490613001565b92505081905550826001600160a01b0316846001600160a01b03167fddf252ad1be2c89b69c2b068fc378daa952ba7f163c4a11628f55a4df523b3ef84604051611ff391815260200190565b60405180910390a361163784848461269e565b600061083782846130aa565b600061083782846130c9565b60006108378284613019565b6001600160a01b0381163b6120975760405162461bcd60e51b815260206004820152602d60248201527f455243313936373a206e657720696d706c656d656e746174696f6e206973206e60448201526c1bdd08184818dbdb9d1c9858dd609a1b6064820152608401610896565b60008051602061311e83398151915280546001600160a01b0319166001600160a01b0392909216919091179055565b6120cf836126a9565b6000825111806120dc5750805b156112105761163783836126e9565b60006120fa60028484186130c9565b61083790848416613001565b816001600160a01b0316836001600160a01b0316141580156121285750600081115b15611210576001600160a01b038316156121b7576001600160a01b03831660009081526101316020526040812081906121649061201e856127dd565b91509150846001600160a01b03167fdec2bacdd2f05b59de34da9b523dff8be42e5e38e818c82fdb0bae774387a72483836040516121ac929190918252602082015260400190565b60405180910390a250505b6001600160a01b03821615611210576001600160a01b03821660009081526101316020526040812081906121ee90612956856127dd565b91509150836001600160a01b03167fdec2bacdd2f05b59de34da9b523dff8be42e5e38e818c82fdb0bae774387a7248383604051612236929190918252602082015260400190565b60405180910390a25050505050565b6000807f7fffffffffffffffffffffffffffffff5d576e7357a4501ddfe92f46681b20a083111561227c5750600090506003612329565b8460ff16601b1415801561229457508460ff16601c14155b156122a55750600090506004612329565b6040805160008082526020820180845289905260ff881692820192909252606081018690526080810185905260019060a0016020604051602081039080840390855afa1580156122f9573d6000803e3d6000fd5b5050604051601f1901519150506001600160a01b03811661232257600060019250925050612329565b9150600090505b94509492505050565b6000816004811115612346576123466130eb565b141561234f5750565b6001816004811115612363576123636130eb565b14156123b15760405162461bcd60e51b815260206004820152601860248201527f45434453413a20696e76616c6964207369676e617475726500000000000000006044820152606401610896565b60028160048111156123c5576123c56130eb565b14156124135760405162461bcd60e51b815260206004820152601f60248201527f45434453413a20696e76616c6964207369676e6174757265206c656e677468006044820152606401610896565b6003816004811115612427576124276130eb565b14156124805760405162461bcd60e51b815260206004820152602260248201527f45434453413a20696e76616c6964207369676e6174757265202773272076616c604482015261756560f01b6064820152608401610896565b6004816004811115612494576124946130eb565b14156109335760405162461bcd60e51b815260206004820152602260248201527f45434453413a20696e76616c6964207369676e6174757265202776272076616c604482015261756560f01b6064820152608401610896565b600054610100900460ff166125145760405162461bcd60e51b81526004016108969061305f565b610d6e33611bba565b600054610100900460ff166125445760405162461bcd60e51b81526004016108969061305f565b815161255790609a906020850190612b2a565b50805161121090609b906020840190612b2a565b600054610100900460ff166125925760405162461bcd60e51b81526004016108969061305f565b81516020928301208151919092012060c99190915560ca55565b6125b68282612962565b6099546001600160e01b0310156126285760405162461bcd60e51b815260206004820152603060248201527f4552433230566f7465733a20746f74616c20737570706c79207269736b73206f60448201526f766572666c6f77696e6720766f74657360801b6064820152608401610896565b611637610132612956836127dd565b6101c65460ff16156112105760405162461bcd60e51b815260206004820152602a60248201527f45524332305061757361626c653a20746f6b656e207472616e736665722077686044820152691a5b19481c185d5cd95960b21b6064820152608401610896565b611210838383612a55565b6126b28161202a565b6040516001600160a01b038216907fbc7cd75a20ee27fd9adebab32041f755214dbc6bffa90cc0225b39da2e5c2d3b90600090a250565b60606001600160a01b0383163b6127515760405162461bcd60e51b815260206004820152602660248201527f416464726573733a2064656c65676174652063616c6c20746f206e6f6e2d636f6044820152651b9d1c9858dd60d21b6064820152608401610896565b600080846001600160a01b03168460405161276c9190613101565b600060405180830381855af49150503d80600081146127a7576040519150601f19603f3d011682016040523d82523d6000602084013e6127ac565b606091505b50915091506127d4828260405180606001604052806027815260200161313e60279139612a88565b95945050505050565b82546000908190801561282857856127f6600183613019565b8154811061280657612806613030565b60009182526020909120015464010000000090046001600160e01b031661282b565b60005b6001600160e01b0316925061284483858763ffffffff16565b91506000811180156128825750438661285e600184613019565b8154811061286e5761286e613030565b60009182526020909120015463ffffffff16145b156128e25761289082612ac1565b8661289c600184613019565b815481106128ac576128ac613030565b9060005260206000200160000160046101000a8154816001600160e01b0302191690836001600160e01b0316021790555061294d565b8560405180604001604052806128f743611b51565b63ffffffff16815260200161290b85612ac1565b6001600160e01b0390811690915282546001810184556000938452602093849020835194909301519091166401000000000263ffffffff909316929092179101555b50935093915050565b60006108378284613001565b6001600160a01b0382166129b85760405162461bcd60e51b815260206004820152601f60248201527f45524332303a206d696e7420746f20746865207a65726f2061646472657373006044820152606401610896565b6129c460008383612637565b80609960008282546129d69190613001565b90915550506001600160a01b03821660009081526097602052604081208054839290612a03908490613001565b90915550506040518181526001600160a01b038316906000907fddf252ad1be2c89b69c2b068fc378daa952ba7f163c4a11628f55a4df523b3ef9060200160405180910390a3610b656000838361269e565b6001600160a01b038381166000908152610130602052604080822054858416835291205461121092918216911683612106565b60608315612a97575081610837565b825115612aa75782518084602001fd5b8160405162461bcd60e51b81526004016108969190612be6565b60006001600160e01b03821115611bb65760405162461bcd60e51b815260206004820152602760248201527f53616665436173743a2076616c756520646f65736e27742066697420696e20326044820152663234206269747360c81b6064820152608401610896565b828054612b3690612f1e565b90600052602060002090601f016020900481019282612b585760008555612b9e565b82601f10612b7157805160ff1916838001178555612b9e565b82800160010185558215612b9e579182015b82811115612b9e578251825591602001919060010190612b83565b50611bb69291505b80821115611bb65760008155600101612ba6565b60005b83811015612bd5578181015183820152602001612bbd565b838111156116375750506000910152565b6020815260008251806020840152612c05816040850160208701612bba565b601f01601f19169190910160400192915050565b80356001600160a01b0381168114612c3057600080fd5b919050565b60008060408385031215612c4857600080fd5b612c5183612c19565b946020939093013593505050565b600080600060608486031215612c7457600080fd5b612c7d84612c19565b9250612c8b60208501612c19565b9150604084013590509250925092565b600060208284031215612cad57600080fd5b61083782612c19565b60008060408385031215612cc957600080fd5b612cd283612c19565b915060208301358015158114612ce757600080fd5b809150509250929050565b634e487b7160e01b600052604160045260246000fd5b60008060408385031215612d1b57600080fd5b612d2483612c19565b9150602083013567ffffffffffffffff80821115612d4157600080fd5b818501915085601f830112612d5557600080fd5b813581811115612d6757612d67612cf2565b604051601f8201601f19908116603f01168101908382118183101715612d8f57612d8f612cf2565b81604052828152886020848701011115612da857600080fd5b8260208601602083013760006020848301015280955050505050509250929050565b600060208284031215612ddc57600080fd5b5035919050565b803560ff81168114612c3057600080fd5b60008060008060008060c08789031215612e0d57600080fd5b612e1687612c19565b95506020870135945060408701359350612e3260608801612de3565b92506080870135915060a087013590509295509295509295565b600080600080600080600060e0888a031215612e6757600080fd5b612e7088612c19565b9650612e7e60208901612c19565b95506040880135945060608801359350612e9a60808901612de3565b925060a0880135915060c0880135905092959891949750929550565b60008060408385031215612ec957600080fd5b612ed283612c19565b9150612ee060208401612c19565b90509250929050565b60008060408385031215612efc57600080fd5b612f0583612c19565b9150602083013563ffffffff81168114612ce757600080fd5b600181811c90821680612f3257607f821691505b60208210811415611d1257634e487b7160e01b600052602260045260246000fd5b6020808252602c908201527f46756e6374696f6e206d7573742062652063616c6c6564207468726f7567682060408201526b19195b1959d85d1958d85b1b60a21b606082015260800190565b6020808252602c908201527f46756e6374696f6e206d7573742062652063616c6c6564207468726f7567682060408201526b6163746976652070726f787960a01b606082015260800190565b634e487b7160e01b600052601160045260246000fd5b6000821982111561301457613014612feb565b500190565b60008282101561302b5761302b612feb565b500390565b634e487b7160e01b600052603260045260246000fd5b60006020828403121561305857600080fd5b5051919050565b6020808252602b908201527f496e697469616c697a61626c653a20636f6e7472616374206973206e6f74206960408201526a6e697469616c697a696e6760a81b606082015260800190565b60008160001904831182151516156130c4576130c4612feb565b500290565b6000826130e657634e487b7160e01b600052601260045260246000fd5b500490565b634e487b7160e01b600052602160045260246000fd5b60008251613113818460208701612bba565b919091019291505056fe360894a13ba1a3210667c828492db98dca3e2076cc3735a920a3ca505d382bbc416464726573733a206c6f772d6c6576656c2064656c65676174652063616c6c206661696c6564a2646970667358221220674778d3bd6e749702beb3747a1e83a332ce0b27b20c183d88dcd73d2937c35764736f6c63430008080033",
  "linkReferences": {},
  "deployedLinkReferences": {}
}