{
  "_format": "hh-sol-artifact-1",
  "contractName": "Treasury",
  "sourceName": "contracts/treasury.sol",
  "abi": [
    {
      "anonymous": false,
      "inputs": [
        {
          "indexed": false,
          "internalType": "address",
          "name": "previousAdmin",
          "type": "address"
        },
        {
          "indexed": false,
          "internalType": "address",
          "name": "newAdmin",
          "type": "address"
        }
      ],
      "name": "AdminChanged",
      "type": "event"
    },
    {
      "anonymous": false,
      "inputs": [
        {
          "indexed": true,
          "internalType": "address",
          "name": "beacon",
          "type": "address"
        }
      ],
      "name": "BeaconUpgraded",
      "type": "event"
    },
    {
      "anonymous": false,
      "inputs": [
        {
          "indexed": false,
          "internalType": "uint8",
          "name": "version",
          "type": "uint8"
        }
      ],
      "name": "Initialized",
      "type": "event"
    },
    {
      "anonymous": false,
      "inputs": [
        {
          "indexed": true,
          "internalType": "address",
          "name": "previousOwner",
          "type": "address"
        },
        {
          "indexed": true,
          "internalType": "address",
          "name": "newOwner",
          "type": "address"
        }
      ],
      "name": "OwnershipTransferred",
      "type": "event"
    },
    {
      "anonymous": false,
      "inputs": [
        {
          "indexed": false,
          "internalType": "address",
          "name": "account",
          "type": "address"
        }
      ],
      "name": "Paused",
      "type": "event"
    },
    {
      "anonymous": false,
      "inputs": [
        {
          "indexed": false,
          "internalType": "address",
          "name": "account",
          "type": "address"
        }
      ],
      "name": "Unpaused",
      "type": "event"
    },
    {
      "anonymous": false,
      "inputs": [
        {
          "indexed": true,
          "internalType": "address",
          "name": "implementation",
          "type": "address"
        }
      ],
      "name": "Upgraded",
      "type": "event"
    },
    {
      "inputs": [],
      "name": "DEAD_ADDRESS",
      "outputs": [
        {
          "internalType": "address",
          "name": "",
          "type": "address"
        }
      ],
      "stateMutability": "view",
      "type": "function"
    },
    {
      "inputs": [],
      "name": "dao",
      "outputs": [
        {
          "internalType": "address",
          "name": "",
          "type": "address"
        }
      ],
      "stateMutability": "view",
      "type": "function"
    },
    {
      "inputs": [],
      "name": "good",
      "outputs": [
        {
          "internalType": "address",
          "name": "",
          "type": "address"
        }
      ],
      "stateMutability": "view",
      "type": "function"
    },
    {
      "inputs": [
        {
          "internalType": "address",
          "name": "_good",
          "type": "address"
        },
        {
          "internalType": "address",
          "name": "_router",
          "type": "address"
        }
      ],
      "name": "initialize",
      "outputs": [],
      "stateMutability": "nonpayable",
      "type": "function"
    },
    {
      "inputs": [],
      "name": "owner",
      "outputs": [
        {
          "internalType": "address",
          "name": "",
          "type": "address"
        }
      ],
      "stateMutability": "view",
      "type": "function"
    },
    {
      "inputs": [],
      "name": "paused",
      "outputs": [
        {
          "internalType": "bool",
          "name": "",
          "type": "bool"
        }
      ],
      "stateMutability": "view",
      "type": "function"
    },
    {
      "inputs": [],
      "name": "proxiableUUID",
      "outputs": [
        {
          "internalType": "bytes32",
          "name": "",
          "type": "bytes32"
        }
      ],
      "stateMutability": "view",
      "type": "function"
    },
    {
      "inputs": [],
      "name": "renounceOwnership",
      "outputs": [],
      "stateMutability": "nonpayable",
      "type": "function"
    },
    {
      "inputs": [],
      "name": "router",
      "outputs": [
        {
          "internalType": "address",
          "name": "",
          "type": "address"
        }
      ],
      "stateMutability": "view",
      "type": "function"
    },
    {
      "inputs": [
        {
          "internalType": "address",
          "name": "_dao",
          "type": "address"
        }
      ],
      "name": "setDAOAddress",
      "outputs": [],
      "stateMutability": "nonpayable",
      "type": "function"
    },
    {
      "inputs": [],
      "name": "totalETH",
      "outputs": [
        {
          "internalType": "uint256",
          "name": "",
          "type": "uint256"
        }
      ],
      "stateMutability": "view",
      "type": "function"
    },
    {
      "inputs": [
        {
          "internalType": "address",
          "name": "newOwner",
          "type": "address"
        }
      ],
      "name": "transferOwnership",
      "outputs": [],
      "stateMutability": "nonpayable",
      "type": "function"
    },
    {
      "inputs": [
        {
          "internalType": "address",
          "name": "newImplementation",
          "type": "address"
        }
      ],
      "name": "upgradeTo",
      "outputs": [],
      "stateMutability": "nonpayable",
      "type": "function"
    },
    {
      "inputs": [
        {
          "internalType": "address",
          "name": "newImplementation",
          "type": "address"
        },
        {
          "internalType": "bytes",
          "name": "data",
          "type": "bytes"
        }
      ],
      "name": "upgradeToAndCall",
      "outputs": [],
      "stateMutability": "payable",
      "type": "function"
    },
    {
      "inputs": [],
      "name": "validatePayout",
      "outputs": [],
      "stateMutability": "nonpayable",
      "type": "function"
    }
  ],
  "bytecode": "0x60a06040523060601b60805234801561001757600080fd5b5060805160601c611971610052600039600081816102c8015281816103110152818161061f0152818161065f01526106f201526119716000f3fe6080604052600436106100e85760003560e01c80635c975abb1161008a578063a1485f6411610059578063a1485f6414610246578063aa8fb40b1461025b578063f2fde38b1461027c578063f887ea401461029c576100e8565b80635c975abb146101d0578063715018a6146101f35780638da5cb5b14610208578063965afa8914610226576100e8565b8063485cc955116100c6578063485cc955146101725780634e6fd6c4146101925780634f1ef286146101a857806352d1902d146101bb576100e8565b80633659cfe6146100ed57806336bdee741461010f5780634162169f14610139575b600080fd5b3480156100f957600080fd5b5061010d610108366004611401565b6102bd565b005b34801561011b57600080fd5b506101266101305481565b6040519081526020015b60405180910390f35b34801561014557600080fd5b5061012e5461015a906001600160a01b031681565b6040516001600160a01b039091168152602001610130565b34801561017e57600080fd5b5061010d61018d366004611439565b6103a6565b34801561019e57600080fd5b5061015a61dead81565b61010d6101b6366004611471565b610614565b3480156101c757600080fd5b506101266106e5565b3480156101dc57600080fd5b5060975460ff166040519015158152602001610130565b3480156101ff57600080fd5b5061010d610798565b34801561021457600080fd5b5060c9546001600160a01b031661015a565b34801561023257600080fd5b5061010d610241366004611401565b6107ce565b34801561025257600080fd5b5061010d610871565b34801561026757600080fd5b5061012d5461015a906001600160a01b031681565b34801561028857600080fd5b5061010d610297366004611401565b610b20565b3480156102a857600080fd5b5061012f5461015a906001600160a01b031681565b306001600160a01b037f000000000000000000000000000000000000000000000000000000000000000016141561030f5760405162461bcd60e51b815260040161030690611641565b60405180910390fd5b7f00000000000000000000000000000000000000000000000000000000000000006001600160a01b03166103586000805160206118f5833981519152546001600160a01b031690565b6001600160a01b03161461037e5760405162461bcd60e51b81526004016103069061168d565b61038781610bb8565b604080516000808252602082019092526103a391839190610c2f565b50565b60006103b26001610dae565b905080156103ca576000805461ff0019166101001790555b6001600160a01b0383166104205760405162461bcd60e51b815260206004820152601b60248201527f696e697469616c697a653a20496e76616c6964206164647265737300000000006044820152606401610306565b6001600160a01b0382166104765760405162461bcd60e51b815260206004820152601b60248201527f696e697469616c697a653a20496e76616c6964206164647265737300000000006044820152606401610306565b61012d80546001600160a01b038086166001600160a01b03199283161790925561012f8054928516929091169190911790556104b0610e34565b6104b8610e63565b6104c0610e92565b6104c8610eb9565b61012f54604080516315ab88c960e31b81529051610131926001600160a01b03169163ad5c4648916004808301926020929190829003018186803b15801561050f57600080fd5b505afa158015610523573d6000803e3d6000fd5b505050506040513d601f19601f82011682018060405250810190610547919061141d565b81546001808201845560009384526020842090910180546001600160a01b03199081166001600160a01b039485161790915561012d54610131805493840181559094527fbd987ad6ccdb7c7567f7335ea839f95dc944431abcf935b6924f70215963db739091018054939092169216919091179055670de0b6b3a764000061013055801561060f576000805461ff0019169055604051600181527f7f26b83ff96e1f2b6a682f133852f6798a09c465da95921460cefb38474024989060200160405180910390a15b505050565b306001600160a01b037f000000000000000000000000000000000000000000000000000000000000000016141561065d5760405162461bcd60e51b815260040161030690611641565b7f00000000000000000000000000000000000000000000000000000000000000006001600160a01b03166106a66000805160206118f5833981519152546001600160a01b031690565b6001600160a01b0316146106cc5760405162461bcd60e51b81526004016103069061168d565b6106d582610bb8565b6106e182826001610c2f565b5050565b6000306001600160a01b037f000000000000000000000000000000000000000000000000000000000000000016146107855760405162461bcd60e51b815260206004820152603860248201527f555550535570677261646561626c653a206d757374206e6f742062652063616c60448201527f6c6564207468726f7567682064656c656761746563616c6c00000000000000006064820152608401610306565b506000805160206118f583398151915290565b60c9546001600160a01b031633146107c25760405162461bcd60e51b815260040161030690611727565b6107cc6000610eec565b565b60c9546001600160a01b031633146107f85760405162461bcd60e51b815260040161030690611727565b6001600160a01b03811661084e5760405162461bcd60e51b815260206004820152601e60248201527f73657444414f416464726573733a20496e76616c6964206164647265737300006044820152606401610306565b61012e80546001600160a01b0319166001600160a01b0392909216919091179055565b61012d546040516370a0823160e01b81523060048201526000916001600160a01b0316906370a082319060240160206040518083038186803b1580156108b657600080fd5b505afa1580156108ca573d6000803e3d6000fd5b505050506040513d601f19601f820116820180604052508101906108ee91906115da565b61012f546101305460405163d06ca61f60e01b81529293506000926001600160a01b039092169163d06ca61f9161092b91610131906004016117a7565b60006040518083038186803b15801561094357600080fd5b505afa158015610957573d6000803e3d6000fd5b505050506040513d6000823e601f3d908101601f1916820160405261097f9190810190611513565b905060006109ca600a6109c4609b856001815181106109ae57634e487b7160e01b600052603260045260246000fd5b6020026020010151610f3e90919063ffffffff16565b90610f51565b9050808310158015610ae7575061012e60009054906101000a90046001600160a01b03166001600160a01b031663d54db3486040518163ffffffff1660e01b815260040160206040518083038186803b158015610a2657600080fd5b505afa158015610a3a573d6000803e3d6000fd5b505050506040513d601f19601f82011682018060405250810190610a5e91906115da565b61012e60009054906101000a90046001600160a01b03166001600160a01b031663647abf786040518163ffffffff1660e01b815260040160206040518083038186803b158015610aad57600080fd5b505afa158015610ac1573d6000803e3d6000fd5b505050506040513d601f19601f82011682018060405250810190610ae591906115da565b105b1561060f5761060f81610b1b600a6109c46019876001815181106109ae57634e487b7160e01b600052603260045260246000fd5b610f5d565b60c9546001600160a01b03163314610b4a5760405162461bcd60e51b815260040161030690611727565b6001600160a01b038116610baf5760405162461bcd60e51b815260206004820152602660248201527f4f776e61626c653a206e6577206f776e657220697320746865207a65726f206160448201526564647265737360d01b6064820152608401610306565b6103a381610eec565b33610bcb60c9546001600160a01b031690565b6001600160a01b0316146103a35760405162461bcd60e51b815260206004820152602560248201527f4f6e6c79206f776e65722063616e207570677261646520696d706c656d656e7460448201526430ba34b7b760d91b6064820152608401610306565b7f4910fdfa16fed3260ed0e7147f7cc6da11a60208b5b9406d12a635614ffd91435460ff1615610c6757610c6283611163565b61060f565b826001600160a01b03166352d1902d6040518163ffffffff1660e01b815260040160206040518083038186803b158015610ca057600080fd5b505afa925050508015610cd0575060408051601f3d908101601f19168201909252610ccd918101906115da565b60015b610d335760405162461bcd60e51b815260206004820152602e60248201527f45524331393637557067726164653a206e657720696d706c656d656e7461746960448201526d6f6e206973206e6f74205555505360901b6064820152608401610306565b6000805160206118f58339815191528114610da25760405162461bcd60e51b815260206004820152602960248201527f45524331393637557067726164653a20756e737570706f727465642070726f786044820152681a58589b195555525160ba1b6064820152608401610306565b5061060f8383836111ff565b60008054610100900460ff1615610df5578160ff166001148015610dd15750303b155b610ded5760405162461bcd60e51b8152600401610306906116d9565b506000610e2f565b60005460ff808416911610610e1c5760405162461bcd60e51b8152600401610306906116d9565b506000805460ff191660ff831617905560015b919050565b600054610100900460ff16610e5b5760405162461bcd60e51b81526004016103069061175c565b6107cc61122a565b600054610100900460ff16610e8a5760405162461bcd60e51b81526004016103069061175c565b6107cc61125a565b600054610100900460ff166107cc5760405162461bcd60e51b81526004016103069061175c565b600054610100900460ff16610ee05760405162461bcd60e51b81526004016103069061175c565b6097805460ff19169055565b60c980546001600160a01b038381166001600160a01b0319831681179093556040519116919082907f8be0079c531659141344cd1fd0a4f28419497f9722a3daafe3b4186f6b6457e090600090a35050565b6000610f4a8284611851565b9392505050565b6000610f4a8284611831565b600260fb541415610fb05760405162461bcd60e51b815260206004820152601f60248201527f5265656e7472616e637947756172643a207265656e7472616e742063616c6c006044820152606401610306565b600260fb5561012e546040805163f03cd27160e01b815290516000926001600160a01b03169163f03cd27191600480830192602092919082900301818787803b158015610ffc57600080fd5b505af1158015611010573d6000803e3d6000fd5b505050506040513d601f19601f82011682018060405250810190611034919061141d565b61012d5460405163a9059cbb60e01b815261dead6004820152602481018590529192506001600160a01b03169063a9059cbb90604401602060405180830381600087803b15801561108457600080fd5b505af1158015611098573d6000803e3d6000fd5b505050506040513d601f19601f820116820180604052508101906110bc91906115ba565b5061012d546001600160a01b031663a9059cbb826110da8686611288565b6040516001600160e01b031960e085901b1681526001600160a01b0390921660048301526024820152604401602060405180830381600087803b15801561112057600080fd5b505af1158015611134573d6000803e3d6000fd5b505050506040513d601f19601f8201168201806040525081019061115891906115ba565b5050600160fb555050565b6001600160a01b0381163b6111d05760405162461bcd60e51b815260206004820152602d60248201527f455243313936373a206e657720696d706c656d656e746174696f6e206973206e60448201526c1bdd08184818dbdb9d1c9858dd609a1b6064820152608401610306565b6000805160206118f583398151915280546001600160a01b0319166001600160a01b0392909216919091179055565b61120883611294565b6000825111806112155750805b1561060f5761122483836112d4565b50505050565b600054610100900460ff166112515760405162461bcd60e51b81526004016103069061175c565b6107cc33610eec565b600054610100900460ff166112815760405162461bcd60e51b81526004016103069061175c565b600160fb55565b6000610f4a8284611870565b61129d81611163565b6040516001600160a01b038216907fbc7cd75a20ee27fd9adebab32041f755214dbc6bffa90cc0225b39da2e5c2d3b90600090a250565b60606001600160a01b0383163b61133c5760405162461bcd60e51b815260206004820152602660248201527f416464726573733a2064656c65676174652063616c6c20746f206e6f6e2d636f6044820152651b9d1c9858dd60d21b6064820152608401610306565b600080846001600160a01b03168460405161135791906115f2565b600060405180830381855af49150503d8060008114611392576040519150601f19603f3d011682016040523d82523d6000602084013e611397565b606091505b50915091506113bf8282604051806060016040528060278152602001611915602791396113c8565b95945050505050565b606083156113d7575081610f4a565b8251156113e75782518084602001fd5b8160405162461bcd60e51b8152600401610306919061160e565b600060208284031215611412578081fd5b8135610f4a816118df565b60006020828403121561142e578081fd5b8151610f4a816118df565b6000806040838503121561144b578081fd5b8235611456816118df565b91506020830135611466816118df565b809150509250929050565b60008060408385031215611483578182fd5b823561148e816118df565b915060208381013567ffffffffffffffff808211156114ab578384fd5b818601915086601f8301126114be578384fd5b8135818111156114d0576114d06118c9565b6114e2601f8201601f19168501611800565b915080825287848285010111156114f7578485fd5b8084840185840137810190920192909252919491935090915050565b60006020808385031215611525578182fd5b825167ffffffffffffffff8082111561153c578384fd5b818501915085601f83011261154f578384fd5b815181811115611561576115616118c9565b8381029150611571848301611800565b8181528481019084860184860187018a101561158b578788fd5b8795505b838610156115ad57805183526001959095019491860191860161158f565b5098975050505050505050565b6000602082840312156115cb578081fd5b81518015158114610f4a578182fd5b6000602082840312156115eb578081fd5b5051919050565b60008251611604818460208701611887565b9190910192915050565b600060208252825180602084015261162d816040850160208701611887565b601f01601f19169190910160400192915050565b6020808252602c908201527f46756e6374696f6e206d7573742062652063616c6c6564207468726f7567682060408201526b19195b1959d85d1958d85b1b60a21b606082015260800190565b6020808252602c908201527f46756e6374696f6e206d7573742062652063616c6c6564207468726f7567682060408201526b6163746976652070726f787960a01b606082015260800190565b6020808252602e908201527f496e697469616c697a61626c653a20636f6e747261637420697320616c72656160408201526d191e481a5b9a5d1a585b1a5e995960921b606082015260800190565b6020808252818101527f4f776e61626c653a2063616c6c6572206973206e6f7420746865206f776e6572604082015260600190565b6020808252602b908201527f496e697469616c697a61626c653a20636f6e7472616374206973206e6f74206960408201526a6e697469616c697a696e6760a81b606082015260800190565b60006040820184835260206040818501528185548084526060860191508685528285209350845b818110156117f35784546001600160a01b0316835260019485019492840192016117ce565b5090979650505050505050565b604051601f8201601f1916810167ffffffffffffffff81118282101715611829576118296118c9565b604052919050565b60008261184c57634e487b7160e01b81526012600452602481fd5b500490565b600081600019048311821515161561186b5761186b6118b3565b500290565b600082821015611882576118826118b3565b500390565b60005b838110156118a257818101518382015260200161188a565b838111156112245750506000910152565b634e487b7160e01b600052601160045260246000fd5b634e487b7160e01b600052604160045260246000fd5b6001600160a01b03811681146103a357600080fdfe360894a13ba1a3210667c828492db98dca3e2076cc3735a920a3ca505d382bbc416464726573733a206c6f772d6c6576656c2064656c65676174652063616c6c206661696c6564a264697066735822122092183c169e178d353defb2b56b1649d94155944ecc12993c007dfdf76cf5f6b564736f6c63430008020033",
  "linkReferences": {},
  "deployedLinkReferences": {}
}