{
  "_format": "hh-sol-artifact-1",
  "contractName": "Treasury",
  "sourceName": "contracts/treasury.sol",
  "abi": [
    {
      "anonymous": false,
      "inputs": [
        {
          "indexed": false,
          "internalType": "address",
          "name": "previousAdmin",
          "type": "address"
        },
        {
          "indexed": false,
          "internalType": "address",
          "name": "newAdmin",
          "type": "address"
        }
      ],
      "name": "AdminChanged",
      "type": "event"
    },
    {
      "anonymous": false,
      "inputs": [
        {
          "indexed": true,
          "internalType": "address",
          "name": "beacon",
          "type": "address"
        }
      ],
      "name": "BeaconUpgraded",
      "type": "event"
    },
    {
      "anonymous": false,
      "inputs": [
        {
          "indexed": false,
          "internalType": "uint8",
          "name": "version",
          "type": "uint8"
        }
      ],
      "name": "Initialized",
      "type": "event"
    },
    {
      "anonymous": false,
      "inputs": [
        {
          "indexed": true,
          "internalType": "address",
          "name": "previousOwner",
          "type": "address"
        },
        {
          "indexed": true,
          "internalType": "address",
          "name": "newOwner",
          "type": "address"
        }
      ],
      "name": "OwnershipTransferred",
      "type": "event"
    },
    {
      "anonymous": false,
      "inputs": [
        {
          "indexed": false,
          "internalType": "address",
          "name": "account",
          "type": "address"
        }
      ],
      "name": "Paused",
      "type": "event"
    },
    {
      "anonymous": false,
      "inputs": [
        {
          "indexed": false,
          "internalType": "address",
          "name": "account",
          "type": "address"
        }
      ],
      "name": "Unpaused",
      "type": "event"
    },
    {
      "anonymous": false,
      "inputs": [
        {
          "indexed": true,
          "internalType": "address",
          "name": "implementation",
          "type": "address"
        }
      ],
      "name": "Upgraded",
      "type": "event"
    },
    {
      "inputs": [],
      "name": "DEAD_ADDRESS",
      "outputs": [
        {
          "internalType": "address",
          "name": "",
          "type": "address"
        }
      ],
      "stateMutability": "view",
      "type": "function"
    },
    {
      "inputs": [],
      "name": "dao",
      "outputs": [
        {
          "internalType": "address",
          "name": "",
          "type": "address"
        }
      ],
      "stateMutability": "view",
      "type": "function"
    },
    {
      "inputs": [],
      "name": "good",
      "outputs": [
        {
          "internalType": "address",
          "name": "",
          "type": "address"
        }
      ],
      "stateMutability": "view",
      "type": "function"
    },
    {
      "inputs": [
        {
          "internalType": "address",
          "name": "_good",
          "type": "address"
        },
        {
          "internalType": "address",
          "name": "_router",
          "type": "address"
        }
      ],
      "name": "initialize",
      "outputs": [],
      "stateMutability": "nonpayable",
      "type": "function"
    },
    {
      "inputs": [],
      "name": "owner",
      "outputs": [
        {
          "internalType": "address",
          "name": "",
          "type": "address"
        }
      ],
      "stateMutability": "view",
      "type": "function"
    },
    {
      "inputs": [],
      "name": "paused",
      "outputs": [
        {
          "internalType": "bool",
          "name": "",
          "type": "bool"
        }
      ],
      "stateMutability": "view",
      "type": "function"
    },
    {
      "inputs": [],
      "name": "proxiableUUID",
      "outputs": [
        {
          "internalType": "bytes32",
          "name": "",
          "type": "bytes32"
        }
      ],
      "stateMutability": "view",
      "type": "function"
    },
    {
      "inputs": [],
      "name": "renounceOwnership",
      "outputs": [],
      "stateMutability": "nonpayable",
      "type": "function"
    },
    {
      "inputs": [],
      "name": "router",
      "outputs": [
        {
          "internalType": "address",
          "name": "",
          "type": "address"
        }
      ],
      "stateMutability": "view",
      "type": "function"
    },
    {
      "inputs": [
        {
          "internalType": "address",
          "name": "_dao",
          "type": "address"
        }
      ],
      "name": "setDAOAddress",
      "outputs": [],
      "stateMutability": "nonpayable",
      "type": "function"
    },
    {
      "inputs": [],
      "name": "totalETH",
      "outputs": [
        {
          "internalType": "uint256",
          "name": "",
          "type": "uint256"
        }
      ],
      "stateMutability": "view",
      "type": "function"
    },
    {
      "inputs": [
        {
          "internalType": "address",
          "name": "newOwner",
          "type": "address"
        }
      ],
      "name": "transferOwnership",
      "outputs": [],
      "stateMutability": "nonpayable",
      "type": "function"
    },
    {
      "inputs": [
        {
          "internalType": "address",
          "name": "newImplementation",
          "type": "address"
        }
      ],
      "name": "upgradeTo",
      "outputs": [],
      "stateMutability": "nonpayable",
      "type": "function"
    },
    {
      "inputs": [
        {
          "internalType": "address",
          "name": "newImplementation",
          "type": "address"
        },
        {
          "internalType": "bytes",
          "name": "data",
          "type": "bytes"
        }
      ],
      "name": "upgradeToAndCall",
      "outputs": [],
      "stateMutability": "payable",
      "type": "function"
    },
    {
      "inputs": [],
      "name": "validatePayout",
      "outputs": [],
      "stateMutability": "nonpayable",
      "type": "function"
    }
  ],
  "bytecode": "0x60a06040523060601b60805234801561001757600080fd5b5060805160601c6118c2610052600039600081816102c801528181610311015281816106bb015281816106fb015261078e01526118c26000f3fe6080604052600436106100e85760003560e01c80635c975abb1161008a578063a1485f6411610059578063a1485f6414610246578063aa8fb40b1461025b578063f2fde38b1461027c578063f887ea401461029c57600080fd5b80635c975abb146101d0578063715018a6146101f35780638da5cb5b14610208578063965afa891461022657600080fd5b8063485cc955116100c6578063485cc955146101725780634e6fd6c4146101925780634f1ef286146101a857806352d1902d146101bb57600080fd5b80633659cfe6146100ed57806336bdee741461010f5780634162169f14610139575b600080fd5b3480156100f957600080fd5b5061010d6101083660046113e6565b6102bd565b005b34801561011b57600080fd5b506101266101305481565b6040519081526020015b60405180910390f35b34801561014557600080fd5b5061012e5461015a906001600160a01b031681565b6040516001600160a01b039091168152602001610130565b34801561017e57600080fd5b5061010d61018d366004611403565b6103a6565b34801561019e57600080fd5b5061015a61dead81565b61010d6101b6366004611483565b6106b0565b3480156101c757600080fd5b50610126610781565b3480156101dc57600080fd5b5060975460ff166040519015158152602001610130565b3480156101ff57600080fd5b5061010d610834565b34801561021457600080fd5b5060c9546001600160a01b031661015a565b34801561023257600080fd5b5061010d6102413660046113e6565b610848565b34801561025257600080fd5b5061010d6108c9565b34801561026757600080fd5b5061012d5461015a906001600160a01b031681565b34801561028857600080fd5b5061010d6102973660046113e6565b610b4f565b3480156102a857600080fd5b5061012f5461015a906001600160a01b031681565b306001600160a01b037f000000000000000000000000000000000000000000000000000000000000000016141561030f5760405162461bcd60e51b81526004016103069061152b565b60405180910390fd5b7f00000000000000000000000000000000000000000000000000000000000000006001600160a01b0316610358600080516020611846833981519152546001600160a01b031690565b6001600160a01b03161461037e5760405162461bcd60e51b815260040161030690611577565b61038781610bc5565b604080516000808252602082019092526103a391839190610c3c565b50565b600054610100900460ff16158080156103c65750600054600160ff909116105b806103e05750303b1580156103e0575060005460ff166001145b6104435760405162461bcd60e51b815260206004820152602e60248201527f496e697469616c697a61626c653a20636f6e747261637420697320616c72656160448201526d191e481a5b9a5d1a585b1a5e995960921b6064820152608401610306565b6000805460ff191660011790558015610466576000805461ff0019166101001790555b6001600160a01b0383166104bc5760405162461bcd60e51b815260206004820152601b60248201527f696e697469616c697a653a20496e76616c6964206164647265737300000000006044820152606401610306565b6001600160a01b0382166105125760405162461bcd60e51b815260206004820152601b60248201527f696e697469616c697a653a20496e76616c6964206164647265737300000000006044820152606401610306565b61012d80546001600160a01b038086166001600160a01b03199283161790925561012f80549285169290911691909117905561054c610db6565b610554610de5565b61055c610e14565b610564610e3b565b61012f54604080516315ab88c960e31b81529051610131926001600160a01b03169163ad5c4648916004808301926020929190829003018186803b1580156105ab57600080fd5b505afa1580156105bf573d6000803e3d6000fd5b505050506040513d601f19601f820116820180604052508101906105e391906115c3565b81546001808201845560009384526020842090910180546001600160a01b03199081166001600160a01b039485161790915561012d54610131805493840181559094527fbd987ad6ccdb7c7567f7335ea839f95dc944431abcf935b6924f70215963db739091018054939092169216919091179055670de0b6b3a76400006101305580156106ab576000805461ff0019169055604051600181527f7f26b83ff96e1f2b6a682f133852f6798a09c465da95921460cefb38474024989060200160405180910390a15b505050565b306001600160a01b037f00000000000000000000000000000000000000000000000000000000000000001614156106f95760405162461bcd60e51b81526004016103069061152b565b7f00000000000000000000000000000000000000000000000000000000000000006001600160a01b0316610742600080516020611846833981519152546001600160a01b031690565b6001600160a01b0316146107685760405162461bcd60e51b815260040161030690611577565b61077182610bc5565b61077d82826001610c3c565b5050565b6000306001600160a01b037f000000000000000000000000000000000000000000000000000000000000000016146108215760405162461bcd60e51b815260206004820152603860248201527f555550535570677261646561626c653a206d757374206e6f742062652063616c60448201527f6c6564207468726f7567682064656c656761746563616c6c00000000000000006064820152608401610306565b5060008051602061184683398151915290565b61083c610e6e565b6108466000610ec8565b565b610850610e6e565b6001600160a01b0381166108a65760405162461bcd60e51b815260206004820152601e60248201527f73657444414f416464726573733a20496e76616c6964206164647265737300006044820152606401610306565b61012e80546001600160a01b0319166001600160a01b0392909216919091179055565b61012d546040516370a0823160e01b81523060048201526000916001600160a01b0316906370a082319060240160206040518083038186803b15801561090e57600080fd5b505afa158015610922573d6000803e3d6000fd5b505050506040513d601f19601f8201168201806040525081019061094691906115e0565b61012f546101305460405163d06ca61f60e01b81529293506000926001600160a01b039092169163d06ca61f9161098391610131906004016115f9565b60006040518083038186803b15801561099b57600080fd5b505afa1580156109af573d6000803e3d6000fd5b505050506040513d6000823e601f3d908101601f191682016040526109d79190810190611655565b90506000610a096006836001815181106109f3576109f36116fb565b6020026020010151610f1a90919063ffffffff16565b9050808310158015610b26575061012e60009054906101000a90046001600160a01b03166001600160a01b031663d54db3486040518163ffffffff1660e01b815260040160206040518083038186803b158015610a6557600080fd5b505afa158015610a79573d6000803e3d6000fd5b505050506040513d601f19601f82011682018060405250810190610a9d91906115e0565b61012e60009054906101000a90046001600160a01b03166001600160a01b031663647abf786040518163ffffffff1660e01b815260040160206040518083038186803b158015610aec57600080fd5b505afa158015610b00573d6000803e3d6000fd5b505050506040513d601f19601f82011682018060405250810190610b2491906115e0565b105b156106ab576106ab8183600181518110610b4257610b426116fb565b6020026020010151610f2d565b610b57610e6e565b6001600160a01b038116610bbc5760405162461bcd60e51b815260206004820152602660248201527f4f776e61626c653a206e6577206f776e657220697320746865207a65726f206160448201526564647265737360d01b6064820152608401610306565b6103a381610ec8565b33610bd860c9546001600160a01b031690565b6001600160a01b0316146103a35760405162461bcd60e51b815260206004820152602560248201527f4f6e6c79206f776e65722063616e207570677261646520696d706c656d656e7460448201526430ba34b7b760d91b6064820152608401610306565b7f4910fdfa16fed3260ed0e7147f7cc6da11a60208b5b9406d12a635614ffd91435460ff1615610c6f576106ab83611133565b826001600160a01b03166352d1902d6040518163ffffffff1660e01b815260040160206040518083038186803b158015610ca857600080fd5b505afa925050508015610cd8575060408051601f3d908101601f19168201909252610cd5918101906115e0565b60015b610d3b5760405162461bcd60e51b815260206004820152602e60248201527f45524331393637557067726164653a206e657720696d706c656d656e7461746960448201526d6f6e206973206e6f74205555505360901b6064820152608401610306565b6000805160206118468339815191528114610daa5760405162461bcd60e51b815260206004820152602960248201527f45524331393637557067726164653a20756e737570706f727465642070726f786044820152681a58589b195555525160ba1b6064820152608401610306565b506106ab8383836111cf565b600054610100900460ff16610ddd5760405162461bcd60e51b815260040161030690611711565b6108466111fa565b600054610100900460ff16610e0c5760405162461bcd60e51b815260040161030690611711565b61084661122a565b600054610100900460ff166108465760405162461bcd60e51b815260040161030690611711565b600054610100900460ff16610e625760405162461bcd60e51b815260040161030690611711565b6097805460ff19169055565b60c9546001600160a01b031633146108465760405162461bcd60e51b815260206004820181905260248201527f4f776e61626c653a2063616c6c6572206973206e6f7420746865206f776e65726044820152606401610306565b60c980546001600160a01b038381166001600160a01b0319831681179093556040519116919082907f8be0079c531659141344cd1fd0a4f28419497f9722a3daafe3b4186f6b6457e090600090a35050565b6000610f268284611772565b9392505050565b600260fb541415610f805760405162461bcd60e51b815260206004820152601f60248201527f5265656e7472616e637947756172643a207265656e7472616e742063616c6c006044820152606401610306565b600260fb5561012e546040805163f03cd27160e01b815290516000926001600160a01b03169163f03cd27191600480830192602092919082900301818787803b158015610fcc57600080fd5b505af1158015610fe0573d6000803e3d6000fd5b505050506040513d601f19601f8201168201806040525081019061100491906115c3565b61012d5460405163a9059cbb60e01b815261dead6004820152602481018590529192506001600160a01b03169063a9059cbb90604401602060405180830381600087803b15801561105457600080fd5b505af1158015611068573d6000803e3d6000fd5b505050506040513d601f19601f8201168201806040525081019061108c9190611791565b5061012d546001600160a01b031663a9059cbb826110aa8686611258565b6040516001600160e01b031960e085901b1681526001600160a01b0390921660048301526024820152604401602060405180830381600087803b1580156110f057600080fd5b505af1158015611104573d6000803e3d6000fd5b505050506040513d601f19601f820116820180604052508101906111289190611791565b5050600160fb555050565b6001600160a01b0381163b6111a05760405162461bcd60e51b815260206004820152602d60248201527f455243313936373a206e657720696d706c656d656e746174696f6e206973206e60448201526c1bdd08184818dbdb9d1c9858dd609a1b6064820152608401610306565b60008051602061184683398151915280546001600160a01b0319166001600160a01b0392909216919091179055565b6111d883611264565b6000825111806111e55750805b156106ab576111f483836112a4565b50505050565b600054610100900460ff166112215760405162461bcd60e51b815260040161030690611711565b61084633610ec8565b600054610100900460ff166112515760405162461bcd60e51b815260040161030690611711565b600160fb55565b6000610f2682846117b3565b61126d81611133565b6040516001600160a01b038216907fbc7cd75a20ee27fd9adebab32041f755214dbc6bffa90cc0225b39da2e5c2d3b90600090a250565b60606001600160a01b0383163b61130c5760405162461bcd60e51b815260206004820152602660248201527f416464726573733a2064656c65676174652063616c6c20746f206e6f6e2d636f6044820152651b9d1c9858dd60d21b6064820152608401610306565b600080846001600160a01b03168460405161132791906117f6565b600060405180830381855af49150503d8060008114611362576040519150601f19603f3d011682016040523d82523d6000602084013e611367565b606091505b509150915061138f828260405180606001604052806027815260200161186660279139611398565b95945050505050565b606083156113a7575081610f26565b8251156113b75782518084602001fd5b8160405162461bcd60e51b81526004016103069190611812565b6001600160a01b03811681146103a357600080fd5b6000602082840312156113f857600080fd5b8135610f26816113d1565b6000806040838503121561141657600080fd5b8235611421816113d1565b91506020830135611431816113d1565b809150509250929050565b634e487b7160e01b600052604160045260246000fd5b604051601f8201601f1916810167ffffffffffffffff8111828210171561147b5761147b61143c565b604052919050565b6000806040838503121561149657600080fd5b82356114a1816113d1565b915060208381013567ffffffffffffffff808211156114bf57600080fd5b818601915086601f8301126114d357600080fd5b8135818111156114e5576114e561143c565b6114f7601f8201601f19168501611452565b9150808252878482850101111561150d57600080fd5b80848401858401376000848284010152508093505050509250929050565b6020808252602c908201527f46756e6374696f6e206d7573742062652063616c6c6564207468726f7567682060408201526b19195b1959d85d1958d85b1b60a21b606082015260800190565b6020808252602c908201527f46756e6374696f6e206d7573742062652063616c6c6564207468726f7567682060408201526b6163746976652070726f787960a01b606082015260800190565b6000602082840312156115d557600080fd5b8151610f26816113d1565b6000602082840312156115f257600080fd5b5051919050565b60006040820184835260206040818501528185548084526060860191508660005282600020935060005b818110156116485784546001600160a01b031683526001948501949284019201611623565b5090979650505050505050565b6000602080838503121561166857600080fd5b825167ffffffffffffffff8082111561168057600080fd5b818501915085601f83011261169457600080fd5b8151818111156116a6576116a661143c565b8060051b91506116b7848301611452565b81815291830184019184810190888411156116d157600080fd5b938501935b838510156116ef578451825293850193908501906116d6565b98975050505050505050565b634e487b7160e01b600052603260045260246000fd5b6020808252602b908201527f496e697469616c697a61626c653a20636f6e7472616374206973206e6f74206960408201526a6e697469616c697a696e6760a81b606082015260800190565b634e487b7160e01b600052601160045260246000fd5b600081600019048311821515161561178c5761178c61175c565b500290565b6000602082840312156117a357600080fd5b81518015158114610f2657600080fd5b6000828210156117c5576117c561175c565b500390565b60005b838110156117e55781810151838201526020016117cd565b838111156111f45750506000910152565b600082516118088184602087016117ca565b9190910192915050565b60208152600082518060208401526118318160408501602087016117ca565b601f01601f1916919091016040019291505056fe360894a13ba1a3210667c828492db98dca3e2076cc3735a920a3ca505d382bbc416464726573733a206c6f772d6c6576656c2064656c65676174652063616c6c206661696c6564a26469706673582212206b7ab30f8ded93dd10dcbd6614c058216a2508267c308e049ef7d8d0ff8407a264736f6c63430008080033",
  "linkReferences": {},
  "deployedLinkReferences": {}
}