{
  "_format": "hh-sol-artifact-1",
  "contractName": "VolunteerHourOwn",
  "sourceName": "contracts/VolunteerHourOwnable.sol",
  "abi": [
    {
      "inputs": [],
      "stateMutability": "nonpayable",
      "type": "constructor"
    },
    {
      "anonymous": false,
      "inputs": [
        {
          "indexed": false,
          "internalType": "address",
          "name": "previousAdmin",
          "type": "address"
        },
        {
          "indexed": false,
          "internalType": "address",
          "name": "newAdmin",
          "type": "address"
        }
      ],
      "name": "AdminChanged",
      "type": "event"
    },
    {
      "anonymous": false,
      "inputs": [
        {
          "indexed": true,
          "internalType": "address",
          "name": "owner",
          "type": "address"
        },
        {
          "indexed": true,
          "internalType": "address",
          "name": "spender",
          "type": "address"
        },
        {
          "indexed": false,
          "internalType": "uint256",
          "name": "value",
          "type": "uint256"
        }
      ],
      "name": "Approval",
      "type": "event"
    },
    {
      "anonymous": false,
      "inputs": [
        {
          "indexed": true,
          "internalType": "address",
          "name": "beacon",
          "type": "address"
        }
      ],
      "name": "BeaconUpgraded",
      "type": "event"
    },
    {
      "anonymous": false,
      "inputs": [
        {
          "indexed": false,
          "internalType": "uint8",
          "name": "version",
          "type": "uint8"
        }
      ],
      "name": "Initialized",
      "type": "event"
    },
    {
      "anonymous": false,
      "inputs": [
        {
          "indexed": true,
          "internalType": "address",
          "name": "previousOwner",
          "type": "address"
        },
        {
          "indexed": true,
          "internalType": "address",
          "name": "newOwner",
          "type": "address"
        }
      ],
      "name": "OwnershipTransferred",
      "type": "event"
    },
    {
      "anonymous": false,
      "inputs": [
        {
          "indexed": false,
          "internalType": "address",
          "name": "account",
          "type": "address"
        }
      ],
      "name": "Paused",
      "type": "event"
    },
    {
      "anonymous": false,
      "inputs": [
        {
          "indexed": false,
          "internalType": "uint256",
          "name": "id",
          "type": "uint256"
        }
      ],
      "name": "Snapshot",
      "type": "event"
    },
    {
      "anonymous": false,
      "inputs": [
        {
          "indexed": true,
          "internalType": "address",
          "name": "from",
          "type": "address"
        },
        {
          "indexed": true,
          "internalType": "address",
          "name": "to",
          "type": "address"
        },
        {
          "indexed": false,
          "internalType": "uint256",
          "name": "value",
          "type": "uint256"
        }
      ],
      "name": "Transfer",
      "type": "event"
    },
    {
      "anonymous": false,
      "inputs": [
        {
          "indexed": false,
          "internalType": "address",
          "name": "account",
          "type": "address"
        }
      ],
      "name": "Unpaused",
      "type": "event"
    },
    {
      "anonymous": false,
      "inputs": [
        {
          "indexed": true,
          "internalType": "address",
          "name": "implementation",
          "type": "address"
        }
      ],
      "name": "Upgraded",
      "type": "event"
    },
    {
      "inputs": [
        {
          "internalType": "address",
          "name": "owner",
          "type": "address"
        },
        {
          "internalType": "address",
          "name": "spender",
          "type": "address"
        }
      ],
      "name": "allowance",
      "outputs": [
        {
          "internalType": "uint256",
          "name": "",
          "type": "uint256"
        }
      ],
      "stateMutability": "view",
      "type": "function"
    },
    {
      "inputs": [
        {
          "internalType": "address",
          "name": "spender",
          "type": "address"
        },
        {
          "internalType": "uint256",
          "name": "amount",
          "type": "uint256"
        }
      ],
      "name": "approve",
      "outputs": [
        {
          "internalType": "bool",
          "name": "",
          "type": "bool"
        }
      ],
      "stateMutability": "nonpayable",
      "type": "function"
    },
    {
      "inputs": [
        {
          "internalType": "address",
          "name": "account",
          "type": "address"
        }
      ],
      "name": "balanceOf",
      "outputs": [
        {
          "internalType": "uint256",
          "name": "",
          "type": "uint256"
        }
      ],
      "stateMutability": "view",
      "type": "function"
    },
    {
      "inputs": [
        {
          "internalType": "address",
          "name": "account",
          "type": "address"
        },
        {
          "internalType": "uint256",
          "name": "snapshotId",
          "type": "uint256"
        }
      ],
      "name": "balanceOfAt",
      "outputs": [
        {
          "internalType": "uint256",
          "name": "",
          "type": "uint256"
        }
      ],
      "stateMutability": "view",
      "type": "function"
    },
    {
      "inputs": [
        {
          "internalType": "uint256",
          "name": "amount",
          "type": "uint256"
        }
      ],
      "name": "burn",
      "outputs": [],
      "stateMutability": "nonpayable",
      "type": "function"
    },
    {
      "inputs": [
        {
          "internalType": "address",
          "name": "account",
          "type": "address"
        },
        {
          "internalType": "uint256",
          "name": "amount",
          "type": "uint256"
        }
      ],
      "name": "burnFrom",
      "outputs": [],
      "stateMutability": "nonpayable",
      "type": "function"
    },
    {
      "inputs": [],
      "name": "decimals",
      "outputs": [
        {
          "internalType": "uint8",
          "name": "",
          "type": "uint8"
        }
      ],
      "stateMutability": "view",
      "type": "function"
    },
    {
      "inputs": [
        {
          "internalType": "address",
          "name": "spender",
          "type": "address"
        },
        {
          "internalType": "uint256",
          "name": "subtractedValue",
          "type": "uint256"
        }
      ],
      "name": "decreaseAllowance",
      "outputs": [
        {
          "internalType": "bool",
          "name": "",
          "type": "bool"
        }
      ],
      "stateMutability": "nonpayable",
      "type": "function"
    },
    {
      "inputs": [
        {
          "internalType": "address",
          "name": "spender",
          "type": "address"
        },
        {
          "internalType": "uint256",
          "name": "addedValue",
          "type": "uint256"
        }
      ],
      "name": "increaseAllowance",
      "outputs": [
        {
          "internalType": "bool",
          "name": "",
          "type": "bool"
        }
      ],
      "stateMutability": "nonpayable",
      "type": "function"
    },
    {
      "inputs": [],
      "name": "initialize",
      "outputs": [],
      "stateMutability": "nonpayable",
      "type": "function"
    },
    {
      "inputs": [
        {
          "internalType": "address",
          "name": "to",
          "type": "address"
        },
        {
          "internalType": "uint256",
          "name": "amount",
          "type": "uint256"
        }
      ],
      "name": "mint",
      "outputs": [],
      "stateMutability": "nonpayable",
      "type": "function"
    },
    {
      "inputs": [],
      "name": "name",
      "outputs": [
        {
          "internalType": "string",
          "name": "",
          "type": "string"
        }
      ],
      "stateMutability": "view",
      "type": "function"
    },
    {
      "inputs": [],
      "name": "owner",
      "outputs": [
        {
          "internalType": "address",
          "name": "",
          "type": "address"
        }
      ],
      "stateMutability": "view",
      "type": "function"
    },
    {
      "inputs": [],
      "name": "pause",
      "outputs": [],
      "stateMutability": "nonpayable",
      "type": "function"
    },
    {
      "inputs": [],
      "name": "paused",
      "outputs": [
        {
          "internalType": "bool",
          "name": "",
          "type": "bool"
        }
      ],
      "stateMutability": "view",
      "type": "function"
    },
    {
      "inputs": [],
      "name": "proxiableUUID",
      "outputs": [
        {
          "internalType": "bytes32",
          "name": "",
          "type": "bytes32"
        }
      ],
      "stateMutability": "view",
      "type": "function"
    },
    {
      "inputs": [],
      "name": "renounceOwnership",
      "outputs": [],
      "stateMutability": "nonpayable",
      "type": "function"
    },
    {
      "inputs": [],
      "name": "snapshot",
      "outputs": [],
      "stateMutability": "nonpayable",
      "type": "function"
    },
    {
      "inputs": [],
      "name": "symbol",
      "outputs": [
        {
          "internalType": "string",
          "name": "",
          "type": "string"
        }
      ],
      "stateMutability": "view",
      "type": "function"
    },
    {
      "inputs": [],
      "name": "totalSupply",
      "outputs": [
        {
          "internalType": "uint256",
          "name": "",
          "type": "uint256"
        }
      ],
      "stateMutability": "view",
      "type": "function"
    },
    {
      "inputs": [
        {
          "internalType": "uint256",
          "name": "snapshotId",
          "type": "uint256"
        }
      ],
      "name": "totalSupplyAt",
      "outputs": [
        {
          "internalType": "uint256",
          "name": "",
          "type": "uint256"
        }
      ],
      "stateMutability": "view",
      "type": "function"
    },
    {
      "inputs": [
        {
          "internalType": "address",
          "name": "to",
          "type": "address"
        },
        {
          "internalType": "uint256",
          "name": "amount",
          "type": "uint256"
        }
      ],
      "name": "transfer",
      "outputs": [
        {
          "internalType": "bool",
          "name": "",
          "type": "bool"
        }
      ],
      "stateMutability": "nonpayable",
      "type": "function"
    },
    {
      "inputs": [
        {
          "internalType": "address",
          "name": "from",
          "type": "address"
        },
        {
          "internalType": "address",
          "name": "to",
          "type": "address"
        },
        {
          "internalType": "uint256",
          "name": "amount",
          "type": "uint256"
        }
      ],
      "name": "transferFrom",
      "outputs": [
        {
          "internalType": "bool",
          "name": "",
          "type": "bool"
        }
      ],
      "stateMutability": "nonpayable",
      "type": "function"
    },
    {
      "inputs": [
        {
          "internalType": "address",
          "name": "newOwner",
          "type": "address"
        }
      ],
      "name": "transferOwnership",
      "outputs": [],
      "stateMutability": "nonpayable",
      "type": "function"
    },
    {
      "inputs": [],
      "name": "unpause",
      "outputs": [],
      "stateMutability": "nonpayable",
      "type": "function"
    },
    {
      "inputs": [
        {
          "internalType": "address",
          "name": "newImplementation",
          "type": "address"
        }
      ],
      "name": "upgradeTo",
      "outputs": [],
      "stateMutability": "nonpayable",
      "type": "function"
    },
    {
      "inputs": [
        {
          "internalType": "address",
          "name": "newImplementation",
          "type": "address"
        },
        {
          "internalType": "bytes",
          "name": "data",
          "type": "bytes"
        }
      ],
      "name": "upgradeToAndCall",
      "outputs": [],
      "stateMutability": "payable",
      "type": "function"
    }
  ],
  "bytecode": "0x60a06040523060601b6080523480156200001857600080fd5b50600054610100900460ff16158080156200003a5750600054600160ff909116105b806200006a575062000057306200014460201b62000c101760201c565b1580156200006a575060005460ff166001145b620000d25760405162461bcd60e51b815260206004820152602e60248201527f496e697469616c697a61626c653a20636f6e747261637420697320616c72656160448201526d191e481a5b9a5d1a585b1a5e995960921b606482015260840160405180910390fd5b6000805460ff191660011790558015620000f6576000805461ff0019166101001790555b80156200013d576000805461ff0019169055604051600181527f7f26b83ff96e1f2b6a682f133852f6798a09c465da95921460cefb38474024989060200160405180910390a15b5062000153565b6001600160a01b03163b151590565b60805160601c6122366200018e600039600081816105b2015281816105fb0152818161074801528181610788015261081701526122366000f3fe60806040526004361061019c5760003560e01c80635c975abb116100ec57806395d89b411161008a578063a457c2d711610064578063a457c2d714610455578063a9059cbb14610475578063dd62ed3e14610495578063f2fde38b146104b557600080fd5b806395d89b411461040b5780639711715a14610420578063981b24d01461043557600080fd5b806379cc6790116100c657806379cc6790146103995780638129fc1c146103b95780638456cb59146103ce5780638da5cb5b146103e357600080fd5b80635c975abb1461033657806370a082311461034e578063715018a61461038457600080fd5b8063395093511161015957806342966c681161013357806342966c68146102ce5780634ee2cd7e146102ee5780634f1ef2861461030e57806352d1902d1461032157600080fd5b806339509351146102795780633f4ba83a1461029957806340c10f19146102ae57600080fd5b806306fdde03146101a1578063095ea7b3146101cc57806318160ddd146101fc57806323b872dd1461021b578063313ce5671461023b5780633659cfe614610257575b600080fd5b3480156101ad57600080fd5b506101b66104d5565b6040516101c39190611cf0565b60405180910390f35b3480156101d857600080fd5b506101ec6101e7366004611d3a565b610567565b60405190151581526020016101c3565b34801561020857600080fd5b506035545b6040519081526020016101c3565b34801561022757600080fd5b506101ec610236366004611d64565b610581565b34801561024757600080fd5b50604051601281526020016101c3565b34801561026357600080fd5b50610277610272366004611da0565b6105a7565b005b34801561028557600080fd5b506101ec610294366004611d3a565b610690565b3480156102a557600080fd5b506102776106b2565b3480156102ba57600080fd5b506102776102c9366004611d3a565b6106c4565b3480156102da57600080fd5b506102776102e9366004611dbb565b6106da565b3480156102fa57600080fd5b5061020d610309366004611d3a565b6106e4565b61027761031c366004611dea565b61073d565b34801561032d57600080fd5b5061020d61080a565b34801561034257600080fd5b5060fb5460ff166101ec565b34801561035a57600080fd5b5061020d610369366004611da0565b6001600160a01b031660009081526033602052604090205490565b34801561039057600080fd5b506102776108bd565b3480156103a557600080fd5b506102776103b4366004611d3a565b6108cf565b3480156103c557600080fd5b506102776108e4565b3480156103da57600080fd5b50610277610a81565b3480156103ef57600080fd5b5060c9546040516001600160a01b0390911681526020016101c3565b34801561041757600080fd5b506101b6610a91565b34801561042c57600080fd5b50610277610aa0565b34801561044157600080fd5b5061020d610450366004611dbb565b610ab0565b34801561046157600080fd5b506101ec610470366004611d3a565b610adb565b34801561048157600080fd5b506101ec610490366004611d3a565b610b61565b3480156104a157600080fd5b5061020d6104b0366004611eac565b610b6f565b3480156104c157600080fd5b506102776104d0366004611da0565b610b9a565b6060603680546104e490611edf565b80601f016020809104026020016040519081016040528092919081815260200182805461051090611edf565b801561055d5780601f106105325761010080835404028352916020019161055d565b820191906000526020600020905b81548152906001019060200180831161054057829003601f168201915b5050505050905090565b600033610575818585610c1f565b60019150505b92915050565b60003361058f858285610d43565b61059a858585610dbd565b60019150505b9392505050565b306001600160a01b037f00000000000000000000000000000000000000000000000000000000000000001614156105f95760405162461bcd60e51b81526004016105f090611f1a565b60405180910390fd5b7f00000000000000000000000000000000000000000000000000000000000000006001600160a01b03166106426000805160206121ba833981519152546001600160a01b031690565b6001600160a01b0316146106685760405162461bcd60e51b81526004016105f090611f66565b61067181610f96565b6040805160008082526020820190925261068d91839190610f9e565b50565b6000336105758185856106a38383610b6f565b6106ad9190611fc8565b610c1f565b6106ba61111d565b6106c2611177565b565b6106cc61111d565b6106d682826111c9565b5050565b61068d33826112b4565b6001600160a01b03821660009081526097602052604081208190819061070b90859061140e565b9150915081610732576001600160a01b038516600090815260336020526040902054610734565b805b95945050505050565b306001600160a01b037f00000000000000000000000000000000000000000000000000000000000000001614156107865760405162461bcd60e51b81526004016105f090611f1a565b7f00000000000000000000000000000000000000000000000000000000000000006001600160a01b03166107cf6000805160206121ba833981519152546001600160a01b031690565b6001600160a01b0316146107f55760405162461bcd60e51b81526004016105f090611f66565b6107fe82610f96565b6106d682826001610f9e565b6000306001600160a01b037f000000000000000000000000000000000000000000000000000000000000000016146108aa5760405162461bcd60e51b815260206004820152603860248201527f555550535570677261646561626c653a206d757374206e6f742062652063616c60448201527f6c6564207468726f7567682064656c656761746563616c6c000000000000000060648201526084016105f0565b506000805160206121ba83398151915290565b6108c561111d565b6106c2600061150b565b6108da823383610d43565b6106d682826112b4565b600054610100900460ff16158080156109045750600054600160ff909116105b8061091e5750303b15801561091e575060005460ff166001145b6109815760405162461bcd60e51b815260206004820152602e60248201527f496e697469616c697a61626c653a20636f6e747261637420697320616c72656160448201526d191e481a5b9a5d1a585b1a5e995960921b60648201526084016105f0565b6000805460ff1916600117905580156109a4576000805461ff0019166101001790555b6109ee6040518060400160405280600d81526020016c2b37b63ab73a32b2b92437bab960991b815250604051806040016040528060038152602001622b242960e91b81525061155d565b6109f661158e565b6109fe61158e565b610a066115b5565b610a0e6115e4565b610a1661158e565b610a3933610a266012600a6120bc565b610a34906301406f406120cb565b6111c9565b801561068d576000805461ff0019169055604051600181527f7f26b83ff96e1f2b6a682f133852f6798a09c465da95921460cefb38474024989060200160405180910390a150565b610a8961111d565b6106c2611613565b6060603780546104e490611edf565b610aa861111d565b61068d611650565b6000806000610ac084609861140e565b9150915081610ad157603554610ad3565b805b949350505050565b60003381610ae98286610b6f565b905083811015610b495760405162461bcd60e51b815260206004820152602560248201527f45524332303a2064656372656173656420616c6c6f77616e63652062656c6f77604482015264207a65726f60d81b60648201526084016105f0565b610b568286868403610c1f565b506001949350505050565b600033610575818585610dbd565b6001600160a01b03918216600090815260346020908152604080832093909416825291909152205490565b610ba261111d565b6001600160a01b038116610c075760405162461bcd60e51b815260206004820152602660248201527f4f776e61626c653a206e6577206f776e657220697320746865207a65726f206160448201526564647265737360d01b60648201526084016105f0565b61068d8161150b565b6001600160a01b03163b151590565b6001600160a01b038316610c815760405162461bcd60e51b8152602060048201526024808201527f45524332303a20617070726f76652066726f6d20746865207a65726f206164646044820152637265737360e01b60648201526084016105f0565b6001600160a01b038216610ce25760405162461bcd60e51b815260206004820152602260248201527f45524332303a20617070726f766520746f20746865207a65726f206164647265604482015261737360f01b60648201526084016105f0565b6001600160a01b0383811660008181526034602090815260408083209487168084529482529182902085905590518481527f8c5be1e5ebec7d5bd14f71427d1e84f3dd0314c0f7b2291e5b200ac8c7c3b925910160405180910390a3505050565b6000610d4f8484610b6f565b90506000198114610db75781811015610daa5760405162461bcd60e51b815260206004820152601d60248201527f45524332303a20696e73756666696369656e7420616c6c6f77616e636500000060448201526064016105f0565b610db78484848403610c1f565b50505050565b6001600160a01b038316610e215760405162461bcd60e51b815260206004820152602560248201527f45524332303a207472616e736665722066726f6d20746865207a65726f206164604482015264647265737360d81b60648201526084016105f0565b6001600160a01b038216610e835760405162461bcd60e51b815260206004820152602360248201527f45524332303a207472616e7366657220746f20746865207a65726f206164647260448201526265737360e81b60648201526084016105f0565b610e8e8383836116aa565b6001600160a01b03831660009081526033602052604090205481811015610f065760405162461bcd60e51b815260206004820152602660248201527f45524332303a207472616e7366657220616d6f756e7420657863656564732062604482015265616c616e636560d01b60648201526084016105f0565b6001600160a01b03808516600090815260336020526040808220858503905591851681529081208054849290610f3d908490611fc8565b92505081905550826001600160a01b0316846001600160a01b03167fddf252ad1be2c89b69c2b068fc378daa952ba7f163c4a11628f55a4df523b3ef84604051610f8991815260200190565b60405180910390a3610db7565b61068d61111d565b7f4910fdfa16fed3260ed0e7147f7cc6da11a60208b5b9406d12a635614ffd91435460ff1615610fd657610fd1836116bd565b505050565b826001600160a01b03166352d1902d6040518163ffffffff1660e01b815260040160206040518083038186803b15801561100f57600080fd5b505afa92505050801561103f575060408051601f3d908101601f1916820190925261103c918101906120ea565b60015b6110a25760405162461bcd60e51b815260206004820152602e60248201527f45524331393637557067726164653a206e657720696d706c656d656e7461746960448201526d6f6e206973206e6f74205555505360901b60648201526084016105f0565b6000805160206121ba83398151915281146111115760405162461bcd60e51b815260206004820152602960248201527f45524331393637557067726164653a20756e737570706f727465642070726f786044820152681a58589b195555525160ba1b60648201526084016105f0565b50610fd1838383611759565b60c9546001600160a01b031633146106c25760405162461bcd60e51b815260206004820181905260248201527f4f776e61626c653a2063616c6c6572206973206e6f7420746865206f776e657260448201526064016105f0565b61117f61177e565b60fb805460ff191690557f5db9ee0a495bf2e6ff9c91a7834c1ba4fdd244a5e8aa4e537bd38aeae4b073aa335b6040516001600160a01b03909116815260200160405180910390a1565b6001600160a01b03821661121f5760405162461bcd60e51b815260206004820152601f60248201527f45524332303a206d696e7420746f20746865207a65726f20616464726573730060448201526064016105f0565b61122b600083836116aa565b806035600082825461123d9190611fc8565b90915550506001600160a01b0382166000908152603360205260408120805483929061126a908490611fc8565b90915550506040518181526001600160a01b038316906000907fddf252ad1be2c89b69c2b068fc378daa952ba7f163c4a11628f55a4df523b3ef9060200160405180910390a35050565b6001600160a01b0382166113145760405162461bcd60e51b815260206004820152602160248201527f45524332303a206275726e2066726f6d20746865207a65726f206164647265736044820152607360f81b60648201526084016105f0565b611320826000836116aa565b6001600160a01b038216600090815260336020526040902054818110156113945760405162461bcd60e51b815260206004820152602260248201527f45524332303a206275726e20616d6f756e7420657863656564732062616c616e604482015261636560f01b60648201526084016105f0565b6001600160a01b03831660009081526033602052604081208383039055603580548492906113c3908490612103565b90915550506040518281526000906001600160a01b038516907fddf252ad1be2c89b69c2b068fc378daa952ba7f163c4a11628f55a4df523b3ef9060200160405180910390a3505050565b6000806000841161145a5760405162461bcd60e51b815260206004820152601660248201527504552433230536e617073686f743a20696420697320360541b60448201526064016105f0565b6114626117c7565b8411156114b15760405162461bcd60e51b815260206004820152601d60248201527f4552433230536e617073686f743a206e6f6e6578697374656e7420696400000060448201526064016105f0565b60006114bd84866117d7565b84549091508114156114d6576000809250925050611504565b60018460010182815481106114ed576114ed61211a565b90600052602060002001549250925050611504565b505b9250929050565b60c980546001600160a01b038381166001600160a01b0319831681179093556040519116919082907f8be0079c531659141344cd1fd0a4f28419497f9722a3daafe3b4186f6b6457e090600090a35050565b600054610100900460ff166115845760405162461bcd60e51b81526004016105f090612130565b6106d6828261189a565b600054610100900460ff166106c25760405162461bcd60e51b81526004016105f090612130565b600054610100900460ff166115dc5760405162461bcd60e51b81526004016105f090612130565b6106c26118e8565b600054610100900460ff1661160b5760405162461bcd60e51b81526004016105f090612130565b6106c2611918565b61161b61194b565b60fb805460ff191660011790557f62e78cea01bee320cd4e420270b5ea74000d11b0c9f74754ebdbfc544b05a2586111ac3390565b6000611660609a80546001019055565b600061166a6117c7565b90507f8030e83b04d87bef53480e26263266d6ca66863aa8506aca6f2559d18aa1cb678160405161169d91815260200190565b60405180910390a1919050565b6116b261194b565b610fd1838383611991565b6001600160a01b0381163b61172a5760405162461bcd60e51b815260206004820152602d60248201527f455243313936373a206e657720696d706c656d656e746174696f6e206973206e60448201526c1bdd08184818dbdb9d1c9858dd609a1b60648201526084016105f0565b6000805160206121ba83398151915280546001600160a01b0319166001600160a01b0392909216919091179055565b611762836119d9565b60008251118061176f5750805b15610fd157610db78383611a19565b60fb5460ff166106c25760405162461bcd60e51b815260206004820152601460248201527314185d5cd8589b194e881b9bdd081c185d5cd95960621b60448201526064016105f0565b60006117d2609a5490565b905090565b81546000906117e85750600061057b565b82546000905b808210156118445760006118028383611b04565b9050848682815481106118175761181761211a565b906000526020600020015411156118305780915061183e565b61183b816001611fc8565b92505b506117ee565b6000821180156118795750838561185c600185612103565b8154811061186c5761186c61211a565b9060005260206000200154145b1561189257611889600183612103565b9250505061057b565b50905061057b565b600054610100900460ff166118c15760405162461bcd60e51b81526004016105f090612130565b81516118d4906036906020850190611c2b565b508051610fd1906037906020840190611c2b565b600054610100900460ff1661190f5760405162461bcd60e51b81526004016105f090612130565b6106c23361150b565b600054610100900460ff1661193f5760405162461bcd60e51b81526004016105f090612130565b60fb805460ff19169055565b60fb5460ff16156106c25760405162461bcd60e51b815260206004820152601060248201526f14185d5cd8589b194e881c185d5cd95960821b60448201526064016105f0565b6001600160a01b0383166119b0576119a882611b1f565b610fd1611b52565b6001600160a01b0382166119c7576119a883611b1f565b6119d083611b1f565b610fd182611b1f565b6119e2816116bd565b6040516001600160a01b038216907fbc7cd75a20ee27fd9adebab32041f755214dbc6bffa90cc0225b39da2e5c2d3b90600090a250565b60606001600160a01b0383163b611a815760405162461bcd60e51b815260206004820152602660248201527f416464726573733a2064656c65676174652063616c6c20746f206e6f6e2d636f6044820152651b9d1c9858dd60d21b60648201526084016105f0565b600080846001600160a01b031684604051611a9c919061217b565b600060405180830381855af49150503d8060008114611ad7576040519150601f19603f3d011682016040523d82523d6000602084013e611adc565b606091505b509150915061073482826040518060600160405280602781526020016121da60279139611b60565b6000611b136002848418612197565b6105a090848416611fc8565b6001600160a01b038116600090815260976020908152604080832060339092529091205461068d9190611b99565b611b99565b6106c26098611b4d60355490565b60608315611b6f5750816105a0565b825115611b7f5782518084602001fd5b8160405162461bcd60e51b81526004016105f09190611cf0565b6000611ba36117c7565b905080611baf84611be3565b1015610fd1578254600180820185556000858152602080822090930193909355938401805494850181558252902090910155565b8054600090611bf457506000919050565b81548290611c0490600190612103565b81548110611c1457611c1461211a565b90600052602060002001549050919050565b919050565b828054611c3790611edf565b90600052602060002090601f016020900481019282611c595760008555611c9f565b82601f10611c7257805160ff1916838001178555611c9f565b82800160010185558215611c9f579182015b82811115611c9f578251825591602001919060010190611c84565b50611cab929150611caf565b5090565b5b80821115611cab5760008155600101611cb0565b60005b83811015611cdf578181015183820152602001611cc7565b83811115610db75750506000910152565b6020815260008251806020840152611d0f816040850160208701611cc4565b601f01601f19169190910160400192915050565b80356001600160a01b0381168114611c2657600080fd5b60008060408385031215611d4d57600080fd5b611d5683611d23565b946020939093013593505050565b600080600060608486031215611d7957600080fd5b611d8284611d23565b9250611d9060208501611d23565b9150604084013590509250925092565b600060208284031215611db257600080fd5b6105a082611d23565b600060208284031215611dcd57600080fd5b5035919050565b634e487b7160e01b600052604160045260246000fd5b60008060408385031215611dfd57600080fd5b611e0683611d23565b9150602083013567ffffffffffffffff80821115611e2357600080fd5b818501915085601f830112611e3757600080fd5b813581811115611e4957611e49611dd4565b604051601f8201601f19908116603f01168101908382118183101715611e7157611e71611dd4565b81604052828152886020848701011115611e8a57600080fd5b8260208601602083013760006020848301015280955050505050509250929050565b60008060408385031215611ebf57600080fd5b611ec883611d23565b9150611ed660208401611d23565b90509250929050565b600181811c90821680611ef357607f821691505b60208210811415611f1457634e487b7160e01b600052602260045260246000fd5b50919050565b6020808252602c908201527f46756e6374696f6e206d7573742062652063616c6c6564207468726f7567682060408201526b19195b1959d85d1958d85b1b60a21b606082015260800190565b6020808252602c908201527f46756e6374696f6e206d7573742062652063616c6c6564207468726f7567682060408201526b6163746976652070726f787960a01b606082015260800190565b634e487b7160e01b600052601160045260246000fd5b60008219821115611fdb57611fdb611fb2565b500190565b600181815b8085111561150257816000190482111561200157612001611fb2565b8085161561200e57918102915b93841c9390800290611fe5565b60008261202a5750600161057b565b816120375750600061057b565b816001811461204d576002811461205757612073565b600191505061057b565b60ff84111561206857612068611fb2565b50506001821b61057b565b5060208310610133831016604e8410600b8410161715612096575081810a61057b565b6120a08383611fe0565b80600019048211156120b4576120b4611fb2565b029392505050565b60006105a060ff84168361201b565b60008160001904831182151516156120e5576120e5611fb2565b500290565b6000602082840312156120fc57600080fd5b5051919050565b60008282101561211557612115611fb2565b500390565b634e487b7160e01b600052603260045260246000fd5b6020808252602b908201527f496e697469616c697a61626c653a20636f6e7472616374206973206e6f74206960408201526a6e697469616c697a696e6760a81b606082015260800190565b6000825161218d818460208701611cc4565b9190910192915050565b6000826121b457634e487b7160e01b600052601260045260246000fd5b50049056fe360894a13ba1a3210667c828492db98dca3e2076cc3735a920a3ca505d382bbc416464726573733a206c6f772d6c6576656c2064656c65676174652063616c6c206661696c6564a26469706673582212201a5b137a598368fde5c00da8330c33ea89929277768e5da85ca799e05a7b1d2564736f6c63430008080033",
  "linkReferences": {},
  "deployedLinkReferences": {}
}