{
  "_format": "hh-sol-artifact-1",
  "contractName": "VolunteerHourOwn",
  "sourceName": "contracts/VolunteerHourOwnable.sol",
  "abi": [
    {
      "inputs": [],
      "stateMutability": "nonpayable",
      "type": "constructor"
    },
    {
      "anonymous": false,
      "inputs": [
        {
          "indexed": false,
          "internalType": "address",
          "name": "previousAdmin",
          "type": "address"
        },
        {
          "indexed": false,
          "internalType": "address",
          "name": "newAdmin",
          "type": "address"
        }
      ],
      "name": "AdminChanged",
      "type": "event"
    },
    {
      "anonymous": false,
      "inputs": [
        {
          "indexed": true,
          "internalType": "address",
          "name": "owner",
          "type": "address"
        },
        {
          "indexed": true,
          "internalType": "address",
          "name": "spender",
          "type": "address"
        },
        {
          "indexed": false,
          "internalType": "uint256",
          "name": "value",
          "type": "uint256"
        }
      ],
      "name": "Approval",
      "type": "event"
    },
    {
      "anonymous": false,
      "inputs": [
        {
          "indexed": true,
          "internalType": "address",
          "name": "beacon",
          "type": "address"
        }
      ],
      "name": "BeaconUpgraded",
      "type": "event"
    },
    {
      "anonymous": false,
      "inputs": [
        {
          "indexed": false,
          "internalType": "uint8",
          "name": "version",
          "type": "uint8"
        }
      ],
      "name": "Initialized",
      "type": "event"
    },
    {
      "anonymous": false,
      "inputs": [
        {
          "indexed": true,
          "internalType": "address",
          "name": "previousOwner",
          "type": "address"
        },
        {
          "indexed": true,
          "internalType": "address",
          "name": "newOwner",
          "type": "address"
        }
      ],
      "name": "OwnershipTransferred",
      "type": "event"
    },
    {
      "anonymous": false,
      "inputs": [
        {
          "indexed": false,
          "internalType": "address",
          "name": "account",
          "type": "address"
        }
      ],
      "name": "Paused",
      "type": "event"
    },
    {
      "anonymous": false,
      "inputs": [
        {
          "indexed": false,
          "internalType": "uint256",
          "name": "id",
          "type": "uint256"
        }
      ],
      "name": "Snapshot",
      "type": "event"
    },
    {
      "anonymous": false,
      "inputs": [
        {
          "indexed": true,
          "internalType": "address",
          "name": "from",
          "type": "address"
        },
        {
          "indexed": true,
          "internalType": "address",
          "name": "to",
          "type": "address"
        },
        {
          "indexed": false,
          "internalType": "uint256",
          "name": "value",
          "type": "uint256"
        }
      ],
      "name": "Transfer",
      "type": "event"
    },
    {
      "anonymous": false,
      "inputs": [
        {
          "indexed": false,
          "internalType": "address",
          "name": "account",
          "type": "address"
        }
      ],
      "name": "Unpaused",
      "type": "event"
    },
    {
      "anonymous": false,
      "inputs": [
        {
          "indexed": true,
          "internalType": "address",
          "name": "implementation",
          "type": "address"
        }
      ],
      "name": "Upgraded",
      "type": "event"
    },
    {
      "inputs": [
        {
          "internalType": "address",
          "name": "owner",
          "type": "address"
        },
        {
          "internalType": "address",
          "name": "spender",
          "type": "address"
        }
      ],
      "name": "allowance",
      "outputs": [
        {
          "internalType": "uint256",
          "name": "",
          "type": "uint256"
        }
      ],
      "stateMutability": "view",
      "type": "function"
    },
    {
      "inputs": [
        {
          "internalType": "address",
          "name": "spender",
          "type": "address"
        },
        {
          "internalType": "uint256",
          "name": "amount",
          "type": "uint256"
        }
      ],
      "name": "approve",
      "outputs": [
        {
          "internalType": "bool",
          "name": "",
          "type": "bool"
        }
      ],
      "stateMutability": "nonpayable",
      "type": "function"
    },
    {
      "inputs": [
        {
          "internalType": "address",
          "name": "account",
          "type": "address"
        }
      ],
      "name": "balanceOf",
      "outputs": [
        {
          "internalType": "uint256",
          "name": "",
          "type": "uint256"
        }
      ],
      "stateMutability": "view",
      "type": "function"
    },
    {
      "inputs": [
        {
          "internalType": "address",
          "name": "account",
          "type": "address"
        },
        {
          "internalType": "uint256",
          "name": "snapshotId",
          "type": "uint256"
        }
      ],
      "name": "balanceOfAt",
      "outputs": [
        {
          "internalType": "uint256",
          "name": "",
          "type": "uint256"
        }
      ],
      "stateMutability": "view",
      "type": "function"
    },
    {
      "inputs": [
        {
          "internalType": "uint256",
          "name": "amount",
          "type": "uint256"
        }
      ],
      "name": "burn",
      "outputs": [],
      "stateMutability": "nonpayable",
      "type": "function"
    },
    {
      "inputs": [
        {
          "internalType": "address",
          "name": "account",
          "type": "address"
        },
        {
          "internalType": "uint256",
          "name": "amount",
          "type": "uint256"
        }
      ],
      "name": "burnFrom",
      "outputs": [],
      "stateMutability": "nonpayable",
      "type": "function"
    },
    {
      "inputs": [],
      "name": "decimals",
      "outputs": [
        {
          "internalType": "uint8",
          "name": "",
          "type": "uint8"
        }
      ],
      "stateMutability": "view",
      "type": "function"
    },
    {
      "inputs": [
        {
          "internalType": "address",
          "name": "spender",
          "type": "address"
        },
        {
          "internalType": "uint256",
          "name": "subtractedValue",
          "type": "uint256"
        }
      ],
      "name": "decreaseAllowance",
      "outputs": [
        {
          "internalType": "bool",
          "name": "",
          "type": "bool"
        }
      ],
      "stateMutability": "nonpayable",
      "type": "function"
    },
    {
      "inputs": [
        {
          "internalType": "address",
          "name": "spender",
          "type": "address"
        },
        {
          "internalType": "uint256",
          "name": "addedValue",
          "type": "uint256"
        }
      ],
      "name": "increaseAllowance",
      "outputs": [
        {
          "internalType": "bool",
          "name": "",
          "type": "bool"
        }
      ],
      "stateMutability": "nonpayable",
      "type": "function"
    },
    {
      "inputs": [],
      "name": "initialize",
      "outputs": [],
      "stateMutability": "nonpayable",
      "type": "function"
    },
    {
      "inputs": [
        {
          "internalType": "address",
          "name": "to",
          "type": "address"
        },
        {
          "internalType": "uint256",
          "name": "amount",
          "type": "uint256"
        }
      ],
      "name": "mint",
      "outputs": [],
      "stateMutability": "nonpayable",
      "type": "function"
    },
    {
      "inputs": [],
      "name": "name",
      "outputs": [
        {
          "internalType": "string",
          "name": "",
          "type": "string"
        }
      ],
      "stateMutability": "view",
      "type": "function"
    },
    {
      "inputs": [],
      "name": "owner",
      "outputs": [
        {
          "internalType": "address",
          "name": "",
          "type": "address"
        }
      ],
      "stateMutability": "view",
      "type": "function"
    },
    {
      "inputs": [],
      "name": "pause",
      "outputs": [],
      "stateMutability": "nonpayable",
      "type": "function"
    },
    {
      "inputs": [],
      "name": "paused",
      "outputs": [
        {
          "internalType": "bool",
          "name": "",
          "type": "bool"
        }
      ],
      "stateMutability": "view",
      "type": "function"
    },
    {
      "inputs": [],
      "name": "proxiableUUID",
      "outputs": [
        {
          "internalType": "bytes32",
          "name": "",
          "type": "bytes32"
        }
      ],
      "stateMutability": "view",
      "type": "function"
    },
    {
      "inputs": [],
      "name": "renounceOwnership",
      "outputs": [],
      "stateMutability": "nonpayable",
      "type": "function"
    },
    {
      "inputs": [],
      "name": "snapshot",
      "outputs": [],
      "stateMutability": "nonpayable",
      "type": "function"
    },
    {
      "inputs": [],
      "name": "symbol",
      "outputs": [
        {
          "internalType": "string",
          "name": "",
          "type": "string"
        }
      ],
      "stateMutability": "view",
      "type": "function"
    },
    {
      "inputs": [],
      "name": "totalSupply",
      "outputs": [
        {
          "internalType": "uint256",
          "name": "",
          "type": "uint256"
        }
      ],
      "stateMutability": "view",
      "type": "function"
    },
    {
      "inputs": [
        {
          "internalType": "uint256",
          "name": "snapshotId",
          "type": "uint256"
        }
      ],
      "name": "totalSupplyAt",
      "outputs": [
        {
          "internalType": "uint256",
          "name": "",
          "type": "uint256"
        }
      ],
      "stateMutability": "view",
      "type": "function"
    },
    {
      "inputs": [
        {
          "internalType": "address",
          "name": "to",
          "type": "address"
        },
        {
          "internalType": "uint256",
          "name": "amount",
          "type": "uint256"
        }
      ],
      "name": "transfer",
      "outputs": [
        {
          "internalType": "bool",
          "name": "",
          "type": "bool"
        }
      ],
      "stateMutability": "nonpayable",
      "type": "function"
    },
    {
      "inputs": [
        {
          "internalType": "address",
          "name": "from",
          "type": "address"
        },
        {
          "internalType": "address",
          "name": "to",
          "type": "address"
        },
        {
          "internalType": "uint256",
          "name": "amount",
          "type": "uint256"
        }
      ],
      "name": "transferFrom",
      "outputs": [
        {
          "internalType": "bool",
          "name": "",
          "type": "bool"
        }
      ],
      "stateMutability": "nonpayable",
      "type": "function"
    },
    {
      "inputs": [
        {
          "internalType": "address",
          "name": "newOwner",
          "type": "address"
        }
      ],
      "name": "transferOwnership",
      "outputs": [],
      "stateMutability": "nonpayable",
      "type": "function"
    },
    {
      "inputs": [],
      "name": "unpause",
      "outputs": [],
      "stateMutability": "nonpayable",
      "type": "function"
    },
    {
      "inputs": [
        {
          "internalType": "address",
          "name": "newImplementation",
          "type": "address"
        }
      ],
      "name": "upgradeTo",
      "outputs": [],
      "stateMutability": "nonpayable",
      "type": "function"
    },
    {
      "inputs": [
        {
          "internalType": "address",
          "name": "newImplementation",
          "type": "address"
        },
        {
          "internalType": "bytes",
          "name": "data",
          "type": "bytes"
        }
      ],
      "name": "upgradeToAndCall",
      "outputs": [],
      "stateMutability": "payable",
      "type": "function"
    }
  ],
  "bytecode": "0x60a06040523060601b6080523480156200001857600080fd5b5060006200002760016200008e565b9050801562000040576000805461ff0019166101001790555b801562000087576000805461ff0019169055604051600181527f7f26b83ff96e1f2b6a682f133852f6798a09c465da95921460cefb38474024989060200160405180910390a15b50620001ae565b60008054610100900460ff161562000128578160ff166001148015620000c75750620000c5306200019f60201b62000c391760201c565b155b6200011f5760405162461bcd60e51b815260206004820152602e60248201526000805160206200257983398151915260448201526d191e481a5b9a5d1a585b1a5e995960921b60648201526084015b60405180910390fd5b5060006200019a565b60005460ff808416911610620001875760405162461bcd60e51b815260206004820152602e60248201526000805160206200257983398151915260448201526d191e481a5b9a5d1a585b1a5e995960921b606482015260840162000116565b506000805460ff191660ff831617905560015b919050565b6001600160a01b03163b151590565b60805160601c612390620001e96000396000818161059c015281816105e501528181610766015281816107a6015261083501526123906000f3fe60806040526004361061019c5760003560e01c80635c975abb116100ec57806395d89b411161008a578063a457c2d711610064578063a457c2d71461043f578063a9059cbb1461045f578063dd62ed3e1461047f578063f2fde38b1461049f5761019c565b806395d89b41146103f55780639711715a1461040a578063981b24d01461041f5761019c565b806379cc6790116100c657806379cc6790146103835780638129fc1c146103a35780638456cb59146103b85780638da5cb5b146103cd5761019c565b80635c975abb1461033657806370a082311461034e578063715018a61461036e5761019c565b8063395093511161015957806342966c681161013357806342966c68146102ce5780634ee2cd7e146102ee5780634f1ef2861461030e57806352d1902d146103215761019c565b806339509351146102795780633f4ba83a1461029957806340c10f19146102ae5761019c565b806306fdde03146101a1578063095ea7b3146101cc57806318160ddd146101fc57806323b872dd1461021b578063313ce5671461023b5780633659cfe614610257575b600080fd5b3480156101ad57600080fd5b506101b66104bf565b6040516101c39190611f62565b60405180910390f35b3480156101d857600080fd5b506101ec6101e7366004611eed565b610551565b60405190151581526020016101c3565b34801561020857600080fd5b506035545b6040519081526020016101c3565b34801561022757600080fd5b506101ec610236366004611df5565b61056b565b34801561024757600080fd5b50604051601281526020016101c3565b34801561026357600080fd5b50610277610272366004611da9565b610591565b005b34801561028557600080fd5b506101ec610294366004611eed565b61067a565b3480156102a557600080fd5b5061027761069c565b3480156102ba57600080fd5b506102776102c9366004611eed565b6106d0565b3480156102da57600080fd5b506102776102e9366004611f2e565b610708565b3480156102fa57600080fd5b5061020d610309366004611eed565b610712565b61027761031c366004611e30565b61075b565b34801561032d57600080fd5b5061020d610828565b34801561034257600080fd5b5060fb5460ff166101ec565b34801561035a57600080fd5b5061020d610369366004611da9565b6108db565b34801561037a57600080fd5b506102776108fa565b34801561038f57600080fd5b5061027761039e366004611eed565b61092e565b3480156103af57600080fd5b50610277610943565b3480156103c457600080fd5b50610277610a44565b3480156103d957600080fd5b5060c9546040516001600160a01b0390911681526020016101c3565b34801561040157600080fd5b506101b6610a76565b34801561041657600080fd5b50610277610a85565b34801561042b57600080fd5b5061020d61043a366004611f2e565b610ab7565b34801561044b57600080fd5b506101ec61045a366004611eed565b610ae2565b34801561046b57600080fd5b506101ec61047a366004611eed565b610b68565b34801561048b57600080fd5b5061020d61049a366004611dc3565b610b76565b3480156104ab57600080fd5b506102776104ba366004611da9565b610ba1565b6060603680546104ce906122ac565b80601f01602080910402602001604051908101604052809291908181526020018280546104fa906122ac565b80156105475780601f1061051c57610100808354040283529160200191610547565b820191906000526020600020905b81548152906001019060200180831161052a57829003601f168201915b5050505050905090565b60003361055f818585610c48565b60019150505b92915050565b600033610579858285610d6c565b610584858585610de6565b60019150505b9392505050565b306001600160a01b037f00000000000000000000000000000000000000000000000000000000000000001614156105e35760405162461bcd60e51b81526004016105da90611f95565b60405180910390fd5b7f00000000000000000000000000000000000000000000000000000000000000006001600160a01b031661062c600080516020612314833981519152546001600160a01b031690565b6001600160a01b0316146106525760405162461bcd60e51b81526004016105da90611fe1565b61065b81610fbf565b6040805160008082526020820190925261067791839190610fe9565b50565b60003361055f81858561068d8383610b76565b61069791906120fb565b610c48565b60c9546001600160a01b031633146106c65760405162461bcd60e51b81526004016105da9061207b565b6106ce61116d565b565b60c9546001600160a01b031633146106fa5760405162461bcd60e51b81526004016105da9061207b565b6107048282611200565b5050565b61067733826112ec565b6001600160a01b038216600090815260976020526040812081908190610739908590611446565b91509150816107505761074b856108db565b610752565b805b95945050505050565b306001600160a01b037f00000000000000000000000000000000000000000000000000000000000000001614156107a45760405162461bcd60e51b81526004016105da90611f95565b7f00000000000000000000000000000000000000000000000000000000000000006001600160a01b03166107ed600080516020612314833981519152546001600160a01b031690565b6001600160a01b0316146108135760405162461bcd60e51b81526004016105da90611fe1565b61081c82610fbf565b61070482826001610fe9565b6000306001600160a01b037f000000000000000000000000000000000000000000000000000000000000000016146108c85760405162461bcd60e51b815260206004820152603860248201527f555550535570677261646561626c653a206d757374206e6f742062652063616c60448201527f6c6564207468726f7567682064656c656761746563616c6c000000000000000060648201526084016105da565b5060008051602061231483398151915290565b6001600160a01b0381166000908152603360205260409020545b919050565b60c9546001600160a01b031633146109245760405162461bcd60e51b81526004016105da9061207b565b6106ce600061154b565b610939823383610d6c565b61070482826112ec565b600061094f600161159d565b90508015610967576000805461ff0019166101001790555b6109b16040518060400160405280600d81526020016c2b37b63ab73a32b2b92437bab960991b815250604051806040016040528060038152602001622b242960e91b815250611622565b6109b9611653565b6109c1611653565b6109c961167a565b6109d16116a9565b6109d9611653565b6109fc336109e96012600a612179565b6109f7906301406f4061224a565b611200565b8015610677576000805461ff0019169055604051600181527f7f26b83ff96e1f2b6a682f133852f6798a09c465da95921460cefb38474024989060200160405180910390a150565b60c9546001600160a01b03163314610a6e5760405162461bcd60e51b81526004016105da9061207b565b6106ce6116d8565b6060603780546104ce906122ac565b60c9546001600160a01b03163314610aaf5760405162461bcd60e51b81526004016105da9061207b565b610677611753565b6000806000610ac7846098611446565b9150915081610ad857603554610ada565b805b949350505050565b60003381610af08286610b76565b905083811015610b505760405162461bcd60e51b815260206004820152602560248201527f45524332303a2064656372656173656420616c6c6f77616e63652062656c6f77604482015264207a65726f60d81b60648201526084016105da565b610b5d8286868403610c48565b506001949350505050565b60003361055f818585610de6565b6001600160a01b03918216600090815260346020908152604080832093909416825291909152205490565b60c9546001600160a01b03163314610bcb5760405162461bcd60e51b81526004016105da9061207b565b6001600160a01b038116610c305760405162461bcd60e51b815260206004820152602660248201527f4f776e61626c653a206e6577206f776e657220697320746865207a65726f206160448201526564647265737360d01b60648201526084016105da565b6106778161154b565b6001600160a01b03163b151590565b6001600160a01b038316610caa5760405162461bcd60e51b8152602060048201526024808201527f45524332303a20617070726f76652066726f6d20746865207a65726f206164646044820152637265737360e01b60648201526084016105da565b6001600160a01b038216610d0b5760405162461bcd60e51b815260206004820152602260248201527f45524332303a20617070726f766520746f20746865207a65726f206164647265604482015261737360f01b60648201526084016105da565b6001600160a01b0383811660008181526034602090815260408083209487168084529482529182902085905590518481527f8c5be1e5ebec7d5bd14f71427d1e84f3dd0314c0f7b2291e5b200ac8c7c3b925910160405180910390a3505050565b6000610d788484610b76565b90506000198114610de05781811015610dd35760405162461bcd60e51b815260206004820152601d60248201527f45524332303a20696e73756666696369656e7420616c6c6f77616e636500000060448201526064016105da565b610de08484848403610c48565b50505050565b6001600160a01b038316610e4a5760405162461bcd60e51b815260206004820152602560248201527f45524332303a207472616e736665722066726f6d20746865207a65726f206164604482015264647265737360d81b60648201526084016105da565b6001600160a01b038216610eac5760405162461bcd60e51b815260206004820152602360248201527f45524332303a207472616e7366657220746f20746865207a65726f206164647260448201526265737360e81b60648201526084016105da565b610eb78383836117ad565b6001600160a01b03831660009081526033602052604090205481811015610f2f5760405162461bcd60e51b815260206004820152602660248201527f45524332303a207472616e7366657220616d6f756e7420657863656564732062604482015265616c616e636560d01b60648201526084016105da565b6001600160a01b03808516600090815260336020526040808220858503905591851681529081208054849290610f669084906120fb565b92505081905550826001600160a01b0316846001600160a01b03167fddf252ad1be2c89b69c2b068fc378daa952ba7f163c4a11628f55a4df523b3ef84604051610fb291815260200190565b60405180910390a3610de0565b60c9546001600160a01b031633146106775760405162461bcd60e51b81526004016105da9061207b565b7f4910fdfa16fed3260ed0e7147f7cc6da11a60208b5b9406d12a635614ffd91435460ff16156110215761101c836117fe565b611168565b826001600160a01b03166352d1902d6040518163ffffffff1660e01b815260040160206040518083038186803b15801561105a57600080fd5b505afa92505050801561108a575060408051601f3d908101601f1916820190925261108791810190611f16565b60015b6110ed5760405162461bcd60e51b815260206004820152602e60248201527f45524331393637557067726164653a206e657720696d706c656d656e7461746960448201526d6f6e206973206e6f74205555505360901b60648201526084016105da565b600080516020612314833981519152811461115c5760405162461bcd60e51b815260206004820152602960248201527f45524331393637557067726164653a20756e737570706f727465642070726f786044820152681a58589b195555525160ba1b60648201526084016105da565b5061116883838361189a565b505050565b60fb5460ff166111b65760405162461bcd60e51b815260206004820152601460248201527314185d5cd8589b194e881b9bdd081c185d5cd95960621b60448201526064016105da565b60fb805460ff191690557f5db9ee0a495bf2e6ff9c91a7834c1ba4fdd244a5e8aa4e537bd38aeae4b073aa335b6040516001600160a01b03909116815260200160405180910390a1565b6001600160a01b0382166112565760405162461bcd60e51b815260206004820152601f60248201527f45524332303a206d696e7420746f20746865207a65726f20616464726573730060448201526064016105da565b611262600083836117ad565b806035600082825461127491906120fb565b90915550506001600160a01b038216600090815260336020526040812080548392906112a19084906120fb565b90915550506040518181526001600160a01b038316906000907fddf252ad1be2c89b69c2b068fc378daa952ba7f163c4a11628f55a4df523b3ef9060200160405180910390a3610704565b6001600160a01b03821661134c5760405162461bcd60e51b815260206004820152602160248201527f45524332303a206275726e2066726f6d20746865207a65726f206164647265736044820152607360f81b60648201526084016105da565b611358826000836117ad565b6001600160a01b038216600090815260336020526040902054818110156113cc5760405162461bcd60e51b815260206004820152602260248201527f45524332303a206275726e20616d6f756e7420657863656564732062616c616e604482015261636560f01b60648201526084016105da565b6001600160a01b03831660009081526033602052604081208383039055603580548492906113fb908490612269565b90915550506040518281526000906001600160a01b038516907fddf252ad1be2c89b69c2b068fc378daa952ba7f163c4a11628f55a4df523b3ef9060200160405180910390a3611168565b600080600084116114925760405162461bcd60e51b815260206004820152601660248201527504552433230536e617073686f743a20696420697320360541b60448201526064016105da565b61149a6118bf565b8411156114e95760405162461bcd60e51b815260206004820152601d60248201527f4552433230536e617073686f743a206e6f6e6578697374656e7420696400000060448201526064016105da565b60006114f584866118cf565b845490915081141561150e576000809250925050611544565b600184600101828154811061153357634e487b7160e01b600052603260045260246000fd5b906000526020600020015492509250505b9250929050565b60c980546001600160a01b038381166001600160a01b0319831681179093556040519116919082907f8be0079c531659141344cd1fd0a4f28419497f9722a3daafe3b4186f6b6457e090600090a35050565b60008054610100900460ff16156115e4578160ff1660011480156115c05750303b155b6115dc5760405162461bcd60e51b81526004016105da9061202d565b5060006108f5565b60005460ff80841691161061160b5760405162461bcd60e51b81526004016105da9061202d565b506000805460ff191660ff831617905560016108f5565b600054610100900460ff166116495760405162461bcd60e51b81526004016105da906120b0565b61070482826119ae565b600054610100900460ff166106ce5760405162461bcd60e51b81526004016105da906120b0565b600054610100900460ff166116a15760405162461bcd60e51b81526004016105da906120b0565b6106ce6119fc565b600054610100900460ff166116d05760405162461bcd60e51b81526004016105da906120b0565b6106ce611a2c565b60fb5460ff161561171e5760405162461bcd60e51b815260206004820152601060248201526f14185d5cd8589b194e881c185d5cd95960821b60448201526064016105da565b60fb805460ff191660011790557f62e78cea01bee320cd4e420270b5ea74000d11b0c9f74754ebdbfc544b05a2586111e33390565b6000611763609a80546001019055565b600061176d6118bf565b90507f8030e83b04d87bef53480e26263266d6ca66863aa8506aca6f2559d18aa1cb67816040516117a091815260200190565b60405180910390a1905090565b60fb5460ff16156117f35760405162461bcd60e51b815260206004820152601060248201526f14185d5cd8589b194e881c185d5cd95960821b60448201526064016105da565b611168838383611a5f565b6001600160a01b0381163b61186b5760405162461bcd60e51b815260206004820152602d60248201527f455243313936373a206e657720696d706c656d656e746174696f6e206973206e60448201526c1bdd08184818dbdb9d1c9858dd609a1b60648201526084016105da565b60008051602061231483398151915280546001600160a01b0319166001600160a01b0392909216919091179055565b6118a383611aa7565b6000825111806118b05750805b1561116857610de08383611ae7565b60006118ca609a5490565b905090565b81546000906118e057506000610565565b82546000905b8082101561194a5760006118fa8383611bd2565b90508486828154811061191d57634e487b7160e01b600052603260045260246000fd5b9060005260206000200154111561193657809150611944565b6119418160016120fb565b92505b506118e6565b60008211801561198d57508385611962600185612269565b8154811061198057634e487b7160e01b600052603260045260246000fd5b9060005260206000200154145b156119a65761199d600183612269565b92505050610565565b509050610565565b600054610100900460ff166119d55760405162461bcd60e51b81526004016105da906120b0565b81516119e8906036906020850190611cf9565b508051611168906037906020840190611cf9565b600054610100900460ff16611a235760405162461bcd60e51b81526004016105da906120b0565b6106ce3361154b565b600054610100900460ff16611a535760405162461bcd60e51b81526004016105da906120b0565b60fb805460ff19169055565b6001600160a01b038316611a7e57611a7682611bed565b61101c611c17565b6001600160a01b038216611a9557611a7683611bed565b611a9e83611bed565b61116882611bed565b611ab0816117fe565b6040516001600160a01b038216907fbc7cd75a20ee27fd9adebab32041f755214dbc6bffa90cc0225b39da2e5c2d3b90600090a250565b60606001600160a01b0383163b611b4f5760405162461bcd60e51b815260206004820152602660248201527f416464726573733a2064656c65676174652063616c6c20746f206e6f6e2d636f6044820152651b9d1c9858dd60d21b60648201526084016105da565b600080846001600160a01b031684604051611b6a9190611f46565b600060405180830381855af49150503d8060008114611ba5576040519150601f19603f3d011682016040523d82523d6000602084013e611baa565b606091505b5091509150610752828260405180606001604052806027815260200161233460279139611c25565b6000611be16002848418612113565b61058a908484166120fb565b6001600160a01b038116600090815260976020526040902061067790611c12836108db565b611c5e565b6106ce6098611c1260355490565b60608315611c3457508161058a565b825115611c445782518084602001fd5b8160405162461bcd60e51b81526004016105da9190611f62565b6000611c686118bf565b905080611c7484611ca8565b1015611168578254600180820185556000858152602080822090930193909355938401805494850181558252902090910155565b8054600090611cb9575060006108f5565b81548290611cc990600190612269565b81548110611ce757634e487b7160e01b600052603260045260246000fd5b906000526020600020015490506108f5565b828054611d05906122ac565b90600052602060002090601f016020900481019282611d275760008555611d6d565b82601f10611d4057805160ff1916838001178555611d6d565b82800160010185558215611d6d579182015b82811115611d6d578251825591602001919060010190611d52565b50611d79929150611d7d565b5090565b5b80821115611d795760008155600101611d7e565b80356001600160a01b03811681146108f557600080fd5b600060208284031215611dba578081fd5b61058a82611d92565b60008060408385031215611dd5578081fd5b611dde83611d92565b9150611dec60208401611d92565b90509250929050565b600080600060608486031215611e09578081fd5b611e1284611d92565b9250611e2060208501611d92565b9150604084013590509250925092565b60008060408385031215611e42578182fd5b611e4b83611d92565b9150602083013567ffffffffffffffff80821115611e67578283fd5b818501915085601f830112611e7a578283fd5b813581811115611e8c57611e8c6122fd565b604051601f8201601f19908116603f01168101908382118183101715611eb457611eb46122fd565b81604052828152886020848701011115611ecc578586fd5b82602086016020830137856020848301015280955050505050509250929050565b60008060408385031215611eff578182fd5b611f0883611d92565b946020939093013593505050565b600060208284031215611f27578081fd5b5051919050565b600060208284031215611f3f578081fd5b5035919050565b60008251611f58818460208701612280565b9190910192915050565b6000602082528251806020840152611f81816040850160208701612280565b601f01601f19169190910160400192915050565b6020808252602c908201527f46756e6374696f6e206d7573742062652063616c6c6564207468726f7567682060408201526b19195b1959d85d1958d85b1b60a21b606082015260800190565b6020808252602c908201527f46756e6374696f6e206d7573742062652063616c6c6564207468726f7567682060408201526b6163746976652070726f787960a01b606082015260800190565b6020808252602e908201527f496e697469616c697a61626c653a20636f6e747261637420697320616c72656160408201526d191e481a5b9a5d1a585b1a5e995960921b606082015260800190565b6020808252818101527f4f776e61626c653a2063616c6c6572206973206e6f7420746865206f776e6572604082015260600190565b6020808252602b908201527f496e697469616c697a61626c653a20636f6e7472616374206973206e6f74206960408201526a6e697469616c697a696e6760a81b606082015260800190565b6000821982111561210e5761210e6122e7565b500190565b60008261212e57634e487b7160e01b81526012600452602481fd5b500490565b80825b60018086116121455750612170565b818704821115612157576121576122e7565b8086161561216457918102915b9490941c938002612136565b94509492505050565b600061058a60001960ff8516846000826121955750600161058a565b816121a25750600061058a565b81600181146121b857600281146121c2576121ef565b600191505061058a565b60ff8411156121d3576121d36122e7565b6001841b9150848211156121e9576121e96122e7565b5061058a565b5060208310610133831016604e8410600b8410161715612222575081810a8381111561221d5761221d6122e7565b61058a565b61222f8484846001612133565b808604821115612241576122416122e7565b02949350505050565b6000816000190483118215151615612264576122646122e7565b500290565b60008282101561227b5761227b6122e7565b500390565b60005b8381101561229b578181015183820152602001612283565b83811115610de05750506000910152565b6002810460018216806122c057607f821691505b602082108114156122e157634e487b7160e01b600052602260045260246000fd5b50919050565b634e487b7160e01b600052601160045260246000fd5b634e487b7160e01b600052604160045260246000fdfe360894a13ba1a3210667c828492db98dca3e2076cc3735a920a3ca505d382bbc416464726573733a206c6f772d6c6576656c2064656c65676174652063616c6c206661696c6564a2646970667358221220515749cd8610545ff536d818d67a3d62b3ec1b49fa2a30d9d406b74b04ad5c4664736f6c63430008020033496e697469616c697a61626c653a20636f6e747261637420697320616c726561",
  "linkReferences": {},
  "deployedLinkReferences": {}
}