{
  "_format": "hh-sol-artifact-1",
  "contractName": "Igive",
  "sourceName": "contracts/igive.sol",
  "abi": [
    {
      "anonymous": false,
      "inputs": [
        {
          "indexed": false,
          "internalType": "address",
          "name": "previousAdmin",
          "type": "address"
        },
        {
          "indexed": false,
          "internalType": "address",
          "name": "newAdmin",
          "type": "address"
        }
      ],
      "name": "AdminChanged",
      "type": "event"
    },
    {
      "anonymous": false,
      "inputs": [
        {
          "indexed": false,
          "internalType": "address",
          "name": "newAdmin",
          "type": "address"
        }
      ],
      "name": "AdminUpdated",
      "type": "event"
    },
    {
      "anonymous": false,
      "inputs": [
        {
          "indexed": true,
          "internalType": "address",
          "name": "owner",
          "type": "address"
        },
        {
          "indexed": true,
          "internalType": "address",
          "name": "spender",
          "type": "address"
        },
        {
          "indexed": false,
          "internalType": "uint256",
          "name": "value",
          "type": "uint256"
        }
      ],
      "name": "Approval",
      "type": "event"
    },
    {
      "anonymous": false,
      "inputs": [
        {
          "indexed": true,
          "internalType": "address",
          "name": "beacon",
          "type": "address"
        }
      ],
      "name": "BeaconUpgraded",
      "type": "event"
    },
    {
      "anonymous": false,
      "inputs": [
        {
          "indexed": true,
          "internalType": "address",
          "name": "delegator",
          "type": "address"
        },
        {
          "indexed": true,
          "internalType": "address",
          "name": "fromDelegate",
          "type": "address"
        },
        {
          "indexed": true,
          "internalType": "address",
          "name": "toDelegate",
          "type": "address"
        }
      ],
      "name": "DelegateChanged",
      "type": "event"
    },
    {
      "anonymous": false,
      "inputs": [
        {
          "indexed": true,
          "internalType": "address",
          "name": "delegate",
          "type": "address"
        },
        {
          "indexed": false,
          "internalType": "uint256",
          "name": "previousBalance",
          "type": "uint256"
        },
        {
          "indexed": false,
          "internalType": "uint256",
          "name": "newBalance",
          "type": "uint256"
        }
      ],
      "name": "DelegateVotesChanged",
      "type": "event"
    },
    {
      "anonymous": false,
      "inputs": [
        {
          "indexed": true,
          "internalType": "address",
          "name": "user",
          "type": "address"
        },
        {
          "indexed": true,
          "internalType": "uint256",
          "name": "pid",
          "type": "uint256"
        },
        {
          "indexed": false,
          "internalType": "uint256",
          "name": "amount",
          "type": "uint256"
        }
      ],
      "name": "Deposit",
      "type": "event"
    },
    {
      "anonymous": false,
      "inputs": [
        {
          "indexed": true,
          "internalType": "address",
          "name": "user",
          "type": "address"
        },
        {
          "indexed": true,
          "internalType": "uint256",
          "name": "pid",
          "type": "uint256"
        },
        {
          "indexed": false,
          "internalType": "uint256",
          "name": "amount",
          "type": "uint256"
        }
      ],
      "name": "EmergencyWithdraw",
      "type": "event"
    },
    {
      "anonymous": false,
      "inputs": [
        {
          "indexed": false,
          "internalType": "uint8",
          "name": "version",
          "type": "uint8"
        }
      ],
      "name": "Initialized",
      "type": "event"
    },
    {
      "anonymous": false,
      "inputs": [
        {
          "indexed": true,
          "internalType": "address",
          "name": "previousOwner",
          "type": "address"
        },
        {
          "indexed": true,
          "internalType": "address",
          "name": "newOwner",
          "type": "address"
        }
      ],
      "name": "OwnershipTransferred",
      "type": "event"
    },
    {
      "anonymous": false,
      "inputs": [
        {
          "indexed": false,
          "internalType": "address",
          "name": "account",
          "type": "address"
        }
      ],
      "name": "Paused",
      "type": "event"
    },
    {
      "anonymous": false,
      "inputs": [
        {
          "indexed": true,
          "internalType": "address",
          "name": "from",
          "type": "address"
        },
        {
          "indexed": true,
          "internalType": "address",
          "name": "to",
          "type": "address"
        },
        {
          "indexed": false,
          "internalType": "uint256",
          "name": "value",
          "type": "uint256"
        }
      ],
      "name": "Transfer",
      "type": "event"
    },
    {
      "anonymous": false,
      "inputs": [
        {
          "indexed": false,
          "internalType": "address",
          "name": "account",
          "type": "address"
        }
      ],
      "name": "Unpaused",
      "type": "event"
    },
    {
      "anonymous": false,
      "inputs": [
        {
          "indexed": true,
          "internalType": "address",
          "name": "implementation",
          "type": "address"
        }
      ],
      "name": "Upgraded",
      "type": "event"
    },
    {
      "anonymous": false,
      "inputs": [
        {
          "indexed": true,
          "internalType": "address",
          "name": "user",
          "type": "address"
        },
        {
          "indexed": true,
          "internalType": "uint256",
          "name": "pid",
          "type": "uint256"
        },
        {
          "indexed": false,
          "internalType": "uint256",
          "name": "amount",
          "type": "uint256"
        }
      ],
      "name": "Withdraw",
      "type": "event"
    },
    {
      "inputs": [],
      "name": "BONUS_MULTIPLIER",
      "outputs": [
        {
          "internalType": "uint256",
          "name": "",
          "type": "uint256"
        }
      ],
      "stateMutability": "view",
      "type": "function"
    },
    {
      "inputs": [],
      "name": "DOMAIN_SEPARATOR",
      "outputs": [
        {
          "internalType": "bytes32",
          "name": "",
          "type": "bytes32"
        }
      ],
      "stateMutability": "view",
      "type": "function"
    },
    {
      "inputs": [],
      "name": "GOOD",
      "outputs": [
        {
          "internalType": "contract IERC20Upgradeable",
          "name": "",
          "type": "address"
        }
      ],
      "stateMutability": "view",
      "type": "function"
    },
    {
      "inputs": [
        {
          "internalType": "uint256",
          "name": "_pid",
          "type": "uint256"
        },
        {
          "internalType": "address",
          "name": "_to",
          "type": "address"
        },
        {
          "internalType": "uint256",
          "name": "_amount",
          "type": "uint256"
        }
      ],
      "name": "accessGOODTokens",
      "outputs": [],
      "stateMutability": "nonpayable",
      "type": "function"
    },
    {
      "inputs": [
        {
          "internalType": "uint256",
          "name": "_allocPoint",
          "type": "uint256"
        },
        {
          "internalType": "contract IERC20Upgradeable",
          "name": "_lpToken",
          "type": "address"
        },
        {
          "internalType": "bool",
          "name": "_withUpdate",
          "type": "bool"
        }
      ],
      "name": "add",
      "outputs": [],
      "stateMutability": "nonpayable",
      "type": "function"
    },
    {
      "inputs": [
        {
          "internalType": "address",
          "name": "_adminAddress",
          "type": "address"
        }
      ],
      "name": "admin",
      "outputs": [],
      "stateMutability": "nonpayable",
      "type": "function"
    },
    {
      "inputs": [],
      "name": "adminAddress",
      "outputs": [
        {
          "internalType": "address",
          "name": "",
          "type": "address"
        }
      ],
      "stateMutability": "view",
      "type": "function"
    },
    {
      "inputs": [
        {
          "internalType": "address",
          "name": "owner",
          "type": "address"
        },
        {
          "internalType": "address",
          "name": "spender",
          "type": "address"
        }
      ],
      "name": "allowance",
      "outputs": [
        {
          "internalType": "uint256",
          "name": "",
          "type": "uint256"
        }
      ],
      "stateMutability": "view",
      "type": "function"
    },
    {
      "inputs": [
        {
          "internalType": "address",
          "name": "spender",
          "type": "address"
        },
        {
          "internalType": "uint256",
          "name": "amount",
          "type": "uint256"
        }
      ],
      "name": "approve",
      "outputs": [
        {
          "internalType": "bool",
          "name": "",
          "type": "bool"
        }
      ],
      "stateMutability": "nonpayable",
      "type": "function"
    },
    {
      "inputs": [
        {
          "internalType": "address",
          "name": "account",
          "type": "address"
        }
      ],
      "name": "balanceOf",
      "outputs": [
        {
          "internalType": "uint256",
          "name": "",
          "type": "uint256"
        }
      ],
      "stateMutability": "view",
      "type": "function"
    },
    {
      "inputs": [
        {
          "internalType": "uint256",
          "name": "_pid",
          "type": "uint256"
        },
        {
          "internalType": "address",
          "name": "user",
          "type": "address"
        }
      ],
      "name": "checkHighestStaker",
      "outputs": [
        {
          "internalType": "bool",
          "name": "",
          "type": "bool"
        }
      ],
      "stateMutability": "view",
      "type": "function"
    },
    {
      "inputs": [
        {
          "internalType": "address",
          "name": "account",
          "type": "address"
        },
        {
          "internalType": "uint32",
          "name": "pos",
          "type": "uint32"
        }
      ],
      "name": "checkpoints",
      "outputs": [
        {
          "components": [
            {
              "internalType": "uint32",
              "name": "fromBlock",
              "type": "uint32"
            },
            {
              "internalType": "uint224",
              "name": "votes",
              "type": "uint224"
            }
          ],
          "internalType": "struct ERC20VotesUpgradeable.Checkpoint",
          "name": "",
          "type": "tuple"
        }
      ],
      "stateMutability": "view",
      "type": "function"
    },
    {
      "inputs": [
        {
          "internalType": "uint256",
          "name": "_pid",
          "type": "uint256"
        }
      ],
      "name": "claimGOOD",
      "outputs": [],
      "stateMutability": "nonpayable",
      "type": "function"
    },
    {
      "inputs": [],
      "name": "decimals",
      "outputs": [
        {
          "internalType": "uint8",
          "name": "",
          "type": "uint8"
        }
      ],
      "stateMutability": "view",
      "type": "function"
    },
    {
      "inputs": [
        {
          "internalType": "address",
          "name": "spender",
          "type": "address"
        },
        {
          "internalType": "uint256",
          "name": "subtractedValue",
          "type": "uint256"
        }
      ],
      "name": "decreaseAllowance",
      "outputs": [
        {
          "internalType": "bool",
          "name": "",
          "type": "bool"
        }
      ],
      "stateMutability": "nonpayable",
      "type": "function"
    },
    {
      "inputs": [
        {
          "internalType": "address",
          "name": "delegatee",
          "type": "address"
        }
      ],
      "name": "delegate",
      "outputs": [],
      "stateMutability": "nonpayable",
      "type": "function"
    },
    {
      "inputs": [
        {
          "internalType": "address",
          "name": "delegatee",
          "type": "address"
        },
        {
          "internalType": "uint256",
          "name": "nonce",
          "type": "uint256"
        },
        {
          "internalType": "uint256",
          "name": "expiry",
          "type": "uint256"
        },
        {
          "internalType": "uint8",
          "name": "v",
          "type": "uint8"
        },
        {
          "internalType": "bytes32",
          "name": "r",
          "type": "bytes32"
        },
        {
          "internalType": "bytes32",
          "name": "s",
          "type": "bytes32"
        }
      ],
      "name": "delegateBySig",
      "outputs": [],
      "stateMutability": "nonpayable",
      "type": "function"
    },
    {
      "inputs": [
        {
          "internalType": "address",
          "name": "account",
          "type": "address"
        }
      ],
      "name": "delegates",
      "outputs": [
        {
          "internalType": "address",
          "name": "",
          "type": "address"
        }
      ],
      "stateMutability": "view",
      "type": "function"
    },
    {
      "inputs": [
        {
          "internalType": "uint256",
          "name": "_pid",
          "type": "uint256"
        },
        {
          "internalType": "uint256",
          "name": "_amount",
          "type": "uint256"
        }
      ],
      "name": "deposit",
      "outputs": [],
      "stateMutability": "nonpayable",
      "type": "function"
    },
    {
      "inputs": [
        {
          "internalType": "uint256",
          "name": "_from",
          "type": "uint256"
        },
        {
          "internalType": "uint256",
          "name": "_to",
          "type": "uint256"
        }
      ],
      "name": "getMultiplier",
      "outputs": [
        {
          "internalType": "uint256",
          "name": "",
          "type": "uint256"
        }
      ],
      "stateMutability": "pure",
      "type": "function"
    },
    {
      "inputs": [
        {
          "internalType": "uint256",
          "name": "blockNumber",
          "type": "uint256"
        }
      ],
      "name": "getPastTotalSupply",
      "outputs": [
        {
          "internalType": "uint256",
          "name": "",
          "type": "uint256"
        }
      ],
      "stateMutability": "view",
      "type": "function"
    },
    {
      "inputs": [
        {
          "internalType": "address",
          "name": "account",
          "type": "address"
        },
        {
          "internalType": "uint256",
          "name": "blockNumber",
          "type": "uint256"
        }
      ],
      "name": "getPastVotes",
      "outputs": [
        {
          "internalType": "uint256",
          "name": "",
          "type": "uint256"
        }
      ],
      "stateMutability": "view",
      "type": "function"
    },
    {
      "inputs": [
        {
          "internalType": "address",
          "name": "account",
          "type": "address"
        }
      ],
      "name": "getVotes",
      "outputs": [
        {
          "internalType": "uint256",
          "name": "",
          "type": "uint256"
        }
      ],
      "stateMutability": "view",
      "type": "function"
    },
    {
      "inputs": [],
      "name": "good",
      "outputs": [
        {
          "internalType": "contract IERC20Upgradeable",
          "name": "",
          "type": "address"
        }
      ],
      "stateMutability": "view",
      "type": "function"
    },
    {
      "inputs": [
        {
          "internalType": "uint256",
          "name": "",
          "type": "uint256"
        },
        {
          "internalType": "uint256",
          "name": "",
          "type": "uint256"
        }
      ],
      "name": "highestStakerInPool",
      "outputs": [
        {
          "internalType": "uint256",
          "name": "deposited",
          "type": "uint256"
        },
        {
          "internalType": "address",
          "name": "addr",
          "type": "address"
        }
      ],
      "stateMutability": "view",
      "type": "function"
    },
    {
      "inputs": [
        {
          "internalType": "address",
          "name": "spender",
          "type": "address"
        },
        {
          "internalType": "uint256",
          "name": "addedValue",
          "type": "uint256"
        }
      ],
      "name": "increaseAllowance",
      "outputs": [
        {
          "internalType": "bool",
          "name": "",
          "type": "bool"
        }
      ],
      "stateMutability": "nonpayable",
      "type": "function"
    },
    {
      "inputs": [
        {
          "internalType": "contract IERC20Upgradeable",
          "name": "_good",
          "type": "address"
        },
        {
          "internalType": "address",
          "name": "_adminAddress",
          "type": "address"
        },
        {
          "internalType": "uint256",
          "name": "_startBlock",
          "type": "uint256"
        },
        {
          "internalType": "uint256",
          "name": "_topStakerNumber",
          "type": "uint256"
        }
      ],
      "name": "initialize",
      "outputs": [],
      "stateMutability": "nonpayable",
      "type": "function"
    },
    {
      "inputs": [],
      "name": "massUpdatePools",
      "outputs": [],
      "stateMutability": "nonpayable",
      "type": "function"
    },
    {
      "inputs": [],
      "name": "name",
      "outputs": [
        {
          "internalType": "string",
          "name": "",
          "type": "string"
        }
      ],
      "stateMutability": "view",
      "type": "function"
    },
    {
      "inputs": [
        {
          "internalType": "address",
          "name": "owner",
          "type": "address"
        }
      ],
      "name": "nonces",
      "outputs": [
        {
          "internalType": "uint256",
          "name": "",
          "type": "uint256"
        }
      ],
      "stateMutability": "view",
      "type": "function"
    },
    {
      "inputs": [
        {
          "internalType": "address",
          "name": "account",
          "type": "address"
        }
      ],
      "name": "numCheckpoints",
      "outputs": [
        {
          "internalType": "uint32",
          "name": "",
          "type": "uint32"
        }
      ],
      "stateMutability": "view",
      "type": "function"
    },
    {
      "inputs": [],
      "name": "owner",
      "outputs": [
        {
          "internalType": "address",
          "name": "",
          "type": "address"
        }
      ],
      "stateMutability": "view",
      "type": "function"
    },
    {
      "inputs": [],
      "name": "paused",
      "outputs": [
        {
          "internalType": "bool",
          "name": "",
          "type": "bool"
        }
      ],
      "stateMutability": "view",
      "type": "function"
    },
    {
      "inputs": [
        {
          "internalType": "uint256",
          "name": "_pid",
          "type": "uint256"
        },
        {
          "internalType": "address",
          "name": "_user",
          "type": "address"
        }
      ],
      "name": "pendingGOOD",
      "outputs": [
        {
          "internalType": "uint256",
          "name": "",
          "type": "uint256"
        }
      ],
      "stateMutability": "view",
      "type": "function"
    },
    {
      "inputs": [
        {
          "internalType": "address",
          "name": "owner",
          "type": "address"
        },
        {
          "internalType": "address",
          "name": "spender",
          "type": "address"
        },
        {
          "internalType": "uint256",
          "name": "value",
          "type": "uint256"
        },
        {
          "internalType": "uint256",
          "name": "deadline",
          "type": "uint256"
        },
        {
          "internalType": "uint8",
          "name": "v",
          "type": "uint8"
        },
        {
          "internalType": "bytes32",
          "name": "r",
          "type": "bytes32"
        },
        {
          "internalType": "bytes32",
          "name": "s",
          "type": "bytes32"
        }
      ],
      "name": "permit",
      "outputs": [],
      "stateMutability": "nonpayable",
      "type": "function"
    },
    {
      "inputs": [
        {
          "internalType": "uint256",
          "name": "",
          "type": "uint256"
        }
      ],
      "name": "poolInfo",
      "outputs": [
        {
          "internalType": "contract IERC20Upgradeable",
          "name": "lpToken",
          "type": "address"
        },
        {
          "internalType": "uint256",
          "name": "allocPoint",
          "type": "uint256"
        },
        {
          "internalType": "uint256",
          "name": "lastRewardBlock",
          "type": "uint256"
        },
        {
          "internalType": "uint256",
          "name": "accGOODPerShare",
          "type": "uint256"
        },
        {
          "internalType": "uint256",
          "name": "lastTotalGOODReward",
          "type": "uint256"
        },
        {
          "internalType": "uint256",
          "name": "lastGOODRewardBalance",
          "type": "uint256"
        },
        {
          "internalType": "uint256",
          "name": "totalGOODReward",
          "type": "uint256"
        }
      ],
      "stateMutability": "view",
      "type": "function"
    },
    {
      "inputs": [],
      "name": "poolLength",
      "outputs": [
        {
          "internalType": "uint256",
          "name": "",
          "type": "uint256"
        }
      ],
      "stateMutability": "view",
      "type": "function"
    },
    {
      "inputs": [],
      "name": "proxiableUUID",
      "outputs": [
        {
          "internalType": "bytes32",
          "name": "",
          "type": "bytes32"
        }
      ],
      "stateMutability": "view",
      "type": "function"
    },
    {
      "inputs": [],
      "name": "renounceOwnership",
      "outputs": [],
      "stateMutability": "nonpayable",
      "type": "function"
    },
    {
      "inputs": [
        {
          "internalType": "uint256",
          "name": "_pid",
          "type": "uint256"
        },
        {
          "internalType": "uint256",
          "name": "_allocPoint",
          "type": "uint256"
        },
        {
          "internalType": "bool",
          "name": "_withUpdate",
          "type": "bool"
        }
      ],
      "name": "set",
      "outputs": [],
      "stateMutability": "nonpayable",
      "type": "function"
    },
    {
      "inputs": [],
      "name": "startBlock",
      "outputs": [
        {
          "internalType": "uint256",
          "name": "",
          "type": "uint256"
        }
      ],
      "stateMutability": "view",
      "type": "function"
    },
    {
      "inputs": [],
      "name": "symbol",
      "outputs": [
        {
          "internalType": "string",
          "name": "",
          "type": "string"
        }
      ],
      "stateMutability": "view",
      "type": "function"
    },
    {
      "inputs": [],
      "name": "topStakerNumber",
      "outputs": [
        {
          "internalType": "uint256",
          "name": "",
          "type": "uint256"
        }
      ],
      "stateMutability": "view",
      "type": "function"
    },
    {
      "inputs": [],
      "name": "totalAllocPoint",
      "outputs": [
        {
          "internalType": "uint256",
          "name": "",
          "type": "uint256"
        }
      ],
      "stateMutability": "view",
      "type": "function"
    },
    {
      "inputs": [],
      "name": "totalGOODStaked",
      "outputs": [
        {
          "internalType": "uint256",
          "name": "",
          "type": "uint256"
        }
      ],
      "stateMutability": "view",
      "type": "function"
    },
    {
      "inputs": [],
      "name": "totalGoodUsedForPurchase",
      "outputs": [
        {
          "internalType": "uint256",
          "name": "",
          "type": "uint256"
        }
      ],
      "stateMutability": "view",
      "type": "function"
    },
    {
      "inputs": [],
      "name": "totalSupply",
      "outputs": [
        {
          "internalType": "uint256",
          "name": "",
          "type": "uint256"
        }
      ],
      "stateMutability": "view",
      "type": "function"
    },
    {
      "inputs": [
        {
          "internalType": "address",
          "name": "to",
          "type": "address"
        },
        {
          "internalType": "uint256",
          "name": "amount",
          "type": "uint256"
        }
      ],
      "name": "transfer",
      "outputs": [
        {
          "internalType": "bool",
          "name": "",
          "type": "bool"
        }
      ],
      "stateMutability": "nonpayable",
      "type": "function"
    },
    {
      "inputs": [
        {
          "internalType": "address",
          "name": "from",
          "type": "address"
        },
        {
          "internalType": "address",
          "name": "to",
          "type": "address"
        },
        {
          "internalType": "uint256",
          "name": "amount",
          "type": "uint256"
        }
      ],
      "name": "transferFrom",
      "outputs": [
        {
          "internalType": "bool",
          "name": "",
          "type": "bool"
        }
      ],
      "stateMutability": "nonpayable",
      "type": "function"
    },
    {
      "inputs": [
        {
          "internalType": "address",
          "name": "newOwner",
          "type": "address"
        }
      ],
      "name": "transferOwnership",
      "outputs": [],
      "stateMutability": "nonpayable",
      "type": "function"
    },
    {
      "inputs": [
        {
          "internalType": "uint256",
          "name": "_pid",
          "type": "uint256"
        }
      ],
      "name": "updatePool",
      "outputs": [],
      "stateMutability": "nonpayable",
      "type": "function"
    },
    {
      "inputs": [
        {
          "internalType": "address",
          "name": "newImplementation",
          "type": "address"
        }
      ],
      "name": "upgradeTo",
      "outputs": [],
      "stateMutability": "nonpayable",
      "type": "function"
    },
    {
      "inputs": [
        {
          "internalType": "address",
          "name": "newImplementation",
          "type": "address"
        },
        {
          "internalType": "bytes",
          "name": "data",
          "type": "bytes"
        }
      ],
      "name": "upgradeToAndCall",
      "outputs": [],
      "stateMutability": "payable",
      "type": "function"
    },
    {
      "inputs": [
        {
          "internalType": "uint256",
          "name": "",
          "type": "uint256"
        },
        {
          "internalType": "address",
          "name": "",
          "type": "address"
        }
      ],
      "name": "userInfo",
      "outputs": [
        {
          "internalType": "uint256",
          "name": "amount",
          "type": "uint256"
        },
        {
          "internalType": "uint256",
          "name": "rewardDebt",
          "type": "uint256"
        },
        {
          "internalType": "uint256",
          "name": "rewardGOODDebt",
          "type": "uint256"
        }
      ],
      "stateMutability": "view",
      "type": "function"
    },
    {
      "inputs": [
        {
          "internalType": "uint256",
          "name": "_pid",
          "type": "uint256"
        },
        {
          "internalType": "uint256",
          "name": "_amount",
          "type": "uint256"
        }
      ],
      "name": "withdraw",
      "outputs": [],
      "stateMutability": "nonpayable",
      "type": "function"
    }
  ],
  "bytecode": "0x60a06040523060601b60805234801561001757600080fd5b5060805160601c614be961005260003960008181610f4601528181610f8f01528181611269015281816112a901526114710152614be96000f3fe6080604052600436106103505760003560e01c80636f10947c116101c6578063aa8fb40b116100f7578063e2bbb15811610095578063f1127ed81161006f578063f1127ed814610a20578063f2fde38b14610a6a578063fc6f946814610a8a578063ff793c2514610aab57600080fd5b8063e2bbb158146109c0578063eb990c59146109e0578063ed3a20ad14610a0057600080fd5b8063c3cda520116100d1578063c3cda5201461093f578063d505accf1461095f578063d5580ea61461097f578063dd62ed3e146109a057600080fd5b8063aa8fb40b146108e7578063ab2a662614610908578063ae2f57491461092857600080fd5b80638dbb1e3a1161016457806395d89b411161013e57806395d89b41146108725780639ab24eb014610887578063a457c2d7146108a7578063a9059cbb146108c757600080fd5b80638dbb1e3a146107cf5780638e539e8c146107ef57806393f1a40b1461080f57600080fd5b8063715018a6116101a0578063715018a6146107665780637ecebe001461077b5780638aa285501461079b5780638da5cb5b146107b057600080fd5b80636f10947c146106e45780636fcfff45146106fb57806370a082311461073057600080fd5b80633a46b1a8116102a0578063587cde1e1161023e578063630b5ba111610218578063630b5ba11461066f57806363a846f81461068457806364482f79146106a45780636e2e2d73146106c457600080fd5b8063587cde1e146105e45780635c19a95c146106365780635c975abb1461065657600080fd5b806348cd4cb11161027a57806348cd4cb1146105855780634f1ef2861461059c57806351eb05a6146105af57806352d1902d146105cf57600080fd5b80633a46b1a81461052e578063433b0a2c1461054e578063441a3e701461056557600080fd5b80631eaaa0451161030d578063313ce567116102e7578063313ce567146104bd5780633644e515146104d95780633659cfe6146104ee578063395093511461050e57600080fd5b80631eaaa0451461045b57806323b872dd1461047d578063301d69dd1461049d57600080fd5b806306fdde0314610355578063081e3eda14610380578063095ea7b3146103a05780631526fe27146103d057806317caf6f11461042f57806318160ddd14610446575b600080fd5b34801561036157600080fd5b5061036a610ae8565b60405161037791906144d9565b60405180910390f35b34801561038c57600080fd5b506101cb545b604051908152602001610377565b3480156103ac57600080fd5b506103c06103bb366004614521565b610b7a565b6040519015158152602001610377565b3480156103dc57600080fd5b506103f06103eb36600461454d565b610b94565b604080516001600160a01b0390981688526020880196909652948601939093526060850191909152608084015260a083015260c082015260e001610377565b34801561043b57600080fd5b506103926101cd5481565b34801561045257600080fd5b50609954610392565b34801561046757600080fd5b5061047b610476366004614574565b610bee565b005b34801561048957600080fd5b506103c06104983660046145b6565b610da6565b3480156104a957600080fd5b5061047b6104b836600461454d565b610dcc565b3480156104c957600080fd5b5060405160128152602001610377565b3480156104e557600080fd5b50610392610f2c565b3480156104fa57600080fd5b5061047b6105093660046145f7565b610f3b565b34801561051a57600080fd5b506103c0610529366004614521565b611024565b34801561053a57600080fd5b50610392610549366004614521565b611046565b34801561055a57600080fd5b506103926101d05481565b34801561057157600080fd5b5061047b610580366004614614565b6110ba565b34801561059157600080fd5b506103926101ce5481565b61047b6105aa36600461464c565b61125e565b3480156105bb57600080fd5b5061047b6105ca36600461454d565b61132f565b3480156105db57600080fd5b50610392611464565b3480156105f057600080fd5b5061061e6105ff3660046145f7565b6001600160a01b03908116600090815261013060205260409020541690565b6040516001600160a01b039091168152602001610377565b34801561064257600080fd5b5061047b6106513660046145f7565b611517565b34801561066257600080fd5b506101945460ff166103c0565b34801561067b57600080fd5b5061047b611521565b34801561069057600080fd5b5061047b61069f3660046145f7565b611549565b3480156106b057600080fd5b5061047b6106bf366004614710565b611633565b3480156106d057600080fd5b506103c06106df36600461473e565b6116c4565b3480156106f057600080fd5b506103926101ca5481565b34801561070757600080fd5b5061071b6107163660046145f7565b611742565b60405163ffffffff9091168152602001610377565b34801561073c57600080fd5b5061039261074b3660046145f7565b6001600160a01b031660009081526097602052604090205490565b34801561077257600080fd5b5061047b611765565b34801561078757600080fd5b506103926107963660046145f7565b611779565b3480156107a757600080fd5b50610392600181565b3480156107bc57600080fd5b50610162546001600160a01b031661061e565b3480156107db57600080fd5b506103926107ea366004614614565b611797565b3480156107fb57600080fd5b5061039261080a36600461454d565b6117c6565b34801561081b57600080fd5b5061085761082a36600461473e565b6101cc60209081526000928352604080842090915290825290208054600182015460029092015490919083565b60408051938452602084019290925290820152606001610377565b34801561087e57600080fd5b5061036a611823565b34801561089357600080fd5b506103926108a23660046145f7565b611832565b3480156108b357600080fd5b506103c06108c2366004614521565b6118bb565b3480156108d357600080fd5b506103c06108e2366004614521565b611941565b3480156108f357600080fd5b506101c65461061e906001600160a01b031681565b34801561091457600080fd5b5061039261092336600461473e565b61194f565b34801561093457600080fd5b506103926101cf5481565b34801561094b57600080fd5b5061047b61095a366004614784565b611a7b565b34801561096b57600080fd5b5061047b61097a3660046147de565b611bb1565b34801561098b57600080fd5b506101c85461061e906001600160a01b031681565b3480156109ac57600080fd5b506103926109bb36600461484c565b611d15565b3480156109cc57600080fd5b5061047b6109db366004614614565b611d40565b3480156109ec57600080fd5b5061047b6109fb36600461487a565b611ea5565b348015610a0c57600080fd5b5061047b610a1b3660046148c0565b6120c8565b348015610a2c57600080fd5b50610a40610a3b3660046148e7565b6123fc565b60408051825163ffffffff1681526020928301516001600160e01b03169281019290925201610377565b348015610a7657600080fd5b5061047b610a853660046145f7565b612481565b348015610a9657600080fd5b506101c95461061e906001600160a01b031681565b348015610ab757600080fd5b50610acb610ac6366004614614565b6124f7565b604080519283526001600160a01b03909116602083015201610377565b6060609a8054610af79061491e565b80601f0160208091040260200160405190810160405280929190818152602001828054610b239061491e565b8015610b705780601f10610b4557610100808354040283529160200191610b70565b820191906000526020600020905b815481529060010190602001808311610b5357829003601f168201915b5050505050905090565b600033610b8881858561253d565b60019150505b92915050565b6101cb8181548110610ba557600080fd5b600091825260209091206007909102018054600182015460028301546003840154600485015460058601546006909601546001600160a01b039095169650929491939092919087565b610bf6612661565b8015610c0457610c04611521565b60006101ce544311610c19576101ce54610c1b565b435b6101cd54909150610c2c90856126bc565b6101cd556040805160e0810182526001600160a01b039485168152602081019586529081019182526000606082018181526080830182815260a0840183815260c085018481526101cb8054600181018255955294517fe8bbfecd380c4167d6a1f763a233ec73e73f534b1970c4e1683f437ec23c1f44600790950294850180546001600160a01b031916919099161790975596517fe8bbfecd380c4167d6a1f763a233ec73e73f534b1970c4e1683f437ec23c1f4583015592517fe8bbfecd380c4167d6a1f763a233ec73e73f534b1970c4e1683f437ec23c1f4682015591517fe8bbfecd380c4167d6a1f763a233ec73e73f534b1970c4e1683f437ec23c1f4783015593517fe8bbfecd380c4167d6a1f763a233ec73e73f534b1970c4e1683f437ec23c1f4882015591517fe8bbfecd380c4167d6a1f763a233ec73e73f534b1970c4e1683f437ec23c1f498301555090517fe8bbfecd380c4167d6a1f763a233ec73e73f534b1970c4e1683f437ec23c1f4a90910155565b600033610db48582856126c8565b610dbf858585612742565b60019150505b9392505050565b60006101cb8281548110610de257610de2614953565b600091825260208083208584526101cc82526040808520338652909252922060079091029091019150610e148361132f565b6000610e4e8260020154610e4864e8d4a51000610e428760030154876000015461292190919063ffffffff16565b9061292d565b90612939565b8354909150610e67906001600160a01b03163383612945565b610efe610e836101d0546101cf5461293990919063ffffffff16565b84546040516370a0823160e01b81523060048201526001600160a01b03909116906370a08231906024015b60206040518083038186803b158015610ec657600080fd5b505afa158015610eda573d6000803e3d6000fd5b505050506040513d601f19601f82011682018060405250810190610e489190614969565b600584015560038301548254610f1e9164e8d4a5100091610e4291612921565b826002018190555050505050565b6000610f366129ad565b905090565b306001600160a01b037f0000000000000000000000000000000000000000000000000000000000000000161415610f8d5760405162461bcd60e51b8152600401610f8490614982565b60405180910390fd5b7f00000000000000000000000000000000000000000000000000000000000000006001600160a01b0316610fd6600080516020614b6d833981519152546001600160a01b031690565b6001600160a01b031614610ffc5760405162461bcd60e51b8152600401610f84906149ce565b61100581612a28565b6040805160008082526020820190925261102191839190612aa0565b50565b600033610b888185856110378383611d15565b6110419190614a30565b61253d565b60004382106110975760405162461bcd60e51b815260206004820152601f60248201527f4552433230566f7465733a20626c6f636b206e6f7420796574206d696e6564006044820152606401610f84565b6001600160a01b038316600090815261013160205260409020610dc59083612c1a565b60006101cb83815481106110d0576110d0614953565b600091825260208083208684526101cc82526040808520338652909252922080546007909202909201925083111561113f5760405162461bcd60e51b81526020600482015260126024820152711dda5d1a191c985dce881b9bdd0819dbdbd960721b6044820152606401610f84565b6111488461132f565b60006111768260020154610e4864e8d4a51000610e428760030154876000015461292190919063ffffffff16565b835490915061118f906001600160a01b03163383612945565b6111ab610e836101d0546101cf5461293990919063ffffffff16565b600584015581546111bc9085612939565b82556101cf546111cc9085612939565b6101cf55600383015482546111eb9164e8d4a5100091610e4291612921565b60028301558254611206906001600160a01b03163386612945565b61121585836000015433612cd7565b61121f3385612d88565b604051848152859033907ff279e6a1f5e320cca91135676d9cb6e44ca8a08c0b88342bcdb1144f6511b568906020015b60405180910390a35050505050565b306001600160a01b037f00000000000000000000000000000000000000000000000000000000000000001614156112a75760405162461bcd60e51b8152600401610f8490614982565b7f00000000000000000000000000000000000000000000000000000000000000006001600160a01b03166112f0600080516020614b6d833981519152546001600160a01b031690565b6001600160a01b0316146113165760405162461bcd60e51b8152600401610f84906149ce565b61131f82612a28565b61132b82826001612aa0565b5050565b60006101cb828154811061134557611345614953565b600091825260208083208584526101cc8252604080852033865290925292206002600790920290920190810154909250431161138057505050565b600061139e610e836101d0546101cf5461293990919063ffffffff16565b905060006113c76113bc85600501548461293990919063ffffffff16565b6006860154906126bc565b60058501839055600685018190556101cf549091508061141357505043600280850191909155600060038501819055600485018190559201829055506005820181905560069091015550565b600061142c86600401548461293990919063ffffffff16565b905061144f61144483610e428464e8d4a51000612921565b6003880154906126bc565b60038701555050600490930192909255505050565b6000306001600160a01b037f000000000000000000000000000000000000000000000000000000000000000016146115045760405162461bcd60e51b815260206004820152603860248201527f555550535570677261646561626c653a206d757374206e6f742062652063616c60448201527f6c6564207468726f7567682064656c656761746563616c6c00000000000000006064820152608401610f84565b50600080516020614b6d83398151915290565b6110213382612d92565b6101cb5460005b8181101561132b576115398161132f565b61154281614a48565b9050611528565b6001600160a01b0381166115955760405162461bcd60e51b815260206004820152601360248201527261646d696e3a205a65726f206164647265737360681b6044820152606401610f84565b6101c9546001600160a01b031633146115de5760405162461bcd60e51b815260206004820152600b60248201526a61646d696e3a207775743f60a81b6044820152606401610f84565b6101c980546001600160a01b0319166001600160a01b0383169081179091556040519081527f54e4612788f90384e6843298d7854436f3a585b2c3831ab66abf1de63bfa6c2d9060200160405180910390a150565b61163b612661565b801561164957611649611521565b61168e826116886101cb868154811061166457611664614953565b9060005260206000209060070201600101546101cd5461293990919063ffffffff16565b906126bc565b6101cd81905550816101cb84815481106116aa576116aa614953565b906000526020600020906007020160010181905550505050565b60008281526101c760205260408120815b815481101561173a57836001600160a01b03168282815481106116fa576116fa614953565b60009182526020909120600160029092020101546001600160a01b0316141561172857600192505050610b8e565b8061173281614a48565b9150506116d5565b505092915050565b6001600160a01b03811660009081526101316020526040812054610b8e90612df4565b61176d612661565b6117776000612e5d565b565b6001600160a01b038116600090815260fd6020526040812054610b8e565b60008282106117bc576117b560016117af8486612939565b90612921565b9050610b8e565b6117b58383612939565b60004382106118175760405162461bcd60e51b815260206004820152601f60248201527f4552433230566f7465733a20626c6f636b206e6f7420796574206d696e6564006044820152606401610f84565b610b8e61013283612c1a565b6060609b8054610af79061491e565b6001600160a01b0381166000908152610131602052604081205480156118a8576001600160a01b038316600090815261013160205260409020611876600183614a63565b8154811061188657611886614953565b60009182526020909120015464010000000090046001600160e01b03166118ab565b60005b6001600160e01b03169392505050565b600033816118c98286611d15565b9050838110156119295760405162461bcd60e51b815260206004820152602560248201527f45524332303a2064656372656173656420616c6c6f77616e63652062656c6f77604482015264207a65726f60d81b6064820152608401610f84565b611936828686840361253d565b506001949350505050565b600033610b88818585612742565b6000806101cb848154811061196657611966614953565b600091825260208083208784526101cc825260408085206001600160a01b0389168652909252922060036007909202909201908101546101cf5460028301549294509091431180156119b757508015155b15611a48576000611a096119da6101d0546101cf5461293990919063ffffffff16565b86546040516370a0823160e01b81523060048201526001600160a01b03909116906370a0823190602401610eae565b90506000611a2486600501548361293990919063ffffffff16565b9050611a43611a3c84610e428464e8d4a51000612921565b85906126bc565b935050505b611a708360020154610e4864e8d4a51000610e4286886000015461292190919063ffffffff16565b979650505050505050565b83421115611acb5760405162461bcd60e51b815260206004820152601d60248201527f4552433230566f7465733a207369676e617475726520657870697265640000006044820152606401610f84565b604080517fe48329057bfd03d55e49b547132e39cffd9c1820ad7b9d4c5307691425d15adf60208201526001600160a01b038816918101919091526060810186905260808101859052600090611b4590611b3d9060a00160405160208183030381529060405280519060200120612eb0565b858585612efe565b9050611b5081612f26565b8614611b9e5760405162461bcd60e51b815260206004820152601960248201527f4552433230566f7465733a20696e76616c6964206e6f6e6365000000000000006044820152606401610f84565b611ba88188612d92565b50505050505050565b83421115611c015760405162461bcd60e51b815260206004820152601d60248201527f45524332305065726d69743a206578706972656420646561646c696e650000006044820152606401610f84565b60007f6e71edae12b1b97f4d1f60370fef10105fa2faae0126114a169c64845d6126c9888888611c308c612f26565b6040805160208101969096526001600160a01b0394851690860152929091166060840152608083015260a082015260c0810186905260e0016040516020818303038152906040528051906020012090506000611c8b82612eb0565b90506000611c9b82878787612efe565b9050896001600160a01b0316816001600160a01b031614611cfe5760405162461bcd60e51b815260206004820152601e60248201527f45524332305065726d69743a20696e76616c6964207369676e617475726500006044820152606401610f84565b611d098a8a8a61253d565b50505050505050505050565b6001600160a01b03918216600090815260986020908152604080832093909416825291909152205490565b60006101cb8381548110611d5657611d56614953565b600091825260208083208684526101cc82526040808520338652909252922060079091029091019150611d888461132f565b805415611df9576000611dbd8260020154610e4864e8d4a51000610e428760030154876000015461292190919063ffffffff16565b8354909150611dd6906001600160a01b03163383612945565b611df2610e836101d0546101cf5461293990919063ffffffff16565b6005840155505b8154611e10906001600160a01b0316333086612f4e565b6101cf54611e1e90846126bc565b6101cf558054611e2e90846126bc565b8082556003830154611e4b9164e8d4a5100091610e429190612921565b60028201558054611e5e90859033612f86565b611e68338461314f565b604051838152849033907f90890809c654f11d6e72a28fa60149770a0d11ec6c92319d6ceb2bb0a4ea1a159060200160405180910390a350505050565b600054610100900460ff1615808015611ec55750600054600160ff909116105b80611edf5750303b158015611edf575060005460ff166001145b611f425760405162461bcd60e51b815260206004820152602e60248201527f496e697469616c697a61626c653a20636f6e747261637420697320616c72656160448201526d191e481a5b9a5d1a585b1a5e995960921b6064820152608401610f84565b6000805460ff191660011790558015611f65576000805461ff0019166101001790555b6001600160a01b038416611fbb5760405162461bcd60e51b815260206004820152601860248201527f696e697469616c697a653a205a65726f206164647265737300000000000000006044820152606401610f84565b611fc3613159565b61200760405180604001604052806005815260200164694769766560d81b81525060405180604001604052806005815260200164694769766560d81b815250613188565b61200f6131d6565b61203560405180604001604052806005815260200164694769766560d81b81525061320a565b61203d613254565b6101c880546001600160a01b038088166001600160a01b0319928316179092556101c98054928716929091169190911790556101ce8390556101ca82905580156120c1576000805461ff0019169055604051600181527f7f26b83ff96e1f2b6a682f133852f6798a09c465da95921460cefb38474024989060200160405180910390a15b5050505050565b6101c9546001600160a01b031633146121235760405162461bcd60e51b815260206004820152601c60248201527f73656e646572206d7573742062652061646d696e2061646472657373000000006044820152606401610f84565b8061213d6101d0546101cf5461293990919063ffffffff16565b101561219f5760405162461bcd60e51b815260206004820152602b60248201527f416d6f756e74206d757374206265206c657373207468616e207374616b65642060448201526a11d3d3d108185b5bdd5b9d60aa1b6064820152608401610f84565b60006101cb84815481106121b5576121b5614953565b6000918252602082206007919091020180546040516370a0823160e01b81523060048201529193506001600160a01b0316906370a082319060240160206040518083038186803b15801561220857600080fd5b505afa15801561221c573d6000803e3d6000fd5b505050506040513d601f19601f820116820180604052508101906122409190614969565b90508083111561232757815460405163a9059cbb60e01b81526001600160a01b038681166004830152602482018490529091169063a9059cbb90604401602060405180830381600087803b15801561229757600080fd5b505af11580156122ab573d6000803e3d6000fd5b505050506040513d601f19601f820116820180604052508101906122cf9190614a7a565b506101d0546122de90826126bc565b6101d05560405181815285906001600160a01b038616907fbb757047c2b5f3974fe26b7c10f732e7bce710b0952a71082702781e62ae05959060200160405180910390a36120c1565b815460405163a9059cbb60e01b81526001600160a01b038681166004830152602482018690529091169063a9059cbb90604401602060405180830381600087803b15801561237457600080fd5b505af1158015612388573d6000803e3d6000fd5b505050506040513d601f19601f820116820180604052508101906123ac9190614a7a565b506101d0546123bb90846126bc565b6101d05560405183815285906001600160a01b038616907fbb757047c2b5f3974fe26b7c10f732e7bce710b0952a71082702781e62ae05959060200161124f565b60408051808201909152600080825260208201526001600160a01b038316600090815261013160205260409020805463ffffffff841690811061244157612441614953565b60009182526020918290206040805180820190915291015463ffffffff8116825264010000000090046001600160e01b0316918101919091529392505050565b612489612661565b6001600160a01b0381166124ee5760405162461bcd60e51b815260206004820152602660248201527f4f776e61626c653a206e6577206f776e657220697320746865207a65726f206160448201526564647265737360d01b6064820152608401610f84565b61102181612e5d565b6101c7602052816000526040600020818154811061251457600080fd5b6000918252602090912060029091020180546001909101549092506001600160a01b0316905082565b6001600160a01b03831661259f5760405162461bcd60e51b8152602060048201526024808201527f45524332303a20617070726f76652066726f6d20746865207a65726f206164646044820152637265737360e01b6064820152608401610f84565b6001600160a01b0382166126005760405162461bcd60e51b815260206004820152602260248201527f45524332303a20617070726f766520746f20746865207a65726f206164647265604482015261737360f01b6064820152608401610f84565b6001600160a01b0383811660008181526098602090815260408083209487168084529482529182902085905590518481527f8c5be1e5ebec7d5bd14f71427d1e84f3dd0314c0f7b2291e5b200ac8c7c3b925910160405180910390a3505050565b610162546001600160a01b031633146117775760405162461bcd60e51b815260206004820181905260248201527f4f776e61626c653a2063616c6c6572206973206e6f7420746865206f776e65726044820152606401610f84565b6000610dc58284614a30565b60006126d48484611d15565b9050600019811461273c578181101561272f5760405162461bcd60e51b815260206004820152601d60248201527f45524332303a20696e73756666696369656e7420616c6c6f77616e63650000006044820152606401610f84565b61273c848484840361253d565b50505050565b6001600160a01b0383166127a65760405162461bcd60e51b815260206004820152602560248201527f45524332303a207472616e736665722066726f6d20746865207a65726f206164604482015264647265737360d81b6064820152608401610f84565b6001600160a01b0382166128085760405162461bcd60e51b815260206004820152602360248201527f45524332303a207472616e7366657220746f20746865207a65726f206164647260448201526265737360e81b6064820152608401610f84565b61281383838361327b565b6001600160a01b0383166000908152609760205260409020548181101561288b5760405162461bcd60e51b815260206004820152602660248201527f45524332303a207472616e7366657220616d6f756e7420657863656564732062604482015265616c616e636560d01b6064820152608401610f84565b6001600160a01b038085166000908152609760205260408082208585039055918516815290812080548492906128c2908490614a30565b92505081905550826001600160a01b0316846001600160a01b03167fddf252ad1be2c89b69c2b068fc378daa952ba7f163c4a11628f55a4df523b3ef8460405161290e91815260200190565b60405180910390a361273c8484846132e3565b6000610dc58284614a97565b6000610dc58284614ab6565b6000610dc58284614a63565b6040516001600160a01b0383166024820152604481018290526129a890849063a9059cbb60e01b906064015b60408051601f198184030181529190526020810180516001600160e01b03166001600160e01b0319909316929092179091526132ee565b505050565b6000610f367f8b73c3c69bb8fe3d512ecc4cf759cc79239f7b179b0ffacaa9a75d522b39400f6129dc60c95490565b60ca546040805160208101859052908101839052606081018290524660808201523060a082015260009060c0016040516020818303038152906040528051906020012090509392505050565b33612a3c610162546001600160a01b031690565b6001600160a01b0316146110215760405162461bcd60e51b815260206004820152602560248201527f4f6e6c79206f776e65722063616e207570677261646520696d706c656d656e7460448201526430ba34b7b760d91b6064820152608401610f84565b7f4910fdfa16fed3260ed0e7147f7cc6da11a60208b5b9406d12a635614ffd91435460ff1615612ad3576129a8836133c0565b826001600160a01b03166352d1902d6040518163ffffffff1660e01b815260040160206040518083038186803b158015612b0c57600080fd5b505afa925050508015612b3c575060408051601f3d908101601f19168201909252612b3991810190614969565b60015b612b9f5760405162461bcd60e51b815260206004820152602e60248201527f45524331393637557067726164653a206e657720696d706c656d656e7461746960448201526d6f6e206973206e6f74205555505360901b6064820152608401610f84565b600080516020614b6d8339815191528114612c0e5760405162461bcd60e51b815260206004820152602960248201527f45524331393637557067726164653a20756e737570706f727465642070726f786044820152681a58589b195555525160ba1b6064820152608401610f84565b506129a883838361345c565b8154600090815b81811015612c7e576000612c358284613481565b905084868281548110612c4a57612c4a614953565b60009182526020909120015463ffffffff161115612c6a57809250612c78565b612c75816001614a30565b91505b50612c21565b8115612cc25784612c90600184614a63565b81548110612ca057612ca0614953565b60009182526020909120015464010000000090046001600160e01b0316612cc5565b60005b6001600160e01b031695945050505050565b60008381526101c760205260408120905b81548110156120c157826001600160a01b0316828281548110612d0d57612d0d614953565b60009182526020909120600160029092020101546001600160a01b03161415612d7657818181548110612d4257612d42614953565b60009182526020822060029091020190815560010180546001600160a01b031916905583156120c1576120c1858585612f86565b80612d8081614a48565b915050612ce8565b61132b828261349c565b612d9d6000836116c4565b15612dea5760405162461bcd60e51b815260206004820152601a60248201527f546f70207374616b65722063616e6e6f742064656c65676174650000000000006044820152606401610f84565b61132b82826134b5565b600063ffffffff821115612e595760405162461bcd60e51b815260206004820152602660248201527f53616665436173743a2076616c756520646f65736e27742066697420696e203360448201526532206269747360d01b6064820152608401610f84565b5090565b61016280546001600160a01b038381166001600160a01b0319831681179093556040519116919082907f8be0079c531659141344cd1fd0a4f28419497f9722a3daafe3b4186f6b6457e090600090a35050565b6000610b8e612ebd6129ad565b8360405161190160f01b6020820152602281018390526042810182905260009060620160405160208183030381529060405280519060200120905092915050565b6000806000612f0f87878787613530565b91509150612f1c8161361d565b5095945050505050565b6001600160a01b038116600090815260fd602052604090208054600181018255905b50919050565b6040516001600160a01b038085166024830152831660448201526064810182905261273c9085906323b872dd60e01b90608401612971565b60008381526101c7602052604081205b805482101561302f57826001600160a01b0316818381548110612fbb57612fbb614953565b60009182526020909120600160029092020101546001600160a01b0316141561301d5783818381548110612ff157612ff1614953565b6000918252602082206002909102019190915581546120c191879161301890600190614a63565b6137d8565b8161302781614a48565b925050612f96565b6101ca548154101561309957604080518082019091528481526001600160a01b038481166020808401918252845460018082018755600087815292909220945160029091029094019384559051920180546001600160a01b03191692909116919091179055613138565b83816000815481106130ad576130ad614953565b90600052602060002090600202016000015410156131385783816000815481106130d9576130d9614953565b906000526020600020906002020160000181905550828160008154811061310257613102614953565b906000526020600020906002020160010160006101000a8154816001600160a01b0302191690836001600160a01b031602179055505b6120c1856000600184805490506130189190614a63565b61132b8282613ad3565b600054610100900460ff166131805760405162461bcd60e51b8152600401610f8490614ad8565b611777613b5e565b600054610100900460ff166131af5760405162461bcd60e51b8152600401610f8490614ad8565b81516131c290609a90602085019061441d565b5080516129a890609b90602084019061441d565b600054610100900460ff166131fd5760405162461bcd60e51b8152600401610f8490614ad8565b610194805460ff19169055565b600054610100900460ff166132315760405162461bcd60e51b8152600401610f8490614ad8565b61102181604051806040016040528060018152602001603160f81b815250613b8e565b600054610100900460ff166117775760405162461bcd60e51b8152600401610f8490614ad8565b6001600160a01b038316158061329857506001600160a01b038216155b156132a257505050565b60405162461bcd60e51b81526020600482015260166024820152752737b7103a3930b739b332b930b13632903a37b5b2b760511b6044820152606401610f84565b6129a8838383613bcf565b6000613343826040518060400160405280602081526020017f5361666545524332303a206c6f772d6c6576656c2063616c6c206661696c6564815250856001600160a01b0316613c029092919063ffffffff16565b8051909150156129a857808060200190518101906133619190614a7a565b6129a85760405162461bcd60e51b815260206004820152602a60248201527f5361666545524332303a204552433230206f7065726174696f6e20646964206e6044820152691bdd081cdd58d8d9595960b21b6064820152608401610f84565b6001600160a01b0381163b61342d5760405162461bcd60e51b815260206004820152602d60248201527f455243313936373a206e657720696d706c656d656e746174696f6e206973206e60448201526c1bdd08184818dbdb9d1c9858dd609a1b6064820152608401610f84565b600080516020614b6d83398151915280546001600160a01b0319166001600160a01b0392909216919091179055565b61346583613c19565b6000825111806134725750805b156129a85761273c8383613c59565b60006134906002848418614ab6565b610dc590848416614a30565b6134a68282613d4d565b61273c61013261293983613eae565b6001600160a01b0382811660008181526101306020818152604080842080546097845282862054949093528787166001600160a01b03198416811790915590519190951694919391928592917f3134e8a2e6d97e929a7e54011ea5485d7d196dd5f0ba4d4ef95803e8e3fc257f9190a461273c828483614027565b6000807f7fffffffffffffffffffffffffffffff5d576e7357a4501ddfe92f46681b20a08311156135675750600090506003613614565b8460ff16601b1415801561357f57508460ff16601c14155b156135905750600090506004613614565b6040805160008082526020820180845289905260ff881692820192909252606081018690526080810185905260019060a0016020604051602081039080840390855afa1580156135e4573d6000803e3d6000fd5b5050604051601f1901519150506001600160a01b03811661360d57600060019250925050613614565b9150600090505b94509492505050565b600081600481111561363157613631614b23565b141561363a5750565b600181600481111561364e5761364e614b23565b141561369c5760405162461bcd60e51b815260206004820152601860248201527f45434453413a20696e76616c6964207369676e617475726500000000000000006044820152606401610f84565b60028160048111156136b0576136b0614b23565b14156136fe5760405162461bcd60e51b815260206004820152601f60248201527f45434453413a20696e76616c6964207369676e6174757265206c656e677468006044820152606401610f84565b600381600481111561371257613712614b23565b141561376b5760405162461bcd60e51b815260206004820152602260248201527f45434453413a20696e76616c6964207369676e6174757265202773272076616c604482015261756560f01b6064820152608401610f84565b600481600481111561377f5761377f614b23565b14156110215760405162461bcd60e51b815260206004820152602260248201527f45434453413a20696e76616c6964207369676e6174757265202776272076616c604482015261756560f01b6064820152608401610f84565b60008381526101c7602052604090208183106137f45750505050565b6002600082826138048688614a30565b61380e9190614ab6565b8154811061381e5761381e614953565b6000918252602090912060029091020154905084845b80821015613a9c575b8285838154811061385057613850614953565b90600052602060002090600202016000015410156138785761387182614a48565b915061383d565b8285828154811061388b5761388b614953565b90600052602060002090600202016000015411156138b3576138ac81614b39565b9050613878565b8481815481106138c5576138c5614953565b9060005260206000209060020201600001548583815481106138e9576138e9614953565b9060005260206000209060020201600001541115613a8c5784818154811061391357613913614953565b90600052602060002090600202016000015485838154811061393757613937614953565b90600052602060002090600202016000015486848154811061395b5761395b614953565b9060005260206000209060020201600001600088858154811061398057613980614953565b6000918252602090912060029091020192909255919091555084548590829081106139ad576139ad614953565b906000526020600020906002020160010160009054906101000a90046001600160a01b03168583815481106139e4576139e4614953565b906000526020600020906002020160010160009054906101000a90046001600160a01b0316868481548110613a1b57613a1b614953565b90600052602060002090600202016001016000888581548110613a4057613a40614953565b6000918252602090912060016002909202010180546001600160a01b039485166001600160a01b031990911617905581549383166101009190910a908102920219909216179055613834565b613a9582614a48565b9150613834565b86811115613ab457613ab48888613018600185614a63565b613ac988613ac3836001614a30565b886137d8565b5050505050505050565b613add8282614166565b6099546001600160e01b031015613b4f5760405162461bcd60e51b815260206004820152603060248201527f4552433230566f7465733a20746f74616c20737570706c79207269736b73206f60448201526f766572666c6f77696e6720766f74657360801b6064820152608401610f84565b61273c6101326126bc83613eae565b600054610100900460ff16613b855760405162461bcd60e51b8152600401610f8490614ad8565b61177733612e5d565b600054610100900460ff16613bb55760405162461bcd60e51b8152600401610f8490614ad8565b81516020928301208151919092012060c99190915560ca55565b6001600160a01b03838116600090815261013060205260408082205485841683529120546129a892918216911683614027565b6060613c118484600085614259565b949350505050565b613c22816133c0565b6040516001600160a01b038216907fbc7cd75a20ee27fd9adebab32041f755214dbc6bffa90cc0225b39da2e5c2d3b90600090a250565b60606001600160a01b0383163b613cc15760405162461bcd60e51b815260206004820152602660248201527f416464726573733a2064656c65676174652063616c6c20746f206e6f6e2d636f6044820152651b9d1c9858dd60d21b6064820152608401610f84565b600080846001600160a01b031684604051613cdc9190614b50565b600060405180830381855af49150503d8060008114613d17576040519150601f19603f3d011682016040523d82523d6000602084013e613d1c565b606091505b5091509150613d448282604051806060016040528060278152602001614b8d6027913961437b565b95945050505050565b6001600160a01b038216613dad5760405162461bcd60e51b815260206004820152602160248201527f45524332303a206275726e2066726f6d20746865207a65726f206164647265736044820152607360f81b6064820152608401610f84565b613db98260008361327b565b6001600160a01b03821660009081526097602052604090205481811015613e2d5760405162461bcd60e51b815260206004820152602260248201527f45524332303a206275726e20616d6f756e7420657863656564732062616c616e604482015261636560f01b6064820152608401610f84565b6001600160a01b0383166000908152609760205260408120838303905560998054849290613e5c908490614a63565b90915550506040518281526000906001600160a01b038516907fddf252ad1be2c89b69c2b068fc378daa952ba7f163c4a11628f55a4df523b3ef9060200160405180910390a36129a8836000846132e3565b825460009081908015613ef95785613ec7600183614a63565b81548110613ed757613ed7614953565b60009182526020909120015464010000000090046001600160e01b0316613efc565b60005b6001600160e01b03169250613f1583858763ffffffff16565b9150600081118015613f5357504386613f2f600184614a63565b81548110613f3f57613f3f614953565b60009182526020909120015463ffffffff16145b15613fb357613f61826143b4565b86613f6d600184614a63565b81548110613f7d57613f7d614953565b9060005260206000200160000160046101000a8154816001600160e01b0302191690836001600160e01b0316021790555061401e565b856040518060400160405280613fc843612df4565b63ffffffff168152602001613fdc856143b4565b6001600160e01b0390811690915282546001810184556000938452602093849020835194909301519091166401000000000263ffffffff909316929092179101555b50935093915050565b816001600160a01b0316836001600160a01b0316141580156140495750600081115b156129a8576001600160a01b038316156140d8576001600160a01b03831660009081526101316020526040812081906140859061293985613eae565b91509150846001600160a01b03167fdec2bacdd2f05b59de34da9b523dff8be42e5e38e818c82fdb0bae774387a72483836040516140cd929190918252602082015260400190565b60405180910390a250505b6001600160a01b038216156129a8576001600160a01b038216600090815261013160205260408120819061410f906126bc85613eae565b91509150836001600160a01b03167fdec2bacdd2f05b59de34da9b523dff8be42e5e38e818c82fdb0bae774387a7248383604051614157929190918252602082015260400190565b60405180910390a25050505050565b6001600160a01b0382166141bc5760405162461bcd60e51b815260206004820152601f60248201527f45524332303a206d696e7420746f20746865207a65726f2061646472657373006044820152606401610f84565b6141c86000838361327b565b80609960008282546141da9190614a30565b90915550506001600160a01b03821660009081526097602052604081208054839290614207908490614a30565b90915550506040518181526001600160a01b038316906000907fddf252ad1be2c89b69c2b068fc378daa952ba7f163c4a11628f55a4df523b3ef9060200160405180910390a361132b600083836132e3565b6060824710156142ba5760405162461bcd60e51b815260206004820152602660248201527f416464726573733a20696e73756666696369656e742062616c616e636520666f6044820152651c8818d85b1b60d21b6064820152608401610f84565b6001600160a01b0385163b6143115760405162461bcd60e51b815260206004820152601d60248201527f416464726573733a2063616c6c20746f206e6f6e2d636f6e74726163740000006044820152606401610f84565b600080866001600160a01b0316858760405161432d9190614b50565b60006040518083038185875af1925050503d806000811461436a576040519150601f19603f3d011682016040523d82523d6000602084013e61436f565b606091505b5091509150611a708282865b6060831561438a575081610dc5565b82511561439a5782518084602001fd5b8160405162461bcd60e51b8152600401610f8491906144d9565b60006001600160e01b03821115612e595760405162461bcd60e51b815260206004820152602760248201527f53616665436173743a2076616c756520646f65736e27742066697420696e20326044820152663234206269747360c81b6064820152608401610f84565b8280546144299061491e565b90600052602060002090601f01602090048101928261444b5760008555614491565b82601f1061446457805160ff1916838001178555614491565b82800160010185558215614491579182015b82811115614491578251825591602001919060010190614476565b50612e599291505b80821115612e595760008155600101614499565b60005b838110156144c85781810151838201526020016144b0565b8381111561273c5750506000910152565b60208152600082518060208401526144f88160408501602087016144ad565b601f01601f19169190910160400192915050565b6001600160a01b038116811461102157600080fd5b6000806040838503121561453457600080fd5b823561453f8161450c565b946020939093013593505050565b60006020828403121561455f57600080fd5b5035919050565b801515811461102157600080fd5b60008060006060848603121561458957600080fd5b83359250602084013561459b8161450c565b915060408401356145ab81614566565b809150509250925092565b6000806000606084860312156145cb57600080fd5b83356145d68161450c565b925060208401356145e68161450c565b929592945050506040919091013590565b60006020828403121561460957600080fd5b8135610dc58161450c565b6000806040838503121561462757600080fd5b50508035926020909101359150565b634e487b7160e01b600052604160045260246000fd5b6000806040838503121561465f57600080fd5b823561466a8161450c565b9150602083013567ffffffffffffffff8082111561468757600080fd5b818501915085601f83011261469b57600080fd5b8135818111156146ad576146ad614636565b604051601f8201601f19908116603f011681019083821181831017156146d5576146d5614636565b816040528281528860208487010111156146ee57600080fd5b8260208601602083013760006020848301015280955050505050509250929050565b60008060006060848603121561472557600080fd5b833592506020840135915060408401356145ab81614566565b6000806040838503121561475157600080fd5b8235915060208301356147638161450c565b809150509250929050565b803560ff8116811461477f57600080fd5b919050565b60008060008060008060c0878903121561479d57600080fd5b86356147a88161450c565b955060208701359450604087013593506147c46060880161476e565b92506080870135915060a087013590509295509295509295565b600080600080600080600060e0888a0312156147f957600080fd5b87356148048161450c565b965060208801356148148161450c565b955060408801359450606088013593506148306080890161476e565b925060a0880135915060c0880135905092959891949750929550565b6000806040838503121561485f57600080fd5b823561486a8161450c565b915060208301356147638161450c565b6000806000806080858703121561489057600080fd5b843561489b8161450c565b935060208501356148ab8161450c565b93969395505050506040820135916060013590565b6000806000606084860312156148d557600080fd5b8335925060208401356145e68161450c565b600080604083850312156148fa57600080fd5b82356149058161450c565b9150602083013563ffffffff8116811461476357600080fd5b600181811c9082168061493257607f821691505b60208210811415612f4857634e487b7160e01b600052602260045260246000fd5b634e487b7160e01b600052603260045260246000fd5b60006020828403121561497b57600080fd5b5051919050565b6020808252602c908201527f46756e6374696f6e206d7573742062652063616c6c6564207468726f7567682060408201526b19195b1959d85d1958d85b1b60a21b606082015260800190565b6020808252602c908201527f46756e6374696f6e206d7573742062652063616c6c6564207468726f7567682060408201526b6163746976652070726f787960a01b606082015260800190565b634e487b7160e01b600052601160045260246000fd5b60008219821115614a4357614a43614a1a565b500190565b6000600019821415614a5c57614a5c614a1a565b5060010190565b600082821015614a7557614a75614a1a565b500390565b600060208284031215614a8c57600080fd5b8151610dc581614566565b6000816000190483118215151615614ab157614ab1614a1a565b500290565b600082614ad357634e487b7160e01b600052601260045260246000fd5b500490565b6020808252602b908201527f496e697469616c697a61626c653a20636f6e7472616374206973206e6f74206960408201526a6e697469616c697a696e6760a81b606082015260800190565b634e487b7160e01b600052602160045260246000fd5b600081614b4857614b48614a1a565b506000190190565b60008251614b628184602087016144ad565b919091019291505056fe360894a13ba1a3210667c828492db98dca3e2076cc3735a920a3ca505d382bbc416464726573733a206c6f772d6c6576656c2064656c65676174652063616c6c206661696c6564a264697066735822122024434b0519a5cfc9d5fc018c32f3f91bd389f53e8bdc49919b6d631c3f511f9264736f6c63430008080033",
  "linkReferences": {},
  "deployedLinkReferences": {}
}