{
  "_format": "hh-sol-artifact-1",
  "contractName": "Timelock",
  "sourceName": "contracts/timelock.sol",
  "abi": [
    {
      "anonymous": false,
      "inputs": [
        {
          "indexed": false,
          "internalType": "address",
          "name": "previousAdmin",
          "type": "address"
        },
        {
          "indexed": false,
          "internalType": "address",
          "name": "newAdmin",
          "type": "address"
        }
      ],
      "name": "AdminChanged",
      "type": "event"
    },
    {
      "anonymous": false,
      "inputs": [
        {
          "indexed": true,
          "internalType": "address",
          "name": "beacon",
          "type": "address"
        }
      ],
      "name": "BeaconUpgraded",
      "type": "event"
    },
    {
      "anonymous": false,
      "inputs": [
        {
          "indexed": true,
          "internalType": "bytes32",
          "name": "txHash",
          "type": "bytes32"
        },
        {
          "indexed": true,
          "internalType": "address",
          "name": "target",
          "type": "address"
        },
        {
          "indexed": false,
          "internalType": "uint256",
          "name": "value",
          "type": "uint256"
        },
        {
          "indexed": false,
          "internalType": "string",
          "name": "signature",
          "type": "string"
        },
        {
          "indexed": false,
          "internalType": "bytes",
          "name": "data",
          "type": "bytes"
        },
        {
          "indexed": false,
          "internalType": "uint256",
          "name": "eta",
          "type": "uint256"
        }
      ],
      "name": "CancelTransaction",
      "type": "event"
    },
    {
      "anonymous": false,
      "inputs": [
        {
          "indexed": true,
          "internalType": "bytes32",
          "name": "txHash",
          "type": "bytes32"
        },
        {
          "indexed": true,
          "internalType": "address",
          "name": "target",
          "type": "address"
        },
        {
          "indexed": false,
          "internalType": "uint256",
          "name": "value",
          "type": "uint256"
        },
        {
          "indexed": false,
          "internalType": "string",
          "name": "signature",
          "type": "string"
        },
        {
          "indexed": false,
          "internalType": "bytes",
          "name": "data",
          "type": "bytes"
        },
        {
          "indexed": false,
          "internalType": "uint256",
          "name": "eta",
          "type": "uint256"
        }
      ],
      "name": "ExecuteTransaction",
      "type": "event"
    },
    {
      "anonymous": false,
      "inputs": [
        {
          "indexed": false,
          "internalType": "uint8",
          "name": "version",
          "type": "uint8"
        }
      ],
      "name": "Initialized",
      "type": "event"
    },
    {
      "anonymous": false,
      "inputs": [
        {
          "indexed": true,
          "internalType": "address",
          "name": "newAdmin",
          "type": "address"
        }
      ],
      "name": "NewAdmin",
      "type": "event"
    },
    {
      "anonymous": false,
      "inputs": [
        {
          "indexed": true,
          "internalType": "uint256",
          "name": "newDelay",
          "type": "uint256"
        }
      ],
      "name": "NewDelay",
      "type": "event"
    },
    {
      "anonymous": false,
      "inputs": [
        {
          "indexed": true,
          "internalType": "address",
          "name": "newPendingAdmin",
          "type": "address"
        }
      ],
      "name": "NewPendingAdmin",
      "type": "event"
    },
    {
      "anonymous": false,
      "inputs": [
        {
          "indexed": true,
          "internalType": "bytes32",
          "name": "txHash",
          "type": "bytes32"
        },
        {
          "indexed": true,
          "internalType": "address",
          "name": "target",
          "type": "address"
        },
        {
          "indexed": false,
          "internalType": "uint256",
          "name": "value",
          "type": "uint256"
        },
        {
          "indexed": false,
          "internalType": "string",
          "name": "signature",
          "type": "string"
        },
        {
          "indexed": false,
          "internalType": "bytes",
          "name": "data",
          "type": "bytes"
        },
        {
          "indexed": false,
          "internalType": "uint256",
          "name": "eta",
          "type": "uint256"
        }
      ],
      "name": "QueueTransaction",
      "type": "event"
    },
    {
      "anonymous": false,
      "inputs": [
        {
          "indexed": true,
          "internalType": "address",
          "name": "implementation",
          "type": "address"
        }
      ],
      "name": "Upgraded",
      "type": "event"
    },
    {
      "inputs": [],
      "name": "GRACE_PERIOD",
      "outputs": [
        {
          "internalType": "uint256",
          "name": "",
          "type": "uint256"
        }
      ],
      "stateMutability": "view",
      "type": "function"
    },
    {
      "inputs": [],
      "name": "MAXIMUM_DELAY",
      "outputs": [
        {
          "internalType": "uint256",
          "name": "",
          "type": "uint256"
        }
      ],
      "stateMutability": "view",
      "type": "function"
    },
    {
      "inputs": [],
      "name": "MINIMUM_DELAY",
      "outputs": [
        {
          "internalType": "uint256",
          "name": "",
          "type": "uint256"
        }
      ],
      "stateMutability": "view",
      "type": "function"
    },
    {
      "inputs": [],
      "name": "acceptAdmin",
      "outputs": [],
      "stateMutability": "nonpayable",
      "type": "function"
    },
    {
      "inputs": [],
      "name": "admin",
      "outputs": [
        {
          "internalType": "address",
          "name": "",
          "type": "address"
        }
      ],
      "stateMutability": "view",
      "type": "function"
    },
    {
      "inputs": [],
      "name": "adminInitialized",
      "outputs": [
        {
          "internalType": "bool",
          "name": "",
          "type": "bool"
        }
      ],
      "stateMutability": "view",
      "type": "function"
    },
    {
      "inputs": [
        {
          "internalType": "address",
          "name": "target",
          "type": "address"
        },
        {
          "internalType": "uint256",
          "name": "value",
          "type": "uint256"
        },
        {
          "internalType": "string",
          "name": "signature",
          "type": "string"
        },
        {
          "internalType": "bytes",
          "name": "data",
          "type": "bytes"
        },
        {
          "internalType": "uint256",
          "name": "eta",
          "type": "uint256"
        }
      ],
      "name": "cancelTransaction",
      "outputs": [],
      "stateMutability": "nonpayable",
      "type": "function"
    },
    {
      "inputs": [],
      "name": "delay",
      "outputs": [
        {
          "internalType": "uint256",
          "name": "",
          "type": "uint256"
        }
      ],
      "stateMutability": "view",
      "type": "function"
    },
    {
      "inputs": [
        {
          "internalType": "address",
          "name": "target",
          "type": "address"
        },
        {
          "internalType": "uint256",
          "name": "value",
          "type": "uint256"
        },
        {
          "internalType": "string",
          "name": "signature",
          "type": "string"
        },
        {
          "internalType": "bytes",
          "name": "data",
          "type": "bytes"
        },
        {
          "internalType": "uint256",
          "name": "eta",
          "type": "uint256"
        }
      ],
      "name": "executeTransaction",
      "outputs": [
        {
          "internalType": "bytes",
          "name": "",
          "type": "bytes"
        }
      ],
      "stateMutability": "payable",
      "type": "function"
    },
    {
      "inputs": [
        {
          "internalType": "address",
          "name": "admin_",
          "type": "address"
        },
        {
          "internalType": "uint256",
          "name": "delay_",
          "type": "uint256"
        }
      ],
      "name": "initialize",
      "outputs": [],
      "stateMutability": "nonpayable",
      "type": "function"
    },
    {
      "inputs": [],
      "name": "pendingAdmin",
      "outputs": [
        {
          "internalType": "address",
          "name": "",
          "type": "address"
        }
      ],
      "stateMutability": "view",
      "type": "function"
    },
    {
      "inputs": [],
      "name": "proxiableUUID",
      "outputs": [
        {
          "internalType": "bytes32",
          "name": "",
          "type": "bytes32"
        }
      ],
      "stateMutability": "view",
      "type": "function"
    },
    {
      "inputs": [
        {
          "internalType": "address",
          "name": "target",
          "type": "address"
        },
        {
          "internalType": "uint256",
          "name": "value",
          "type": "uint256"
        },
        {
          "internalType": "string",
          "name": "signature",
          "type": "string"
        },
        {
          "internalType": "bytes",
          "name": "data",
          "type": "bytes"
        },
        {
          "internalType": "uint256",
          "name": "eta",
          "type": "uint256"
        }
      ],
      "name": "queueTransaction",
      "outputs": [
        {
          "internalType": "bytes32",
          "name": "",
          "type": "bytes32"
        }
      ],
      "stateMutability": "nonpayable",
      "type": "function"
    },
    {
      "inputs": [
        {
          "internalType": "bytes32",
          "name": "",
          "type": "bytes32"
        }
      ],
      "name": "queuedTransactions",
      "outputs": [
        {
          "internalType": "bool",
          "name": "",
          "type": "bool"
        }
      ],
      "stateMutability": "view",
      "type": "function"
    },
    {
      "inputs": [
        {
          "internalType": "uint256",
          "name": "delay_",
          "type": "uint256"
        }
      ],
      "name": "setDelay",
      "outputs": [],
      "stateMutability": "nonpayable",
      "type": "function"
    },
    {
      "inputs": [
        {
          "internalType": "address",
          "name": "pendingAdmin_",
          "type": "address"
        }
      ],
      "name": "setPendingAdmin",
      "outputs": [],
      "stateMutability": "nonpayable",
      "type": "function"
    },
    {
      "inputs": [
        {
          "internalType": "address",
          "name": "newImplementation",
          "type": "address"
        }
      ],
      "name": "upgradeTo",
      "outputs": [],
      "stateMutability": "nonpayable",
      "type": "function"
    },
    {
      "inputs": [
        {
          "internalType": "address",
          "name": "newImplementation",
          "type": "address"
        },
        {
          "internalType": "bytes",
          "name": "data",
          "type": "bytes"
        }
      ],
      "name": "upgradeToAndCall",
      "outputs": [],
      "stateMutability": "payable",
      "type": "function"
    },
    {
      "stateMutability": "payable",
      "type": "receive"
    }
  ],
  "bytecode": "0x60a06040523060601b60805234801561001757600080fd5b5060805160601c611b9d6100526000396000818161080b0152818161084b01528181610c6601528181610ca60152610d390152611b9d6000f3fe60806040526004361061010d5760003560e01c80636a42b8f811610095578063c1a287e211610064578063c1a287e2146102b3578063cd6dc687146102ca578063e177246e146102ea578063f2b065371461030a578063f851a4401461033a57600080fd5b80636a42b8f8146102475780637d645fab1461025d578063b1b43ae514610274578063bda183241461028957600080fd5b80633a66f901116100dc5780633a66f901146101b15780634dd18bf5146101df5780634f1ef286146101ff57806352d1902d14610212578063591fcdfe1461022757600080fd5b80630825f38f146101195780630e18b6811461014257806326782247146101595780633659cfe61461019157600080fd5b3661011457005b600080fd5b61012c610127366004611742565b61035a565b6040516101399190611837565b60405180910390f35b34801561014e57600080fd5b50610157610736565b005b34801561016557600080fd5b50606654610179906001600160a01b031681565b6040516001600160a01b039091168152602001610139565b34801561019d57600080fd5b506101576101ac36600461184a565b610800565b3480156101bd57600080fd5b506101d16101cc366004611742565b6108e0565b604051908152602001610139565b3480156101eb57600080fd5b506101576101fa36600461184a565b610a95565b61015761020d366004611865565b610c5b565b34801561021e57600080fd5b506101d1610d2c565b34801561023357600080fd5b50610157610242366004611742565b610ddf565b34801561025357600080fd5b506101d160675481565b34801561026957600080fd5b506101d162278d0081565b34801561028057600080fd5b506101d1600181565b34801561029557600080fd5b506068546102a39060ff1681565b6040519015158152602001610139565b3480156102bf57600080fd5b506101d16212750081565b3480156102d657600080fd5b506101576102e53660046118b3565b610ef9565b3480156102f657600080fd5b506101576103053660046118dd565b611124565b34801561031657600080fd5b506102a36103253660046118dd565b60696020526000908152604090205460ff1681565b34801561034657600080fd5b50606554610179906001600160a01b031681565b60606001600160a01b0386166103cd5760405162461bcd60e51b815260206004820152602d60248201527f54696d656c6f636b3a3a657865637574655472616e73616374696f6e3a20496e60448201526c76616c6964206164647265737360981b60648201526084015b60405180910390fd5b6065546001600160a01b0316331461044d5760405162461bcd60e51b815260206004820152603860248201527f54696d656c6f636b3a3a657865637574655472616e73616374696f6e3a20436160448201527f6c6c206d75737420636f6d652066726f6d2061646d696e2e000000000000000060648201526084016103c4565b600086868686866040516020016104689594939291906118f6565b60408051601f1981840301815291815281516020928301206000818152606990935291205490915060ff166104f35760405162461bcd60e51b815260206004820152603d6024820152600080516020611b2183398151915260448201527f616e73616374696f6e206861736e2774206265656e207175657565642e00000060648201526084016103c4565b824210156105655760405162461bcd60e51b81526020600482015260456024820152600080516020611b2183398151915260448201527f616e73616374696f6e206861736e2774207375727061737365642074696d65206064820152643637b1b59760d91b608482015260a4016103c4565b6105728362127500611251565b4211156105cb5760405162461bcd60e51b81526020600482015260336024820152600080516020611b2183398151915260448201527230b739b0b1ba34b7b71034b99039ba30b6329760691b60648201526084016103c4565b6000818152606960205260409020805460ff1916905584516060906105f157508361061d565b85805190602001208560405160200161060b929190611942565b60405160208183030381529060405290505b600080896001600160a01b031689846040516106399190611973565b60006040518083038185875af1925050503d8060008114610676576040519150601f19603f3d011682016040523d82523d6000602084013e61067b565b606091505b5091509150816106e15760405162461bcd60e51b815260206004820152603d6024820152600080516020611b2183398151915260448201527f616e73616374696f6e20657865637574696f6e2072657665727465642e00000060648201526084016103c4565b896001600160a01b0316847fa560e3198060a2f10670c1ec5b403077ea6ae93ca8de1c32b451dc1a943cd6e78b8b8b8b604051610721949392919061198f565b60405180910390a39998505050505050505050565b6066546001600160a01b031633146107b65760405162461bcd60e51b815260206004820152603860248201527f54696d656c6f636b3a3a61636365707441646d696e3a2043616c6c206d75737460448201527f20636f6d652066726f6d2070656e64696e6741646d696e2e000000000000000060648201526084016103c4565b60658054336001600160a01b031991821681179092556066805490911690556040517f71614071b88dee5e0b2ae578a9dd7b2ebbe9ae832ba419dc0242cd065a290b6c90600090a2565b306001600160a01b037f00000000000000000000000000000000000000000000000000000000000000001614156108495760405162461bcd60e51b81526004016103c4906119cc565b7f00000000000000000000000000000000000000000000000000000000000000006001600160a01b0316610892600080516020611b01833981519152546001600160a01b031690565b6001600160a01b0316146108b85760405162461bcd60e51b81526004016103c490611a18565b6108c181611264565b604080516000808252602082019092526108dd918391906112cc565b50565b6065546000906001600160a01b0316331461095c5760405162461bcd60e51b815260206004820152603660248201527f54696d656c6f636b3a3a71756575655472616e73616374696f6e3a2043616c6c6044820152751036bab9ba1031b7b6b290333937b69030b236b4b71760511b60648201526084016103c4565b61096f6067546109694290565b90611251565b8210156109f65760405162461bcd60e51b815260206004820152604960248201527f54696d656c6f636b3a3a71756575655472616e73616374696f6e3a204573746960448201527f6d6174656420657865637574696f6e20626c6f636b206d757374207361746973606482015268333c903232b630bc9760b91b608482015260a4016103c4565b60008686868686604051602001610a119594939291906118f6565b60408051601f19818403018152828252805160209182012060008181526069909252919020805460ff1916600117905591506001600160a01b0388169082907f76e2796dc3a81d57b0e8504b647febcbeeb5f4af818e164f11eef8131a6a763f90610a83908a908a908a908a9061198f565b60405180910390a39695505050505050565b6001600160a01b038116610afe5760405162461bcd60e51b815260206004820152602a60248201527f54696d656c6f636b3a3a73657450656e64696e6741646d696e3a20496e76616c6044820152696964206164647265737360b01b60648201526084016103c4565b60685460ff1615610b8357333014610b7e5760405162461bcd60e51b815260206004820152603860248201527f54696d656c6f636b3a3a73657450656e64696e6741646d696e3a2043616c6c2060448201527f6d75737420636f6d652066726f6d2054696d656c6f636b2e000000000000000060648201526084016103c4565b610c11565b6065546001600160a01b03163314610c035760405162461bcd60e51b815260206004820152603b60248201527f54696d656c6f636b3a3a73657450656e64696e6741646d696e3a20466972737460448201527f2063616c6c206d75737420636f6d652066726f6d2061646d696e2e000000000060648201526084016103c4565b6068805460ff191660011790555b606680546001600160a01b0319166001600160a01b0383169081179091556040517f69d78e38a01985fbb1462961809b4b2d65531bc93b2b94037f3334b82ca4a75690600090a250565b306001600160a01b037f0000000000000000000000000000000000000000000000000000000000000000161415610ca45760405162461bcd60e51b81526004016103c4906119cc565b7f00000000000000000000000000000000000000000000000000000000000000006001600160a01b0316610ced600080516020611b01833981519152546001600160a01b031690565b6001600160a01b031614610d135760405162461bcd60e51b81526004016103c490611a18565b610d1c82611264565b610d28828260016112cc565b5050565b6000306001600160a01b037f00000000000000000000000000000000000000000000000000000000000000001614610dcc5760405162461bcd60e51b815260206004820152603860248201527f555550535570677261646561626c653a206d757374206e6f742062652063616c60448201527f6c6564207468726f7567682064656c656761746563616c6c000000000000000060648201526084016103c4565b50600080516020611b0183398151915290565b6065546001600160a01b03163314610e5f5760405162461bcd60e51b815260206004820152603760248201527f54696d656c6f636b3a3a63616e63656c5472616e73616374696f6e3a2043616c60448201527f6c206d75737420636f6d652066726f6d2061646d696e2e00000000000000000060648201526084016103c4565b60008585858585604051602001610e7a9594939291906118f6565b60408051601f19818403018152828252805160209182012060008181526069909252919020805460ff1916905591506001600160a01b0387169082907f2fffc091a501fd91bfbff27141450d3acb40fb8e6d8382b243ec7a812a3aaf8790610ee990899089908990899061198f565b60405180910390a3505050505050565b600054610100900460ff1615808015610f195750600054600160ff909116105b80610f335750303b158015610f33575060005460ff166001145b610f965760405162461bcd60e51b815260206004820152602e60248201527f496e697469616c697a61626c653a20636f6e747261637420697320616c72656160448201526d191e481a5b9a5d1a585b1a5e995960921b60648201526084016103c4565b6000805460ff191660011790558015610fb9576000805461ff0019166101001790555b6001600160a01b03831661101f5760405162461bcd60e51b815260206004820152602760248201527f54696d656c6f636b3a3a636f6e7374727563746f723a20496e76616c6964206160448201526632323932b9b99760c91b60648201526084016103c4565b60018210156110965760405162461bcd60e51b815260206004820152603760248201527f54696d656c6f636b3a3a636f6e7374727563746f723a2044656c6179206d757360448201527f7420657863656564206d696e696d756d2064656c61792e00000000000000000060648201526084016103c4565b62278d008211156110b95760405162461bcd60e51b81526004016103c490611a64565b606580546001600160a01b0319166001600160a01b0385161790556067829055801561111f576000805461ff0019169055604051600181527f7f26b83ff96e1f2b6a682f133852f6798a09c465da95921460cefb38474024989060200160405180910390a15b505050565b33301461118d5760405162461bcd60e51b815260206004820152603160248201527f54696d656c6f636b3a3a73657444656c61793a2043616c6c206d75737420636f60448201527036b290333937b6902a34b6b2b637b1b59760791b60648201526084016103c4565b60018110156111fb5760405162461bcd60e51b815260206004820152603460248201527f54696d656c6f636b3a3a73657444656c61793a2044656c6179206d75737420656044820152733c31b2b2b21036b4b734b6bab6903232b630bc9760611b60648201526084016103c4565b62278d0081111561121e5760405162461bcd60e51b81526004016103c490611a64565b606781905560405181907f948b1f6a42ee138b7e34058ba85a37f716d55ff25ff05a763f15bed6a04c8d2c90600090a250565b600061125d8284611ac1565b9392505050565b6065546001600160a01b031633146108dd5760405162461bcd60e51b815260206004820152602560248201527f4f6e6c792061646d696e2063616e207570677261646520696d706c656d656e7460448201526430ba34b7b760d91b60648201526084016103c4565b7f4910fdfa16fed3260ed0e7147f7cc6da11a60208b5b9406d12a635614ffd91435460ff16156112ff5761111f83611446565b826001600160a01b03166352d1902d6040518163ffffffff1660e01b815260040160206040518083038186803b15801561133857600080fd5b505afa925050508015611368575060408051601f3d908101601f1916820190925261136591810190611ae7565b60015b6113cb5760405162461bcd60e51b815260206004820152602e60248201527f45524331393637557067726164653a206e657720696d706c656d656e7461746960448201526d6f6e206973206e6f74205555505360901b60648201526084016103c4565b600080516020611b01833981519152811461143a5760405162461bcd60e51b815260206004820152602960248201527f45524331393637557067726164653a20756e737570706f727465642070726f786044820152681a58589b195555525160ba1b60648201526084016103c4565b5061111f8383836114e2565b6001600160a01b0381163b6114b35760405162461bcd60e51b815260206004820152602d60248201527f455243313936373a206e657720696d706c656d656e746174696f6e206973206e60448201526c1bdd08184818dbdb9d1c9858dd609a1b60648201526084016103c4565b600080516020611b0183398151915280546001600160a01b0319166001600160a01b0392909216919091179055565b6114eb8361150d565b6000825111806114f85750805b1561111f57611507838361154d565b50505050565b61151681611446565b6040516001600160a01b038216907fbc7cd75a20ee27fd9adebab32041f755214dbc6bffa90cc0225b39da2e5c2d3b90600090a250565b60606001600160a01b0383163b6115b55760405162461bcd60e51b815260206004820152602660248201527f416464726573733a2064656c65676174652063616c6c20746f206e6f6e2d636f6044820152651b9d1c9858dd60d21b60648201526084016103c4565b600080846001600160a01b0316846040516115d09190611973565b600060405180830381855af49150503d806000811461160b576040519150601f19603f3d011682016040523d82523d6000602084013e611610565b606091505b50915091506116388282604051806060016040528060278152602001611b4160279139611641565b95945050505050565b6060831561165057508161125d565b8251156116605782518084602001fd5b8160405162461bcd60e51b81526004016103c49190611837565b80356001600160a01b038116811461169157600080fd5b919050565b634e487b7160e01b600052604160045260246000fd5b600067ffffffffffffffff808411156116c7576116c7611696565b604051601f8501601f19908116603f011681019082821181831017156116ef576116ef611696565b8160405280935085815286868601111561170857600080fd5b858560208301376000602087830101525050509392505050565b600082601f83011261173357600080fd5b61125d838335602085016116ac565b600080600080600060a0868803121561175a57600080fd5b6117638661167a565b945060208601359350604086013567ffffffffffffffff8082111561178757600080fd5b818801915088601f83011261179b57600080fd5b6117aa898335602085016116ac565b945060608801359150808211156117c057600080fd5b506117cd88828901611722565b95989497509295608001359392505050565b60005b838110156117fa5781810151838201526020016117e2565b838111156115075750506000910152565b600081518084526118238160208601602086016117df565b601f01601f19169290920160200192915050565b60208152600061125d602083018461180b565b60006020828403121561185c57600080fd5b61125d8261167a565b6000806040838503121561187857600080fd5b6118818361167a565b9150602083013567ffffffffffffffff81111561189d57600080fd5b6118a985828601611722565b9150509250929050565b600080604083850312156118c657600080fd5b6118cf8361167a565b946020939093013593505050565b6000602082840312156118ef57600080fd5b5035919050565b60018060a01b038616815284602082015260a06040820152600061191d60a083018661180b565b828103606084015261192f818661180b565b9150508260808301529695505050505050565b6001600160e01b03198316815281516000906119658160048501602087016117df565b919091016004019392505050565b600082516119858184602087016117df565b9190910192915050565b8481526080602082015260006119a8608083018661180b565b82810360408401526119ba818661180b565b91505082606083015295945050505050565b6020808252602c908201527f46756e6374696f6e206d7573742062652063616c6c6564207468726f7567682060408201526b19195b1959d85d1958d85b1b60a21b606082015260800190565b6020808252602c908201527f46756e6374696f6e206d7573742062652063616c6c6564207468726f7567682060408201526b6163746976652070726f787960a01b606082015260800190565b60208082526038908201527f54696d656c6f636b3a3a73657444656c61793a2044656c6179206d757374206e60408201527f6f7420657863656564206d6178696d756d2064656c61792e0000000000000000606082015260800190565b60008219821115611ae257634e487b7160e01b600052601160045260246000fd5b500190565b600060208284031215611af957600080fd5b505191905056fe360894a13ba1a3210667c828492db98dca3e2076cc3735a920a3ca505d382bbc54696d656c6f636b3a3a657865637574655472616e73616374696f6e3a205472416464726573733a206c6f772d6c6576656c2064656c65676174652063616c6c206661696c6564a26469706673582212202bf765ee0c108f053101c20253cd7fafda5436041d4bd1cd4291a6bf804466a264736f6c63430008080033",
  "linkReferences": {},
  "deployedLinkReferences": {}
}