{
  "_format": "hh-sol-artifact-1",
  "contractName": "Timelock",
  "sourceName": "contracts/timelock.sol",
  "abi": [
    {
      "anonymous": false,
      "inputs": [
        {
          "indexed": false,
          "internalType": "address",
          "name": "previousAdmin",
          "type": "address"
        },
        {
          "indexed": false,
          "internalType": "address",
          "name": "newAdmin",
          "type": "address"
        }
      ],
      "name": "AdminChanged",
      "type": "event"
    },
    {
      "anonymous": false,
      "inputs": [
        {
          "indexed": true,
          "internalType": "address",
          "name": "beacon",
          "type": "address"
        }
      ],
      "name": "BeaconUpgraded",
      "type": "event"
    },
    {
      "anonymous": false,
      "inputs": [
        {
          "indexed": true,
          "internalType": "bytes32",
          "name": "txHash",
          "type": "bytes32"
        },
        {
          "indexed": true,
          "internalType": "address",
          "name": "target",
          "type": "address"
        },
        {
          "indexed": false,
          "internalType": "uint256",
          "name": "value",
          "type": "uint256"
        },
        {
          "indexed": false,
          "internalType": "string",
          "name": "signature",
          "type": "string"
        },
        {
          "indexed": false,
          "internalType": "bytes",
          "name": "data",
          "type": "bytes"
        },
        {
          "indexed": false,
          "internalType": "uint256",
          "name": "eta",
          "type": "uint256"
        }
      ],
      "name": "CancelTransaction",
      "type": "event"
    },
    {
      "anonymous": false,
      "inputs": [
        {
          "indexed": true,
          "internalType": "bytes32",
          "name": "txHash",
          "type": "bytes32"
        },
        {
          "indexed": true,
          "internalType": "address",
          "name": "target",
          "type": "address"
        },
        {
          "indexed": false,
          "internalType": "uint256",
          "name": "value",
          "type": "uint256"
        },
        {
          "indexed": false,
          "internalType": "string",
          "name": "signature",
          "type": "string"
        },
        {
          "indexed": false,
          "internalType": "bytes",
          "name": "data",
          "type": "bytes"
        },
        {
          "indexed": false,
          "internalType": "uint256",
          "name": "eta",
          "type": "uint256"
        }
      ],
      "name": "ExecuteTransaction",
      "type": "event"
    },
    {
      "anonymous": false,
      "inputs": [
        {
          "indexed": false,
          "internalType": "uint8",
          "name": "version",
          "type": "uint8"
        }
      ],
      "name": "Initialized",
      "type": "event"
    },
    {
      "anonymous": false,
      "inputs": [
        {
          "indexed": true,
          "internalType": "address",
          "name": "newAdmin",
          "type": "address"
        }
      ],
      "name": "NewAdmin",
      "type": "event"
    },
    {
      "anonymous": false,
      "inputs": [
        {
          "indexed": true,
          "internalType": "uint256",
          "name": "newDelay",
          "type": "uint256"
        }
      ],
      "name": "NewDelay",
      "type": "event"
    },
    {
      "anonymous": false,
      "inputs": [
        {
          "indexed": true,
          "internalType": "address",
          "name": "newPendingAdmin",
          "type": "address"
        }
      ],
      "name": "NewPendingAdmin",
      "type": "event"
    },
    {
      "anonymous": false,
      "inputs": [
        {
          "indexed": true,
          "internalType": "bytes32",
          "name": "txHash",
          "type": "bytes32"
        },
        {
          "indexed": true,
          "internalType": "address",
          "name": "target",
          "type": "address"
        },
        {
          "indexed": false,
          "internalType": "uint256",
          "name": "value",
          "type": "uint256"
        },
        {
          "indexed": false,
          "internalType": "string",
          "name": "signature",
          "type": "string"
        },
        {
          "indexed": false,
          "internalType": "bytes",
          "name": "data",
          "type": "bytes"
        },
        {
          "indexed": false,
          "internalType": "uint256",
          "name": "eta",
          "type": "uint256"
        }
      ],
      "name": "QueueTransaction",
      "type": "event"
    },
    {
      "anonymous": false,
      "inputs": [
        {
          "indexed": true,
          "internalType": "address",
          "name": "implementation",
          "type": "address"
        }
      ],
      "name": "Upgraded",
      "type": "event"
    },
    {
      "inputs": [],
      "name": "GRACE_PERIOD",
      "outputs": [
        {
          "internalType": "uint256",
          "name": "",
          "type": "uint256"
        }
      ],
      "stateMutability": "view",
      "type": "function"
    },
    {
      "inputs": [],
      "name": "MAXIMUM_DELAY",
      "outputs": [
        {
          "internalType": "uint256",
          "name": "",
          "type": "uint256"
        }
      ],
      "stateMutability": "view",
      "type": "function"
    },
    {
      "inputs": [],
      "name": "MINIMUM_DELAY",
      "outputs": [
        {
          "internalType": "uint256",
          "name": "",
          "type": "uint256"
        }
      ],
      "stateMutability": "view",
      "type": "function"
    },
    {
      "inputs": [],
      "name": "acceptAdmin",
      "outputs": [],
      "stateMutability": "nonpayable",
      "type": "function"
    },
    {
      "inputs": [],
      "name": "admin",
      "outputs": [
        {
          "internalType": "address",
          "name": "",
          "type": "address"
        }
      ],
      "stateMutability": "view",
      "type": "function"
    },
    {
      "inputs": [],
      "name": "adminInitialized",
      "outputs": [
        {
          "internalType": "bool",
          "name": "",
          "type": "bool"
        }
      ],
      "stateMutability": "view",
      "type": "function"
    },
    {
      "inputs": [
        {
          "internalType": "address",
          "name": "target",
          "type": "address"
        },
        {
          "internalType": "uint256",
          "name": "value",
          "type": "uint256"
        },
        {
          "internalType": "string",
          "name": "signature",
          "type": "string"
        },
        {
          "internalType": "bytes",
          "name": "data",
          "type": "bytes"
        },
        {
          "internalType": "uint256",
          "name": "eta",
          "type": "uint256"
        }
      ],
      "name": "cancelTransaction",
      "outputs": [],
      "stateMutability": "nonpayable",
      "type": "function"
    },
    {
      "inputs": [],
      "name": "delay",
      "outputs": [
        {
          "internalType": "uint256",
          "name": "",
          "type": "uint256"
        }
      ],
      "stateMutability": "view",
      "type": "function"
    },
    {
      "inputs": [
        {
          "internalType": "address",
          "name": "target",
          "type": "address"
        },
        {
          "internalType": "uint256",
          "name": "value",
          "type": "uint256"
        },
        {
          "internalType": "string",
          "name": "signature",
          "type": "string"
        },
        {
          "internalType": "bytes",
          "name": "data",
          "type": "bytes"
        },
        {
          "internalType": "uint256",
          "name": "eta",
          "type": "uint256"
        }
      ],
      "name": "executeTransaction",
      "outputs": [
        {
          "internalType": "bytes",
          "name": "",
          "type": "bytes"
        }
      ],
      "stateMutability": "payable",
      "type": "function"
    },
    {
      "inputs": [
        {
          "internalType": "address",
          "name": "admin_",
          "type": "address"
        },
        {
          "internalType": "uint256",
          "name": "delay_",
          "type": "uint256"
        }
      ],
      "name": "initialize",
      "outputs": [],
      "stateMutability": "nonpayable",
      "type": "function"
    },
    {
      "inputs": [],
      "name": "pendingAdmin",
      "outputs": [
        {
          "internalType": "address",
          "name": "",
          "type": "address"
        }
      ],
      "stateMutability": "view",
      "type": "function"
    },
    {
      "inputs": [],
      "name": "proxiableUUID",
      "outputs": [
        {
          "internalType": "bytes32",
          "name": "",
          "type": "bytes32"
        }
      ],
      "stateMutability": "view",
      "type": "function"
    },
    {
      "inputs": [
        {
          "internalType": "address",
          "name": "target",
          "type": "address"
        },
        {
          "internalType": "uint256",
          "name": "value",
          "type": "uint256"
        },
        {
          "internalType": "string",
          "name": "signature",
          "type": "string"
        },
        {
          "internalType": "bytes",
          "name": "data",
          "type": "bytes"
        },
        {
          "internalType": "uint256",
          "name": "eta",
          "type": "uint256"
        }
      ],
      "name": "queueTransaction",
      "outputs": [
        {
          "internalType": "bytes32",
          "name": "",
          "type": "bytes32"
        }
      ],
      "stateMutability": "nonpayable",
      "type": "function"
    },
    {
      "inputs": [
        {
          "internalType": "bytes32",
          "name": "",
          "type": "bytes32"
        }
      ],
      "name": "queuedTransactions",
      "outputs": [
        {
          "internalType": "bool",
          "name": "",
          "type": "bool"
        }
      ],
      "stateMutability": "view",
      "type": "function"
    },
    {
      "inputs": [
        {
          "internalType": "uint256",
          "name": "delay_",
          "type": "uint256"
        }
      ],
      "name": "setDelay",
      "outputs": [],
      "stateMutability": "nonpayable",
      "type": "function"
    },
    {
      "inputs": [
        {
          "internalType": "address",
          "name": "pendingAdmin_",
          "type": "address"
        }
      ],
      "name": "setPendingAdmin",
      "outputs": [],
      "stateMutability": "nonpayable",
      "type": "function"
    },
    {
      "inputs": [
        {
          "internalType": "address",
          "name": "newImplementation",
          "type": "address"
        }
      ],
      "name": "upgradeTo",
      "outputs": [],
      "stateMutability": "nonpayable",
      "type": "function"
    },
    {
      "inputs": [
        {
          "internalType": "address",
          "name": "newImplementation",
          "type": "address"
        },
        {
          "internalType": "bytes",
          "name": "data",
          "type": "bytes"
        }
      ],
      "name": "upgradeToAndCall",
      "outputs": [],
      "stateMutability": "payable",
      "type": "function"
    },
    {
      "stateMutability": "payable",
      "type": "receive"
    }
  ],
  "bytecode": "0x60a06040523060601b60805234801561001757600080fd5b5060805160601c611bda610052600039600081816108170152818161085701528181610c7801528181610cb80152610d4b0152611bda6000f3fe60806040526004361061010d5760003560e01c80636a42b8f811610095578063c1a287e211610064578063c1a287e2146102b3578063cd6dc687146102ca578063e177246e146102ea578063f2b065371461030a578063f851a4401461033a57610114565b80636a42b8f8146102475780637d645fab1461025d578063b1b43ae514610274578063bda183241461028957610114565b80633a66f901116100dc5780633a66f901146101b15780634dd18bf5146101df5780634f1ef286146101ff57806352d1902d14610212578063591fcdfe1461022757610114565b80630825f38f146101195780630e18b6811461014257806326782247146101595780633659cfe61461019157610114565b3661011457005b600080fd5b61012c6101273660046117b6565b61035a565b6040516101399190611944565b60405180910390f35b34801561014e57600080fd5b50610157610736565b005b34801561016557600080fd5b50606654610179906001600160a01b031681565b6040516001600160a01b039091168152602001610139565b34801561019d57600080fd5b506101576101ac366004611727565b61080c565b3480156101bd57600080fd5b506101d16101cc3660046117b6565b6108ec565b604051908152602001610139565b3480156101eb57600080fd5b506101576101fa366004611727565b610aa1565b61015761020d366004611741565b610c6d565b34801561021e57600080fd5b506101d1610d3e565b34801561023357600080fd5b506101576102423660046117b6565b610df1565b34801561025357600080fd5b506101d160675481565b34801561026957600080fd5b506101d162278d0081565b34801561028057600080fd5b506101d1600181565b34801561029557600080fd5b506068546102a39060ff1681565b6040519015158152602001610139565b3480156102bf57600080fd5b506101d16212750081565b3480156102d657600080fd5b506101576102e536600461178d565b610f0b565b3480156102f657600080fd5b5061015761030536600461184f565b61109a565b34801561031657600080fd5b506102a361032536600461184f565b60696020526000908152604090205460ff1681565b34801561034657600080fd5b50606554610179906001600160a01b031681565b60606001600160a01b0386166103cd5760405162461bcd60e51b815260206004820152602d60248201527f54696d656c6f636b3a3a657865637574655472616e73616374696f6e3a20496e60448201526c76616c6964206164647265737360981b60648201526084015b60405180910390fd5b6065546001600160a01b0316331461044d5760405162461bcd60e51b815260206004820152603860248201527f54696d656c6f636b3a3a657865637574655472616e73616374696f6e3a20436160448201527f6c6c206d75737420636f6d652066726f6d2061646d696e2e000000000000000060648201526084016103c4565b600086868686866040516020016104689594939291906118f8565b60408051601f1981840301815291815281516020928301206000818152606990935291205490915060ff166104f35760405162461bcd60e51b815260206004820152603d6024820152600080516020611b5e83398151915260448201527f616e73616374696f6e206861736e2774206265656e207175657565642e00000060648201526084016103c4565b824210156105655760405162461bcd60e51b81526020600482015260456024820152600080516020611b5e83398151915260448201527f616e73616374696f6e206861736e2774207375727061737365642074696d65206064820152643637b1b59760d91b608482015260a4016103c4565b61057283621275006111c7565b4211156105cb5760405162461bcd60e51b81526020600482015260336024820152600080516020611b5e83398151915260448201527230b739b0b1ba34b7b71034b99039ba30b6329760691b60648201526084016103c4565b6000818152606960205260409020805460ff1916905584516060906105f157508361061d565b85805190602001208560405160200161060b9291906118ab565b60405160208183030381529060405290505b600080896001600160a01b0316898460405161063991906118dc565b60006040518083038185875af1925050503d8060008114610676576040519150601f19603f3d011682016040523d82523d6000602084013e61067b565b606091505b5091509150816106e15760405162461bcd60e51b815260206004820152603d6024820152600080516020611b5e83398151915260448201527f616e73616374696f6e20657865637574696f6e2072657665727465642e00000060648201526084016103c4565b896001600160a01b0316847fa560e3198060a2f10670c1ec5b403077ea6ae93ca8de1c32b451dc1a943cd6e78b8b8b8b6040516107219493929190611a9a565b60405180910390a39998505050505050505050565b6066546001600160a01b031633146107b65760405162461bcd60e51b815260206004820152603860248201527f54696d656c6f636b3a3a61636365707441646d696e3a2043616c6c206d75737460448201527f20636f6d652066726f6d2070656e64696e6741646d696e2e000000000000000060648201526084016103c4565b60658054336001600160a01b031991821617918290556066805490911690556040516001600160a01b03909116907f71614071b88dee5e0b2ae578a9dd7b2ebbe9ae832ba419dc0242cd065a290b6c90600090a2565b306001600160a01b037f00000000000000000000000000000000000000000000000000000000000000001614156108555760405162461bcd60e51b81526004016103c490611957565b7f00000000000000000000000000000000000000000000000000000000000000006001600160a01b031661089e600080516020611b3e833981519152546001600160a01b031690565b6001600160a01b0316146108c45760405162461bcd60e51b81526004016103c4906119a3565b6108cd816111da565b604080516000808252602082019092526108e991839190611242565b50565b6065546000906001600160a01b031633146109685760405162461bcd60e51b815260206004820152603660248201527f54696d656c6f636b3a3a71756575655472616e73616374696f6e3a2043616c6c6044820152751036bab9ba1031b7b6b290333937b69030b236b4b71760511b60648201526084016103c4565b61097b6067546109754290565b906111c7565b821015610a025760405162461bcd60e51b815260206004820152604960248201527f54696d656c6f636b3a3a71756575655472616e73616374696f6e3a204573746960448201527f6d6174656420657865637574696f6e20626c6f636b206d757374207361746973606482015268333c903232b630bc9760b91b608482015260a4016103c4565b60008686868686604051602001610a1d9594939291906118f8565b60408051601f19818403018152828252805160209182012060008181526069909252919020805460ff1916600117905591506001600160a01b0388169082907f76e2796dc3a81d57b0e8504b647febcbeeb5f4af818e164f11eef8131a6a763f90610a8f908a908a908a908a90611a9a565b60405180910390a39695505050505050565b6001600160a01b038116610b0a5760405162461bcd60e51b815260206004820152602a60248201527f54696d656c6f636b3a3a73657450656e64696e6741646d696e3a20496e76616c6044820152696964206164647265737360b01b60648201526084016103c4565b60685460ff1615610b8f57333014610b8a5760405162461bcd60e51b815260206004820152603860248201527f54696d656c6f636b3a3a73657450656e64696e6741646d696e3a2043616c6c2060448201527f6d75737420636f6d652066726f6d2054696d656c6f636b2e000000000000000060648201526084016103c4565b610c1d565b6065546001600160a01b03163314610c0f5760405162461bcd60e51b815260206004820152603b60248201527f54696d656c6f636b3a3a73657450656e64696e6741646d696e3a20466972737460448201527f2063616c6c206d75737420636f6d652066726f6d2061646d696e2e000000000060648201526084016103c4565b6068805460ff191660011790555b606680546001600160a01b0319166001600160a01b0383811691909117918290556040519116907f69d78e38a01985fbb1462961809b4b2d65531bc93b2b94037f3334b82ca4a75690600090a250565b306001600160a01b037f0000000000000000000000000000000000000000000000000000000000000000161415610cb65760405162461bcd60e51b81526004016103c490611957565b7f00000000000000000000000000000000000000000000000000000000000000006001600160a01b0316610cff600080516020611b3e833981519152546001600160a01b031690565b6001600160a01b031614610d255760405162461bcd60e51b81526004016103c4906119a3565b610d2e826111da565b610d3a82826001611242565b5050565b6000306001600160a01b037f00000000000000000000000000000000000000000000000000000000000000001614610dde5760405162461bcd60e51b815260206004820152603860248201527f555550535570677261646561626c653a206d757374206e6f742062652063616c60448201527f6c6564207468726f7567682064656c656761746563616c6c000000000000000060648201526084016103c4565b50600080516020611b3e83398151915290565b6065546001600160a01b03163314610e715760405162461bcd60e51b815260206004820152603760248201527f54696d656c6f636b3a3a63616e63656c5472616e73616374696f6e3a2043616c60448201527f6c206d75737420636f6d652066726f6d2061646d696e2e00000000000000000060648201526084016103c4565b60008585858585604051602001610e8c9594939291906118f8565b60408051601f19818403018152828252805160209182012060008181526069909252919020805460ff1916905591506001600160a01b0387169082907f2fffc091a501fd91bfbff27141450d3acb40fb8e6d8382b243ec7a812a3aaf8790610efb908990899089908990611a9a565b60405180910390a3505050505050565b6000610f1760016113c1565b90508015610f2f576000805461ff0019166101001790555b6001600160a01b038316610f955760405162461bcd60e51b815260206004820152602760248201527f54696d656c6f636b3a3a636f6e7374727563746f723a20496e76616c6964206160448201526632323932b9b99760c91b60648201526084016103c4565b600182101561100c5760405162461bcd60e51b815260206004820152603760248201527f54696d656c6f636b3a3a636f6e7374727563746f723a2044656c6179206d757360448201527f7420657863656564206d696e696d756d2064656c61792e00000000000000000060648201526084016103c4565b62278d0082111561102f5760405162461bcd60e51b81526004016103c4906119ef565b606580546001600160a01b0319166001600160a01b03851617905560678290558015611095576000805461ff0019169055604051600181527f7f26b83ff96e1f2b6a682f133852f6798a09c465da95921460cefb38474024989060200160405180910390a15b505050565b3330146111035760405162461bcd60e51b815260206004820152603160248201527f54696d656c6f636b3a3a73657444656c61793a2043616c6c206d75737420636f60448201527036b290333937b6902a34b6b2b637b1b59760791b60648201526084016103c4565b60018110156111715760405162461bcd60e51b815260206004820152603460248201527f54696d656c6f636b3a3a73657444656c61793a2044656c6179206d75737420656044820152733c31b2b2b21036b4b734b6bab6903232b630bc9760611b60648201526084016103c4565b62278d008111156111945760405162461bcd60e51b81526004016103c4906119ef565b606781905560405181907f948b1f6a42ee138b7e34058ba85a37f716d55ff25ff05a763f15bed6a04c8d2c90600090a250565b60006111d38284611ad7565b9392505050565b6065546001600160a01b031633146108e95760405162461bcd60e51b815260206004820152602560248201527f4f6e6c792061646d696e2063616e207570677261646520696d706c656d656e7460448201526430ba34b7b760d91b60648201526084016103c4565b7f4910fdfa16fed3260ed0e7147f7cc6da11a60208b5b9406d12a635614ffd91435460ff161561127a5761127583611447565b611095565b826001600160a01b03166352d1902d6040518163ffffffff1660e01b815260040160206040518083038186803b1580156112b357600080fd5b505afa9250505080156112e3575060408051601f3d908101601f191682019092526112e091810190611867565b60015b6113465760405162461bcd60e51b815260206004820152602e60248201527f45524331393637557067726164653a206e657720696d706c656d656e7461746960448201526d6f6e206973206e6f74205555505360901b60648201526084016103c4565b600080516020611b3e83398151915281146113b55760405162461bcd60e51b815260206004820152602960248201527f45524331393637557067726164653a20756e737570706f727465642070726f786044820152681a58589b195555525160ba1b60648201526084016103c4565b506110958383836114e3565b60008054610100900460ff1615611408578160ff1660011480156113e45750303b155b6114005760405162461bcd60e51b81526004016103c490611a4c565b506000611442565b60005460ff80841691161061142f5760405162461bcd60e51b81526004016103c490611a4c565b506000805460ff191660ff831617905560015b919050565b6001600160a01b0381163b6114b45760405162461bcd60e51b815260206004820152602d60248201527f455243313936373a206e657720696d706c656d656e746174696f6e206973206e60448201526c1bdd08184818dbdb9d1c9858dd609a1b60648201526084016103c4565b600080516020611b3e83398151915280546001600160a01b0319166001600160a01b0392909216919091179055565b6114ec8361150e565b6000825111806114f95750805b1561109557611508838361154e565b50505050565b61151781611447565b6040516001600160a01b038216907fbc7cd75a20ee27fd9adebab32041f755214dbc6bffa90cc0225b39da2e5c2d3b90600090a250565b60606001600160a01b0383163b6115b65760405162461bcd60e51b815260206004820152602660248201527f416464726573733a2064656c65676174652063616c6c20746f206e6f6e2d636f6044820152651b9d1c9858dd60d21b60648201526084016103c4565b600080846001600160a01b0316846040516115d191906118dc565b600060405180830381855af49150503d806000811461160c576040519150601f19603f3d011682016040523d82523d6000602084013e611611565b606091505b50915091506116398282604051806060016040528060278152602001611b7e60279139611642565b95945050505050565b606083156116515750816111d3565b8251156116615782518084602001fd5b8160405162461bcd60e51b81526004016103c49190611944565b600067ffffffffffffffff8084111561169657611696611b27565b604051601f8501601f19908116603f011681019082821181831017156116be576116be611b27565b816040528093508581528686860111156116d757600080fd5b858560208301376000602087830101525050509392505050565b80356001600160a01b038116811461144257600080fd5b600082601f830112611718578081fd5b6111d38383356020850161167b565b600060208284031215611738578081fd5b6111d3826116f1565b60008060408385031215611753578081fd5b61175c836116f1565b9150602083013567ffffffffffffffff811115611777578182fd5b61178385828601611708565b9150509250929050565b6000806040838503121561179f578182fd5b6117a8836116f1565b946020939093013593505050565b600080600080600060a086880312156117cd578081fd5b6117d6866116f1565b945060208601359350604086013567ffffffffffffffff808211156117f9578283fd5b818801915088601f83011261180c578283fd5b61181b8983356020850161167b565b94506060880135915080821115611830578283fd5b5061183d88828901611708565b95989497509295608001359392505050565b600060208284031215611860578081fd5b5035919050565b600060208284031215611878578081fd5b5051919050565b60008151808452611897816020860160208601611afb565b601f01601f19169290920160200192915050565b6001600160e01b03198316815281516000906118ce816004850160208701611afb565b919091016004019392505050565b600082516118ee818460208701611afb565b9190910192915050565b600060018060a01b038716825285602083015260a0604083015261191f60a083018661187f565b8281036060840152611931818661187f565b9150508260808301529695505050505050565b6000602082526111d3602083018461187f565b6020808252602c908201527f46756e6374696f6e206d7573742062652063616c6c6564207468726f7567682060408201526b19195b1959d85d1958d85b1b60a21b606082015260800190565b6020808252602c908201527f46756e6374696f6e206d7573742062652063616c6c6564207468726f7567682060408201526b6163746976652070726f787960a01b606082015260800190565b60208082526038908201527f54696d656c6f636b3a3a73657444656c61793a2044656c6179206d757374206e60408201527f6f7420657863656564206d6178696d756d2064656c61792e0000000000000000606082015260800190565b6020808252602e908201527f496e697469616c697a61626c653a20636f6e747261637420697320616c72656160408201526d191e481a5b9a5d1a585b1a5e995960921b606082015260800190565b600085825260806020830152611ab3608083018661187f565b8281036040840152611ac5818661187f565b91505082606083015295945050505050565b60008219821115611af657634e487b7160e01b81526011600452602481fd5b500190565b60005b83811015611b16578181015183820152602001611afe565b838111156115085750506000910152565b634e487b7160e01b600052604160045260246000fdfe360894a13ba1a3210667c828492db98dca3e2076cc3735a920a3ca505d382bbc54696d656c6f636b3a3a657865637574655472616e73616374696f6e3a205472416464726573733a206c6f772d6c6576656c2064656c65676174652063616c6c206661696c6564a2646970667358221220f662eb305cd58a7bd9e9eae4486a03d471d7a1a2ae939764bcffba144b4264fa64736f6c63430008020033",
  "linkReferences": {},
  "deployedLinkReferences": {}
}