{
  "_format": "hh-sol-artifact-1",
  "contractName": "VolunteerHour",
  "sourceName": "contracts/VolunteerHourRoles.sol",
  "abi": [
    {
      "inputs": [],
      "stateMutability": "nonpayable",
      "type": "constructor"
    },
    {
      "anonymous": false,
      "inputs": [
        {
          "indexed": false,
          "internalType": "address",
          "name": "previousAdmin",
          "type": "address"
        },
        {
          "indexed": false,
          "internalType": "address",
          "name": "newAdmin",
          "type": "address"
        }
      ],
      "name": "AdminChanged",
      "type": "event"
    },
    {
      "anonymous": false,
      "inputs": [
        {
          "indexed": true,
          "internalType": "address",
          "name": "owner",
          "type": "address"
        },
        {
          "indexed": true,
          "internalType": "address",
          "name": "spender",
          "type": "address"
        },
        {
          "indexed": false,
          "internalType": "uint256",
          "name": "value",
          "type": "uint256"
        }
      ],
      "name": "Approval",
      "type": "event"
    },
    {
      "anonymous": false,
      "inputs": [
        {
          "indexed": true,
          "internalType": "address",
          "name": "beacon",
          "type": "address"
        }
      ],
      "name": "BeaconUpgraded",
      "type": "event"
    },
    {
      "anonymous": false,
      "inputs": [
        {
          "indexed": true,
          "internalType": "address",
          "name": "delegator",
          "type": "address"
        },
        {
          "indexed": true,
          "internalType": "address",
          "name": "fromDelegate",
          "type": "address"
        },
        {
          "indexed": true,
          "internalType": "address",
          "name": "toDelegate",
          "type": "address"
        }
      ],
      "name": "DelegateChanged",
      "type": "event"
    },
    {
      "anonymous": false,
      "inputs": [
        {
          "indexed": true,
          "internalType": "address",
          "name": "delegate",
          "type": "address"
        },
        {
          "indexed": false,
          "internalType": "uint256",
          "name": "previousBalance",
          "type": "uint256"
        },
        {
          "indexed": false,
          "internalType": "uint256",
          "name": "newBalance",
          "type": "uint256"
        }
      ],
      "name": "DelegateVotesChanged",
      "type": "event"
    },
    {
      "anonymous": false,
      "inputs": [
        {
          "indexed": false,
          "internalType": "uint8",
          "name": "version",
          "type": "uint8"
        }
      ],
      "name": "Initialized",
      "type": "event"
    },
    {
      "anonymous": false,
      "inputs": [
        {
          "indexed": false,
          "internalType": "address",
          "name": "account",
          "type": "address"
        }
      ],
      "name": "Paused",
      "type": "event"
    },
    {
      "anonymous": false,
      "inputs": [
        {
          "indexed": true,
          "internalType": "bytes32",
          "name": "role",
          "type": "bytes32"
        },
        {
          "indexed": true,
          "internalType": "bytes32",
          "name": "previousAdminRole",
          "type": "bytes32"
        },
        {
          "indexed": true,
          "internalType": "bytes32",
          "name": "newAdminRole",
          "type": "bytes32"
        }
      ],
      "name": "RoleAdminChanged",
      "type": "event"
    },
    {
      "anonymous": false,
      "inputs": [
        {
          "indexed": true,
          "internalType": "bytes32",
          "name": "role",
          "type": "bytes32"
        },
        {
          "indexed": true,
          "internalType": "address",
          "name": "account",
          "type": "address"
        },
        {
          "indexed": true,
          "internalType": "address",
          "name": "sender",
          "type": "address"
        }
      ],
      "name": "RoleGranted",
      "type": "event"
    },
    {
      "anonymous": false,
      "inputs": [
        {
          "indexed": true,
          "internalType": "bytes32",
          "name": "role",
          "type": "bytes32"
        },
        {
          "indexed": true,
          "internalType": "address",
          "name": "account",
          "type": "address"
        },
        {
          "indexed": true,
          "internalType": "address",
          "name": "sender",
          "type": "address"
        }
      ],
      "name": "RoleRevoked",
      "type": "event"
    },
    {
      "anonymous": false,
      "inputs": [
        {
          "indexed": false,
          "internalType": "uint256",
          "name": "id",
          "type": "uint256"
        }
      ],
      "name": "Snapshot",
      "type": "event"
    },
    {
      "anonymous": false,
      "inputs": [
        {
          "indexed": true,
          "internalType": "address",
          "name": "from",
          "type": "address"
        },
        {
          "indexed": true,
          "internalType": "address",
          "name": "to",
          "type": "address"
        },
        {
          "indexed": false,
          "internalType": "uint256",
          "name": "value",
          "type": "uint256"
        }
      ],
      "name": "Transfer",
      "type": "event"
    },
    {
      "anonymous": false,
      "inputs": [
        {
          "indexed": false,
          "internalType": "address",
          "name": "account",
          "type": "address"
        }
      ],
      "name": "Unpaused",
      "type": "event"
    },
    {
      "anonymous": false,
      "inputs": [
        {
          "indexed": true,
          "internalType": "address",
          "name": "implementation",
          "type": "address"
        }
      ],
      "name": "Upgraded",
      "type": "event"
    },
    {
      "inputs": [],
      "name": "DEFAULT_ADMIN_ROLE",
      "outputs": [
        {
          "internalType": "bytes32",
          "name": "",
          "type": "bytes32"
        }
      ],
      "stateMutability": "view",
      "type": "function"
    },
    {
      "inputs": [],
      "name": "DOMAIN_SEPARATOR",
      "outputs": [
        {
          "internalType": "bytes32",
          "name": "",
          "type": "bytes32"
        }
      ],
      "stateMutability": "view",
      "type": "function"
    },
    {
      "inputs": [],
      "name": "ISSUER_ROLE",
      "outputs": [
        {
          "internalType": "bytes32",
          "name": "",
          "type": "bytes32"
        }
      ],
      "stateMutability": "view",
      "type": "function"
    },
    {
      "inputs": [],
      "name": "MINTER_ROLE",
      "outputs": [
        {
          "internalType": "bytes32",
          "name": "",
          "type": "bytes32"
        }
      ],
      "stateMutability": "view",
      "type": "function"
    },
    {
      "inputs": [],
      "name": "PAUSER_ROLE",
      "outputs": [
        {
          "internalType": "bytes32",
          "name": "",
          "type": "bytes32"
        }
      ],
      "stateMutability": "view",
      "type": "function"
    },
    {
      "inputs": [],
      "name": "SNAPSHOT_ROLE",
      "outputs": [
        {
          "internalType": "bytes32",
          "name": "",
          "type": "bytes32"
        }
      ],
      "stateMutability": "view",
      "type": "function"
    },
    {
      "inputs": [],
      "name": "UPGRADER_ROLE",
      "outputs": [
        {
          "internalType": "bytes32",
          "name": "",
          "type": "bytes32"
        }
      ],
      "stateMutability": "view",
      "type": "function"
    },
    {
      "inputs": [
        {
          "internalType": "address",
          "name": "owner",
          "type": "address"
        },
        {
          "internalType": "address",
          "name": "spender",
          "type": "address"
        }
      ],
      "name": "allowance",
      "outputs": [
        {
          "internalType": "uint256",
          "name": "",
          "type": "uint256"
        }
      ],
      "stateMutability": "view",
      "type": "function"
    },
    {
      "inputs": [
        {
          "internalType": "address",
          "name": "spender",
          "type": "address"
        },
        {
          "internalType": "uint256",
          "name": "amount",
          "type": "uint256"
        }
      ],
      "name": "approve",
      "outputs": [
        {
          "internalType": "bool",
          "name": "",
          "type": "bool"
        }
      ],
      "stateMutability": "nonpayable",
      "type": "function"
    },
    {
      "inputs": [
        {
          "internalType": "address",
          "name": "account",
          "type": "address"
        }
      ],
      "name": "balanceOf",
      "outputs": [
        {
          "internalType": "uint256",
          "name": "",
          "type": "uint256"
        }
      ],
      "stateMutability": "view",
      "type": "function"
    },
    {
      "inputs": [
        {
          "internalType": "address",
          "name": "account",
          "type": "address"
        },
        {
          "internalType": "uint256",
          "name": "snapshotId",
          "type": "uint256"
        }
      ],
      "name": "balanceOfAt",
      "outputs": [
        {
          "internalType": "uint256",
          "name": "",
          "type": "uint256"
        }
      ],
      "stateMutability": "view",
      "type": "function"
    },
    {
      "inputs": [
        {
          "internalType": "uint256",
          "name": "amount",
          "type": "uint256"
        }
      ],
      "name": "burn",
      "outputs": [],
      "stateMutability": "nonpayable",
      "type": "function"
    },
    {
      "inputs": [
        {
          "internalType": "address",
          "name": "account",
          "type": "address"
        },
        {
          "internalType": "uint256",
          "name": "amount",
          "type": "uint256"
        }
      ],
      "name": "burnFrom",
      "outputs": [],
      "stateMutability": "nonpayable",
      "type": "function"
    },
    {
      "inputs": [
        {
          "internalType": "address",
          "name": "account",
          "type": "address"
        },
        {
          "internalType": "uint32",
          "name": "pos",
          "type": "uint32"
        }
      ],
      "name": "checkpoints",
      "outputs": [
        {
          "components": [
            {
              "internalType": "uint32",
              "name": "fromBlock",
              "type": "uint32"
            },
            {
              "internalType": "uint224",
              "name": "votes",
              "type": "uint224"
            }
          ],
          "internalType": "struct ERC20VotesUpgradeable.Checkpoint",
          "name": "",
          "type": "tuple"
        }
      ],
      "stateMutability": "view",
      "type": "function"
    },
    {
      "inputs": [],
      "name": "decimals",
      "outputs": [
        {
          "internalType": "uint8",
          "name": "",
          "type": "uint8"
        }
      ],
      "stateMutability": "view",
      "type": "function"
    },
    {
      "inputs": [
        {
          "internalType": "address",
          "name": "spender",
          "type": "address"
        },
        {
          "internalType": "uint256",
          "name": "subtractedValue",
          "type": "uint256"
        }
      ],
      "name": "decreaseAllowance",
      "outputs": [
        {
          "internalType": "bool",
          "name": "",
          "type": "bool"
        }
      ],
      "stateMutability": "nonpayable",
      "type": "function"
    },
    {
      "inputs": [
        {
          "internalType": "address",
          "name": "delegatee",
          "type": "address"
        }
      ],
      "name": "delegate",
      "outputs": [],
      "stateMutability": "nonpayable",
      "type": "function"
    },
    {
      "inputs": [
        {
          "internalType": "address",
          "name": "delegatee",
          "type": "address"
        },
        {
          "internalType": "uint256",
          "name": "nonce",
          "type": "uint256"
        },
        {
          "internalType": "uint256",
          "name": "expiry",
          "type": "uint256"
        },
        {
          "internalType": "uint8",
          "name": "v",
          "type": "uint8"
        },
        {
          "internalType": "bytes32",
          "name": "r",
          "type": "bytes32"
        },
        {
          "internalType": "bytes32",
          "name": "s",
          "type": "bytes32"
        }
      ],
      "name": "delegateBySig",
      "outputs": [],
      "stateMutability": "nonpayable",
      "type": "function"
    },
    {
      "inputs": [
        {
          "internalType": "address",
          "name": "account",
          "type": "address"
        }
      ],
      "name": "delegates",
      "outputs": [
        {
          "internalType": "address",
          "name": "",
          "type": "address"
        }
      ],
      "stateMutability": "view",
      "type": "function"
    },
    {
      "inputs": [
        {
          "internalType": "uint256",
          "name": "blockNumber",
          "type": "uint256"
        }
      ],
      "name": "getPastTotalSupply",
      "outputs": [
        {
          "internalType": "uint256",
          "name": "",
          "type": "uint256"
        }
      ],
      "stateMutability": "view",
      "type": "function"
    },
    {
      "inputs": [
        {
          "internalType": "address",
          "name": "account",
          "type": "address"
        },
        {
          "internalType": "uint256",
          "name": "blockNumber",
          "type": "uint256"
        }
      ],
      "name": "getPastVotes",
      "outputs": [
        {
          "internalType": "uint256",
          "name": "",
          "type": "uint256"
        }
      ],
      "stateMutability": "view",
      "type": "function"
    },
    {
      "inputs": [
        {
          "internalType": "bytes32",
          "name": "role",
          "type": "bytes32"
        }
      ],
      "name": "getRoleAdmin",
      "outputs": [
        {
          "internalType": "bytes32",
          "name": "",
          "type": "bytes32"
        }
      ],
      "stateMutability": "view",
      "type": "function"
    },
    {
      "inputs": [
        {
          "internalType": "address",
          "name": "account",
          "type": "address"
        }
      ],
      "name": "getVotes",
      "outputs": [
        {
          "internalType": "uint256",
          "name": "",
          "type": "uint256"
        }
      ],
      "stateMutability": "view",
      "type": "function"
    },
    {
      "inputs": [
        {
          "internalType": "bytes32",
          "name": "role",
          "type": "bytes32"
        },
        {
          "internalType": "address",
          "name": "account",
          "type": "address"
        }
      ],
      "name": "grantRole",
      "outputs": [],
      "stateMutability": "nonpayable",
      "type": "function"
    },
    {
      "inputs": [
        {
          "internalType": "bytes32",
          "name": "role",
          "type": "bytes32"
        },
        {
          "internalType": "address",
          "name": "account",
          "type": "address"
        }
      ],
      "name": "hasRole",
      "outputs": [
        {
          "internalType": "bool",
          "name": "",
          "type": "bool"
        }
      ],
      "stateMutability": "view",
      "type": "function"
    },
    {
      "inputs": [
        {
          "internalType": "address",
          "name": "spender",
          "type": "address"
        },
        {
          "internalType": "uint256",
          "name": "addedValue",
          "type": "uint256"
        }
      ],
      "name": "increaseAllowance",
      "outputs": [
        {
          "internalType": "bool",
          "name": "",
          "type": "bool"
        }
      ],
      "stateMutability": "nonpayable",
      "type": "function"
    },
    {
      "inputs": [],
      "name": "initialize",
      "outputs": [],
      "stateMutability": "nonpayable",
      "type": "function"
    },
    {
      "inputs": [
        {
          "internalType": "address",
          "name": "to",
          "type": "address"
        },
        {
          "internalType": "uint256",
          "name": "amount",
          "type": "uint256"
        }
      ],
      "name": "mint",
      "outputs": [],
      "stateMutability": "nonpayable",
      "type": "function"
    },
    {
      "inputs": [],
      "name": "name",
      "outputs": [
        {
          "internalType": "string",
          "name": "",
          "type": "string"
        }
      ],
      "stateMutability": "view",
      "type": "function"
    },
    {
      "inputs": [
        {
          "internalType": "address",
          "name": "owner",
          "type": "address"
        }
      ],
      "name": "nonces",
      "outputs": [
        {
          "internalType": "uint256",
          "name": "",
          "type": "uint256"
        }
      ],
      "stateMutability": "view",
      "type": "function"
    },
    {
      "inputs": [
        {
          "internalType": "address",
          "name": "account",
          "type": "address"
        }
      ],
      "name": "numCheckpoints",
      "outputs": [
        {
          "internalType": "uint32",
          "name": "",
          "type": "uint32"
        }
      ],
      "stateMutability": "view",
      "type": "function"
    },
    {
      "inputs": [],
      "name": "pause",
      "outputs": [],
      "stateMutability": "nonpayable",
      "type": "function"
    },
    {
      "inputs": [],
      "name": "paused",
      "outputs": [
        {
          "internalType": "bool",
          "name": "",
          "type": "bool"
        }
      ],
      "stateMutability": "view",
      "type": "function"
    },
    {
      "inputs": [
        {
          "internalType": "address",
          "name": "owner",
          "type": "address"
        },
        {
          "internalType": "address",
          "name": "spender",
          "type": "address"
        },
        {
          "internalType": "uint256",
          "name": "value",
          "type": "uint256"
        },
        {
          "internalType": "uint256",
          "name": "deadline",
          "type": "uint256"
        },
        {
          "internalType": "uint8",
          "name": "v",
          "type": "uint8"
        },
        {
          "internalType": "bytes32",
          "name": "r",
          "type": "bytes32"
        },
        {
          "internalType": "bytes32",
          "name": "s",
          "type": "bytes32"
        }
      ],
      "name": "permit",
      "outputs": [],
      "stateMutability": "nonpayable",
      "type": "function"
    },
    {
      "inputs": [],
      "name": "proxiableUUID",
      "outputs": [
        {
          "internalType": "bytes32",
          "name": "",
          "type": "bytes32"
        }
      ],
      "stateMutability": "view",
      "type": "function"
    },
    {
      "inputs": [
        {
          "internalType": "bytes32",
          "name": "role",
          "type": "bytes32"
        },
        {
          "internalType": "address",
          "name": "account",
          "type": "address"
        }
      ],
      "name": "renounceRole",
      "outputs": [],
      "stateMutability": "nonpayable",
      "type": "function"
    },
    {
      "inputs": [
        {
          "internalType": "bytes32",
          "name": "role",
          "type": "bytes32"
        },
        {
          "internalType": "address",
          "name": "account",
          "type": "address"
        }
      ],
      "name": "revokeRole",
      "outputs": [],
      "stateMutability": "nonpayable",
      "type": "function"
    },
    {
      "inputs": [],
      "name": "snapshot",
      "outputs": [],
      "stateMutability": "nonpayable",
      "type": "function"
    },
    {
      "inputs": [
        {
          "internalType": "bytes4",
          "name": "interfaceId",
          "type": "bytes4"
        }
      ],
      "name": "supportsInterface",
      "outputs": [
        {
          "internalType": "bool",
          "name": "",
          "type": "bool"
        }
      ],
      "stateMutability": "view",
      "type": "function"
    },
    {
      "inputs": [],
      "name": "symbol",
      "outputs": [
        {
          "internalType": "string",
          "name": "",
          "type": "string"
        }
      ],
      "stateMutability": "view",
      "type": "function"
    },
    {
      "inputs": [],
      "name": "totalSupply",
      "outputs": [
        {
          "internalType": "uint256",
          "name": "",
          "type": "uint256"
        }
      ],
      "stateMutability": "view",
      "type": "function"
    },
    {
      "inputs": [
        {
          "internalType": "uint256",
          "name": "snapshotId",
          "type": "uint256"
        }
      ],
      "name": "totalSupplyAt",
      "outputs": [
        {
          "internalType": "uint256",
          "name": "",
          "type": "uint256"
        }
      ],
      "stateMutability": "view",
      "type": "function"
    },
    {
      "inputs": [
        {
          "internalType": "address",
          "name": "to",
          "type": "address"
        },
        {
          "internalType": "uint256",
          "name": "amount",
          "type": "uint256"
        }
      ],
      "name": "transfer",
      "outputs": [
        {
          "internalType": "bool",
          "name": "",
          "type": "bool"
        }
      ],
      "stateMutability": "nonpayable",
      "type": "function"
    },
    {
      "inputs": [
        {
          "internalType": "address",
          "name": "from",
          "type": "address"
        },
        {
          "internalType": "address",
          "name": "to",
          "type": "address"
        },
        {
          "internalType": "uint256",
          "name": "amount",
          "type": "uint256"
        }
      ],
      "name": "transferFrom",
      "outputs": [
        {
          "internalType": "bool",
          "name": "",
          "type": "bool"
        }
      ],
      "stateMutability": "nonpayable",
      "type": "function"
    },
    {
      "inputs": [],
      "name": "unpause",
      "outputs": [],
      "stateMutability": "nonpayable",
      "type": "function"
    },
    {
      "inputs": [
        {
          "internalType": "address",
          "name": "newImplementation",
          "type": "address"
        }
      ],
      "name": "upgradeTo",
      "outputs": [],
      "stateMutability": "nonpayable",
      "type": "function"
    },
    {
      "inputs": [
        {
          "internalType": "address",
          "name": "newImplementation",
          "type": "address"
        },
        {
          "internalType": "bytes",
          "name": "data",
          "type": "bytes"
        }
      ],
      "name": "upgradeToAndCall",
      "outputs": [],
      "stateMutability": "payable",
      "type": "function"
    }
  ],
  "bytecode": "0x60a06040523060601b6080523480156200001857600080fd5b506200002362000029565b62000158565b6200003560ff62000038565b50565b60008054610100900460ff1615620000d2578160ff1660011480156200007157506200006f306200014960201b620017121760201c565b155b620000c95760405162461bcd60e51b815260206004820152602e602482015260008051602062003e2683398151915260448201526d191e481a5b9a5d1a585b1a5e995960921b60648201526084015b60405180910390fd5b50600062000144565b60005460ff808416911610620001315760405162461bcd60e51b815260206004820152602e602482015260008051602062003e2683398151915260448201526d191e481a5b9a5d1a585b1a5e995960921b6064820152608401620000c0565b506000805460ff191660ff831617905560015b919050565b6001600160a01b03163b151590565b60805160601c613c936200019360003960008181610b2201528181610b6201528181610d4f01528181610d8f0152610e1e0152613c936000f3fe6080604052600436106102885760003560e01c80637028e2cd1161015a5780639ab24eb0116100c1578063d53913931161007a578063d5391393146107d8578063d547741f1461080c578063dd62ed3e1461082c578063e63ab1e91461084c578063f1127ed81461086e578063f72c0d8b146108b857610288565b80639ab24eb014610723578063a217fddf14610743578063a457c2d714610758578063a9059cbb14610778578063c3cda52014610798578063d505accf146107b857610288565b80638456cb59116101135780638456cb59146106845780638e539e8c1461069957806391d14854146106b957806395d89b41146106d95780639711715a146106ee578063981b24d01461070357610288565b80637028e2cd146105a357806370a08231146105d757806379cc67901461060d5780637ecebe001461062d5780638129fc1c1461064d57806382aefa241461066257610288565b806339509351116101fe5780634f1ef286116101b75780634f1ef286146104bb57806352d1902d146104ce578063587cde1e146104e35780635c19a95c146105355780635c975abb146105555780636fcfff451461056e57610288565b806339509351146104065780633a46b1a8146104265780633f4ba83a1461044657806340c10f191461045b57806342966c681461047b5780634ee2cd7e1461049b57610288565b8063248a9ca311610250578063248a9ca3146103435780632f2ff15d14610373578063313ce567146103955780633644e515146103b157806336568abe146103c65780633659cfe6146103e657610288565b806301ffc9a71461028d57806306fdde03146102c2578063095ea7b3146102e457806318160ddd1461030457806323b872dd14610323575b600080fd5b34801561029957600080fd5b506102ad6102a83660046138a7565b6108ec565b60405190151581526020015b60405180910390f35b3480156102ce57600080fd5b506102d7610925565b6040516102b99190613960565b3480156102f057600080fd5b506102ad6102ff366004613797565b6109b7565b34801561031057600080fd5b506035545b6040519081526020016102b9565b34801561032f57600080fd5b506102ad61033e366004613636565b6109d1565b34801561034f57600080fd5b5061031561035e366004613855565b600090815260fb602052604090206001015490565b34801561037f57600080fd5b5061039361038e366004613885565b610a60565b005b3480156103a157600080fd5b50604051600081526020016102b9565b3480156103bd57600080fd5b50610315610a8a565b3480156103d257600080fd5b506103936103e1366004613885565b610a99565b3480156103f257600080fd5b506103936104013660046135ea565b610b17565b34801561041257600080fd5b506102ad610421366004613797565b610bf7565b34801561043257600080fd5b50610315610441366004613797565b610c19565b34801561045257600080fd5b50610393610c8d565b34801561046757600080fd5b50610393610476366004613797565b610cad565b34801561048757600080fd5b50610393610496366004613855565b610ce1565b3480156104a757600080fd5b506103156104b6366004613797565b610ceb565b6103936104c93660046136da565b610d44565b3480156104da57600080fd5b50610315610e11565b3480156104ef57600080fd5b5061051d6104fe3660046135ea565b6001600160a01b0390811660009081526101c660205260409020541690565b6040516001600160a01b0390911681526020016102b9565b34801561054157600080fd5b506103936105503660046135ea565b610ec4565b34801561056157600080fd5b5061012d5460ff166102ad565b34801561057a57600080fd5b5061058e6105893660046135ea565b610ece565b60405163ffffffff90911681526020016102b9565b3480156105af57600080fd5b506103157f5fdbd35e8da83ee755d5e62a539e5ed7f47126abede0b8b10f9ea43dc6eed07f81565b3480156105e357600080fd5b506103156105f23660046135ea565b6001600160a01b031660009081526033602052604090205490565b34801561061957600080fd5b50610393610628366004613797565b610ef1565b34801561063957600080fd5b506103156106483660046135ea565b610f06565b34801561065957600080fd5b50610393610f25565b34801561066e57600080fd5b50610315600080516020613bf783398151915281565b34801561069057600080fd5b506103936110f2565b3480156106a557600080fd5b506103156106b4366004613855565b611112565b3480156106c557600080fd5b506102ad6106d4366004613885565b61116f565b3480156106e557600080fd5b506102d761119a565b3480156106fa57600080fd5b506103936111a9565b34801561070f57600080fd5b5061031561071e366004613855565b6111db565b34801561072f57600080fd5b5061031561073e3660046135ea565b611206565b34801561074f57600080fd5b50610315600081565b34801561076457600080fd5b506102ad610773366004613797565b61129d565b34801561078457600080fd5b506102ad610793366004613797565b611323565b3480156107a457600080fd5b506103936107b33660046137c0565b611395565b3480156107c457600080fd5b506103936107d3366004613671565b6114cb565b3480156107e457600080fd5b506103157f9f2df0fed2c77648de5860a4cc508cd0818c85b8b8a1ab4ceeef8d981c8956a681565b34801561081857600080fd5b50610393610827366004613885565b61162f565b34801561083857600080fd5b50610315610847366004613604565b611654565b34801561085857600080fd5b50610315600080516020613c1783398151915281565b34801561087a57600080fd5b5061088e610889366004613817565b61167f565b60408051825163ffffffff1681526020928301516001600160e01b031692810192909252016102b9565b3480156108c457600080fd5b506103157f189ab7a9244df0848122154315af71fe140f3db0fe014031783b0946b8c9d2e381565b60006001600160e01b03198216637965db0b60e01b148061091d57506301ffc9a760e01b6001600160e01b03198316145b90505b919050565b60606036805461093490613b75565b80601f016020809104026020016040519081016040528092919081815260200182805461096090613b75565b80156109ad5780601f10610982576101008083540402835291602001916109ad565b820191906000526020600020905b81548152906001019060200180831161099057829003601f168201915b5050505050905090565b6000336109c5818585611721565b60019150505b92915050565b6000336109ec600080516020613bf78339815191528261116f565b610a3d5760405162461bcd60e51b815260206004820152601960248201527f5370656e646572206973206e6f7420616e20697373756572210000000000000060448201526064015b60405180910390fd5b610a48858285611845565b610a538585856118bf565b60019150505b9392505050565b600082815260fb6020526040902060010154610a7b81611a9e565b610a858383611aa8565b505050565b6000610a94611b2e565b905090565b6001600160a01b0381163314610b095760405162461bcd60e51b815260206004820152602f60248201527f416363657373436f6e74726f6c3a2063616e206f6e6c792072656e6f756e636560448201526e103937b632b9903337b91039b2b63360891b6064820152608401610a34565b610b138282611bab565b5050565b306001600160a01b037f0000000000000000000000000000000000000000000000000000000000000000161415610b605760405162461bcd60e51b8152600401610a3490613993565b7f00000000000000000000000000000000000000000000000000000000000000006001600160a01b0316610ba9600080516020613bd7833981519152546001600160a01b031690565b6001600160a01b031614610bcf5760405162461bcd60e51b8152600401610a34906139df565b610bd881611c12565b60408051600080825260208201909252610bf491839190611c3c565b50565b6000336109c5818585610c0a8383611654565b610c149190613ac4565b611721565b6000438210610c6a5760405162461bcd60e51b815260206004820152601f60248201527f4552433230566f7465733a20626c6f636b206e6f7420796574206d696e6564006044820152606401610a34565b6001600160a01b03831660009081526101c760205260409020610a599083611dbb565b600080516020613c17833981519152610ca581611a9e565b610bf4611e94565b7f9f2df0fed2c77648de5860a4cc508cd0818c85b8b8a1ab4ceeef8d981c8956a6610cd781611a9e565b610a858383611f29565b610bf43382611f33565b6001600160a01b038216600090815260976020526040812081908190610d12908590611f3d565b9150915081610d39576001600160a01b038516600090815260336020526040902054610d3b565b805b95945050505050565b306001600160a01b037f0000000000000000000000000000000000000000000000000000000000000000161415610d8d5760405162461bcd60e51b8152600401610a3490613993565b7f00000000000000000000000000000000000000000000000000000000000000006001600160a01b0316610dd6600080516020613bd7833981519152546001600160a01b031690565b6001600160a01b031614610dfc5760405162461bcd60e51b8152600401610a34906139df565b610e0582611c12565b610b1382826001611c3c565b6000306001600160a01b037f00000000000000000000000000000000000000000000000000000000000000001614610eb15760405162461bcd60e51b815260206004820152603860248201527f555550535570677261646561626c653a206d757374206e6f742062652063616c60448201527f6c6564207468726f7567682064656c656761746563616c6c00000000000000006064820152608401610a34565b50600080516020613bd783398151915290565b610bf43382612042565b6001600160a01b03811660009081526101c7602052604081205461091d906120bd565b610efc823383611845565b610b138282611f33565b6001600160a01b0381166000908152610193602052604081205461091d565b6000610f316001612126565b90508015610f49576000805461ff0019166101001790555b610f936040518060400160405280600d81526020016c2b37b63ab73a32b2b92437bab960991b815250604051806040016040528060038152602001622b242960e91b8152506121ab565b610f9b6121dc565b610fa36121dc565b610fab6121dc565b610fb3612205565b610fe16040518060400160405280600d81526020016c2b37b63ab73a32b2b92437bab960991b815250612234565b610fe96121dc565b610ff16121dc565b610ffc600033611aa8565b6110267f5fdbd35e8da83ee755d5e62a539e5ed7f47126abede0b8b10f9ea43dc6eed07f33611aa8565b61103e600080516020613c1783398151915233611aa8565b6110687f9f2df0fed2c77648de5860a4cc508cd0818c85b8b8a1ab4ceeef8d981c8956a633611aa8565b611080600080516020613bf783398151915233611aa8565b6110aa7f189ab7a9244df0848122154315af71fe140f3db0fe014031783b0946b8c9d2e333611aa8565b8015610bf4576000805461ff0019169055604051600181527f7f26b83ff96e1f2b6a682f133852f6798a09c465da95921460cefb38474024989060200160405180910390a150565b600080516020613c1783398151915261110a81611a9e565b610bf461227e565b60004382106111635760405162461bcd60e51b815260206004820152601f60248201527f4552433230566f7465733a20626c6f636b206e6f7420796574206d696e6564006044820152606401610a34565b61091d6101c883611dbb565b600091825260fb602090815260408084206001600160a01b0393909316845291905290205460ff1690565b60606037805461093490613b75565b7f5fdbd35e8da83ee755d5e62a539e5ed7f47126abede0b8b10f9ea43dc6eed07f6111d381611a9e565b610b136122fb565b60008060006111eb846098611f3d565b91509150816111fc576035546111fe565b805b949350505050565b6001600160a01b03811660009081526101c76020526040812054801561128a576001600160a01b03831660009081526101c76020526040902061124a600183613b1b565b8154811061126857634e487b7160e01b600052603260045260246000fd5b60009182526020909120015464010000000090046001600160e01b031661128d565b60005b6001600160e01b03169392505050565b600033816112ab8286611654565b90508381101561130b5760405162461bcd60e51b815260206004820152602560248201527f45524332303a2064656372656173656420616c6c6f77616e63652062656c6f77604482015264207a65726f60d81b6064820152608401610a34565b6113188286868403611721565b506001949350505050565b60003361133e600080516020613bf78339815191528261116f565b61138a5760405162461bcd60e51b815260206004820152601860248201527f43616c6c6572206973206e6f7420616e206973737565722100000000000000006044820152606401610a34565b6109c58185856118bf565b834211156113e55760405162461bcd60e51b815260206004820152601d60248201527f4552433230566f7465733a207369676e617475726520657870697265640000006044820152606401610a34565b604080517fe48329057bfd03d55e49b547132e39cffd9c1820ad7b9d4c5307691425d15adf60208201526001600160a01b03881691810191909152606081018690526080810185905260009061145f906114579060a00160405160208183030381529060405280519060200120612355565b8585856123a3565b905061146a816123cb565b86146114b85760405162461bcd60e51b815260206004820152601960248201527f4552433230566f7465733a20696e76616c6964206e6f6e6365000000000000006044820152606401610a34565b6114c28188612042565b50505050505050565b8342111561151b5760405162461bcd60e51b815260206004820152601d60248201527f45524332305065726d69743a206578706972656420646561646c696e650000006044820152606401610a34565b60007f6e71edae12b1b97f4d1f60370fef10105fa2faae0126114a169c64845d6126c988888861154a8c6123cb565b6040805160208101969096526001600160a01b0394851690860152929091166060840152608083015260a082015260c0810186905260e00160405160208183030381529060405280519060200120905060006115a582612355565b905060006115b5828787876123a3565b9050896001600160a01b0316816001600160a01b0316146116185760405162461bcd60e51b815260206004820152601e60248201527f45524332305065726d69743a20696e76616c6964207369676e617475726500006044820152606401610a34565b6116238a8a8a611721565b50505050505050505050565b600082815260fb602052604090206001015461164a81611a9e565b610a858383611bab565b6001600160a01b03918216600090815260346020908152604080832093909416825291909152205490565b60408051808201909152600080825260208201526001600160a01b03831660009081526101c760205260409020805463ffffffff84169081106116d257634e487b7160e01b600052603260045260246000fd5b60009182526020918290206040805180820190915291015463ffffffff8116825264010000000090046001600160e01b0316918101919091529392505050565b6001600160a01b03163b151590565b6001600160a01b0383166117835760405162461bcd60e51b8152602060048201526024808201527f45524332303a20617070726f76652066726f6d20746865207a65726f206164646044820152637265737360e01b6064820152608401610a34565b6001600160a01b0382166117e45760405162461bcd60e51b815260206004820152602260248201527f45524332303a20617070726f766520746f20746865207a65726f206164647265604482015261737360f01b6064820152608401610a34565b6001600160a01b0383811660008181526034602090815260408083209487168084529482529182902085905590518481527f8c5be1e5ebec7d5bd14f71427d1e84f3dd0314c0f7b2291e5b200ac8c7c3b925910160405180910390a3505050565b60006118518484611654565b905060001981146118b957818110156118ac5760405162461bcd60e51b815260206004820152601d60248201527f45524332303a20696e73756666696369656e7420616c6c6f77616e63650000006044820152606401610a34565b6118b98484848403611721565b50505050565b6001600160a01b0383166119235760405162461bcd60e51b815260206004820152602560248201527f45524332303a207472616e736665722066726f6d20746865207a65726f206164604482015264647265737360d81b6064820152608401610a34565b6001600160a01b0382166119855760405162461bcd60e51b815260206004820152602360248201527f45524332303a207472616e7366657220746f20746865207a65726f206164647260448201526265737360e81b6064820152608401610a34565b6119908383836123f4565b6001600160a01b03831660009081526033602052604090205481811015611a085760405162461bcd60e51b815260206004820152602660248201527f45524332303a207472616e7366657220616d6f756e7420657863656564732062604482015265616c616e636560d01b6064820152608401610a34565b6001600160a01b03808516600090815260336020526040808220858503905591851681529081208054849290611a3f908490613ac4565b92505081905550826001600160a01b0316846001600160a01b03167fddf252ad1be2c89b69c2b068fc378daa952ba7f163c4a11628f55a4df523b3ef84604051611a8b91815260200190565b60405180910390a36118b9848484612446565b610bf48133612451565b611ab2828261116f565b610b1357600082815260fb602090815260408083206001600160a01b03851684529091529020805460ff19166001179055611aea3390565b6001600160a01b0316816001600160a01b0316837f2f8788117e7eff1d82e926ec794901d17c78024a50270940304540a733656f0d60405160405180910390a45050565b6000610a947f8b73c3c69bb8fe3d512ecc4cf759cc79239f7b179b0ffacaa9a75d522b39400f611b5e61015f5490565b610160546040805160208101859052908101839052606081018290524660808201523060a082015260009060c0016040516020818303038152906040528051906020012090509392505050565b611bb5828261116f565b15610b1357600082815260fb602090815260408083206001600160a01b0385168085529252808320805460ff1916905551339285917ff6391f5c32d9c69d2a47ea670b442974b53935d1edc7fd64eb21e047a839171b9190a45050565b7f189ab7a9244df0848122154315af71fe140f3db0fe014031783b0946b8c9d2e3610b1381611a9e565b7f4910fdfa16fed3260ed0e7147f7cc6da11a60208b5b9406d12a635614ffd91435460ff1615611c7457611c6f836124b5565b610a85565b826001600160a01b03166352d1902d6040518163ffffffff1660e01b815260040160206040518083038186803b158015611cad57600080fd5b505afa925050508015611cdd575060408051601f3d908101601f19168201909252611cda9181019061386d565b60015b611d405760405162461bcd60e51b815260206004820152602e60248201527f45524331393637557067726164653a206e657720696d706c656d656e7461746960448201526d6f6e206973206e6f74205555505360901b6064820152608401610a34565b600080516020613bd78339815191528114611daf5760405162461bcd60e51b815260206004820152602960248201527f45524331393637557067726164653a20756e737570706f727465642070726f786044820152681a58589b195555525160ba1b6064820152608401610a34565b50610a85838383612551565b8154600090815b81811015611e2d576000611dd68284612576565b905084868281548110611df957634e487b7160e01b600052603260045260246000fd5b60009182526020909120015463ffffffff161115611e1957809250611e27565b611e24816001613ac4565b91505b50611dc2565b8115611e7f5784611e3f600184613b1b565b81548110611e5d57634e487b7160e01b600052603260045260246000fd5b60009182526020909120015464010000000090046001600160e01b0316611e82565b60005b6001600160e01b031695945050505050565b61012d5460ff16611ede5760405162461bcd60e51b815260206004820152601460248201527314185d5cd8589b194e881b9bdd081c185d5cd95960621b6044820152606401610a34565b61012d805460ff191690557f5db9ee0a495bf2e6ff9c91a7834c1ba4fdd244a5e8aa4e537bd38aeae4b073aa335b6040516001600160a01b03909116815260200160405180910390a1565b610b138282612591565b610b13828261261c565b60008060008411611f895760405162461bcd60e51b815260206004820152601660248201527504552433230536e617073686f743a20696420697320360541b6044820152606401610a34565b611f91612635565b841115611fe05760405162461bcd60e51b815260206004820152601d60248201527f4552433230536e617073686f743a206e6f6e6578697374656e742069640000006044820152606401610a34565b6000611fec8486612640565b845490915081141561200557600080925092505061203b565b600184600101828154811061202a57634e487b7160e01b600052603260045260246000fd5b906000526020600020015492509250505b9250929050565b6001600160a01b0382811660008181526101c66020818152604080842080546033845282862054949093528787166001600160a01b03198416811790915590519190951694919391928592917f3134e8a2e6d97e929a7e54011ea5485d7d196dd5f0ba4d4ef95803e8e3fc257f9190a46118b982848361271f565b600063ffffffff8211156121225760405162461bcd60e51b815260206004820152602660248201527f53616665436173743a2076616c756520646f65736e27742066697420696e203360448201526532206269747360d01b6064820152608401610a34565b5090565b60008054610100900460ff161561216d578160ff1660011480156121495750303b155b6121655760405162461bcd60e51b8152600401610a3490613a2b565b506000610920565b60005460ff8084169116106121945760405162461bcd60e51b8152600401610a3490613a2b565b506000805460ff191660ff83161790556001610920565b600054610100900460ff166121d25760405162461bcd60e51b8152600401610a3490613a79565b610b13828261285e565b600054610100900460ff166122035760405162461bcd60e51b8152600401610a3490613a79565b565b600054610100900460ff1661222c5760405162461bcd60e51b8152600401610a3490613a79565b6122036128ac565b600054610100900460ff1661225b5760405162461bcd60e51b8152600401610a3490613a79565b610bf481604051806040016040528060018152602001603160f81b8152506128e0565b61012d5460ff16156122c55760405162461bcd60e51b815260206004820152601060248201526f14185d5cd8589b194e881c185d5cd95960821b6044820152606401610a34565b61012d805460ff191660011790557f62e78cea01bee320cd4e420270b5ea74000d11b0c9f74754ebdbfc544b05a258611f0c3390565b600061230b609a80546001019055565b6000612315612635565b90507f8030e83b04d87bef53480e26263266d6ca66863aa8506aca6f2559d18aa1cb678160405161234891815260200190565b60405180910390a1905090565b600061091d612362611b2e565b8360405161190160f01b6020820152602281018390526042810182905260009060620160405160208183030381529060405280519060200120905092915050565b60008060006123b487878787612923565b915091506123c181612a10565b5095945050505050565b6001600160a01b0381166000908152610193602052604090208054600181018255905b50919050565b61012d5460ff161561243b5760405162461bcd60e51b815260206004820152601060248201526f14185d5cd8589b194e881c185d5cd95960821b6044820152606401610a34565b610a85838383612c13565b610a85838383612c5b565b61245b828261116f565b610b1357612473816001600160a01b03166014612c8e565b61247e836020612c8e565b60405160200161248f9291906138eb565b60408051601f198184030181529082905262461bcd60e51b8252610a3491600401613960565b6001600160a01b0381163b6125225760405162461bcd60e51b815260206004820152602d60248201527f455243313936373a206e657720696d706c656d656e746174696f6e206973206e60448201526c1bdd08184818dbdb9d1c9858dd609a1b6064820152608401610a34565b600080516020613bd783398151915280546001600160a01b0319166001600160a01b0392909216919091179055565b61255a83612e70565b6000825111806125675750805b15610a85576118b98383612eb0565b60006125856002848418613adc565b610a5990848416613ac4565b61259b8282612f9b565b6035546001600160e01b03101561260d5760405162461bcd60e51b815260206004820152603060248201527f4552433230566f7465733a20746f74616c20737570706c79207269736b73206f60448201526f766572666c6f77696e6720766f74657360801b6064820152608401610a34565b6118b96101c861308e8361309a565b612626828261324b565b6118b96101c86133ac8361309a565b6000610a94609a5490565b8154600090612651575060006109cb565b82546000905b808210156126bb57600061266b8383612576565b90508486828154811061268e57634e487b7160e01b600052603260045260246000fd5b906000526020600020015411156126a7578091506126b5565b6126b2816001613ac4565b92505b50612657565b6000821180156126fe575083856126d3600185613b1b565b815481106126f157634e487b7160e01b600052603260045260246000fd5b9060005260206000200154145b156127175761270e600183613b1b565b925050506109cb565b5090506109cb565b816001600160a01b0316836001600160a01b0316141580156127415750600081115b15610a85576001600160a01b038316156127d0576001600160a01b03831660009081526101c760205260408120819061277d906133ac8561309a565b91509150846001600160a01b03167fdec2bacdd2f05b59de34da9b523dff8be42e5e38e818c82fdb0bae774387a72483836040516127c5929190918252602082015260400190565b60405180910390a250505b6001600160a01b03821615610a85576001600160a01b03821660009081526101c76020526040812081906128079061308e8561309a565b91509150836001600160a01b03167fdec2bacdd2f05b59de34da9b523dff8be42e5e38e818c82fdb0bae774387a724838360405161284f929190918252602082015260400190565b60405180910390a25050505050565b600054610100900460ff166128855760405162461bcd60e51b8152600401610a3490613a79565b8151612898906036906020850190613532565b508051610a85906037906020840190613532565b600054610100900460ff166128d35760405162461bcd60e51b8152600401610a3490613a79565b61012d805460ff19169055565b600054610100900460ff166129075760405162461bcd60e51b8152600401610a3490613a79565b81516020928301208151919092012061015f9190915561016055565b6000807f7fffffffffffffffffffffffffffffff5d576e7357a4501ddfe92f46681b20a083111561295a5750600090506003612a07565b8460ff16601b1415801561297257508460ff16601c14155b156129835750600090506004612a07565b6040805160008082526020820180845289905260ff881692820192909252606081018690526080810185905260019060a0016020604051602081039080840390855afa1580156129d7573d6000803e3d6000fd5b5050604051601f1901519150506001600160a01b038116612a0057600060019250925050612a07565b9150600090505b94509492505050565b6000816004811115612a3257634e487b7160e01b600052602160045260246000fd5b1415612a3d57610bf4565b6001816004811115612a5f57634e487b7160e01b600052602160045260246000fd5b1415612aad5760405162461bcd60e51b815260206004820152601860248201527f45434453413a20696e76616c6964207369676e617475726500000000000000006044820152606401610a34565b6002816004811115612acf57634e487b7160e01b600052602160045260246000fd5b1415612b1d5760405162461bcd60e51b815260206004820152601f60248201527f45434453413a20696e76616c6964207369676e6174757265206c656e677468006044820152606401610a34565b6003816004811115612b3f57634e487b7160e01b600052602160045260246000fd5b1415612b985760405162461bcd60e51b815260206004820152602260248201527f45434453413a20696e76616c6964207369676e6174757265202773272076616c604482015261756560f01b6064820152608401610a34565b6004816004811115612bba57634e487b7160e01b600052602160045260246000fd5b1415610bf45760405162461bcd60e51b815260206004820152602260248201527f45434453413a20696e76616c6964207369676e6174757265202776272076616c604482015261756560f01b6064820152608401610a34565b6001600160a01b038316612c3257612c2a826133b8565b611c6f6133e7565b6001600160a01b038216612c4957612c2a836133b8565b612c52836133b8565b610a85826133b8565b6001600160a01b0383811660009081526101c66020526040808220548584168352912054610a859291821691168361271f565b60606000612c9d836002613afc565b612ca8906002613ac4565b67ffffffffffffffff811115612cce57634e487b7160e01b600052604160045260246000fd5b6040519080825280601f01601f191660200182016040528015612cf8576020820181803683370190505b509050600360fc1b81600081518110612d2157634e487b7160e01b600052603260045260246000fd5b60200101906001600160f81b031916908160001a905350600f60fb1b81600181518110612d5e57634e487b7160e01b600052603260045260246000fd5b60200101906001600160f81b031916908160001a9053506000612d82846002613afc565b612d8d906001613ac4565b90505b6001811115612e21576f181899199a1a9b1b9c1cb0b131b232b360811b85600f1660108110612dcf57634e487b7160e01b600052603260045260246000fd5b1a60f81b828281518110612df357634e487b7160e01b600052603260045260246000fd5b60200101906001600160f81b031916908160001a90535060049490941c93612e1a81613b5e565b9050612d90565b508315610a595760405162461bcd60e51b815260206004820181905260248201527f537472696e67733a20686578206c656e67746820696e73756666696369656e746044820152606401610a34565b612e79816124b5565b6040516001600160a01b038216907fbc7cd75a20ee27fd9adebab32041f755214dbc6bffa90cc0225b39da2e5c2d3b90600090a250565b60606001600160a01b0383163b612f185760405162461bcd60e51b815260206004820152602660248201527f416464726573733a2064656c65676174652063616c6c20746f206e6f6e2d636f6044820152651b9d1c9858dd60d21b6064820152608401610a34565b600080846001600160a01b031684604051612f3391906138cf565b600060405180830381855af49150503d8060008114612f6e576040519150601f19603f3d011682016040523d82523d6000602084013e612f73565b606091505b5091509150610d3b8282604051806060016040528060278152602001613c37602791396133f5565b6001600160a01b038216612ff15760405162461bcd60e51b815260206004820152601f60248201527f45524332303a206d696e7420746f20746865207a65726f2061646472657373006044820152606401610a34565b612ffd600083836123f4565b806035600082825461300f9190613ac4565b90915550506001600160a01b0382166000908152603360205260408120805483929061303c908490613ac4565b90915550506040518181526001600160a01b038316906000907fddf252ad1be2c89b69c2b068fc378daa952ba7f163c4a11628f55a4df523b3ef9060200160405180910390a3610b1360008383612446565b6000610a598284613ac4565b8254600090819080156130f357856130b3600183613b1b565b815481106130d157634e487b7160e01b600052603260045260246000fd5b60009182526020909120015464010000000090046001600160e01b03166130f6565b60005b6001600160e01b0316925061310f83858763ffffffff16565b915060008111801561315b57504386613129600184613b1b565b8154811061314757634e487b7160e01b600052603260045260246000fd5b60009182526020909120015463ffffffff16145b156131c9576131698261342e565b86613175600184613b1b565b8154811061319357634e487b7160e01b600052603260045260246000fd5b9060005260206000200160000160046101000a8154816001600160e01b0302191690836001600160e01b03160217905550613242565b8560405180604001604052806131de436120bd565b63ffffffff1681526020016131f28561342e565b6001600160e01b039081169091528254600181018455600093845260209384902083519101805493909401519091166401000000000263ffffffff91821663ffffffff1990931692909217161790555b50935093915050565b6001600160a01b0382166132ab5760405162461bcd60e51b815260206004820152602160248201527f45524332303a206275726e2066726f6d20746865207a65726f206164647265736044820152607360f81b6064820152608401610a34565b6132b7826000836123f4565b6001600160a01b0382166000908152603360205260409020548181101561332b5760405162461bcd60e51b815260206004820152602260248201527f45524332303a206275726e20616d6f756e7420657863656564732062616c616e604482015261636560f01b6064820152608401610a34565b6001600160a01b038316600090815260336020526040812083830390556035805484929061335a908490613b1b565b90915550506040518281526000906001600160a01b038516907fddf252ad1be2c89b69c2b068fc378daa952ba7f163c4a11628f55a4df523b3ef9060200160405180910390a3610a8583600084612446565b6000610a598284613b1b565b6001600160a01b0381166000908152609760209081526040808320603390925290912054610bf491905b613497565b61220360986133e260355490565b60608315613404575081610a59565b8251156134145782518084602001fd5b8160405162461bcd60e51b8152600401610a349190613960565b60006001600160e01b038211156121225760405162461bcd60e51b815260206004820152602760248201527f53616665436173743a2076616c756520646f65736e27742066697420696e20326044820152663234206269747360c81b6064820152608401610a34565b60006134a1612635565b9050806134ad846134e1565b1015610a85578254600180820185556000858152602080822090930193909355938401805494850181558252902090910155565b80546000906134f257506000610920565b8154829061350290600190613b1b565b8154811061352057634e487b7160e01b600052603260045260246000fd5b90600052602060002001549050610920565b82805461353e90613b75565b90600052602060002090601f01602090048101928261356057600085556135a6565b82601f1061357957805160ff19168380011785556135a6565b828001600101855582156135a6579182015b828111156135a657825182559160200191906001019061358b565b506121229291505b8082111561212257600081556001016135ae565b80356001600160a01b038116811461092057600080fd5b803560ff8116811461092057600080fd5b6000602082840312156135fb578081fd5b610a59826135c2565b60008060408385031215613616578081fd5b61361f836135c2565b915061362d602084016135c2565b90509250929050565b60008060006060848603121561364a578081fd5b613653846135c2565b9250613661602085016135c2565b9150604084013590509250925092565b600080600080600080600060e0888a03121561368b578283fd5b613694886135c2565b96506136a2602089016135c2565b955060408801359450606088013593506136be608089016135d9565b925060a0880135915060c0880135905092959891949750929550565b600080604083850312156136ec578182fd5b6136f5836135c2565b9150602083013567ffffffffffffffff80821115613711578283fd5b818501915085601f830112613724578283fd5b81358181111561373657613736613bc0565b604051601f8201601f19908116603f0116810190838211818310171561375e5761375e613bc0565b81604052828152886020848701011115613776578586fd5b82602086016020830137856020848301015280955050505050509250929050565b600080604083850312156137a9578182fd5b6137b2836135c2565b946020939093013593505050565b60008060008060008060c087890312156137d8578182fd5b6137e1876135c2565b955060208701359450604087013593506137fd606088016135d9565b92506080870135915060a087013590509295509295509295565b60008060408385031215613829578182fd5b613832836135c2565b9150602083013563ffffffff8116811461384a578182fd5b809150509250929050565b600060208284031215613866578081fd5b5035919050565b60006020828403121561387e578081fd5b5051919050565b60008060408385031215613897578182fd5b8235915061362d602084016135c2565b6000602082840312156138b8578081fd5b81356001600160e01b031981168114610a59578182fd5b600082516138e1818460208701613b32565b9190910192915050565b60007f416363657373436f6e74726f6c3a206163636f756e742000000000000000000082528351613923816017850160208801613b32565b7001034b99036b4b9b9b4b733903937b6329607d1b6017918401918201528351613954816028840160208801613b32565b01602801949350505050565b600060208252825180602084015261397f816040850160208701613b32565b601f01601f19169190910160400192915050565b6020808252602c908201527f46756e6374696f6e206d7573742062652063616c6c6564207468726f7567682060408201526b19195b1959d85d1958d85b1b60a21b606082015260800190565b6020808252602c908201527f46756e6374696f6e206d7573742062652063616c6c6564207468726f7567682060408201526b6163746976652070726f787960a01b606082015260800190565b6020808252602e908201527f496e697469616c697a61626c653a20636f6e747261637420697320616c72656160408201526d191e481a5b9a5d1a585b1a5e995960921b606082015260800190565b6020808252602b908201527f496e697469616c697a61626c653a20636f6e7472616374206973206e6f74206960408201526a6e697469616c697a696e6760a81b606082015260800190565b60008219821115613ad757613ad7613baa565b500190565b600082613af757634e487b7160e01b81526012600452602481fd5b500490565b6000816000190483118215151615613b1657613b16613baa565b500290565b600082821015613b2d57613b2d613baa565b500390565b60005b83811015613b4d578181015183820152602001613b35565b838111156118b95750506000910152565b600081613b6d57613b6d613baa565b506000190190565b600281046001821680613b8957607f821691505b602082108114156123ee57634e487b7160e01b600052602260045260246000fd5b634e487b7160e01b600052601160045260246000fd5b634e487b7160e01b600052604160045260246000fdfe360894a13ba1a3210667c828492db98dca3e2076cc3735a920a3ca505d382bbc114e74f6ea3bd819998f78687bfcb11b140da08e9b7d222fa9c1f1ba1f2aa12265d7a28e3265b37a6474929f336521b332c1681b933f6cb9f3376673440d862a416464726573733a206c6f772d6c6576656c2064656c65676174652063616c6c206661696c6564a264697066735822122020601aa6283685aea7625bcc63e50cdfbd66071a834cdb25c290e4ec7a8b010764736f6c63430008020033496e697469616c697a61626c653a20636f6e747261637420697320616c726561",
  "linkReferences": {},
  "deployedLinkReferences": {}
}