{
  "_format": "hh-sol-artifact-1",
  "contractName": "VolunteerHour",
  "sourceName": "contracts/VolunteerHourRoles.sol",
  "abi": [
    {
      "inputs": [],
      "stateMutability": "nonpayable",
      "type": "constructor"
    },
    {
      "anonymous": false,
      "inputs": [
        {
          "indexed": false,
          "internalType": "address",
          "name": "previousAdmin",
          "type": "address"
        },
        {
          "indexed": false,
          "internalType": "address",
          "name": "newAdmin",
          "type": "address"
        }
      ],
      "name": "AdminChanged",
      "type": "event"
    },
    {
      "anonymous": false,
      "inputs": [
        {
          "indexed": true,
          "internalType": "address",
          "name": "owner",
          "type": "address"
        },
        {
          "indexed": true,
          "internalType": "address",
          "name": "spender",
          "type": "address"
        },
        {
          "indexed": false,
          "internalType": "uint256",
          "name": "value",
          "type": "uint256"
        }
      ],
      "name": "Approval",
      "type": "event"
    },
    {
      "anonymous": false,
      "inputs": [
        {
          "indexed": true,
          "internalType": "address",
          "name": "beacon",
          "type": "address"
        }
      ],
      "name": "BeaconUpgraded",
      "type": "event"
    },
    {
      "anonymous": false,
      "inputs": [
        {
          "indexed": true,
          "internalType": "address",
          "name": "delegator",
          "type": "address"
        },
        {
          "indexed": true,
          "internalType": "address",
          "name": "fromDelegate",
          "type": "address"
        },
        {
          "indexed": true,
          "internalType": "address",
          "name": "toDelegate",
          "type": "address"
        }
      ],
      "name": "DelegateChanged",
      "type": "event"
    },
    {
      "anonymous": false,
      "inputs": [
        {
          "indexed": true,
          "internalType": "address",
          "name": "delegate",
          "type": "address"
        },
        {
          "indexed": false,
          "internalType": "uint256",
          "name": "previousBalance",
          "type": "uint256"
        },
        {
          "indexed": false,
          "internalType": "uint256",
          "name": "newBalance",
          "type": "uint256"
        }
      ],
      "name": "DelegateVotesChanged",
      "type": "event"
    },
    {
      "anonymous": false,
      "inputs": [
        {
          "indexed": false,
          "internalType": "uint8",
          "name": "version",
          "type": "uint8"
        }
      ],
      "name": "Initialized",
      "type": "event"
    },
    {
      "anonymous": false,
      "inputs": [
        {
          "indexed": false,
          "internalType": "address",
          "name": "account",
          "type": "address"
        }
      ],
      "name": "Paused",
      "type": "event"
    },
    {
      "anonymous": false,
      "inputs": [
        {
          "indexed": true,
          "internalType": "bytes32",
          "name": "role",
          "type": "bytes32"
        },
        {
          "indexed": true,
          "internalType": "bytes32",
          "name": "previousAdminRole",
          "type": "bytes32"
        },
        {
          "indexed": true,
          "internalType": "bytes32",
          "name": "newAdminRole",
          "type": "bytes32"
        }
      ],
      "name": "RoleAdminChanged",
      "type": "event"
    },
    {
      "anonymous": false,
      "inputs": [
        {
          "indexed": true,
          "internalType": "bytes32",
          "name": "role",
          "type": "bytes32"
        },
        {
          "indexed": true,
          "internalType": "address",
          "name": "account",
          "type": "address"
        },
        {
          "indexed": true,
          "internalType": "address",
          "name": "sender",
          "type": "address"
        }
      ],
      "name": "RoleGranted",
      "type": "event"
    },
    {
      "anonymous": false,
      "inputs": [
        {
          "indexed": true,
          "internalType": "bytes32",
          "name": "role",
          "type": "bytes32"
        },
        {
          "indexed": true,
          "internalType": "address",
          "name": "account",
          "type": "address"
        },
        {
          "indexed": true,
          "internalType": "address",
          "name": "sender",
          "type": "address"
        }
      ],
      "name": "RoleRevoked",
      "type": "event"
    },
    {
      "anonymous": false,
      "inputs": [
        {
          "indexed": false,
          "internalType": "uint256",
          "name": "id",
          "type": "uint256"
        }
      ],
      "name": "Snapshot",
      "type": "event"
    },
    {
      "anonymous": false,
      "inputs": [
        {
          "indexed": true,
          "internalType": "address",
          "name": "from",
          "type": "address"
        },
        {
          "indexed": true,
          "internalType": "address",
          "name": "to",
          "type": "address"
        },
        {
          "indexed": false,
          "internalType": "uint256",
          "name": "value",
          "type": "uint256"
        }
      ],
      "name": "Transfer",
      "type": "event"
    },
    {
      "anonymous": false,
      "inputs": [
        {
          "indexed": false,
          "internalType": "address",
          "name": "account",
          "type": "address"
        }
      ],
      "name": "Unpaused",
      "type": "event"
    },
    {
      "anonymous": false,
      "inputs": [
        {
          "indexed": true,
          "internalType": "address",
          "name": "implementation",
          "type": "address"
        }
      ],
      "name": "Upgraded",
      "type": "event"
    },
    {
      "inputs": [],
      "name": "DEFAULT_ADMIN_ROLE",
      "outputs": [
        {
          "internalType": "bytes32",
          "name": "",
          "type": "bytes32"
        }
      ],
      "stateMutability": "view",
      "type": "function"
    },
    {
      "inputs": [],
      "name": "DOMAIN_SEPARATOR",
      "outputs": [
        {
          "internalType": "bytes32",
          "name": "",
          "type": "bytes32"
        }
      ],
      "stateMutability": "view",
      "type": "function"
    },
    {
      "inputs": [],
      "name": "ISSUER_ROLE",
      "outputs": [
        {
          "internalType": "bytes32",
          "name": "",
          "type": "bytes32"
        }
      ],
      "stateMutability": "view",
      "type": "function"
    },
    {
      "inputs": [],
      "name": "MINTER_ROLE",
      "outputs": [
        {
          "internalType": "bytes32",
          "name": "",
          "type": "bytes32"
        }
      ],
      "stateMutability": "view",
      "type": "function"
    },
    {
      "inputs": [],
      "name": "PAUSER_ROLE",
      "outputs": [
        {
          "internalType": "bytes32",
          "name": "",
          "type": "bytes32"
        }
      ],
      "stateMutability": "view",
      "type": "function"
    },
    {
      "inputs": [],
      "name": "SNAPSHOT_ROLE",
      "outputs": [
        {
          "internalType": "bytes32",
          "name": "",
          "type": "bytes32"
        }
      ],
      "stateMutability": "view",
      "type": "function"
    },
    {
      "inputs": [],
      "name": "UPGRADER_ROLE",
      "outputs": [
        {
          "internalType": "bytes32",
          "name": "",
          "type": "bytes32"
        }
      ],
      "stateMutability": "view",
      "type": "function"
    },
    {
      "inputs": [
        {
          "internalType": "address",
          "name": "owner",
          "type": "address"
        },
        {
          "internalType": "address",
          "name": "spender",
          "type": "address"
        }
      ],
      "name": "allowance",
      "outputs": [
        {
          "internalType": "uint256",
          "name": "",
          "type": "uint256"
        }
      ],
      "stateMutability": "view",
      "type": "function"
    },
    {
      "inputs": [
        {
          "internalType": "address",
          "name": "spender",
          "type": "address"
        },
        {
          "internalType": "uint256",
          "name": "amount",
          "type": "uint256"
        }
      ],
      "name": "approve",
      "outputs": [
        {
          "internalType": "bool",
          "name": "",
          "type": "bool"
        }
      ],
      "stateMutability": "nonpayable",
      "type": "function"
    },
    {
      "inputs": [
        {
          "internalType": "address",
          "name": "account",
          "type": "address"
        }
      ],
      "name": "balanceOf",
      "outputs": [
        {
          "internalType": "uint256",
          "name": "",
          "type": "uint256"
        }
      ],
      "stateMutability": "view",
      "type": "function"
    },
    {
      "inputs": [
        {
          "internalType": "address",
          "name": "account",
          "type": "address"
        },
        {
          "internalType": "uint256",
          "name": "snapshotId",
          "type": "uint256"
        }
      ],
      "name": "balanceOfAt",
      "outputs": [
        {
          "internalType": "uint256",
          "name": "",
          "type": "uint256"
        }
      ],
      "stateMutability": "view",
      "type": "function"
    },
    {
      "inputs": [
        {
          "internalType": "uint256",
          "name": "amount",
          "type": "uint256"
        }
      ],
      "name": "burn",
      "outputs": [],
      "stateMutability": "nonpayable",
      "type": "function"
    },
    {
      "inputs": [
        {
          "internalType": "address",
          "name": "account",
          "type": "address"
        },
        {
          "internalType": "uint256",
          "name": "amount",
          "type": "uint256"
        }
      ],
      "name": "burnFrom",
      "outputs": [],
      "stateMutability": "nonpayable",
      "type": "function"
    },
    {
      "inputs": [
        {
          "internalType": "address",
          "name": "account",
          "type": "address"
        },
        {
          "internalType": "uint32",
          "name": "pos",
          "type": "uint32"
        }
      ],
      "name": "checkpoints",
      "outputs": [
        {
          "components": [
            {
              "internalType": "uint32",
              "name": "fromBlock",
              "type": "uint32"
            },
            {
              "internalType": "uint224",
              "name": "votes",
              "type": "uint224"
            }
          ],
          "internalType": "struct ERC20VotesUpgradeable.Checkpoint",
          "name": "",
          "type": "tuple"
        }
      ],
      "stateMutability": "view",
      "type": "function"
    },
    {
      "inputs": [],
      "name": "decimals",
      "outputs": [
        {
          "internalType": "uint8",
          "name": "",
          "type": "uint8"
        }
      ],
      "stateMutability": "view",
      "type": "function"
    },
    {
      "inputs": [
        {
          "internalType": "address",
          "name": "spender",
          "type": "address"
        },
        {
          "internalType": "uint256",
          "name": "subtractedValue",
          "type": "uint256"
        }
      ],
      "name": "decreaseAllowance",
      "outputs": [
        {
          "internalType": "bool",
          "name": "",
          "type": "bool"
        }
      ],
      "stateMutability": "nonpayable",
      "type": "function"
    },
    {
      "inputs": [
        {
          "internalType": "address",
          "name": "delegatee",
          "type": "address"
        }
      ],
      "name": "delegate",
      "outputs": [],
      "stateMutability": "nonpayable",
      "type": "function"
    },
    {
      "inputs": [
        {
          "internalType": "address",
          "name": "delegatee",
          "type": "address"
        },
        {
          "internalType": "uint256",
          "name": "nonce",
          "type": "uint256"
        },
        {
          "internalType": "uint256",
          "name": "expiry",
          "type": "uint256"
        },
        {
          "internalType": "uint8",
          "name": "v",
          "type": "uint8"
        },
        {
          "internalType": "bytes32",
          "name": "r",
          "type": "bytes32"
        },
        {
          "internalType": "bytes32",
          "name": "s",
          "type": "bytes32"
        }
      ],
      "name": "delegateBySig",
      "outputs": [],
      "stateMutability": "nonpayable",
      "type": "function"
    },
    {
      "inputs": [
        {
          "internalType": "address",
          "name": "account",
          "type": "address"
        }
      ],
      "name": "delegates",
      "outputs": [
        {
          "internalType": "address",
          "name": "",
          "type": "address"
        }
      ],
      "stateMutability": "view",
      "type": "function"
    },
    {
      "inputs": [
        {
          "internalType": "uint256",
          "name": "blockNumber",
          "type": "uint256"
        }
      ],
      "name": "getPastTotalSupply",
      "outputs": [
        {
          "internalType": "uint256",
          "name": "",
          "type": "uint256"
        }
      ],
      "stateMutability": "view",
      "type": "function"
    },
    {
      "inputs": [
        {
          "internalType": "address",
          "name": "account",
          "type": "address"
        },
        {
          "internalType": "uint256",
          "name": "blockNumber",
          "type": "uint256"
        }
      ],
      "name": "getPastVotes",
      "outputs": [
        {
          "internalType": "uint256",
          "name": "",
          "type": "uint256"
        }
      ],
      "stateMutability": "view",
      "type": "function"
    },
    {
      "inputs": [
        {
          "internalType": "bytes32",
          "name": "role",
          "type": "bytes32"
        }
      ],
      "name": "getRoleAdmin",
      "outputs": [
        {
          "internalType": "bytes32",
          "name": "",
          "type": "bytes32"
        }
      ],
      "stateMutability": "view",
      "type": "function"
    },
    {
      "inputs": [
        {
          "internalType": "address",
          "name": "account",
          "type": "address"
        }
      ],
      "name": "getVotes",
      "outputs": [
        {
          "internalType": "uint256",
          "name": "",
          "type": "uint256"
        }
      ],
      "stateMutability": "view",
      "type": "function"
    },
    {
      "inputs": [
        {
          "internalType": "bytes32",
          "name": "role",
          "type": "bytes32"
        },
        {
          "internalType": "address",
          "name": "account",
          "type": "address"
        }
      ],
      "name": "grantRole",
      "outputs": [],
      "stateMutability": "nonpayable",
      "type": "function"
    },
    {
      "inputs": [
        {
          "internalType": "bytes32",
          "name": "role",
          "type": "bytes32"
        },
        {
          "internalType": "address",
          "name": "account",
          "type": "address"
        }
      ],
      "name": "hasRole",
      "outputs": [
        {
          "internalType": "bool",
          "name": "",
          "type": "bool"
        }
      ],
      "stateMutability": "view",
      "type": "function"
    },
    {
      "inputs": [
        {
          "internalType": "address",
          "name": "spender",
          "type": "address"
        },
        {
          "internalType": "uint256",
          "name": "addedValue",
          "type": "uint256"
        }
      ],
      "name": "increaseAllowance",
      "outputs": [
        {
          "internalType": "bool",
          "name": "",
          "type": "bool"
        }
      ],
      "stateMutability": "nonpayable",
      "type": "function"
    },
    {
      "inputs": [],
      "name": "initialize",
      "outputs": [],
      "stateMutability": "nonpayable",
      "type": "function"
    },
    {
      "inputs": [
        {
          "internalType": "address",
          "name": "to",
          "type": "address"
        },
        {
          "internalType": "uint256",
          "name": "amount",
          "type": "uint256"
        }
      ],
      "name": "mint",
      "outputs": [],
      "stateMutability": "nonpayable",
      "type": "function"
    },
    {
      "inputs": [],
      "name": "name",
      "outputs": [
        {
          "internalType": "string",
          "name": "",
          "type": "string"
        }
      ],
      "stateMutability": "view",
      "type": "function"
    },
    {
      "inputs": [
        {
          "internalType": "address",
          "name": "owner",
          "type": "address"
        }
      ],
      "name": "nonces",
      "outputs": [
        {
          "internalType": "uint256",
          "name": "",
          "type": "uint256"
        }
      ],
      "stateMutability": "view",
      "type": "function"
    },
    {
      "inputs": [
        {
          "internalType": "address",
          "name": "account",
          "type": "address"
        }
      ],
      "name": "numCheckpoints",
      "outputs": [
        {
          "internalType": "uint32",
          "name": "",
          "type": "uint32"
        }
      ],
      "stateMutability": "view",
      "type": "function"
    },
    {
      "inputs": [],
      "name": "pause",
      "outputs": [],
      "stateMutability": "nonpayable",
      "type": "function"
    },
    {
      "inputs": [],
      "name": "paused",
      "outputs": [
        {
          "internalType": "bool",
          "name": "",
          "type": "bool"
        }
      ],
      "stateMutability": "view",
      "type": "function"
    },
    {
      "inputs": [
        {
          "internalType": "address",
          "name": "owner",
          "type": "address"
        },
        {
          "internalType": "address",
          "name": "spender",
          "type": "address"
        },
        {
          "internalType": "uint256",
          "name": "value",
          "type": "uint256"
        },
        {
          "internalType": "uint256",
          "name": "deadline",
          "type": "uint256"
        },
        {
          "internalType": "uint8",
          "name": "v",
          "type": "uint8"
        },
        {
          "internalType": "bytes32",
          "name": "r",
          "type": "bytes32"
        },
        {
          "internalType": "bytes32",
          "name": "s",
          "type": "bytes32"
        }
      ],
      "name": "permit",
      "outputs": [],
      "stateMutability": "nonpayable",
      "type": "function"
    },
    {
      "inputs": [],
      "name": "proxiableUUID",
      "outputs": [
        {
          "internalType": "bytes32",
          "name": "",
          "type": "bytes32"
        }
      ],
      "stateMutability": "view",
      "type": "function"
    },
    {
      "inputs": [
        {
          "internalType": "bytes32",
          "name": "role",
          "type": "bytes32"
        },
        {
          "internalType": "address",
          "name": "account",
          "type": "address"
        }
      ],
      "name": "renounceRole",
      "outputs": [],
      "stateMutability": "nonpayable",
      "type": "function"
    },
    {
      "inputs": [
        {
          "internalType": "bytes32",
          "name": "role",
          "type": "bytes32"
        },
        {
          "internalType": "address",
          "name": "account",
          "type": "address"
        }
      ],
      "name": "revokeRole",
      "outputs": [],
      "stateMutability": "nonpayable",
      "type": "function"
    },
    {
      "inputs": [],
      "name": "snapshot",
      "outputs": [],
      "stateMutability": "nonpayable",
      "type": "function"
    },
    {
      "inputs": [
        {
          "internalType": "bytes4",
          "name": "interfaceId",
          "type": "bytes4"
        }
      ],
      "name": "supportsInterface",
      "outputs": [
        {
          "internalType": "bool",
          "name": "",
          "type": "bool"
        }
      ],
      "stateMutability": "view",
      "type": "function"
    },
    {
      "inputs": [],
      "name": "symbol",
      "outputs": [
        {
          "internalType": "string",
          "name": "",
          "type": "string"
        }
      ],
      "stateMutability": "view",
      "type": "function"
    },
    {
      "inputs": [],
      "name": "totalSupply",
      "outputs": [
        {
          "internalType": "uint256",
          "name": "",
          "type": "uint256"
        }
      ],
      "stateMutability": "view",
      "type": "function"
    },
    {
      "inputs": [
        {
          "internalType": "uint256",
          "name": "snapshotId",
          "type": "uint256"
        }
      ],
      "name": "totalSupplyAt",
      "outputs": [
        {
          "internalType": "uint256",
          "name": "",
          "type": "uint256"
        }
      ],
      "stateMutability": "view",
      "type": "function"
    },
    {
      "inputs": [
        {
          "internalType": "address",
          "name": "to",
          "type": "address"
        },
        {
          "internalType": "uint256",
          "name": "amount",
          "type": "uint256"
        }
      ],
      "name": "transfer",
      "outputs": [
        {
          "internalType": "bool",
          "name": "",
          "type": "bool"
        }
      ],
      "stateMutability": "nonpayable",
      "type": "function"
    },
    {
      "inputs": [
        {
          "internalType": "address",
          "name": "from",
          "type": "address"
        },
        {
          "internalType": "address",
          "name": "to",
          "type": "address"
        },
        {
          "internalType": "uint256",
          "name": "amount",
          "type": "uint256"
        }
      ],
      "name": "transferFrom",
      "outputs": [
        {
          "internalType": "bool",
          "name": "",
          "type": "bool"
        }
      ],
      "stateMutability": "nonpayable",
      "type": "function"
    },
    {
      "inputs": [],
      "name": "unpause",
      "outputs": [],
      "stateMutability": "nonpayable",
      "type": "function"
    },
    {
      "inputs": [
        {
          "internalType": "address",
          "name": "newImplementation",
          "type": "address"
        }
      ],
      "name": "upgradeTo",
      "outputs": [],
      "stateMutability": "nonpayable",
      "type": "function"
    },
    {
      "inputs": [
        {
          "internalType": "address",
          "name": "newImplementation",
          "type": "address"
        },
        {
          "internalType": "bytes",
          "name": "data",
          "type": "bytes"
        }
      ],
      "name": "upgradeToAndCall",
      "outputs": [],
      "stateMutability": "payable",
      "type": "function"
    }
  ],
  "bytecode": "0x60a06040523060601b6080523480156200001857600080fd5b506200002362000029565b620000eb565b600054610100900460ff1615620000965760405162461bcd60e51b815260206004820152602760248201527f496e697469616c697a61626c653a20636f6e747261637420697320696e697469604482015266616c697a696e6760c81b606482015260840160405180910390fd5b60005460ff9081161015620000e9576000805460ff191660ff9081179091556040519081527f7f26b83ff96e1f2b6a682f133852f6798a09c465da95921460cefb38474024989060200160405180910390a15b565b60805160601c613c3c6200012660003960008181610b1e01528181610b5e01528181610d4b01528181610d8b0152610e1a0152613c3c6000f3fe6080604052600436106102885760003560e01c80637028e2cd1161015a5780639ab24eb0116100c1578063d53913931161007a578063d5391393146107d8578063d547741f1461080c578063dd62ed3e1461082c578063e63ab1e91461084c578063f1127ed81461086e578063f72c0d8b146108b857600080fd5b80639ab24eb014610723578063a217fddf14610743578063a457c2d714610758578063a9059cbb14610778578063c3cda52014610798578063d505accf146107b857600080fd5b80638456cb59116101135780638456cb59146106845780638e539e8c1461069957806391d14854146106b957806395d89b41146106d95780639711715a146106ee578063981b24d01461070357600080fd5b80637028e2cd146105a357806370a08231146105d757806379cc67901461060d5780637ecebe001461062d5780638129fc1c1461064d57806382aefa241461066257600080fd5b806339509351116101fe5780634f1ef286116101b75780634f1ef286146104bb57806352d1902d146104ce578063587cde1e146104e35780635c19a95c146105355780635c975abb146105555780636fcfff451461056e57600080fd5b806339509351146104065780633a46b1a8146104265780633f4ba83a1461044657806340c10f191461045b57806342966c681461047b5780634ee2cd7e1461049b57600080fd5b8063248a9ca311610250578063248a9ca3146103435780632f2ff15d14610373578063313ce567146103955780633644e515146103b157806336568abe146103c65780633659cfe6146103e657600080fd5b806301ffc9a71461028d57806306fdde03146102c2578063095ea7b3146102e457806318160ddd1461030457806323b872dd14610323575b600080fd5b34801561029957600080fd5b506102ad6102a836600461348e565b6108ec565b60405190151581526020015b60405180910390f35b3480156102ce57600080fd5b506102d7610923565b6040516102b991906134e4565b3480156102f057600080fd5b506102ad6102ff36600461352e565b6109b5565b34801561031057600080fd5b506035545b6040519081526020016102b9565b34801561032f57600080fd5b506102ad61033e366004613558565b6109cd565b34801561034f57600080fd5b5061031561035e366004613594565b600090815260fb602052604090206001015490565b34801561037f57600080fd5b5061039361038e3660046135ad565b610a5c565b005b3480156103a157600080fd5b50604051600081526020016102b9565b3480156103bd57600080fd5b50610315610a86565b3480156103d257600080fd5b506103936103e13660046135ad565b610a95565b3480156103f257600080fd5b506103936104013660046135d9565b610b13565b34801561041257600080fd5b506102ad61042136600461352e565b610bf3565b34801561043257600080fd5b5061031561044136600461352e565b610c15565b34801561045257600080fd5b50610393610c89565b34801561046757600080fd5b5061039361047636600461352e565b610ca9565b34801561048757600080fd5b50610393610496366004613594565b610cdd565b3480156104a757600080fd5b506103156104b636600461352e565b610ce7565b6103936104c936600461360a565b610d40565b3480156104da57600080fd5b50610315610e0d565b3480156104ef57600080fd5b5061051d6104fe3660046135d9565b6001600160a01b0390811660009081526101c660205260409020541690565b6040516001600160a01b0390911681526020016102b9565b34801561054157600080fd5b506103936105503660046135d9565b610ec0565b34801561056157600080fd5b5061012d5460ff166102ad565b34801561057a57600080fd5b5061058e6105893660046135d9565b610eca565b60405163ffffffff90911681526020016102b9565b3480156105af57600080fd5b506103157f5fdbd35e8da83ee755d5e62a539e5ed7f47126abede0b8b10f9ea43dc6eed07f81565b3480156105e357600080fd5b506103156105f23660046135d9565b6001600160a01b031660009081526033602052604090205490565b34801561061957600080fd5b5061039361062836600461352e565b610eed565b34801561063957600080fd5b506103156106483660046135d9565b610f02565b34801561065957600080fd5b50610393610f21565b34801561066e57600080fd5b50610315600080516020613ba083398151915281565b34801561069057600080fd5b506103936111ad565b3480156106a557600080fd5b506103156106b4366004613594565b6111cd565b3480156106c557600080fd5b506102ad6106d43660046135ad565b61122a565b3480156106e557600080fd5b506102d7611255565b3480156106fa57600080fd5b50610393611264565b34801561070f57600080fd5b5061031561071e366004613594565b611296565b34801561072f57600080fd5b5061031561073e3660046135d9565b6112c1565b34801561074f57600080fd5b50610315600081565b34801561076457600080fd5b506102ad61077336600461352e565b61134a565b34801561078457600080fd5b506102ad61079336600461352e565b6113d0565b3480156107a457600080fd5b506103936107b33660046136dd565b611442565b3480156107c457600080fd5b506103936107d3366004613735565b611578565b3480156107e457600080fd5b506103157f9f2df0fed2c77648de5860a4cc508cd0818c85b8b8a1ab4ceeef8d981c8956a681565b34801561081857600080fd5b506103936108273660046135ad565b6116dc565b34801561083857600080fd5b5061031561084736600461379f565b611701565b34801561085857600080fd5b50610315600080516020613bc083398151915281565b34801561087a57600080fd5b5061088e6108893660046137c9565b61172c565b60408051825163ffffffff1681526020928301516001600160e01b031692810192909252016102b9565b3480156108c457600080fd5b506103157f189ab7a9244df0848122154315af71fe140f3db0fe014031783b0946b8c9d2e381565b60006001600160e01b03198216637965db0b60e01b148061091d57506301ffc9a760e01b6001600160e01b03198316145b92915050565b60606036805461093290613809565b80601f016020809104026020016040519081016040528092919081815260200182805461095e90613809565b80156109ab5780601f10610980576101008083540402835291602001916109ab565b820191906000526020600020905b81548152906001019060200180831161098e57829003601f168201915b5050505050905090565b6000336109c38185856117b1565b5060019392505050565b6000336109e8600080516020613ba08339815191528261122a565b610a395760405162461bcd60e51b815260206004820152601960248201527f5370656e646572206973206e6f7420616e20697373756572210000000000000060448201526064015b60405180910390fd5b610a448582856118d5565b610a4f85858561194f565b60019150505b9392505050565b600082815260fb6020526040902060010154610a7781611b2e565b610a818383611b38565b505050565b6000610a90611bbe565b905090565b6001600160a01b0381163314610b055760405162461bcd60e51b815260206004820152602f60248201527f416363657373436f6e74726f6c3a2063616e206f6e6c792072656e6f756e636560448201526e103937b632b9903337b91039b2b63360891b6064820152608401610a30565b610b0f8282611c3b565b5050565b306001600160a01b037f0000000000000000000000000000000000000000000000000000000000000000161415610b5c5760405162461bcd60e51b8152600401610a309061383e565b7f00000000000000000000000000000000000000000000000000000000000000006001600160a01b0316610ba5600080516020613b80833981519152546001600160a01b031690565b6001600160a01b031614610bcb5760405162461bcd60e51b8152600401610a309061388a565b610bd481611ca2565b60408051600080825260208201909252610bf091839190611ccc565b50565b6000336109c3818585610c068383611701565b610c1091906138ec565b6117b1565b6000438210610c665760405162461bcd60e51b815260206004820152601f60248201527f4552433230566f7465733a20626c6f636b206e6f7420796574206d696e6564006044820152606401610a30565b6001600160a01b03831660009081526101c760205260409020610a559083611e46565b600080516020613bc0833981519152610ca181611b2e565b610bf0611f03565b7f9f2df0fed2c77648de5860a4cc508cd0818c85b8b8a1ab4ceeef8d981c8956a6610cd381611b2e565b610a818383611f56565b610bf03382611f60565b6001600160a01b038216600090815260976020526040812081908190610d0e908590611f6a565b9150915081610d35576001600160a01b038516600090815260336020526040902054610d37565b805b95945050505050565b306001600160a01b037f0000000000000000000000000000000000000000000000000000000000000000161415610d895760405162461bcd60e51b8152600401610a309061383e565b7f00000000000000000000000000000000000000000000000000000000000000006001600160a01b0316610dd2600080516020613b80833981519152546001600160a01b031690565b6001600160a01b031614610df85760405162461bcd60e51b8152600401610a309061388a565b610e0182611ca2565b610b0f82826001611ccc565b6000306001600160a01b037f00000000000000000000000000000000000000000000000000000000000000001614610ead5760405162461bcd60e51b815260206004820152603860248201527f555550535570677261646561626c653a206d757374206e6f742062652063616c60448201527f6c6564207468726f7567682064656c656761746563616c6c00000000000000006064820152608401610a30565b50600080516020613b8083398151915290565b610bf03382612067565b6001600160a01b03811660009081526101c7602052604081205461091d906120e2565b610ef88233836118d5565b610b0f8282611f60565b6001600160a01b0381166000908152610193602052604081205461091d565b600054610100900460ff1615808015610f415750600054600160ff909116105b80610f5b5750303b158015610f5b575060005460ff166001145b610fbe5760405162461bcd60e51b815260206004820152602e60248201527f496e697469616c697a61626c653a20636f6e747261637420697320616c72656160448201526d191e481a5b9a5d1a585b1a5e995960921b6064820152608401610a30565b6000805460ff191660011790558015610fe1576000805461ff0019166101001790555b61102b6040518060400160405280600d81526020016c2b37b63ab73a32b2b92437bab960991b815250604051806040016040528060038152602001622b242960e91b81525061214b565b61103361217c565b61103b61217c565b61104361217c565b61104b6121a5565b6110796040518060400160405280600d81526020016c2b37b63ab73a32b2b92437bab960991b8152506121d4565b61108161217c565b61108961217c565b611094600033611b38565b6110be7f5fdbd35e8da83ee755d5e62a539e5ed7f47126abede0b8b10f9ea43dc6eed07f33611b38565b6110d6600080516020613bc083398151915233611b38565b6110f9336110e66000600a6139e0565b6110f4906301406f406139ef565b611f56565b6111237f9f2df0fed2c77648de5860a4cc508cd0818c85b8b8a1ab4ceeef8d981c8956a633611b38565b61113b600080516020613ba083398151915233611b38565b6111657f189ab7a9244df0848122154315af71fe140f3db0fe014031783b0946b8c9d2e333611b38565b8015610bf0576000805461ff0019169055604051600181527f7f26b83ff96e1f2b6a682f133852f6798a09c465da95921460cefb38474024989060200160405180910390a150565b600080516020613bc08339815191526111c581611b2e565b610bf061221e565b600043821061121e5760405162461bcd60e51b815260206004820152601f60248201527f4552433230566f7465733a20626c6f636b206e6f7420796574206d696e6564006044820152606401610a30565b61091d6101c883611e46565b600091825260fb602090815260408084206001600160a01b0393909316845291905290205460ff1690565b60606037805461093290613809565b7f5fdbd35e8da83ee755d5e62a539e5ed7f47126abede0b8b10f9ea43dc6eed07f61128e81611b2e565b610b0f61225c565b60008060006112a6846098611f6a565b91509150816112b7576035546112b9565b805b949350505050565b6001600160a01b03811660009081526101c760205260408120548015611337576001600160a01b03831660009081526101c760205260409020611305600183613a0e565b8154811061131557611315613a25565b60009182526020909120015464010000000090046001600160e01b031661133a565b60005b6001600160e01b03169392505050565b600033816113588286611701565b9050838110156113b85760405162461bcd60e51b815260206004820152602560248201527f45524332303a2064656372656173656420616c6c6f77616e63652062656c6f77604482015264207a65726f60d81b6064820152608401610a30565b6113c582868684036117b1565b506001949350505050565b6000336113eb600080516020613ba08339815191528261122a565b6114375760405162461bcd60e51b815260206004820152601860248201527f43616c6c6572206973206e6f7420616e206973737565722100000000000000006044820152606401610a30565b6109c381858561194f565b834211156114925760405162461bcd60e51b815260206004820152601d60248201527f4552433230566f7465733a207369676e617475726520657870697265640000006044820152606401610a30565b604080517fe48329057bfd03d55e49b547132e39cffd9c1820ad7b9d4c5307691425d15adf60208201526001600160a01b03881691810191909152606081018690526080810185905260009061150c906115049060a001604051602081830303815290604052805190602001206122b6565b858585612304565b90506115178161232c565b86146115655760405162461bcd60e51b815260206004820152601960248201527f4552433230566f7465733a20696e76616c6964206e6f6e6365000000000000006044820152606401610a30565b61156f8188612067565b50505050505050565b834211156115c85760405162461bcd60e51b815260206004820152601d60248201527f45524332305065726d69743a206578706972656420646561646c696e650000006044820152606401610a30565b60007f6e71edae12b1b97f4d1f60370fef10105fa2faae0126114a169c64845d6126c98888886115f78c61232c565b6040805160208101969096526001600160a01b0394851690860152929091166060840152608083015260a082015260c0810186905260e0016040516020818303038152906040528051906020012090506000611652826122b6565b9050600061166282878787612304565b9050896001600160a01b0316816001600160a01b0316146116c55760405162461bcd60e51b815260206004820152601e60248201527f45524332305065726d69743a20696e76616c6964207369676e617475726500006044820152606401610a30565b6116d08a8a8a6117b1565b50505050505050505050565b600082815260fb60205260409020600101546116f781611b2e565b610a818383611c3b565b6001600160a01b03918216600090815260346020908152604080832093909416825291909152205490565b60408051808201909152600080825260208201526001600160a01b03831660009081526101c760205260409020805463ffffffff841690811061177157611771613a25565b60009182526020918290206040805180820190915291015463ffffffff8116825264010000000090046001600160e01b0316918101919091529392505050565b6001600160a01b0383166118135760405162461bcd60e51b8152602060048201526024808201527f45524332303a20617070726f76652066726f6d20746865207a65726f206164646044820152637265737360e01b6064820152608401610a30565b6001600160a01b0382166118745760405162461bcd60e51b815260206004820152602260248201527f45524332303a20617070726f766520746f20746865207a65726f206164647265604482015261737360f01b6064820152608401610a30565b6001600160a01b0383811660008181526034602090815260408083209487168084529482529182902085905590518481527f8c5be1e5ebec7d5bd14f71427d1e84f3dd0314c0f7b2291e5b200ac8c7c3b925910160405180910390a3505050565b60006118e18484611701565b90506000198114611949578181101561193c5760405162461bcd60e51b815260206004820152601d60248201527f45524332303a20696e73756666696369656e7420616c6c6f77616e63650000006044820152606401610a30565b61194984848484036117b1565b50505050565b6001600160a01b0383166119b35760405162461bcd60e51b815260206004820152602560248201527f45524332303a207472616e736665722066726f6d20746865207a65726f206164604482015264647265737360d81b6064820152608401610a30565b6001600160a01b038216611a155760405162461bcd60e51b815260206004820152602360248201527f45524332303a207472616e7366657220746f20746865207a65726f206164647260448201526265737360e81b6064820152608401610a30565b611a20838383612355565b6001600160a01b03831660009081526033602052604090205481811015611a985760405162461bcd60e51b815260206004820152602660248201527f45524332303a207472616e7366657220616d6f756e7420657863656564732062604482015265616c616e636560d01b6064820152608401610a30565b6001600160a01b03808516600090815260336020526040808220858503905591851681529081208054849290611acf9084906138ec565b92505081905550826001600160a01b0316846001600160a01b03167fddf252ad1be2c89b69c2b068fc378daa952ba7f163c4a11628f55a4df523b3ef84604051611b1b91815260200190565b60405180910390a3611949848484612368565b610bf08133612373565b611b42828261122a565b610b0f57600082815260fb602090815260408083206001600160a01b03851684529091529020805460ff19166001179055611b7a3390565b6001600160a01b0316816001600160a01b0316837f2f8788117e7eff1d82e926ec794901d17c78024a50270940304540a733656f0d60405160405180910390a45050565b6000610a907f8b73c3c69bb8fe3d512ecc4cf759cc79239f7b179b0ffacaa9a75d522b39400f611bee61015f5490565b610160546040805160208101859052908101839052606081018290524660808201523060a082015260009060c0016040516020818303038152906040528051906020012090509392505050565b611c45828261122a565b15610b0f57600082815260fb602090815260408083206001600160a01b0385168085529252808320805460ff1916905551339285917ff6391f5c32d9c69d2a47ea670b442974b53935d1edc7fd64eb21e047a839171b9190a45050565b7f189ab7a9244df0848122154315af71fe140f3db0fe014031783b0946b8c9d2e3610b0f81611b2e565b7f4910fdfa16fed3260ed0e7147f7cc6da11a60208b5b9406d12a635614ffd91435460ff1615611cff57610a81836123d7565b826001600160a01b03166352d1902d6040518163ffffffff1660e01b815260040160206040518083038186803b158015611d3857600080fd5b505afa925050508015611d68575060408051601f3d908101601f19168201909252611d6591810190613a3b565b60015b611dcb5760405162461bcd60e51b815260206004820152602e60248201527f45524331393637557067726164653a206e657720696d706c656d656e7461746960448201526d6f6e206973206e6f74205555505360901b6064820152608401610a30565b600080516020613b808339815191528114611e3a5760405162461bcd60e51b815260206004820152602960248201527f45524331393637557067726164653a20756e737570706f727465642070726f786044820152681a58589b195555525160ba1b6064820152608401610a30565b50610a81838383612473565b8154600090815b81811015611eaa576000611e618284612498565b905084868281548110611e7657611e76613a25565b60009182526020909120015463ffffffff161115611e9657809250611ea4565b611ea18160016138ec565b91505b50611e4d565b8115611eee5784611ebc600184613a0e565b81548110611ecc57611ecc613a25565b60009182526020909120015464010000000090046001600160e01b0316611ef1565b60005b6001600160e01b031695945050505050565b611f0b6124b3565b61012d805460ff191690557f5db9ee0a495bf2e6ff9c91a7834c1ba4fdd244a5e8aa4e537bd38aeae4b073aa335b6040516001600160a01b03909116815260200160405180910390a1565b610b0f82826124fd565b610b0f8282612588565b60008060008411611fb65760405162461bcd60e51b815260206004820152601660248201527504552433230536e617073686f743a20696420697320360541b6044820152606401610a30565b611fbe6125a1565b84111561200d5760405162461bcd60e51b815260206004820152601d60248201527f4552433230536e617073686f743a206e6f6e6578697374656e742069640000006044820152606401610a30565b600061201984866125ac565b8454909150811415612032576000809250925050612060565b600184600101828154811061204957612049613a25565b90600052602060002001549250925050612060565b505b9250929050565b6001600160a01b0382811660008181526101c66020818152604080842080546033845282862054949093528787166001600160a01b03198416811790915590519190951694919391928592917f3134e8a2e6d97e929a7e54011ea5485d7d196dd5f0ba4d4ef95803e8e3fc257f9190a461194982848361266f565b600063ffffffff8211156121475760405162461bcd60e51b815260206004820152602660248201527f53616665436173743a2076616c756520646f65736e27742066697420696e203360448201526532206269747360d01b6064820152608401610a30565b5090565b600054610100900460ff166121725760405162461bcd60e51b8152600401610a3090613a54565b610b0f82826127ae565b600054610100900460ff166121a35760405162461bcd60e51b8152600401610a3090613a54565b565b600054610100900460ff166121cc5760405162461bcd60e51b8152600401610a3090613a54565b6121a36127fc565b600054610100900460ff166121fb5760405162461bcd60e51b8152600401610a3090613a54565b610bf081604051806040016040528060018152602001603160f81b815250612830565b612226612873565b61012d805460ff191660011790557f62e78cea01bee320cd4e420270b5ea74000d11b0c9f74754ebdbfc544b05a258611f393390565b600061226c609a80546001019055565b60006122766125a1565b90507f8030e83b04d87bef53480e26263266d6ca66863aa8506aca6f2559d18aa1cb67816040516122a991815260200190565b60405180910390a1919050565b600061091d6122c3611bbe565b8360405161190160f01b6020820152602281018390526042810182905260009060620160405160208183030381529060405280519060200120905092915050565b6000806000612315878787876128ba565b91509150612322816129a7565b5095945050505050565b6001600160a01b0381166000908152610193602052604090208054600181018255905b50919050565b61235d612873565b610a81838383612b62565b610a81838383612baa565b61237d828261122a565b610b0f57612395816001600160a01b03166014612bdd565b6123a0836020612bdd565b6040516020016123b1929190613a9f565b60408051601f198184030181529082905262461bcd60e51b8252610a30916004016134e4565b6001600160a01b0381163b6124445760405162461bcd60e51b815260206004820152602d60248201527f455243313936373a206e657720696d706c656d656e746174696f6e206973206e60448201526c1bdd08184818dbdb9d1c9858dd609a1b6064820152608401610a30565b600080516020613b8083398151915280546001600160a01b0319166001600160a01b0392909216919091179055565b61247c83612d79565b6000825111806124895750805b15610a81576119498383612db9565b60006124a76002848418613b14565b610a55908484166138ec565b61012d5460ff166121a35760405162461bcd60e51b815260206004820152601460248201527314185d5cd8589b194e881b9bdd081c185d5cd95960621b6044820152606401610a30565b6125078282612ea4565b6035546001600160e01b0310156125795760405162461bcd60e51b815260206004820152603060248201527f4552433230566f7465733a20746f74616c20737570706c79207269736b73206f60448201526f766572666c6f77696e6720766f74657360801b6064820152608401610a30565b6119496101c8612f9783612fa3565b612592828261311c565b6119496101c861327d83612fa3565b6000610a90609a5490565b81546000906125bd5750600061091d565b82546000905b808210156126195760006125d78383612498565b9050848682815481106125ec576125ec613a25565b9060005260206000200154111561260557809150612613565b6126108160016138ec565b92505b506125c3565b60008211801561264e57508385612631600185613a0e565b8154811061264157612641613a25565b9060005260206000200154145b156126675761265e600183613a0e565b9250505061091d565b50905061091d565b816001600160a01b0316836001600160a01b0316141580156126915750600081115b15610a81576001600160a01b03831615612720576001600160a01b03831660009081526101c76020526040812081906126cd9061327d85612fa3565b91509150846001600160a01b03167fdec2bacdd2f05b59de34da9b523dff8be42e5e38e818c82fdb0bae774387a7248383604051612715929190918252602082015260400190565b60405180910390a250505b6001600160a01b03821615610a81576001600160a01b03821660009081526101c760205260408120819061275790612f9785612fa3565b91509150836001600160a01b03167fdec2bacdd2f05b59de34da9b523dff8be42e5e38e818c82fdb0bae774387a724838360405161279f929190918252602082015260400190565b60405180910390a25050505050565b600054610100900460ff166127d55760405162461bcd60e51b8152600401610a3090613a54565b81516127e89060369060208501906133fe565b508051610a819060379060208401906133fe565b600054610100900460ff166128235760405162461bcd60e51b8152600401610a3090613a54565b61012d805460ff19169055565b600054610100900460ff166128575760405162461bcd60e51b8152600401610a3090613a54565b81516020928301208151919092012061015f9190915561016055565b61012d5460ff16156121a35760405162461bcd60e51b815260206004820152601060248201526f14185d5cd8589b194e881c185d5cd95960821b6044820152606401610a30565b6000807f7fffffffffffffffffffffffffffffff5d576e7357a4501ddfe92f46681b20a08311156128f1575060009050600361299e565b8460ff16601b1415801561290957508460ff16601c14155b1561291a575060009050600461299e565b6040805160008082526020820180845289905260ff881692820192909252606081018690526080810185905260019060a0016020604051602081039080840390855afa15801561296e573d6000803e3d6000fd5b5050604051601f1901519150506001600160a01b0381166129975760006001925092505061299e565b9150600090505b94509492505050565b60008160048111156129bb576129bb613b36565b14156129c45750565b60018160048111156129d8576129d8613b36565b1415612a265760405162461bcd60e51b815260206004820152601860248201527f45434453413a20696e76616c6964207369676e617475726500000000000000006044820152606401610a30565b6002816004811115612a3a57612a3a613b36565b1415612a885760405162461bcd60e51b815260206004820152601f60248201527f45434453413a20696e76616c6964207369676e6174757265206c656e677468006044820152606401610a30565b6003816004811115612a9c57612a9c613b36565b1415612af55760405162461bcd60e51b815260206004820152602260248201527f45434453413a20696e76616c6964207369676e6174757265202773272076616c604482015261756560f01b6064820152608401610a30565b6004816004811115612b0957612b09613b36565b1415610bf05760405162461bcd60e51b815260206004820152602260248201527f45434453413a20696e76616c6964207369676e6174757265202776272076616c604482015261756560f01b6064820152608401610a30565b6001600160a01b038316612b8157612b7982613289565b610a816132bc565b6001600160a01b038216612b9857612b7983613289565b612ba183613289565b610a8182613289565b6001600160a01b0383811660009081526101c66020526040808220548584168352912054610a819291821691168361266f565b60606000612bec8360026139ef565b612bf79060026138ec565b67ffffffffffffffff811115612c0f57612c0f6135f4565b6040519080825280601f01601f191660200182016040528015612c39576020820181803683370190505b509050600360fc1b81600081518110612c5457612c54613a25565b60200101906001600160f81b031916908160001a905350600f60fb1b81600181518110612c8357612c83613a25565b60200101906001600160f81b031916908160001a9053506000612ca78460026139ef565b612cb29060016138ec565b90505b6001811115612d2a576f181899199a1a9b1b9c1cb0b131b232b360811b85600f1660108110612ce657612ce6613a25565b1a60f81b828281518110612cfc57612cfc613a25565b60200101906001600160f81b031916908160001a90535060049490941c93612d2381613b4c565b9050612cb5565b508315610a555760405162461bcd60e51b815260206004820181905260248201527f537472696e67733a20686578206c656e67746820696e73756666696369656e746044820152606401610a30565b612d82816123d7565b6040516001600160a01b038216907fbc7cd75a20ee27fd9adebab32041f755214dbc6bffa90cc0225b39da2e5c2d3b90600090a250565b60606001600160a01b0383163b612e215760405162461bcd60e51b815260206004820152602660248201527f416464726573733a2064656c65676174652063616c6c20746f206e6f6e2d636f6044820152651b9d1c9858dd60d21b6064820152608401610a30565b600080846001600160a01b031684604051612e3c9190613b63565b600060405180830381855af49150503d8060008114612e77576040519150601f19603f3d011682016040523d82523d6000602084013e612e7c565b606091505b5091509150610d378282604051806060016040528060278152602001613be0602791396132ca565b6001600160a01b038216612efa5760405162461bcd60e51b815260206004820152601f60248201527f45524332303a206d696e7420746f20746865207a65726f2061646472657373006044820152606401610a30565b612f0660008383612355565b8060356000828254612f1891906138ec565b90915550506001600160a01b03821660009081526033602052604081208054839290612f459084906138ec565b90915550506040518181526001600160a01b038316906000907fddf252ad1be2c89b69c2b068fc378daa952ba7f163c4a11628f55a4df523b3ef9060200160405180910390a3610b0f60008383612368565b6000610a5582846138ec565b825460009081908015612fee5785612fbc600183613a0e565b81548110612fcc57612fcc613a25565b60009182526020909120015464010000000090046001600160e01b0316612ff1565b60005b6001600160e01b0316925061300a83858763ffffffff16565b915060008111801561304857504386613024600184613a0e565b8154811061303457613034613a25565b60009182526020909120015463ffffffff16145b156130a85761305682613303565b86613062600184613a0e565b8154811061307257613072613a25565b9060005260206000200160000160046101000a8154816001600160e01b0302191690836001600160e01b03160217905550613113565b8560405180604001604052806130bd436120e2565b63ffffffff1681526020016130d185613303565b6001600160e01b0390811690915282546001810184556000938452602093849020835194909301519091166401000000000263ffffffff909316929092179101555b50935093915050565b6001600160a01b03821661317c5760405162461bcd60e51b815260206004820152602160248201527f45524332303a206275726e2066726f6d20746865207a65726f206164647265736044820152607360f81b6064820152608401610a30565b61318882600083612355565b6001600160a01b038216600090815260336020526040902054818110156131fc5760405162461bcd60e51b815260206004820152602260248201527f45524332303a206275726e20616d6f756e7420657863656564732062616c616e604482015261636560f01b6064820152608401610a30565b6001600160a01b038316600090815260336020526040812083830390556035805484929061322b908490613a0e565b90915550506040518281526000906001600160a01b038516907fddf252ad1be2c89b69c2b068fc378daa952ba7f163c4a11628f55a4df523b3ef9060200160405180910390a3610a8183600084612368565b6000610a558284613a0e565b6001600160a01b0381166000908152609760209081526040808320603390925290912054610bf0919061336c565b61336c565b6121a360986132b760355490565b606083156132d9575081610a55565b8251156132e95782518084602001fd5b8160405162461bcd60e51b8152600401610a3091906134e4565b60006001600160e01b038211156121475760405162461bcd60e51b815260206004820152602760248201527f53616665436173743a2076616c756520646f65736e27742066697420696e20326044820152663234206269747360c81b6064820152608401610a30565b60006133766125a1565b905080613382846133b6565b1015610a81578254600180820185556000858152602080822090930193909355938401805494850181558252902090910155565b80546000906133c757506000919050565b815482906133d790600190613a0e565b815481106133e7576133e7613a25565b90600052602060002001549050919050565b919050565b82805461340a90613809565b90600052602060002090601f01602090048101928261342c5760008555613472565b82601f1061344557805160ff1916838001178555613472565b82800160010185558215613472579182015b82811115613472578251825591602001919060010190613457565b506121479291505b80821115612147576000815560010161347a565b6000602082840312156134a057600080fd5b81356001600160e01b031981168114610a5557600080fd5b60005b838110156134d35781810151838201526020016134bb565b838111156119495750506000910152565b60208152600082518060208401526135038160408501602087016134b8565b601f01601f19169190910160400192915050565b80356001600160a01b03811681146133f957600080fd5b6000806040838503121561354157600080fd5b61354a83613517565b946020939093013593505050565b60008060006060848603121561356d57600080fd5b61357684613517565b925061358460208501613517565b9150604084013590509250925092565b6000602082840312156135a657600080fd5b5035919050565b600080604083850312156135c057600080fd5b823591506135d060208401613517565b90509250929050565b6000602082840312156135eb57600080fd5b610a5582613517565b634e487b7160e01b600052604160045260246000fd5b6000806040838503121561361d57600080fd5b61362683613517565b9150602083013567ffffffffffffffff8082111561364357600080fd5b818501915085601f83011261365757600080fd5b813581811115613669576136696135f4565b604051601f8201601f19908116603f01168101908382118183101715613691576136916135f4565b816040528281528860208487010111156136aa57600080fd5b8260208601602083013760006020848301015280955050505050509250929050565b803560ff811681146133f957600080fd5b60008060008060008060c087890312156136f657600080fd5b6136ff87613517565b9550602087013594506040870135935061371b606088016136cc565b92506080870135915060a087013590509295509295509295565b600080600080600080600060e0888a03121561375057600080fd5b61375988613517565b965061376760208901613517565b95506040880135945060608801359350613783608089016136cc565b925060a0880135915060c0880135905092959891949750929550565b600080604083850312156137b257600080fd5b6137bb83613517565b91506135d060208401613517565b600080604083850312156137dc57600080fd5b6137e583613517565b9150602083013563ffffffff811681146137fe57600080fd5b809150509250929050565b600181811c9082168061381d57607f821691505b6020821081141561234f57634e487b7160e01b600052602260045260246000fd5b6020808252602c908201527f46756e6374696f6e206d7573742062652063616c6c6564207468726f7567682060408201526b19195b1959d85d1958d85b1b60a21b606082015260800190565b6020808252602c908201527f46756e6374696f6e206d7573742062652063616c6c6564207468726f7567682060408201526b6163746976652070726f787960a01b606082015260800190565b634e487b7160e01b600052601160045260246000fd5b600082198211156138ff576138ff6138d6565b500190565b600181815b8085111561205e578160001904821115613925576139256138d6565b8085161561393257918102915b93841c9390800290613909565b60008261394e5750600161091d565b8161395b5750600061091d565b8160018114613971576002811461397b57613997565b600191505061091d565b60ff84111561398c5761398c6138d6565b50506001821b61091d565b5060208310610133831016604e8410600b84101617156139ba575081810a61091d565b6139c48383613904565b80600019048211156139d8576139d86138d6565b029392505050565b6000610a5560ff84168361393f565b6000816000190483118215151615613a0957613a096138d6565b500290565b600082821015613a2057613a206138d6565b500390565b634e487b7160e01b600052603260045260246000fd5b600060208284031215613a4d57600080fd5b5051919050565b6020808252602b908201527f496e697469616c697a61626c653a20636f6e7472616374206973206e6f74206960408201526a6e697469616c697a696e6760a81b606082015260800190565b7f416363657373436f6e74726f6c3a206163636f756e7420000000000000000000815260008351613ad78160178501602088016134b8565b7001034b99036b4b9b9b4b733903937b6329607d1b6017918401918201528351613b088160288401602088016134b8565b01602801949350505050565b600082613b3157634e487b7160e01b600052601260045260246000fd5b500490565b634e487b7160e01b600052602160045260246000fd5b600081613b5b57613b5b6138d6565b506000190190565b60008251613b758184602087016134b8565b919091019291505056fe360894a13ba1a3210667c828492db98dca3e2076cc3735a920a3ca505d382bbc114e74f6ea3bd819998f78687bfcb11b140da08e9b7d222fa9c1f1ba1f2aa12265d7a28e3265b37a6474929f336521b332c1681b933f6cb9f3376673440d862a416464726573733a206c6f772d6c6576656c2064656c65676174652063616c6c206661696c6564a2646970667358221220c0f20e03538a158a8d71320899af6f7525d4b3024f275bf6d26427beab1fb81464736f6c63430008080033",
  "linkReferences": {},
  "deployedLinkReferences": {}
}