{
  "_format": "hh-sol-artifact-1",
  "contractName": "GovernorBravoDelegate",
  "sourceName": "contracts/governance.sol",
  "abi": [
    {
      "anonymous": false,
      "inputs": [
        {
          "indexed": false,
          "internalType": "address",
          "name": "previousAdmin",
          "type": "address"
        },
        {
          "indexed": false,
          "internalType": "address",
          "name": "newAdmin",
          "type": "address"
        }
      ],
      "name": "AdminChanged",
      "type": "event"
    },
    {
      "anonymous": false,
      "inputs": [
        {
          "indexed": true,
          "internalType": "address",
          "name": "beacon",
          "type": "address"
        }
      ],
      "name": "BeaconUpgraded",
      "type": "event"
    },
    {
      "anonymous": false,
      "inputs": [
        {
          "indexed": false,
          "internalType": "address",
          "name": "governanceAddress",
          "type": "address"
        }
      ],
      "name": "GovernanceInitiated",
      "type": "event"
    },
    {
      "anonymous": false,
      "inputs": [
        {
          "indexed": false,
          "internalType": "uint8",
          "name": "version",
          "type": "uint8"
        }
      ],
      "name": "Initialized",
      "type": "event"
    },
    {
      "anonymous": false,
      "inputs": [
        {
          "indexed": false,
          "internalType": "address",
          "name": "investee",
          "type": "address"
        },
        {
          "indexed": false,
          "internalType": "uint256",
          "name": "id",
          "type": "uint256"
        }
      ],
      "name": "InvesteeFunded",
      "type": "event"
    },
    {
      "anonymous": false,
      "inputs": [
        {
          "indexed": false,
          "internalType": "address",
          "name": "investee",
          "type": "address"
        },
        {
          "indexed": false,
          "internalType": "uint256",
          "name": "id",
          "type": "uint256"
        }
      ],
      "name": "InvesteeSet",
      "type": "event"
    },
    {
      "anonymous": false,
      "inputs": [
        {
          "indexed": false,
          "internalType": "address",
          "name": "oldAdmin",
          "type": "address"
        },
        {
          "indexed": false,
          "internalType": "address",
          "name": "newAdmin",
          "type": "address"
        }
      ],
      "name": "NewAdmin",
      "type": "event"
    },
    {
      "anonymous": false,
      "inputs": [
        {
          "indexed": false,
          "internalType": "address",
          "name": "oldImplementation",
          "type": "address"
        },
        {
          "indexed": false,
          "internalType": "address",
          "name": "newImplementation",
          "type": "address"
        }
      ],
      "name": "NewImplementation",
      "type": "event"
    },
    {
      "anonymous": false,
      "inputs": [
        {
          "indexed": false,
          "internalType": "address",
          "name": "oldPendingAdmin",
          "type": "address"
        },
        {
          "indexed": false,
          "internalType": "address",
          "name": "newPendingAdmin",
          "type": "address"
        }
      ],
      "name": "NewPendingAdmin",
      "type": "event"
    },
    {
      "anonymous": false,
      "inputs": [
        {
          "indexed": false,
          "internalType": "uint256",
          "name": "id",
          "type": "uint256"
        }
      ],
      "name": "ProposalCanceled",
      "type": "event"
    },
    {
      "anonymous": false,
      "inputs": [
        {
          "indexed": false,
          "internalType": "uint256",
          "name": "id",
          "type": "uint256"
        },
        {
          "indexed": false,
          "internalType": "address",
          "name": "proposer",
          "type": "address"
        },
        {
          "indexed": false,
          "internalType": "address[]",
          "name": "targets",
          "type": "address[]"
        },
        {
          "indexed": false,
          "internalType": "uint256[]",
          "name": "values",
          "type": "uint256[]"
        },
        {
          "indexed": false,
          "internalType": "string[]",
          "name": "signatures",
          "type": "string[]"
        },
        {
          "indexed": false,
          "internalType": "bytes[]",
          "name": "calldatas",
          "type": "bytes[]"
        },
        {
          "indexed": false,
          "internalType": "uint256",
          "name": "startBlock",
          "type": "uint256"
        },
        {
          "indexed": false,
          "internalType": "uint256",
          "name": "endBlock",
          "type": "uint256"
        },
        {
          "indexed": false,
          "internalType": "string",
          "name": "description",
          "type": "string"
        }
      ],
      "name": "ProposalCreated",
      "type": "event"
    },
    {
      "anonymous": false,
      "inputs": [
        {
          "indexed": false,
          "internalType": "uint256",
          "name": "id",
          "type": "uint256"
        }
      ],
      "name": "ProposalExecuted",
      "type": "event"
    },
    {
      "anonymous": false,
      "inputs": [
        {
          "indexed": false,
          "internalType": "uint256",
          "name": "id",
          "type": "uint256"
        },
        {
          "indexed": false,
          "internalType": "uint256",
          "name": "eta",
          "type": "uint256"
        }
      ],
      "name": "ProposalQueued",
      "type": "event"
    },
    {
      "anonymous": false,
      "inputs": [
        {
          "indexed": false,
          "internalType": "uint256",
          "name": "oldProposalThreshold",
          "type": "uint256"
        },
        {
          "indexed": false,
          "internalType": "uint256",
          "name": "newProposalThreshold",
          "type": "uint256"
        }
      ],
      "name": "ProposalThresholdSet",
      "type": "event"
    },
    {
      "anonymous": false,
      "inputs": [
        {
          "indexed": true,
          "internalType": "address",
          "name": "implementation",
          "type": "address"
        }
      ],
      "name": "Upgraded",
      "type": "event"
    },
    {
      "anonymous": false,
      "inputs": [
        {
          "indexed": true,
          "internalType": "address",
          "name": "voter",
          "type": "address"
        },
        {
          "indexed": false,
          "internalType": "uint256",
          "name": "proposalId",
          "type": "uint256"
        },
        {
          "indexed": false,
          "internalType": "uint8",
          "name": "support",
          "type": "uint8"
        },
        {
          "indexed": false,
          "internalType": "uint256",
          "name": "votes",
          "type": "uint256"
        },
        {
          "indexed": false,
          "internalType": "string",
          "name": "reason",
          "type": "string"
        }
      ],
      "name": "VoteCast",
      "type": "event"
    },
    {
      "anonymous": false,
      "inputs": [
        {
          "indexed": false,
          "internalType": "uint256",
          "name": "oldVotingDelay",
          "type": "uint256"
        },
        {
          "indexed": false,
          "internalType": "uint256",
          "name": "newVotingDelay",
          "type": "uint256"
        }
      ],
      "name": "VotingDelaySet",
      "type": "event"
    },
    {
      "anonymous": false,
      "inputs": [
        {
          "indexed": false,
          "internalType": "uint256",
          "name": "oldVotingPeriod",
          "type": "uint256"
        },
        {
          "indexed": false,
          "internalType": "uint256",
          "name": "newVotingPeriod",
          "type": "uint256"
        }
      ],
      "name": "VotingPeriodSet",
      "type": "event"
    },
    {
      "anonymous": false,
      "inputs": [
        {
          "indexed": false,
          "internalType": "address",
          "name": "account",
          "type": "address"
        },
        {
          "indexed": false,
          "internalType": "uint256",
          "name": "expiration",
          "type": "uint256"
        }
      ],
      "name": "WhitelistAccountExpirationSet",
      "type": "event"
    },
    {
      "anonymous": false,
      "inputs": [
        {
          "indexed": false,
          "internalType": "address",
          "name": "oldGuardian",
          "type": "address"
        },
        {
          "indexed": false,
          "internalType": "address",
          "name": "newGuardian",
          "type": "address"
        }
      ],
      "name": "WhitelistGuardianSet",
      "type": "event"
    },
    {
      "inputs": [],
      "name": "BALLOT_TYPEHASH",
      "outputs": [
        {
          "internalType": "bytes32",
          "name": "",
          "type": "bytes32"
        }
      ],
      "stateMutability": "view",
      "type": "function"
    },
    {
      "inputs": [],
      "name": "DOMAIN_TYPEHASH",
      "outputs": [
        {
          "internalType": "bytes32",
          "name": "",
          "type": "bytes32"
        }
      ],
      "stateMutability": "view",
      "type": "function"
    },
    {
      "inputs": [],
      "name": "MAX_PROPOSAL_THRESHOLD",
      "outputs": [
        {
          "internalType": "uint256",
          "name": "",
          "type": "uint256"
        }
      ],
      "stateMutability": "view",
      "type": "function"
    },
    {
      "inputs": [],
      "name": "MAX_VOTING_DELAY",
      "outputs": [
        {
          "internalType": "uint256",
          "name": "",
          "type": "uint256"
        }
      ],
      "stateMutability": "view",
      "type": "function"
    },
    {
      "inputs": [],
      "name": "MAX_VOTING_PERIOD",
      "outputs": [
        {
          "internalType": "uint256",
          "name": "",
          "type": "uint256"
        }
      ],
      "stateMutability": "view",
      "type": "function"
    },
    {
      "inputs": [],
      "name": "MIN_PROPOSAL_THRESHOLD",
      "outputs": [
        {
          "internalType": "uint256",
          "name": "",
          "type": "uint256"
        }
      ],
      "stateMutability": "view",
      "type": "function"
    },
    {
      "inputs": [],
      "name": "MIN_VOTING_DELAY",
      "outputs": [
        {
          "internalType": "uint256",
          "name": "",
          "type": "uint256"
        }
      ],
      "stateMutability": "view",
      "type": "function"
    },
    {
      "inputs": [],
      "name": "MIN_VOTING_PERIOD",
      "outputs": [
        {
          "internalType": "uint256",
          "name": "",
          "type": "uint256"
        }
      ],
      "stateMutability": "view",
      "type": "function"
    },
    {
      "inputs": [],
      "name": "_AcceptTimelockAdmin",
      "outputs": [],
      "stateMutability": "nonpayable",
      "type": "function"
    },
    {
      "inputs": [],
      "name": "_acceptAdmin",
      "outputs": [],
      "stateMutability": "nonpayable",
      "type": "function"
    },
    {
      "inputs": [],
      "name": "_fundInvestee",
      "outputs": [
        {
          "internalType": "address",
          "name": "",
          "type": "address"
        }
      ],
      "stateMutability": "nonpayable",
      "type": "function"
    },
    {
      "inputs": [
        {
          "internalType": "address",
          "name": "governorAlpha",
          "type": "address"
        }
      ],
      "name": "_initiate",
      "outputs": [],
      "stateMutability": "nonpayable",
      "type": "function"
    },
    {
      "inputs": [
        {
          "internalType": "address",
          "name": "_investee",
          "type": "address"
        }
      ],
      "name": "_setInvesteeDetails",
      "outputs": [],
      "stateMutability": "nonpayable",
      "type": "function"
    },
    {
      "inputs": [
        {
          "internalType": "address",
          "name": "newPendingAdmin",
          "type": "address"
        }
      ],
      "name": "_setPendingAdmin",
      "outputs": [],
      "stateMutability": "nonpayable",
      "type": "function"
    },
    {
      "inputs": [
        {
          "internalType": "uint256",
          "name": "newProposalThreshold",
          "type": "uint256"
        }
      ],
      "name": "_setProposalThreshold",
      "outputs": [],
      "stateMutability": "nonpayable",
      "type": "function"
    },
    {
      "inputs": [
        {
          "internalType": "uint256",
          "name": "newVotingDelay",
          "type": "uint256"
        }
      ],
      "name": "_setVotingDelay",
      "outputs": [],
      "stateMutability": "nonpayable",
      "type": "function"
    },
    {
      "inputs": [
        {
          "internalType": "uint256",
          "name": "newVotingPeriod",
          "type": "uint256"
        }
      ],
      "name": "_setVotingPeriod",
      "outputs": [],
      "stateMutability": "nonpayable",
      "type": "function"
    },
    {
      "inputs": [
        {
          "internalType": "address",
          "name": "account",
          "type": "address"
        },
        {
          "internalType": "uint256",
          "name": "expiration",
          "type": "uint256"
        }
      ],
      "name": "_setWhitelistAccountExpiration",
      "outputs": [],
      "stateMutability": "nonpayable",
      "type": "function"
    },
    {
      "inputs": [
        {
          "internalType": "address",
          "name": "account",
          "type": "address"
        }
      ],
      "name": "_setWhitelistGuardian",
      "outputs": [],
      "stateMutability": "nonpayable",
      "type": "function"
    },
    {
      "inputs": [],
      "name": "admin",
      "outputs": [
        {
          "internalType": "address",
          "name": "",
          "type": "address"
        }
      ],
      "stateMutability": "view",
      "type": "function"
    },
    {
      "inputs": [
        {
          "internalType": "uint256",
          "name": "proposalId",
          "type": "uint256"
        }
      ],
      "name": "cancel",
      "outputs": [],
      "stateMutability": "nonpayable",
      "type": "function"
    },
    {
      "inputs": [
        {
          "internalType": "uint256",
          "name": "proposalId",
          "type": "uint256"
        },
        {
          "internalType": "uint8",
          "name": "support",
          "type": "uint8"
        }
      ],
      "name": "castVote",
      "outputs": [],
      "stateMutability": "nonpayable",
      "type": "function"
    },
    {
      "inputs": [
        {
          "internalType": "uint256",
          "name": "proposalId",
          "type": "uint256"
        },
        {
          "internalType": "uint8",
          "name": "support",
          "type": "uint8"
        },
        {
          "internalType": "uint8",
          "name": "v",
          "type": "uint8"
        },
        {
          "internalType": "bytes32",
          "name": "r",
          "type": "bytes32"
        },
        {
          "internalType": "bytes32",
          "name": "s",
          "type": "bytes32"
        }
      ],
      "name": "castVoteBySig",
      "outputs": [],
      "stateMutability": "nonpayable",
      "type": "function"
    },
    {
      "inputs": [
        {
          "internalType": "uint256",
          "name": "proposalId",
          "type": "uint256"
        },
        {
          "internalType": "uint8",
          "name": "support",
          "type": "uint8"
        },
        {
          "internalType": "string",
          "name": "reason",
          "type": "string"
        }
      ],
      "name": "castVoteWithReason",
      "outputs": [],
      "stateMutability": "nonpayable",
      "type": "function"
    },
    {
      "inputs": [
        {
          "internalType": "uint256",
          "name": "proposalId",
          "type": "uint256"
        }
      ],
      "name": "execute",
      "outputs": [],
      "stateMutability": "payable",
      "type": "function"
    },
    {
      "inputs": [
        {
          "internalType": "uint256",
          "name": "proposalId",
          "type": "uint256"
        }
      ],
      "name": "getActions",
      "outputs": [
        {
          "internalType": "address[]",
          "name": "targets",
          "type": "address[]"
        },
        {
          "internalType": "uint256[]",
          "name": "values",
          "type": "uint256[]"
        },
        {
          "internalType": "string[]",
          "name": "signatures",
          "type": "string[]"
        },
        {
          "internalType": "bytes[]",
          "name": "calldatas",
          "type": "bytes[]"
        }
      ],
      "stateMutability": "view",
      "type": "function"
    },
    {
      "inputs": [
        {
          "internalType": "uint256",
          "name": "proposalId",
          "type": "uint256"
        },
        {
          "internalType": "address",
          "name": "voter",
          "type": "address"
        }
      ],
      "name": "getReceipt",
      "outputs": [
        {
          "components": [
            {
              "internalType": "bool",
              "name": "hasVoted",
              "type": "bool"
            },
            {
              "internalType": "uint8",
              "name": "support",
              "type": "uint8"
            },
            {
              "internalType": "uint256",
              "name": "votes",
              "type": "uint256"
            }
          ],
          "internalType": "struct GovernorBravoDelegateStorageV1.Receipt",
          "name": "",
          "type": "tuple"
        }
      ],
      "stateMutability": "view",
      "type": "function"
    },
    {
      "inputs": [],
      "name": "iGive",
      "outputs": [
        {
          "internalType": "contract iGiveInterface",
          "name": "",
          "type": "address"
        }
      ],
      "stateMutability": "view",
      "type": "function"
    },
    {
      "inputs": [],
      "name": "implementation",
      "outputs": [
        {
          "internalType": "address",
          "name": "",
          "type": "address"
        }
      ],
      "stateMutability": "view",
      "type": "function"
    },
    {
      "inputs": [],
      "name": "initialProposalId",
      "outputs": [
        {
          "internalType": "uint256",
          "name": "",
          "type": "uint256"
        }
      ],
      "stateMutability": "view",
      "type": "function"
    },
    {
      "inputs": [
        {
          "internalType": "address",
          "name": "timelock_",
          "type": "address"
        },
        {
          "internalType": "address",
          "name": "iGive_",
          "type": "address"
        },
        {
          "internalType": "uint256",
          "name": "votingPeriod_",
          "type": "uint256"
        },
        {
          "internalType": "uint256",
          "name": "votingDelay_",
          "type": "uint256"
        },
        {
          "internalType": "uint256",
          "name": "proposalThreshold_",
          "type": "uint256"
        },
        {
          "internalType": "address",
          "name": "treasury_",
          "type": "address"
        }
      ],
      "name": "initialize",
      "outputs": [],
      "stateMutability": "nonpayable",
      "type": "function"
    },
    {
      "inputs": [
        {
          "internalType": "uint256",
          "name": "",
          "type": "uint256"
        }
      ],
      "name": "investeeDetails",
      "outputs": [
        {
          "internalType": "address",
          "name": "",
          "type": "address"
        }
      ],
      "stateMutability": "view",
      "type": "function"
    },
    {
      "inputs": [
        {
          "internalType": "address",
          "name": "account",
          "type": "address"
        }
      ],
      "name": "isWhitelisted",
      "outputs": [
        {
          "internalType": "bool",
          "name": "",
          "type": "bool"
        }
      ],
      "stateMutability": "view",
      "type": "function"
    },
    {
      "inputs": [
        {
          "internalType": "address",
          "name": "",
          "type": "address"
        }
      ],
      "name": "latestProposalIds",
      "outputs": [
        {
          "internalType": "uint256",
          "name": "",
          "type": "uint256"
        }
      ],
      "stateMutability": "view",
      "type": "function"
    },
    {
      "inputs": [],
      "name": "name",
      "outputs": [
        {
          "internalType": "string",
          "name": "",
          "type": "string"
        }
      ],
      "stateMutability": "view",
      "type": "function"
    },
    {
      "inputs": [],
      "name": "nextInvestee",
      "outputs": [
        {
          "internalType": "uint256",
          "name": "",
          "type": "uint256"
        }
      ],
      "stateMutability": "view",
      "type": "function"
    },
    {
      "inputs": [],
      "name": "nextInvesteeFund",
      "outputs": [
        {
          "internalType": "uint256",
          "name": "",
          "type": "uint256"
        }
      ],
      "stateMutability": "view",
      "type": "function"
    },
    {
      "inputs": [],
      "name": "pendingAdmin",
      "outputs": [
        {
          "internalType": "address",
          "name": "",
          "type": "address"
        }
      ],
      "stateMutability": "view",
      "type": "function"
    },
    {
      "inputs": [],
      "name": "proposalCount",
      "outputs": [
        {
          "internalType": "uint256",
          "name": "",
          "type": "uint256"
        }
      ],
      "stateMutability": "view",
      "type": "function"
    },
    {
      "inputs": [],
      "name": "proposalMaxOperations",
      "outputs": [
        {
          "internalType": "uint256",
          "name": "",
          "type": "uint256"
        }
      ],
      "stateMutability": "view",
      "type": "function"
    },
    {
      "inputs": [],
      "name": "proposalThreshold",
      "outputs": [
        {
          "internalType": "uint256",
          "name": "",
          "type": "uint256"
        }
      ],
      "stateMutability": "view",
      "type": "function"
    },
    {
      "inputs": [
        {
          "internalType": "uint256",
          "name": "",
          "type": "uint256"
        }
      ],
      "name": "proposals",
      "outputs": [
        {
          "internalType": "uint256",
          "name": "id",
          "type": "uint256"
        },
        {
          "internalType": "address",
          "name": "proposer",
          "type": "address"
        },
        {
          "internalType": "uint256",
          "name": "eta",
          "type": "uint256"
        },
        {
          "internalType": "uint256",
          "name": "startBlock",
          "type": "uint256"
        },
        {
          "internalType": "uint256",
          "name": "endBlock",
          "type": "uint256"
        },
        {
          "internalType": "uint256",
          "name": "forVotes",
          "type": "uint256"
        },
        {
          "internalType": "uint256",
          "name": "againstVotes",
          "type": "uint256"
        },
        {
          "internalType": "uint256",
          "name": "abstainVotes",
          "type": "uint256"
        },
        {
          "internalType": "bool",
          "name": "canceled",
          "type": "bool"
        },
        {
          "internalType": "bool",
          "name": "executed",
          "type": "bool"
        }
      ],
      "stateMutability": "view",
      "type": "function"
    },
    {
      "inputs": [
        {
          "internalType": "address[]",
          "name": "targets",
          "type": "address[]"
        },
        {
          "internalType": "uint256[]",
          "name": "values",
          "type": "uint256[]"
        },
        {
          "internalType": "string[]",
          "name": "signatures",
          "type": "string[]"
        },
        {
          "internalType": "bytes[]",
          "name": "calldatas",
          "type": "bytes[]"
        },
        {
          "internalType": "string",
          "name": "description",
          "type": "string"
        }
      ],
      "name": "propose",
      "outputs": [
        {
          "internalType": "uint256",
          "name": "",
          "type": "uint256"
        }
      ],
      "stateMutability": "nonpayable",
      "type": "function"
    },
    {
      "inputs": [],
      "name": "proxiableUUID",
      "outputs": [
        {
          "internalType": "bytes32",
          "name": "",
          "type": "bytes32"
        }
      ],
      "stateMutability": "view",
      "type": "function"
    },
    {
      "inputs": [
        {
          "internalType": "uint256",
          "name": "proposalId",
          "type": "uint256"
        }
      ],
      "name": "queue",
      "outputs": [],
      "stateMutability": "nonpayable",
      "type": "function"
    },
    {
      "inputs": [],
      "name": "quorumVotes",
      "outputs": [
        {
          "internalType": "uint256",
          "name": "",
          "type": "uint256"
        }
      ],
      "stateMutability": "view",
      "type": "function"
    },
    {
      "inputs": [
        {
          "internalType": "uint256",
          "name": "proposalId",
          "type": "uint256"
        }
      ],
      "name": "state",
      "outputs": [
        {
          "internalType": "enum GovernorBravoDelegateStorageV1.ProposalState",
          "name": "",
          "type": "uint8"
        }
      ],
      "stateMutability": "view",
      "type": "function"
    },
    {
      "inputs": [],
      "name": "timelock",
      "outputs": [
        {
          "internalType": "contract TimelockInterface",
          "name": "",
          "type": "address"
        }
      ],
      "stateMutability": "view",
      "type": "function"
    },
    {
      "inputs": [],
      "name": "treasury",
      "outputs": [
        {
          "internalType": "address",
          "name": "",
          "type": "address"
        }
      ],
      "stateMutability": "view",
      "type": "function"
    },
    {
      "inputs": [
        {
          "internalType": "address",
          "name": "newImplementation",
          "type": "address"
        }
      ],
      "name": "upgradeTo",
      "outputs": [],
      "stateMutability": "nonpayable",
      "type": "function"
    },
    {
      "inputs": [
        {
          "internalType": "address",
          "name": "newImplementation",
          "type": "address"
        },
        {
          "internalType": "bytes",
          "name": "data",
          "type": "bytes"
        }
      ],
      "name": "upgradeToAndCall",
      "outputs": [],
      "stateMutability": "payable",
      "type": "function"
    },
    {
      "inputs": [],
      "name": "votingDelay",
      "outputs": [
        {
          "internalType": "uint256",
          "name": "",
          "type": "uint256"
        }
      ],
      "stateMutability": "view",
      "type": "function"
    },
    {
      "inputs": [],
      "name": "votingPeriod",
      "outputs": [
        {
          "internalType": "uint256",
          "name": "",
          "type": "uint256"
        }
      ],
      "stateMutability": "view",
      "type": "function"
    },
    {
      "inputs": [
        {
          "internalType": "address",
          "name": "",
          "type": "address"
        }
      ],
      "name": "whitelistAccountExpirations",
      "outputs": [
        {
          "internalType": "uint256",
          "name": "",
          "type": "uint256"
        }
      ],
      "stateMutability": "view",
      "type": "function"
    },
    {
      "inputs": [],
      "name": "whitelistGuardian",
      "outputs": [
        {
          "internalType": "address",
          "name": "",
          "type": "address"
        }
      ],
      "stateMutability": "view",
      "type": "function"
    }
  ],
  "bytecode": "0x60a06040523060601b60805234801561001757600080fd5b5060805160601c614df9610052600039600081816113390152818161137901528181611c1901528181611c590152611cec0152614df96000f3fe6080604052600436106103505760003560e01c8063647abf78116101c6578063d33219b4116100f7578063e48083fe11610095578063f851a4401161006f578063f851a44014610b19578063f9d28b8014610b39578063fc4eee4214610b59578063fe0d94c114610b6f57610350565b8063e48083fe1461057f578063e9c714f214610aef578063f03cd27114610b0457610350565b8063da95691a116100d1578063da95691a146109c5578063ddf0b009146109e5578063deaaa7cc14610a05578063e23a9a5214610a3957610350565b8063d33219b414610979578063d54db34814610999578063da35c664146109af57610350565b8063a64e024a11610164578063b1a5d12d1161013e578063b1a5d12d14610903578063b58131b014610923578063b71d1a0c14610939578063c5a8425d1461095957610350565b8063a64e024a146108b6578063b1126263146108cd578063b19610f7146108e357610350565b80637b3c71d3116101a05780637b3c71d31461084c5780637bdbe4d01461086c5780639953336514610881578063a37ee07d146108a157610350565b8063647abf78146107e35780636754ae56146107f9578063791f5d231461082f57610350565b8063328dd982116102a057806340e58ee51161023e57806352d1902d1161021857806352d1902d1461076e57806356781388146107835780635c60da1b146107a357806361d027b3146107c357610350565b806340e58ee51461071b5780634d6733d21461073b5780634f1ef2861461075b57610350565b80633932abb11161027a5780633932abb1146106885780633af32abf1461069e5780633bccf4fd146106ce5780633e4f49e6146106ee57610350565b8063328dd9821461060b5780633659cfe61461063b57806338bd0dda1461065b57610350565b806317ba1b8b1161030d578063215809ca116102e7578063215809ca1461057f57806324bc1a641461059457806325fd935a146105b357806326782247146105d357610350565b806317ba1b8b1461050b5780631dfb1b5a1461052b57806320606b701461054b57610350565b8063013cf08b1461035557806302a251a31461042c57806306b8aa491461045057806306fdde03146104725780630ea2d98c146104be57806317977c61146104de575b600080fd5b34801561036157600080fd5b506103d161037036600461462b565b606f602052600090815260409020805460018201546002830154600784015460088501546009860154600a870154600b880154600c9098015496976001600160a01b0390961696949593949293919290919060ff808216916101009004168a565b604080519a8b526001600160a01b0390991660208b0152978901969096526060880194909452608087019290925260a086015260c085015260e084015215156101008301521515610120820152610140015b60405180910390f35b34801561043857600080fd5b5061044260695481565b604051908152602001610423565b34801561045c57600080fd5b5061047061046b3660046143d0565b610b82565b005b34801561047e57600080fd5b506104b160405180604001604052806013815260200172476f6f6420476f7665726e6f7220427261766f60681b81525081565b6040516104239190614a10565b3480156104ca57600080fd5b506104706104d936600461462b565b610cf9565b3480156104ea57600080fd5b506104426104f93660046143d0565b60706020526000908152604090205481565b34801561051757600080fd5b5061047061052636600461462b565b610e2c565b34801561053757600080fd5b5061047061054636600461462b565b610f76565b34801561055757600080fd5b506104427f8cad95687ba82c2ce50e74f7b754645e5117c3a5bec8151c0726d5857980a86681565b34801561058b57600080fd5b50610442600181565b3480156105a057600080fd5b506104426aadb53acfa41aee1200000081565b3480156105bf57600080fd5b506104426b43dacaf91c1a84ff0800000081565b3480156105df57600080fd5b506066546105f3906001600160a01b031681565b6040516001600160a01b039091168152602001610423565b34801561061757600080fd5b5061062b61062636600461462b565b61109d565b6040516104239493929190614990565b34801561064757600080fd5b506104706106563660046143d0565b61132e565b34801561066757600080fd5b506104426106763660046143d0565b60716020526000908152604090205481565b34801561069457600080fd5b5061044260685481565b3480156106aa57600080fd5b506106be6106b93660046143d0565b61140e565b6040519015158152602001610423565b3480156106da57600080fd5b506104706106e9366004614712565b61142f565b3480156106fa57600080fd5b5061070e61070936600461462b565b61169f565b60405161042391906149e8565b34801561072757600080fd5b5061047061073636600461462b565b61186d565b34801561074757600080fd5b50610470610756366004614494565b611b28565b610470610769366004614448565b611c0e565b34801561077a57600080fd5b50610442611cdf565b34801561078f57600080fd5b5061047061079e36600461466e565b611d92565b3480156107af57600080fd5b506067546105f3906001600160a01b031681565b3480156107cf57600080fd5b506076546105f3906001600160a01b031681565b3480156107ef57600080fd5b5061044260755481565b34801561080557600080fd5b506105f361081436600461462b565b6073602052600090815260409020546001600160a01b031681565b34801561083b57600080fd5b506104426871d75ab9b92050000081565b34801561085857600080fd5b50610470610867366004614690565b611df4565b34801561087857600080fd5b50610442600981565b34801561088d57600080fd5b5061047061089c3660046143d0565b611e44565b3480156108ad57600080fd5b50610470611f81565b3480156108c257600080fd5b5061044262013b0081565b3480156108d957600080fd5b50610442619d8081565b3480156108ef57600080fd5b50606e546105f3906001600160a01b031681565b34801561090f57600080fd5b5061047061091e3660046143ea565b611feb565b34801561092f57600080fd5b50610442606a5481565b34801561094557600080fd5b506104706109543660046143d0565b612390565b34801561096557600080fd5b506072546105f3906001600160a01b031681565b34801561098557600080fd5b50606d546105f3906001600160a01b031681565b3480156109a557600080fd5b5061044260745481565b3480156109bb57600080fd5b50610442606c5481565b3480156109d157600080fd5b506104426109e03660046144bd565b6124c2565b3480156109f157600080fd5b50610470610a0036600461462b565b612a6b565b348015610a1157600080fd5b506104427f150214d74d59b7d1e90c73fc22ef3d991dd0a76b046543d4d80ab92d2a50328f81565b348015610a4557600080fd5b50610ac8610a54366004614643565b6040805160608101825260008082526020820181905291810191909152506000918252606f602090815260408084206001600160a01b03939093168452600d9092018152918190208151606081018352815460ff808216151583526101009091041693810193909352600101549082015290565b6040805182511515815260208084015160ff16908201529181015190820152606001610423565b348015610afb57600080fd5b50610470612db8565b348015610b1057600080fd5b506105f3612ee2565b348015610b2557600080fd5b506065546105f3906001600160a01b031681565b348015610b4557600080fd5b50610470610b543660046143d0565b61307f565b348015610b6557600080fd5b50610442606b5481565b610470610b7d36600461462b565b613261565b6065546001600160a01b03163314610bf85760405162461bcd60e51b815260206004820152602e60248201527f476f7665726e6f72427261766f3a3a5f736574496e766573746565446574616960448201526d6c733a2061646d696e206f6e6c7960901b60648201526084015b60405180910390fd5b6001600160a01b038116610c675760405162461bcd60e51b815260206004820152603060248201527f476f7665726e6f72427261766f3a3a5f736574496e766573746565446574616960448201526f6c733a207a65726f206164647265737360801b6064820152608401610bef565b60748054600090815260736020526040902080546001600160a01b0319166001600160a01b03841617905554610c9e906001613501565b6074819055507f59f0b8051a7417e410325aa8686c7c34f2dbabef2f0d168ae2753b7a8049f63781610cd3607454600161355b565b604080516001600160a01b0390931683526020830191909152015b60405180910390a150565b6065546001600160a01b03163314610d675760405162461bcd60e51b815260206004820152602b60248201527f476f7665726e6f72427261766f3a3a5f736574566f74696e67506572696f643a60448201526a2061646d696e206f6e6c7960a81b6064820152608401610bef565b60018110158015610d7b575062013b008111155b610de65760405162461bcd60e51b815260206004820152603660248201527f476f7665726e6f72427261766f3a3a5f736574566f74696e67506572696f643a604482015275081a5b9d985b1a59081d9bdd1a5b99c81c195c9a5bd960521b6064820152608401610bef565b606980549082905560408051828152602081018490527f7e3f7f0708a84de9203036abaa450dccc85ad5ff52f78c170f3edb55cf5e882891015b60405180910390a15050565b6065546001600160a01b03163314610e9f5760405162461bcd60e51b815260206004820152603060248201527f476f7665726e6f72427261766f3a3a5f73657450726f706f73616c546872657360448201526f686f6c643a2061646d696e206f6e6c7960801b6064820152608401610bef565b6871d75ab9b9205000008110158015610ec457506b43dacaf91c1a84ff080000008111155b610f38576040805162461bcd60e51b81526020600482015260248101919091527f476f7665726e6f72427261766f3a3a5f73657450726f706f73616c546872657360448201527f686f6c643a20696e76616c69642070726f706f73616c207468726573686f6c646064820152608401610bef565b606a80549082905560408051828152602081018490527fccb45da8d5717e6c4544694297c4ba5cf151d455c9bb0ed4fc7a38411bc054619101610e20565b6065546001600160a01b03163314610fe35760405162461bcd60e51b815260206004820152602a60248201527f476f7665726e6f72427261766f3a3a5f736574566f74696e6744656c61793a2060448201526961646d696e206f6e6c7960b01b6064820152608401610bef565b60018110158015610ff65750619d808111155b61105f5760405162461bcd60e51b815260206004820152603460248201527f476f7665726e6f72427261766f3a3a5f736574566f74696e6744656c61793a20604482015273696e76616c696420766f74696e672064656c617960601b6064820152608401610bef565b606880549082905560408051828152602081018490527fc565b045403dc03c2eea82b81a0465edad9e2e7fc4d97e11421c209da93d7a939101610e20565b6060806060806000606f60008781526020019081526020016000209050806003018160040182600501836006018380548060200260200160405190810160405280929190818152602001828054801561111f57602002820191906000526020600020905b81546001600160a01b03168152600190910190602001808311611101575b505050505093508280548060200260200160405190810160405280929190818152602001828054801561117157602002820191906000526020600020905b81548152602001906001019080831161115d575b5050505050925081805480602002602001604051908101604052809291908181526020016000905b828210156112455783829060005260206000200180546111b890614cc0565b80601f01602080910402602001604051908101604052809291908181526020018280546111e490614cc0565b80156112315780601f1061120657610100808354040283529160200191611231565b820191906000526020600020905b81548152906001019060200180831161121457829003601f168201915b505050505081526020019060010190611199565b50505050915080805480602002602001604051908101604052809291908181526020016000905b8282101561131857838290600052602060002001805461128b90614cc0565b80601f01602080910402602001604051908101604052809291908181526020018280546112b790614cc0565b80156113045780601f106112d957610100808354040283529160200191611304565b820191906000526020600020905b8154815290600101906020018083116112e757829003601f168201915b50505050508152602001906001019061126c565b5050505090509450945094509450509193509193565b306001600160a01b037f00000000000000000000000000000000000000000000000000000000000000001614156113775760405162461bcd60e51b8152600401610bef90614a23565b7f00000000000000000000000000000000000000000000000000000000000000006001600160a01b03166113c0600080516020614d7d833981519152546001600160a01b031690565b6001600160a01b0316146113e65760405162461bcd60e51b8152600401610bef90614a6f565b6113ef816135af565b6040805160008082526020820190925261140b91839190613617565b50565b6001600160a01b03811660009081526071602052604090205442105b919050565b6040805180820182526013815272476f6f6420476f7665726e6f7220427261766f60681b60209182015281517f8cad95687ba82c2ce50e74f7b754645e5117c3a5bec8151c0726d5857980a866818301527f286f34bd40fd5547889590745c77032d2d4a74ddf41fe0d7251d9742424c100181840152466060820152306080808301919091528351808303909101815260a0820184528051908301207f150214d74d59b7d1e90c73fc22ef3d991dd0a76b046543d4d80ab92d2a50328f60c083015260e0820189905260ff8816610100808401919091528451808403909101815261012083019094528351939092019290922061190160f01b6101408401526101428301829052610162830181905290916000906101820160408051601f198184030181528282528051602091820120600080855291840180845281905260ff8a169284019290925260608301889052608083018790529092509060019060a0016020604051602081039080840390855afa1580156115b2573d6000803e3d6000fd5b5050604051601f1901519150506001600160a01b03811661162d5760405162461bcd60e51b815260206004820152602f60248201527f476f7665726e6f72427261766f3a3a63617374566f746542795369673a20696e60448201526e76616c6964207369676e617475726560881b6064820152608401610bef565b806001600160a01b03167fb8e138887d0aa13bab447e82de9d5c1777041ecd21ca36ba824ff1e6c07ddda48a8a611665858e8e61379b565b6040805193845260ff90921660208401529082015260806060820181905260009082015260a00160405180910390a2505050505050505050565b600081606c54101580156116b45750606b5482115b6117125760405162461bcd60e51b815260206004820152602960248201527f476f7665726e6f72427261766f3a3a73746174653a20696e76616c69642070726044820152681bdc1bdcd85b081a5960ba1b6064820152608401610bef565b6000828152606f60205260409020600c81015460ff161561173757600291505061142a565b8060070154431161174c57600091505061142a565b8060080154431161176157600191505061142a565b80600a0154816009015411158061178657506aadb53acfa41aee120000008160090154105b1561179557600391505061142a565b60028101546117a857600491505061142a565b600c810154610100900460ff16156117c457600791505061142a565b6002810154606d54604080516360d143f160e11b8152905161184d93926001600160a01b03169163c1a287e2916004808301926020929190829003018186803b15801561181057600080fd5b505afa158015611824573d6000803e3d6000fd5b505050506040513d601f19601f8201168201806040525081019061184891906145a9565b613501565b421061185d57600691505061142a565b600591505061142a565b50919050565b60076118788261169f565b600781111561189757634e487b7160e01b600052602160045260246000fd5b14156119045760405162461bcd60e51b815260206004820152603660248201527f476f7665726e6f72427261766f3a3a63616e63656c3a2063616e6e6f742063616044820152751b98d95b08195e1958dd5d1959081c1c9bdc1bdcd85b60521b6064820152608401610bef565b6000818152606f6020526040902060018101546001600160a01b031633146119945760405162461bcd60e51b815260206004820152603860248201527f476f7665726e6f72427261766f3a3a63616e63656c3a204f746865722075736560448201527f722063616e6e6f742063616e63656c2070726f706f73616c00000000000000006064820152608401610bef565b600c8101805460ff1916600117905560005b6003820154811015611af757606d546003830180546001600160a01b039092169163591fcdfe9190849081106119ec57634e487b7160e01b600052603260045260246000fd5b6000918252602090912001546004850180546001600160a01b039092169185908110611a2857634e487b7160e01b600052603260045260246000fd5b9060005260206000200154856005018581548110611a5657634e487b7160e01b600052603260045260246000fd5b90600052602060002001866006018681548110611a8357634e487b7160e01b600052603260045260246000fd5b9060005260206000200187600201546040518663ffffffff1660e01b8152600401611ab2959493929190614957565b600060405180830381600087803b158015611acc57600080fd5b505af1158015611ae0573d6000803e3d6000fd5b505050508080611aef90614cf5565b9150506119a6565b506040518281527f789cf55be980739dad1d0699b93b58e806b51c9d96619bfa8fe0a28abaa7b30c90602001610e20565b6065546001600160a01b0316331480611b4b57506072546001600160a01b031633145b611bbd5760405162461bcd60e51b815260206004820152603960248201527f476f7665726e6f72427261766f3a3a5f73657457686974656c6973744163636f60448201527f756e7445787069726174696f6e3a2061646d696e206f6e6c79000000000000006064820152608401610bef565b6001600160a01b038216600081815260716020908152604091829020849055815192835282018390527f4e7b7545bc5744d0e30425959f4687475774b6c7edad77d24cb51c7d967d45159101610e20565b306001600160a01b037f0000000000000000000000000000000000000000000000000000000000000000161415611c575760405162461bcd60e51b8152600401610bef90614a23565b7f00000000000000000000000000000000000000000000000000000000000000006001600160a01b0316611ca0600080516020614d7d833981519152546001600160a01b031690565b6001600160a01b031614611cc65760405162461bcd60e51b8152600401610bef90614a6f565b611ccf826135af565b611cdb82826001613617565b5050565b6000306001600160a01b037f00000000000000000000000000000000000000000000000000000000000000001614611d7f5760405162461bcd60e51b815260206004820152603860248201527f555550535570677261646561626c653a206d757374206e6f742062652063616c60448201527f6c6564207468726f7567682064656c656761746563616c6c00000000000000006064820152608401610bef565b50600080516020614d7d83398151915290565b337fb8e138887d0aa13bab447e82de9d5c1777041ecd21ca36ba824ff1e6c07ddda48383611dc184838361379b565b6040805193845260ff90921660208401529082015260806060820181905260009082015260a00160405180910390a25050565b337fb8e138887d0aa13bab447e82de9d5c1777041ecd21ca36ba824ff1e6c07ddda48585611e2384838361379b565b8686604051611e36959493929190614ba1565b60405180910390a250505050565b6001600160a01b038116611eb45760405162461bcd60e51b815260206004820152603160248201527f476f7665726e6f72427261766f3a5f73657457686974656c697374477561726460448201527069616e3a207a65726f206164647265737360781b6064820152608401610bef565b6065546001600160a01b03163314611f275760405162461bcd60e51b815260206004820152603060248201527f476f7665726e6f72427261766f3a3a5f73657457686974656c6973744775617260448201526f6469616e3a2061646d696e206f6e6c7960801b6064820152608401610bef565b607280546001600160a01b038381166001600160a01b031983161792839055604080519282168084529390911660208301527f80a07e73e552148844a9c216d9724212d609cfa54e9c1a2e97203bdd2c4ad3419101610e20565b606d60009054906101000a90046001600160a01b03166001600160a01b0316630e18b6816040518163ffffffff1660e01b8152600401600060405180830381600087803b158015611fd157600080fd5b505af1158015611fe5573d6000803e3d6000fd5b50505050565b6000611ff76001613b0d565b9050801561200f576000805461ff0019166101001790555b606d546001600160a01b0316156120845760405162461bcd60e51b815260206004820152603360248201527f476f7665726e6f72427261766f3a3a696e697469616c697a653a2063616e206f6044820152726e6c7920696e697469616c697a65206f6e636560681b6064820152608401610bef565b6001600160a01b0387166120e45760405162461bcd60e51b81526020600482015260336024820152600080516020614d5d83398151915260448201527269642074696d656c6f636b206164647265737360681b6064820152608401610bef565b6001600160a01b0386166121415760405162461bcd60e51b81526020600482015260306024820152600080516020614d5d83398151915260448201526f6964206947697665206164647265737360801b6064820152608401610bef565b60018510158015612155575062013b008511155b6121a85760405162461bcd60e51b81526020600482015260306024820152600080516020614d5d83398151915260448201526f1a59081d9bdd1a5b99c81c195c9a5bd960821b6064820152608401610bef565b600184101580156121bb5750619d808411155b61220d5760405162461bcd60e51b815260206004820152602f6024820152600080516020614d5d83398151915260448201526e696420766f74696e672064656c617960881b6064820152608401610bef565b6871d75ab9b920500000831015801561223257506b43dacaf91c1a84ff080000008311155b61228a5760405162461bcd60e51b81526020600482015260356024820152600080516020614d5d8339815191526044820152741a59081c1c9bdc1bdcd85b081d1a1c995cda1bdb19605a1b6064820152608401610bef565b6001600160a01b0382166122ea5760405162461bcd60e51b81526020600482015260336024820152600080516020614d5d8339815191526044820152726964207472656173757279206164647265737360681b6064820152608401610bef565b606d80546001600160a01b03199081166001600160a01b038a8116918217909355606e805483168a851617905560698890556068879055606a8690556065805483169091179055607680549091169184169190911790558015612387576000805461ff0019169055604051600181527f7f26b83ff96e1f2b6a682f133852f6798a09c465da95921460cefb38474024989060200160405180910390a15b50505050505050565b6001600160a01b0381166123fb5760405162461bcd60e51b815260206004820152602c60248201527f476f7665726e6f72427261766f3a5f73657450656e64696e6741646d696e3a2060448201526b7a65726f206164647265737360a01b6064820152608401610bef565b6065546001600160a01b031633146124685760405162461bcd60e51b815260206004820152602a60248201527f476f7665726e6f72427261766f3a5f73657450656e64696e6741646d696e3a2060448201526961646d696e206f6e6c7960b01b6064820152608401610bef565b606680546001600160a01b038381166001600160a01b031983168117909355604080519190921680825260208201939093527fca4f2f25d0898edd99413412fb94012f9e54ec8142f9b093e7720646a95b16a99101610e20565b606e54604051636e2e2d7360e01b8152600060048201819052336024830152916001600160a01b031690636e2e2d7390604401602060405180830381600087803b15801561250f57600080fd5b505af1158015612523573d6000803e3d6000fd5b505050506040513d601f19601f820116820180604052508101906125479190614589565b6125a35760405162461bcd60e51b815260206004820152602760248201527f476f7665726e6f72427261766f3a3a70726f706f73653a206f6e6c7920746f706044820152661039ba30b5b2b960c91b6064820152608401610bef565b845186511480156125b5575083518651145b80156125c2575082518651145b6126425760405162461bcd60e51b8152602060048201526044602482018190527f476f7665726e6f72427261766f3a3a70726f706f73653a2070726f706f73616c908201527f2066756e6374696f6e20696e666f726d6174696f6e206172697479206d69736d6064820152630c2e8c6d60e31b608482015260a401610bef565b85516126a55760405162461bcd60e51b815260206004820152602c60248201527f476f7665726e6f72427261766f3a3a70726f706f73653a206d7573742070726f60448201526b7669646520616374696f6e7360a01b6064820152608401610bef565b6009865111156127085760405162461bcd60e51b815260206004820152602860248201527f476f7665726e6f72427261766f3a3a70726f706f73653a20746f6f206d616e7960448201526720616374696f6e7360c01b6064820152608401610bef565b3360009081526070602052604090205480156128a55760006127298261169f565b9050600181600781111561274d57634e487b7160e01b600052602160045260246000fd5b14156127e75760405162461bcd60e51b815260206004820152605860248201527f476f7665726e6f72427261766f3a3a70726f706f73653a206f6e65206c69766560448201527f2070726f706f73616c207065722070726f706f7365722c20666f756e6420616e60648201527f20616c7265616479206163746976652070726f706f73616c0000000000000000608482015260a401610bef565b600081600781111561280957634e487b7160e01b600052602160045260246000fd5b14156128a35760405162461bcd60e51b815260206004820152605960248201527f476f7665726e6f72427261766f3a3a70726f706f73653a206f6e65206c69766560448201527f2070726f706f73616c207065722070726f706f7365722c20666f756e6420616e60648201527f20616c72656164792070656e64696e672070726f706f73616c00000000000000608482015260a401610bef565b505b60006128b343606854613501565b905060006128c382606954613501565b606c805491925060006128d583614cf5565b9091555050606c546000818152606f6020908152604082209283556001830180546001600160a01b0319163317905560028301919091558a51612920916003840191908d0190613f95565b50885161293690600483019060208c0190613ffa565b50875161294c90600583019060208b0190614035565b50865161296290600683019060208a019061408e565b5082816007018190555081816008018190555060008160090181905550600081600a0181905550600081600b0181905550600081600c0160006101000a81548160ff021916908315150217905550600081600c0160016101000a81548160ff0219169083151502179055508060000154607060008360010160009054906101000a90046001600160a01b03166001600160a01b03166001600160a01b03168152602001908152602001600020819055507f7d84a6263ae0d98d3329bd7b46bb4e8d6f98cd35a7adb45c274c8b7fd5ebd5e08160000154338c8c8c8c89898e604051612a5599989796959493929190614b09565b60405180910390a1549998505050505050505050565b6004612a768261169f565b6007811115612a9557634e487b7160e01b600052602160045260246000fd5b14612b165760405162461bcd60e51b8152602060048201526044602482018190527f476f7665726e6f72427261766f3a3a71756575653a2070726f706f73616c2063908201527f616e206f6e6c79206265207175657565642069662069742069732073756363656064820152631959195960e21b608482015260a401610bef565b6000818152606f60209081526040808320606d548251630d48571f60e31b81529251919493612b709342936001600160a01b0390931692636a42b8f892600480840193919291829003018186803b15801561181057600080fd5b905060005b6003830154811015612d7257612d60836003018281548110612ba757634e487b7160e01b600052603260045260246000fd5b6000918252602090912001546004850180546001600160a01b039092169184908110612be357634e487b7160e01b600052603260045260246000fd5b9060005260206000200154856005018481548110612c1157634e487b7160e01b600052603260045260246000fd5b906000526020600020018054612c2690614cc0565b80601f0160208091040260200160405190810160405280929190818152602001828054612c5290614cc0565b8015612c9f5780601f10612c7457610100808354040283529160200191612c9f565b820191906000526020600020905b815481529060010190602001808311612c8257829003601f168201915b5050505050866006018581548110612cc757634e487b7160e01b600052603260045260246000fd5b906000526020600020018054612cdc90614cc0565b80601f0160208091040260200160405190810160405280929190818152602001828054612d0890614cc0565b8015612d555780601f10612d2a57610100808354040283529160200191612d55565b820191906000526020600020905b815481529060010190602001808311612d3857829003601f168201915b505050505086613b92565b80612d6a81614cf5565b915050612b75565b506002820181905560408051848152602081018390527f9a2e42fd6722813d69113e7d0079d3d940171428df7373df9c7f7617cfda2892910160405180910390a1505050565b6066546001600160a01b031633148015612dd157503315155b612e345760405162461bcd60e51b815260206004820152602e60248201527f476f7665726e6f72427261766f3a5f61636365707441646d696e3a2070656e6460448201526d696e672061646d696e206f6e6c7960901b6064820152608401610bef565b60658054606680546001600160a01b038082166001600160a01b031980861682179687905590921690925560408051938316808552949092166020840152917ff9ffabca9c8276e99321725bcb43fb076a6c66a54b7f21c4e8146d8519b417dc910160405180910390a1606654604080516001600160a01b03808516825290921660208301527fca4f2f25d0898edd99413412fb94012f9e54ec8142f9b093e7720646a95b16a99101610e20565b6076546000906001600160a01b03163314612f535760405162461bcd60e51b815260206004820152602b60248201527f476f7665726e6f72427261766f3a3a5f66756e64496e7665737465653a20747260448201526a656173757279206f6e6c7960a81b6064820152608401610bef565b6074546075541115612fbd5760405162461bcd60e51b815260206004820152602d60248201527f476f7665726e6f72427261766f3a3a5f66756e64496e7665737465653a204e6f60448201526c206e657720696e76657374656560981b6064820152608401610bef565b612fca6075546001613501565b6075819055507fc5c30592579df2868ccc9809f55485e57c9503d99abf37c40e084f99709f2e2060736000613002607554600161355b565b81526020810191909152604001600020546075546001600160a01b039091169061302d90600161355b565b604080516001600160a01b03909316835260208301919091520160405180910390a160736000613060607554600161355b565b81526020810191909152604001600020546001600160a01b0316905090565b6065546001600160a01b031633146130e55760405162461bcd60e51b8152602060048201526024808201527f476f7665726e6f72427261766f3a3a5f696e6974696174653a2061646d696e206044820152636f6e6c7960e01b6064820152608401610bef565b606b541561314e5760405162461bcd60e51b815260206004820152603060248201527f476f7665726e6f72427261766f3a3a5f696e6974696174653a2063616e206f6e60448201526f6c7920696e697469617465206f6e636560801b6064820152608401610bef565b806001600160a01b031663da35c6646040518163ffffffff1660e01b8152600401602060405180830381600087803b15801561318957600080fd5b505af115801561319d573d6000803e3d6000fd5b505050506040513d601f19601f820116820180604052508101906131c191906145a9565b606c819055606b55606d5460408051630e18b68160e01b815290516001600160a01b0390921691630e18b6819160048082019260009290919082900301818387803b15801561320f57600080fd5b505af1158015613223573d6000803e3d6000fd5b50506040516001600160a01b03841681527fc6055e6fe22e34bcdffce73c5d2968b6b2b71a5202db09bf28a9cda3002c479a92506020019050610cee565b600561326c8261169f565b600781111561328b57634e487b7160e01b600052602160045260246000fd5b1461330c5760405162461bcd60e51b815260206004820152604560248201527f476f7665726e6f72427261766f3a3a657865637574653a2070726f706f73616c60448201527f2063616e206f6e6c7920626520657865637574656420696620697420697320716064820152641d595d595960da1b608482015260a401610bef565b6000818152606f60205260408120600c8101805461ff001916610100179055905b60038201548110156134d057606d546004830180546001600160a01b0390921691630825f38f91908490811061337357634e487b7160e01b600052603260045260246000fd5b90600052602060002001548460030184815481106133a157634e487b7160e01b600052603260045260246000fd5b6000918252602090912001546004860180546001600160a01b0390921691869081106133dd57634e487b7160e01b600052603260045260246000fd5b906000526020600020015486600501868154811061340b57634e487b7160e01b600052603260045260246000fd5b9060005260206000200187600601878154811061343857634e487b7160e01b600052603260045260246000fd5b9060005260206000200188600201546040518763ffffffff1660e01b8152600401613467959493929190614957565b6000604051808303818588803b15801561348057600080fd5b505af1158015613494573d6000803e3d6000fd5b50505050506040513d6000823e601f3d908101601f191682016040526134bd91908101906145c1565b50806134c881614cf5565b91505061332d565b506040518281527f712ae1383f79ac853f8d882153778e0260ef8f03b504e2866e0593e04d2b291f90602001610e20565b60008061350e8385614c65565b9050838110156135545760405162461bcd60e51b81526020600482015260116024820152706164646974696f6e206f766572666c6f7760781b6044820152606401610bef565b9392505050565b6000828211156135a55760405162461bcd60e51b81526020600482015260156024820152747375627472616374696f6e20756e646572666c6f7760581b6044820152606401610bef565b6135548284614c7d565b6065546001600160a01b0316331461140b5760405162461bcd60e51b815260206004820152602560248201527f4f6e6c792061646d696e2063616e207570677261646520696d706c656d656e7460448201526430ba34b7b760d91b6064820152608401610bef565b7f4910fdfa16fed3260ed0e7147f7cc6da11a60208b5b9406d12a635614ffd91435460ff161561364f5761364a83613d67565b613796565b826001600160a01b03166352d1902d6040518163ffffffff1660e01b815260040160206040518083038186803b15801561368857600080fd5b505afa9250505080156136b8575060408051601f3d908101601f191682019092526136b5918101906145a9565b60015b61371b5760405162461bcd60e51b815260206004820152602e60248201527f45524331393637557067726164653a206e657720696d706c656d656e7461746960448201526d6f6e206973206e6f74205555505360901b6064820152608401610bef565b600080516020614d7d833981519152811461378a5760405162461bcd60e51b815260206004820152602960248201527f45524331393637557067726164653a20756e737570706f727465642070726f786044820152681a58589b195555525160ba1b6064820152608401610bef565b50613796838383613e03565b505050565b606e54604051636e2e2d7360e01b8152600060048201819052336024830152916001600160a01b031690636e2e2d7390604401602060405180830381600087803b1580156137e857600080fd5b505af11580156137fc573d6000803e3d6000fd5b505050506040513d601f19601f820116820180604052508101906138209190614589565b156138815760405162461bcd60e51b81526020600482015260376024820152600080516020614d3d83398151915260448201527f20546f70207374616b65722063616e6e6f7420766f74650000000000000000006064820152608401610bef565b600161388c8461169f565b60078111156138ab57634e487b7160e01b600052602160045260246000fd5b146139005760405162461bcd60e51b81526020600482015260316024820152600080516020614d3d833981519152604482015270081d9bdd1a5b99c81a5cc818db1bdcd959607a1b6064820152608401610bef565b60028260ff16111561395d5760405162461bcd60e51b81526020600482015260326024820152600080516020614d3d83398151915260448201527120696e76616c696420766f7465207479706560701b6064820152608401610bef565b6000838152606f602090815260408083206001600160a01b0388168452600d8101909252909120805460ff16156139e15760405162461bcd60e51b81526020600482015260346024820152600080516020614d3d833981519152604482015273081d9bdd195c88185b1c9958591e481d9bdd195960621b6064820152608401610bef565b606e546007830154604051630748d63560e31b81526000926001600160a01b031691633a46b1a891613a2b918b916004016001600160a01b03929092168252602082015260400190565b60206040518083038186803b158015613a4357600080fd5b505afa158015613a57573d6000803e3d6000fd5b505050506040513d601f19601f82011682018060405250810190613a7b91906145a9565b905060ff8516613a9d57613a9383600a015482613501565b600a840155613ae1565b8460ff1660011415613ac157613ab7836009015482613501565b6009840155613ae1565b8460ff1660021415613ae157613adb83600b015482613501565b600b8401555b8154600160ff19909116811761ff00191661010060ff8816021783559091018190559150509392505050565b60008054610100900460ff1615613b54578160ff166001148015613b305750303b155b613b4c5760405162461bcd60e51b8152600401610bef90614abb565b50600061142a565b60005460ff808416911610613b7b5760405162461bcd60e51b8152600401610bef90614abb565b506000805460ff191660ff8316179055600161142a565b606d546040516001600160a01b039091169063f2b0653790613bc0908890889088908890889060200161490b565b604051602081830303815290604052805190602001206040518263ffffffff1660e01b8152600401613bf491815260200190565b60206040518083038186803b158015613c0c57600080fd5b505afa158015613c20573d6000803e3d6000fd5b505050506040513d601f19601f82011682018060405250810190613c449190614589565b15613cd55760405162461bcd60e51b815260206004820152605560248201527f476f7665726e6f72427261766f3a3a71756575654f72526576657274496e746560448201527f726e616c3a206964656e746963616c2070726f706f73616c20616374696f6e20606482015274616c7265616479207175657565642061742065746160581b608482015260a401610bef565b606d54604051633a66f90160e01b81526001600160a01b0390911690633a66f90190613d0d908890889088908890889060040161490b565b602060405180830381600087803b158015613d2757600080fd5b505af1158015613d3b573d6000803e3d6000fd5b505050506040513d601f19601f82011682018060405250810190613d5f91906145a9565b505050505050565b6001600160a01b0381163b613dd45760405162461bcd60e51b815260206004820152602d60248201527f455243313936373a206e657720696d706c656d656e746174696f6e206973206e60448201526c1bdd08184818dbdb9d1c9858dd609a1b6064820152608401610bef565b600080516020614d7d83398151915280546001600160a01b0319166001600160a01b0392909216919091179055565b613e0c83613e28565b600082511180613e195750805b1561379657611fe58383613e68565b613e3181613d67565b6040516001600160a01b038216907fbc7cd75a20ee27fd9adebab32041f755214dbc6bffa90cc0225b39da2e5c2d3b90600090a250565b60606001600160a01b0383163b613ed05760405162461bcd60e51b815260206004820152602660248201527f416464726573733a2064656c65676174652063616c6c20746f206e6f6e2d636f6044820152651b9d1c9858dd60d21b6064820152608401610bef565b600080846001600160a01b031684604051613eeb91906148ef565b600060405180830381855af49150503d8060008114613f26576040519150601f19603f3d011682016040523d82523d6000602084013e613f2b565b606091505b5091509150613f538282604051806060016040528060278152602001614d9d60279139613f5c565b95945050505050565b60608315613f6b575081613554565b825115613f7b5782518084602001fd5b8160405162461bcd60e51b8152600401610bef9190614a10565b828054828255906000526020600020908101928215613fea579160200282015b82811115613fea57825182546001600160a01b0319166001600160a01b03909116178255602090920191600190910190613fb5565b50613ff69291506140e7565b5090565b828054828255906000526020600020908101928215613fea579160200282015b82811115613fea57825182559160200191906001019061401a565b828054828255906000526020600020908101928215614082579160200282015b8281111561408257825180516140729184916020909101906140fc565b5091602001919060010190614055565b50613ff692915061416f565b8280548282559060005260206000209081019282156140db579160200282015b828111156140db57825180516140cb9184916020909101906140fc565b50916020019190600101906140ae565b50613ff692915061418c565b5b80821115613ff657600081556001016140e8565b82805461410890614cc0565b90600052602060002090601f01602090048101928261412a5760008555613fea565b82601f1061414357805160ff1916838001178555613fea565b82800160010185558215613fea5791820182811115613fea57825182559160200191906001019061401a565b80821115613ff657600061418382826141a9565b5060010161416f565b80821115613ff65760006141a082826141a9565b5060010161418c565b5080546141b590614cc0565b6000825580601f106141c7575061140b565b601f01602090049060005260206000209081019061140b91906140e7565b80356001600160a01b038116811461142a57600080fd5b600082601f83011261420c578081fd5b8135602061422161421c83614c19565b614be8565b828152818101908583018385028701840188101561423d578586fd5b855b8581101561426257614250826141e5565b8452928401929084019060010161423f565b5090979650505050505050565b600082601f83011261427f578081fd5b8135602061428f61421c83614c19565b82815281810190858301855b85811015614262576142b2898684358b0101614373565b8452928401929084019060010161429b565b600082601f8301126142d4578081fd5b813560206142e461421c83614c19565b82815281810190858301855b8581101561426257614307898684358b0101614373565b845292840192908401906001016142f0565b600082601f830112614329578081fd5b8135602061433961421c83614c19565b8281528181019085830183850287018401881015614355578586fd5b855b8581101561426257813584529284019290840190600101614357565b600082601f830112614383578081fd5b813561439161421c82614c3d565b8181528460208386010111156143a5578283fd5b816020850160208301379081016020019190915292915050565b803560ff8116811461142a57600080fd5b6000602082840312156143e1578081fd5b613554826141e5565b60008060008060008060c08789031215614402578182fd5b61440b876141e5565b9550614419602088016141e5565b945060408701359350606087013592506080870135915061443c60a088016141e5565b90509295509295509295565b6000806040838503121561445a578182fd5b614463836141e5565b9150602083013567ffffffffffffffff81111561447e578182fd5b61448a85828601614373565b9150509250929050565b600080604083850312156144a6578182fd5b6144af836141e5565b946020939093013593505050565b600080600080600060a086880312156144d4578283fd5b853567ffffffffffffffff808211156144eb578485fd5b6144f789838a016141fc565b9650602088013591508082111561450c578485fd5b61451889838a01614319565b9550604088013591508082111561452d578485fd5b61453989838a016142c4565b9450606088013591508082111561454e578283fd5b61455a89838a0161426f565b9350608088013591508082111561456f578283fd5b5061457c88828901614373565b9150509295509295909350565b60006020828403121561459a578081fd5b81518015158114613554578182fd5b6000602082840312156145ba578081fd5b5051919050565b6000602082840312156145d2578081fd5b815167ffffffffffffffff8111156145e8578182fd5b8201601f810184136145f8578182fd5b805161460661421c82614c3d565b81815285602083850101111561461a578384fd5b613f53826020830160208601614c94565b60006020828403121561463c578081fd5b5035919050565b60008060408385031215614655578182fd5b82359150614665602084016141e5565b90509250929050565b60008060408385031215614680578182fd5b82359150614665602084016143bf565b600080600080606085870312156146a5578182fd5b843593506146b5602086016143bf565b9250604085013567ffffffffffffffff808211156146d1578384fd5b818701915087601f8301126146e4578384fd5b8135818111156146f2578485fd5b886020828501011115614703578485fd5b95989497505060200194505050565b600080600080600060a08688031215614729578283fd5b85359450614739602087016143bf565b9350614747604087016143bf565b94979396509394606081013594506080013592915050565b6000815180845260208085019450808401835b838110156147975781516001600160a01b031687529582019590820190600101614772565b509495945050505050565b6000815180845260208085018081965082840281019150828601855b858110156147e85782840389526147d6848351614824565b988501989350908401906001016147be565b5091979650505050505050565b6000815180845260208085019450808401835b8381101561479757815187529582019590820190600101614808565b6000815180845261483c816020860160208601614c94565b601f01601f19169290920160200192915050565b80546000906002810460018083168061486a57607f831692505b602080841082141561488a57634e487b7160e01b86526022600452602486fd5b8388528180156148a157600181146148b5576148e3565b60ff198616898301526040890196506148e3565b876000528160002060005b868110156148db5781548b82018501529085019083016148c0565b8a0183019750505b50505050505092915050565b60008251614901818460208701614c94565b9190910192915050565b600060018060a01b038716825285602083015260a0604083015261493260a0830186614824565b82810360608401526149448186614824565b9150508260808301529695505050505050565b600060018060a01b038716825285602083015260a0604083015261497e60a0830186614850565b82810360608401526149448186614850565b6000608082526149a3608083018761475f565b82810360208401526149b581876147f5565b905082810360408401526149c981866147a2565b905082810360608401526149dd81856147a2565b979650505050505050565b6020810160088310614a0a57634e487b7160e01b600052602160045260246000fd5b91905290565b6000602082526135546020830184614824565b6020808252602c908201527f46756e6374696f6e206d7573742062652063616c6c6564207468726f7567682060408201526b19195b1959d85d1958d85b1b60a21b606082015260800190565b6020808252602c908201527f46756e6374696f6e206d7573742062652063616c6c6564207468726f7567682060408201526b6163746976652070726f787960a01b606082015260800190565b6020808252602e908201527f496e697469616c697a61626c653a20636f6e747261637420697320616c72656160408201526d191e481a5b9a5d1a585b1a5e995960921b606082015260800190565b8981526001600160a01b038916602082015261012060408201819052600090614b348382018b61475f565b90508281036060840152614b48818a6147f5565b90508281036080840152614b5c81896147a2565b905082810360a0840152614b7081886147a2565b90508560c08401528460e0840152828103610100840152614b918185614824565b9c9b505050505050505050505050565b600086825260ff8616602083015284604083015260806060830152826080830152828460a084013781830160a090810191909152601f909201601f19160101949350505050565b604051601f8201601f1916810167ffffffffffffffff81118282101715614c1157614c11614d26565b604052919050565b600067ffffffffffffffff821115614c3357614c33614d26565b5060209081020190565b600067ffffffffffffffff821115614c5757614c57614d26565b50601f01601f191660200190565b60008219821115614c7857614c78614d10565b500190565b600082821015614c8f57614c8f614d10565b500390565b60005b83811015614caf578181015183820152602001614c97565b83811115611fe55750506000910152565b600281046001821680614cd457607f821691505b6020821081141561186757634e487b7160e01b600052602260045260246000fd5b6000600019821415614d0957614d09614d10565b5060010190565b634e487b7160e01b600052601160045260246000fd5b634e487b7160e01b600052604160045260246000fdfe476f7665726e6f72427261766f3a3a63617374566f7465496e7465726e616c3a476f7665726e6f72427261766f3a3a696e697469616c697a653a20696e76616c360894a13ba1a3210667c828492db98dca3e2076cc3735a920a3ca505d382bbc416464726573733a206c6f772d6c6576656c2064656c65676174652063616c6c206661696c6564a26469706673582212208f62b5a869f4b50950169ebeb2103f1549cadd7fc7fd1e8f9a9908f3fe444ec664736f6c63430008020033",
  "linkReferences": {},
  "deployedLinkReferences": {}
}