{
  "_format": "hh-sol-artifact-1",
  "contractName": "GovernorBravoDelegate",
  "sourceName": "contracts/governance.sol",
  "abi": [
    {
      "anonymous": false,
      "inputs": [
        {
          "indexed": false,
          "internalType": "address",
          "name": "previousAdmin",
          "type": "address"
        },
        {
          "indexed": false,
          "internalType": "address",
          "name": "newAdmin",
          "type": "address"
        }
      ],
      "name": "AdminChanged",
      "type": "event"
    },
    {
      "anonymous": false,
      "inputs": [
        {
          "indexed": true,
          "internalType": "address",
          "name": "beacon",
          "type": "address"
        }
      ],
      "name": "BeaconUpgraded",
      "type": "event"
    },
    {
      "anonymous": false,
      "inputs": [
        {
          "indexed": false,
          "internalType": "address",
          "name": "governanceAddress",
          "type": "address"
        }
      ],
      "name": "GovernanceInitiated",
      "type": "event"
    },
    {
      "anonymous": false,
      "inputs": [
        {
          "indexed": false,
          "internalType": "uint8",
          "name": "version",
          "type": "uint8"
        }
      ],
      "name": "Initialized",
      "type": "event"
    },
    {
      "anonymous": false,
      "inputs": [
        {
          "indexed": false,
          "internalType": "address",
          "name": "investee",
          "type": "address"
        },
        {
          "indexed": false,
          "internalType": "uint256",
          "name": "id",
          "type": "uint256"
        }
      ],
      "name": "InvesteeFunded",
      "type": "event"
    },
    {
      "anonymous": false,
      "inputs": [
        {
          "indexed": false,
          "internalType": "address",
          "name": "investee",
          "type": "address"
        },
        {
          "indexed": false,
          "internalType": "uint256",
          "name": "id",
          "type": "uint256"
        }
      ],
      "name": "InvesteeSet",
      "type": "event"
    },
    {
      "anonymous": false,
      "inputs": [
        {
          "indexed": false,
          "internalType": "address",
          "name": "oldAdmin",
          "type": "address"
        },
        {
          "indexed": false,
          "internalType": "address",
          "name": "newAdmin",
          "type": "address"
        }
      ],
      "name": "NewAdmin",
      "type": "event"
    },
    {
      "anonymous": false,
      "inputs": [
        {
          "indexed": false,
          "internalType": "address",
          "name": "oldImplementation",
          "type": "address"
        },
        {
          "indexed": false,
          "internalType": "address",
          "name": "newImplementation",
          "type": "address"
        }
      ],
      "name": "NewImplementation",
      "type": "event"
    },
    {
      "anonymous": false,
      "inputs": [
        {
          "indexed": false,
          "internalType": "address",
          "name": "oldPendingAdmin",
          "type": "address"
        },
        {
          "indexed": false,
          "internalType": "address",
          "name": "newPendingAdmin",
          "type": "address"
        }
      ],
      "name": "NewPendingAdmin",
      "type": "event"
    },
    {
      "anonymous": false,
      "inputs": [
        {
          "indexed": false,
          "internalType": "uint256",
          "name": "id",
          "type": "uint256"
        }
      ],
      "name": "ProposalCanceled",
      "type": "event"
    },
    {
      "anonymous": false,
      "inputs": [
        {
          "indexed": false,
          "internalType": "uint256",
          "name": "id",
          "type": "uint256"
        },
        {
          "indexed": false,
          "internalType": "address",
          "name": "proposer",
          "type": "address"
        },
        {
          "indexed": false,
          "internalType": "address[]",
          "name": "targets",
          "type": "address[]"
        },
        {
          "indexed": false,
          "internalType": "uint256[]",
          "name": "values",
          "type": "uint256[]"
        },
        {
          "indexed": false,
          "internalType": "string[]",
          "name": "signatures",
          "type": "string[]"
        },
        {
          "indexed": false,
          "internalType": "bytes[]",
          "name": "calldatas",
          "type": "bytes[]"
        },
        {
          "indexed": false,
          "internalType": "uint256",
          "name": "startBlock",
          "type": "uint256"
        },
        {
          "indexed": false,
          "internalType": "uint256",
          "name": "endBlock",
          "type": "uint256"
        },
        {
          "indexed": false,
          "internalType": "string",
          "name": "description",
          "type": "string"
        }
      ],
      "name": "ProposalCreated",
      "type": "event"
    },
    {
      "anonymous": false,
      "inputs": [
        {
          "indexed": false,
          "internalType": "uint256",
          "name": "id",
          "type": "uint256"
        }
      ],
      "name": "ProposalExecuted",
      "type": "event"
    },
    {
      "anonymous": false,
      "inputs": [
        {
          "indexed": false,
          "internalType": "uint256",
          "name": "id",
          "type": "uint256"
        },
        {
          "indexed": false,
          "internalType": "uint256",
          "name": "eta",
          "type": "uint256"
        }
      ],
      "name": "ProposalQueued",
      "type": "event"
    },
    {
      "anonymous": false,
      "inputs": [
        {
          "indexed": false,
          "internalType": "uint256",
          "name": "oldProposalThreshold",
          "type": "uint256"
        },
        {
          "indexed": false,
          "internalType": "uint256",
          "name": "newProposalThreshold",
          "type": "uint256"
        }
      ],
      "name": "ProposalThresholdSet",
      "type": "event"
    },
    {
      "anonymous": false,
      "inputs": [
        {
          "indexed": true,
          "internalType": "address",
          "name": "implementation",
          "type": "address"
        }
      ],
      "name": "Upgraded",
      "type": "event"
    },
    {
      "anonymous": false,
      "inputs": [
        {
          "indexed": true,
          "internalType": "address",
          "name": "voter",
          "type": "address"
        },
        {
          "indexed": false,
          "internalType": "uint256",
          "name": "proposalId",
          "type": "uint256"
        },
        {
          "indexed": false,
          "internalType": "uint8",
          "name": "support",
          "type": "uint8"
        },
        {
          "indexed": false,
          "internalType": "uint256",
          "name": "votes",
          "type": "uint256"
        },
        {
          "indexed": false,
          "internalType": "string",
          "name": "reason",
          "type": "string"
        }
      ],
      "name": "VoteCast",
      "type": "event"
    },
    {
      "anonymous": false,
      "inputs": [
        {
          "indexed": false,
          "internalType": "uint256",
          "name": "oldVotingDelay",
          "type": "uint256"
        },
        {
          "indexed": false,
          "internalType": "uint256",
          "name": "newVotingDelay",
          "type": "uint256"
        }
      ],
      "name": "VotingDelaySet",
      "type": "event"
    },
    {
      "anonymous": false,
      "inputs": [
        {
          "indexed": false,
          "internalType": "uint256",
          "name": "oldVotingPeriod",
          "type": "uint256"
        },
        {
          "indexed": false,
          "internalType": "uint256",
          "name": "newVotingPeriod",
          "type": "uint256"
        }
      ],
      "name": "VotingPeriodSet",
      "type": "event"
    },
    {
      "anonymous": false,
      "inputs": [
        {
          "indexed": false,
          "internalType": "address",
          "name": "account",
          "type": "address"
        },
        {
          "indexed": false,
          "internalType": "uint256",
          "name": "expiration",
          "type": "uint256"
        }
      ],
      "name": "WhitelistAccountExpirationSet",
      "type": "event"
    },
    {
      "anonymous": false,
      "inputs": [
        {
          "indexed": false,
          "internalType": "address",
          "name": "oldGuardian",
          "type": "address"
        },
        {
          "indexed": false,
          "internalType": "address",
          "name": "newGuardian",
          "type": "address"
        }
      ],
      "name": "WhitelistGuardianSet",
      "type": "event"
    },
    {
      "inputs": [],
      "name": "BALLOT_TYPEHASH",
      "outputs": [
        {
          "internalType": "bytes32",
          "name": "",
          "type": "bytes32"
        }
      ],
      "stateMutability": "view",
      "type": "function"
    },
    {
      "inputs": [],
      "name": "DOMAIN_TYPEHASH",
      "outputs": [
        {
          "internalType": "bytes32",
          "name": "",
          "type": "bytes32"
        }
      ],
      "stateMutability": "view",
      "type": "function"
    },
    {
      "inputs": [],
      "name": "MAX_PROPOSAL_THRESHOLD",
      "outputs": [
        {
          "internalType": "uint256",
          "name": "",
          "type": "uint256"
        }
      ],
      "stateMutability": "view",
      "type": "function"
    },
    {
      "inputs": [],
      "name": "MAX_VOTING_DELAY",
      "outputs": [
        {
          "internalType": "uint256",
          "name": "",
          "type": "uint256"
        }
      ],
      "stateMutability": "view",
      "type": "function"
    },
    {
      "inputs": [],
      "name": "MAX_VOTING_PERIOD",
      "outputs": [
        {
          "internalType": "uint256",
          "name": "",
          "type": "uint256"
        }
      ],
      "stateMutability": "view",
      "type": "function"
    },
    {
      "inputs": [],
      "name": "MIN_PROPOSAL_THRESHOLD",
      "outputs": [
        {
          "internalType": "uint256",
          "name": "",
          "type": "uint256"
        }
      ],
      "stateMutability": "view",
      "type": "function"
    },
    {
      "inputs": [],
      "name": "MIN_VOTING_DELAY",
      "outputs": [
        {
          "internalType": "uint256",
          "name": "",
          "type": "uint256"
        }
      ],
      "stateMutability": "view",
      "type": "function"
    },
    {
      "inputs": [],
      "name": "MIN_VOTING_PERIOD",
      "outputs": [
        {
          "internalType": "uint256",
          "name": "",
          "type": "uint256"
        }
      ],
      "stateMutability": "view",
      "type": "function"
    },
    {
      "inputs": [],
      "name": "_AcceptTimelockAdmin",
      "outputs": [],
      "stateMutability": "nonpayable",
      "type": "function"
    },
    {
      "inputs": [],
      "name": "_acceptAdmin",
      "outputs": [],
      "stateMutability": "nonpayable",
      "type": "function"
    },
    {
      "inputs": [],
      "name": "_fundInvestee",
      "outputs": [
        {
          "internalType": "address",
          "name": "",
          "type": "address"
        }
      ],
      "stateMutability": "nonpayable",
      "type": "function"
    },
    {
      "inputs": [
        {
          "internalType": "address",
          "name": "governorAlpha",
          "type": "address"
        }
      ],
      "name": "_initiate",
      "outputs": [],
      "stateMutability": "nonpayable",
      "type": "function"
    },
    {
      "inputs": [
        {
          "internalType": "address",
          "name": "_investee",
          "type": "address"
        }
      ],
      "name": "_setInvesteeDetails",
      "outputs": [],
      "stateMutability": "nonpayable",
      "type": "function"
    },
    {
      "inputs": [
        {
          "internalType": "address",
          "name": "newPendingAdmin",
          "type": "address"
        }
      ],
      "name": "_setPendingAdmin",
      "outputs": [],
      "stateMutability": "nonpayable",
      "type": "function"
    },
    {
      "inputs": [
        {
          "internalType": "uint256",
          "name": "newProposalThreshold",
          "type": "uint256"
        }
      ],
      "name": "_setProposalThreshold",
      "outputs": [],
      "stateMutability": "nonpayable",
      "type": "function"
    },
    {
      "inputs": [
        {
          "internalType": "uint256",
          "name": "newVotingDelay",
          "type": "uint256"
        }
      ],
      "name": "_setVotingDelay",
      "outputs": [],
      "stateMutability": "nonpayable",
      "type": "function"
    },
    {
      "inputs": [
        {
          "internalType": "uint256",
          "name": "newVotingPeriod",
          "type": "uint256"
        }
      ],
      "name": "_setVotingPeriod",
      "outputs": [],
      "stateMutability": "nonpayable",
      "type": "function"
    },
    {
      "inputs": [
        {
          "internalType": "address",
          "name": "account",
          "type": "address"
        },
        {
          "internalType": "uint256",
          "name": "expiration",
          "type": "uint256"
        }
      ],
      "name": "_setWhitelistAccountExpiration",
      "outputs": [],
      "stateMutability": "nonpayable",
      "type": "function"
    },
    {
      "inputs": [
        {
          "internalType": "address",
          "name": "account",
          "type": "address"
        }
      ],
      "name": "_setWhitelistGuardian",
      "outputs": [],
      "stateMutability": "nonpayable",
      "type": "function"
    },
    {
      "inputs": [],
      "name": "admin",
      "outputs": [
        {
          "internalType": "address",
          "name": "",
          "type": "address"
        }
      ],
      "stateMutability": "view",
      "type": "function"
    },
    {
      "inputs": [
        {
          "internalType": "uint256",
          "name": "proposalId",
          "type": "uint256"
        }
      ],
      "name": "cancel",
      "outputs": [],
      "stateMutability": "nonpayable",
      "type": "function"
    },
    {
      "inputs": [
        {
          "internalType": "uint256",
          "name": "proposalId",
          "type": "uint256"
        },
        {
          "internalType": "uint8",
          "name": "support",
          "type": "uint8"
        }
      ],
      "name": "castVote",
      "outputs": [],
      "stateMutability": "nonpayable",
      "type": "function"
    },
    {
      "inputs": [
        {
          "internalType": "uint256",
          "name": "proposalId",
          "type": "uint256"
        },
        {
          "internalType": "uint8",
          "name": "support",
          "type": "uint8"
        },
        {
          "internalType": "uint8",
          "name": "v",
          "type": "uint8"
        },
        {
          "internalType": "bytes32",
          "name": "r",
          "type": "bytes32"
        },
        {
          "internalType": "bytes32",
          "name": "s",
          "type": "bytes32"
        }
      ],
      "name": "castVoteBySig",
      "outputs": [],
      "stateMutability": "nonpayable",
      "type": "function"
    },
    {
      "inputs": [
        {
          "internalType": "uint256",
          "name": "proposalId",
          "type": "uint256"
        },
        {
          "internalType": "uint8",
          "name": "support",
          "type": "uint8"
        },
        {
          "internalType": "string",
          "name": "reason",
          "type": "string"
        }
      ],
      "name": "castVoteWithReason",
      "outputs": [],
      "stateMutability": "nonpayable",
      "type": "function"
    },
    {
      "inputs": [
        {
          "internalType": "uint256",
          "name": "proposalId",
          "type": "uint256"
        }
      ],
      "name": "execute",
      "outputs": [],
      "stateMutability": "payable",
      "type": "function"
    },
    {
      "inputs": [
        {
          "internalType": "uint256",
          "name": "proposalId",
          "type": "uint256"
        }
      ],
      "name": "getActions",
      "outputs": [
        {
          "internalType": "address[]",
          "name": "targets",
          "type": "address[]"
        },
        {
          "internalType": "uint256[]",
          "name": "values",
          "type": "uint256[]"
        },
        {
          "internalType": "string[]",
          "name": "signatures",
          "type": "string[]"
        },
        {
          "internalType": "bytes[]",
          "name": "calldatas",
          "type": "bytes[]"
        }
      ],
      "stateMutability": "view",
      "type": "function"
    },
    {
      "inputs": [
        {
          "internalType": "uint256",
          "name": "proposalId",
          "type": "uint256"
        },
        {
          "internalType": "address",
          "name": "voter",
          "type": "address"
        }
      ],
      "name": "getReceipt",
      "outputs": [
        {
          "components": [
            {
              "internalType": "bool",
              "name": "hasVoted",
              "type": "bool"
            },
            {
              "internalType": "uint8",
              "name": "support",
              "type": "uint8"
            },
            {
              "internalType": "uint256",
              "name": "votes",
              "type": "uint256"
            }
          ],
          "internalType": "struct GovernorBravoDelegateStorageV1.Receipt",
          "name": "",
          "type": "tuple"
        }
      ],
      "stateMutability": "view",
      "type": "function"
    },
    {
      "inputs": [],
      "name": "iGive",
      "outputs": [
        {
          "internalType": "contract iGiveInterface",
          "name": "",
          "type": "address"
        }
      ],
      "stateMutability": "view",
      "type": "function"
    },
    {
      "inputs": [],
      "name": "implementation",
      "outputs": [
        {
          "internalType": "address",
          "name": "",
          "type": "address"
        }
      ],
      "stateMutability": "view",
      "type": "function"
    },
    {
      "inputs": [],
      "name": "initialProposalId",
      "outputs": [
        {
          "internalType": "uint256",
          "name": "",
          "type": "uint256"
        }
      ],
      "stateMutability": "view",
      "type": "function"
    },
    {
      "inputs": [
        {
          "internalType": "address",
          "name": "timelock_",
          "type": "address"
        },
        {
          "internalType": "address",
          "name": "iGive_",
          "type": "address"
        },
        {
          "internalType": "uint256",
          "name": "votingPeriod_",
          "type": "uint256"
        },
        {
          "internalType": "uint256",
          "name": "votingDelay_",
          "type": "uint256"
        },
        {
          "internalType": "uint256",
          "name": "proposalThreshold_",
          "type": "uint256"
        },
        {
          "internalType": "address",
          "name": "treasury_",
          "type": "address"
        }
      ],
      "name": "initialize",
      "outputs": [],
      "stateMutability": "nonpayable",
      "type": "function"
    },
    {
      "inputs": [
        {
          "internalType": "uint256",
          "name": "",
          "type": "uint256"
        }
      ],
      "name": "investeeDetails",
      "outputs": [
        {
          "internalType": "address",
          "name": "",
          "type": "address"
        }
      ],
      "stateMutability": "view",
      "type": "function"
    },
    {
      "inputs": [
        {
          "internalType": "address",
          "name": "account",
          "type": "address"
        }
      ],
      "name": "isWhitelisted",
      "outputs": [
        {
          "internalType": "bool",
          "name": "",
          "type": "bool"
        }
      ],
      "stateMutability": "view",
      "type": "function"
    },
    {
      "inputs": [
        {
          "internalType": "address",
          "name": "",
          "type": "address"
        }
      ],
      "name": "latestProposalIds",
      "outputs": [
        {
          "internalType": "uint256",
          "name": "",
          "type": "uint256"
        }
      ],
      "stateMutability": "view",
      "type": "function"
    },
    {
      "inputs": [],
      "name": "name",
      "outputs": [
        {
          "internalType": "string",
          "name": "",
          "type": "string"
        }
      ],
      "stateMutability": "view",
      "type": "function"
    },
    {
      "inputs": [],
      "name": "nextInvestee",
      "outputs": [
        {
          "internalType": "uint256",
          "name": "",
          "type": "uint256"
        }
      ],
      "stateMutability": "view",
      "type": "function"
    },
    {
      "inputs": [],
      "name": "nextInvesteeFund",
      "outputs": [
        {
          "internalType": "uint256",
          "name": "",
          "type": "uint256"
        }
      ],
      "stateMutability": "view",
      "type": "function"
    },
    {
      "inputs": [],
      "name": "pendingAdmin",
      "outputs": [
        {
          "internalType": "address",
          "name": "",
          "type": "address"
        }
      ],
      "stateMutability": "view",
      "type": "function"
    },
    {
      "inputs": [],
      "name": "proposalCount",
      "outputs": [
        {
          "internalType": "uint256",
          "name": "",
          "type": "uint256"
        }
      ],
      "stateMutability": "view",
      "type": "function"
    },
    {
      "inputs": [],
      "name": "proposalMaxOperations",
      "outputs": [
        {
          "internalType": "uint256",
          "name": "",
          "type": "uint256"
        }
      ],
      "stateMutability": "view",
      "type": "function"
    },
    {
      "inputs": [],
      "name": "proposalThreshold",
      "outputs": [
        {
          "internalType": "uint256",
          "name": "",
          "type": "uint256"
        }
      ],
      "stateMutability": "view",
      "type": "function"
    },
    {
      "inputs": [
        {
          "internalType": "uint256",
          "name": "",
          "type": "uint256"
        }
      ],
      "name": "proposals",
      "outputs": [
        {
          "internalType": "uint256",
          "name": "id",
          "type": "uint256"
        },
        {
          "internalType": "address",
          "name": "proposer",
          "type": "address"
        },
        {
          "internalType": "uint256",
          "name": "eta",
          "type": "uint256"
        },
        {
          "internalType": "uint256",
          "name": "startBlock",
          "type": "uint256"
        },
        {
          "internalType": "uint256",
          "name": "endBlock",
          "type": "uint256"
        },
        {
          "internalType": "uint256",
          "name": "forVotes",
          "type": "uint256"
        },
        {
          "internalType": "uint256",
          "name": "againstVotes",
          "type": "uint256"
        },
        {
          "internalType": "uint256",
          "name": "abstainVotes",
          "type": "uint256"
        },
        {
          "internalType": "bool",
          "name": "canceled",
          "type": "bool"
        },
        {
          "internalType": "bool",
          "name": "executed",
          "type": "bool"
        }
      ],
      "stateMutability": "view",
      "type": "function"
    },
    {
      "inputs": [
        {
          "internalType": "address[]",
          "name": "targets",
          "type": "address[]"
        },
        {
          "internalType": "uint256[]",
          "name": "values",
          "type": "uint256[]"
        },
        {
          "internalType": "string[]",
          "name": "signatures",
          "type": "string[]"
        },
        {
          "internalType": "bytes[]",
          "name": "calldatas",
          "type": "bytes[]"
        },
        {
          "internalType": "string",
          "name": "description",
          "type": "string"
        }
      ],
      "name": "propose",
      "outputs": [
        {
          "internalType": "uint256",
          "name": "",
          "type": "uint256"
        }
      ],
      "stateMutability": "nonpayable",
      "type": "function"
    },
    {
      "inputs": [],
      "name": "proxiableUUID",
      "outputs": [
        {
          "internalType": "bytes32",
          "name": "",
          "type": "bytes32"
        }
      ],
      "stateMutability": "view",
      "type": "function"
    },
    {
      "inputs": [
        {
          "internalType": "uint256",
          "name": "proposalId",
          "type": "uint256"
        }
      ],
      "name": "queue",
      "outputs": [],
      "stateMutability": "nonpayable",
      "type": "function"
    },
    {
      "inputs": [],
      "name": "quorumVotes",
      "outputs": [
        {
          "internalType": "uint256",
          "name": "",
          "type": "uint256"
        }
      ],
      "stateMutability": "view",
      "type": "function"
    },
    {
      "inputs": [
        {
          "internalType": "uint256",
          "name": "proposalId",
          "type": "uint256"
        }
      ],
      "name": "state",
      "outputs": [
        {
          "internalType": "enum GovernorBravoDelegateStorageV1.ProposalState",
          "name": "",
          "type": "uint8"
        }
      ],
      "stateMutability": "view",
      "type": "function"
    },
    {
      "inputs": [],
      "name": "timelock",
      "outputs": [
        {
          "internalType": "contract TimelockInterface",
          "name": "",
          "type": "address"
        }
      ],
      "stateMutability": "view",
      "type": "function"
    },
    {
      "inputs": [],
      "name": "treasury",
      "outputs": [
        {
          "internalType": "address",
          "name": "",
          "type": "address"
        }
      ],
      "stateMutability": "view",
      "type": "function"
    },
    {
      "inputs": [
        {
          "internalType": "address",
          "name": "newImplementation",
          "type": "address"
        }
      ],
      "name": "upgradeTo",
      "outputs": [],
      "stateMutability": "nonpayable",
      "type": "function"
    },
    {
      "inputs": [
        {
          "internalType": "address",
          "name": "newImplementation",
          "type": "address"
        },
        {
          "internalType": "bytes",
          "name": "data",
          "type": "bytes"
        }
      ],
      "name": "upgradeToAndCall",
      "outputs": [],
      "stateMutability": "payable",
      "type": "function"
    },
    {
      "inputs": [],
      "name": "votingDelay",
      "outputs": [
        {
          "internalType": "uint256",
          "name": "",
          "type": "uint256"
        }
      ],
      "stateMutability": "view",
      "type": "function"
    },
    {
      "inputs": [],
      "name": "votingPeriod",
      "outputs": [
        {
          "internalType": "uint256",
          "name": "",
          "type": "uint256"
        }
      ],
      "stateMutability": "view",
      "type": "function"
    },
    {
      "inputs": [
        {
          "internalType": "address",
          "name": "",
          "type": "address"
        }
      ],
      "name": "whitelistAccountExpirations",
      "outputs": [
        {
          "internalType": "uint256",
          "name": "",
          "type": "uint256"
        }
      ],
      "stateMutability": "view",
      "type": "function"
    },
    {
      "inputs": [],
      "name": "whitelistGuardian",
      "outputs": [
        {
          "internalType": "address",
          "name": "",
          "type": "address"
        }
      ],
      "stateMutability": "view",
      "type": "function"
    }
  ],
  "bytecode": "0x60a06040523060601b60805234801561001757600080fd5b5060805160601c614d49610052600039600081816113510152818161139101528181611bc201528181611c020152611c950152614d496000f3fe6080604052600436106103505760003560e01c8063647abf78116101c6578063d33219b4116100f7578063e48083fe11610095578063f851a4401161006f578063f851a44014610b31578063f9d28b8014610b51578063fc4eee4214610b71578063fe0d94c114610b8757600080fd5b8063e48083fe1461057f578063e9c714f214610b07578063f03cd27114610b1c57600080fd5b8063da95691a116100d1578063da95691a146109dd578063ddf0b009146109fd578063deaaa7cc14610a1d578063e23a9a5214610a5157600080fd5b8063d33219b414610991578063d54db348146109b1578063da35c664146109c757600080fd5b8063a64e024a11610164578063b1a5d12d1161013e578063b1a5d12d1461091b578063b58131b01461093b578063b71d1a0c14610951578063c5a8425d1461097157600080fd5b8063a64e024a146108ce578063b1126263146108e5578063b19610f7146108fb57600080fd5b80637b3c71d3116101a05780637b3c71d3146108645780637bdbe4d0146108845780639953336514610899578063a37ee07d146108b957600080fd5b8063647abf78146107fb5780636754ae5614610811578063791f5d231461084757600080fd5b8063328dd982116102a057806340e58ee51161023e57806352d1902d1161021857806352d1902d14610786578063567813881461079b5780635c60da1b146107bb57806361d027b3146107db57600080fd5b806340e58ee5146107335780634d6733d2146107535780634f1ef2861461077357600080fd5b80633932abb11161027a5780633932abb1146106885780633af32abf1461069e5780633bccf4fd146106e65780633e4f49e61461070657600080fd5b8063328dd9821461060b5780633659cfe61461063b57806338bd0dda1461065b57600080fd5b806317ba1b8b1161030d578063215809ca116102e7578063215809ca1461057f57806324bc1a641461059457806325fd935a146105b357806326782247146105d357600080fd5b806317ba1b8b1461050b5780631dfb1b5a1461052b57806320606b701461054b57600080fd5b8063013cf08b1461035557806302a251a31461042c57806306b8aa491461045057806306fdde03146104725780630ea2d98c146104be57806317977c61146104de575b600080fd5b34801561036157600080fd5b506103d16103703660046140d6565b606f602052600090815260409020805460018201546002830154600784015460088501546009860154600a870154600b880154600c9098015496976001600160a01b0390961696949593949293919290919060ff808216916101009004168a565b604080519a8b526001600160a01b0390991660208b0152978901969096526060880194909452608087019290925260a086015260c085015260e084015215156101008301521515610120820152610140015b60405180910390f35b34801561043857600080fd5b5061044260695481565b604051908152602001610423565b34801561045c57600080fd5b5061047061046b36600461410b565b610b9a565b005b34801561047e57600080fd5b506104b160405180604001604052806013815260200172476f6f6420476f7665726e6f7220427261766f60681b81525081565b604051610423919061417e565b3480156104ca57600080fd5b506104706104d93660046140d6565b610d11565b3480156104ea57600080fd5b506104426104f936600461410b565b60706020526000908152604090205481565b34801561051757600080fd5b506104706105263660046140d6565b610e44565b34801561053757600080fd5b506104706105463660046140d6565b610f8e565b34801561055757600080fd5b506104427f8cad95687ba82c2ce50e74f7b754645e5117c3a5bec8151c0726d5857980a86681565b34801561058b57600080fd5b50610442600181565b3480156105a057600080fd5b506104426aadb53acfa41aee1200000081565b3480156105bf57600080fd5b506104426b43dacaf91c1a84ff0800000081565b3480156105df57600080fd5b506066546105f3906001600160a01b031681565b6040516001600160a01b039091168152602001610423565b34801561061757600080fd5b5061062b6106263660046140d6565b6110b5565b604051610423949392919061425a565b34801561064757600080fd5b5061047061065636600461410b565b611346565b34801561066757600080fd5b5061044261067636600461410b565b60716020526000908152604090205481565b34801561069457600080fd5b5061044260685481565b3480156106aa57600080fd5b506106d66106b936600461410b565b6001600160a01b0316600090815260716020526040902054421090565b6040519015158152602001610423565b3480156106f257600080fd5b506104706107013660046142c3565b611426565b34801561071257600080fd5b506107266107213660046140d6565b611696565b6040516104239190614327565b34801561073f57600080fd5b5061047061074e3660046140d6565b61185c565b34801561075f57600080fd5b5061047061076e36600461434f565b611ad1565b61047061078136600461443e565b611bb7565b34801561079257600080fd5b50610442611c88565b3480156107a757600080fd5b506104706107b636600461448c565b611d3b565b3480156107c757600080fd5b506067546105f3906001600160a01b031681565b3480156107e757600080fd5b506076546105f3906001600160a01b031681565b34801561080757600080fd5b5061044260755481565b34801561081d57600080fd5b506105f361082c3660046140d6565b6073602052600090815260409020546001600160a01b031681565b34801561085357600080fd5b506104426871d75ab9b92050000081565b34801561087057600080fd5b5061047061087f3660046144b8565b611d9d565b34801561089057600080fd5b50610442600981565b3480156108a557600080fd5b506104706108b436600461410b565b611ded565b3480156108c557600080fd5b50610470611f2a565b3480156108da57600080fd5b5061044262013b0081565b3480156108f157600080fd5b50610442619d8081565b34801561090757600080fd5b50606e546105f3906001600160a01b031681565b34801561092757600080fd5b5061047061093636600461453f565b611f94565b34801561094757600080fd5b50610442606a5481565b34801561095d57600080fd5b5061047061096c36600461410b565b6123d5565b34801561097d57600080fd5b506072546105f3906001600160a01b031681565b34801561099d57600080fd5b50606d546105f3906001600160a01b031681565b3480156109bd57600080fd5b5061044260745481565b3480156109d357600080fd5b50610442606c5481565b3480156109e957600080fd5b506104426109f836600461478a565b612507565b348015610a0957600080fd5b50610470610a183660046140d6565b612a94565b348015610a2957600080fd5b506104427f150214d74d59b7d1e90c73fc22ef3d991dd0a76b046543d4d80ab92d2a50328f81565b348015610a5d57600080fd5b50610ae0610a6c36600461485c565b6040805160608101825260008082526020820181905291810191909152506000918252606f602090815260408084206001600160a01b03939093168452600d9092018152918190208151606081018352815460ff808216151583526101009091041693810193909352600101549082015290565b6040805182511515815260208084015160ff16908201529181015190820152606001610423565b348015610b1357600080fd5b50610470612d9b565b348015610b2857600080fd5b506105f3612ec5565b348015610b3d57600080fd5b506065546105f3906001600160a01b031681565b348015610b5d57600080fd5b50610470610b6c36600461410b565b613062565b348015610b7d57600080fd5b50610442606b5481565b610470610b953660046140d6565b613244565b6065546001600160a01b03163314610c105760405162461bcd60e51b815260206004820152602e60248201527f476f7665726e6f72427261766f3a3a5f736574496e766573746565446574616960448201526d6c733a2061646d696e206f6e6c7960901b60648201526084015b60405180910390fd5b6001600160a01b038116610c7f5760405162461bcd60e51b815260206004820152603060248201527f476f7665726e6f72427261766f3a3a5f736574496e766573746565446574616960448201526f6c733a207a65726f206164647265737360801b6064820152608401610c07565b60748054600090815260736020526040902080546001600160a01b0319166001600160a01b03841617905554610cb6906001613490565b6074819055507f59f0b8051a7417e410325aa8686c7c34f2dbabef2f0d168ae2753b7a8049f63781610ceb60745460016134ea565b604080516001600160a01b0390931683526020830191909152015b60405180910390a150565b6065546001600160a01b03163314610d7f5760405162461bcd60e51b815260206004820152602b60248201527f476f7665726e6f72427261766f3a3a5f736574566f74696e67506572696f643a60448201526a2061646d696e206f6e6c7960a81b6064820152608401610c07565b60018110158015610d93575062013b008111155b610dfe5760405162461bcd60e51b815260206004820152603660248201527f476f7665726e6f72427261766f3a3a5f736574566f74696e67506572696f643a604482015275081a5b9d985b1a59081d9bdd1a5b99c81c195c9a5bd960521b6064820152608401610c07565b606980549082905560408051828152602081018490527f7e3f7f0708a84de9203036abaa450dccc85ad5ff52f78c170f3edb55cf5e882891015b60405180910390a15050565b6065546001600160a01b03163314610eb75760405162461bcd60e51b815260206004820152603060248201527f476f7665726e6f72427261766f3a3a5f73657450726f706f73616c546872657360448201526f686f6c643a2061646d696e206f6e6c7960801b6064820152608401610c07565b6871d75ab9b9205000008110158015610edc57506b43dacaf91c1a84ff080000008111155b610f50576040805162461bcd60e51b81526020600482015260248101919091527f476f7665726e6f72427261766f3a3a5f73657450726f706f73616c546872657360448201527f686f6c643a20696e76616c69642070726f706f73616c207468726573686f6c646064820152608401610c07565b606a80549082905560408051828152602081018490527fccb45da8d5717e6c4544694297c4ba5cf151d455c9bb0ed4fc7a38411bc054619101610e38565b6065546001600160a01b03163314610ffb5760405162461bcd60e51b815260206004820152602a60248201527f476f7665726e6f72427261766f3a3a5f736574566f74696e6744656c61793a2060448201526961646d696e206f6e6c7960b01b6064820152608401610c07565b6001811015801561100e5750619d808111155b6110775760405162461bcd60e51b815260206004820152603460248201527f476f7665726e6f72427261766f3a3a5f736574566f74696e6744656c61793a20604482015273696e76616c696420766f74696e672064656c617960601b6064820152608401610c07565b606880549082905560408051828152602081018490527fc565b045403dc03c2eea82b81a0465edad9e2e7fc4d97e11421c209da93d7a939101610e38565b6060806060806000606f60008781526020019081526020016000209050806003018160040182600501836006018380548060200260200160405190810160405280929190818152602001828054801561113757602002820191906000526020600020905b81546001600160a01b03168152600190910190602001808311611119575b505050505093508280548060200260200160405190810160405280929190818152602001828054801561118957602002820191906000526020600020905b815481526020019060010190808311611175575b5050505050925081805480602002602001604051908101604052809291908181526020016000905b8282101561125d5783829060005260206000200180546111d09061487f565b80601f01602080910402602001604051908101604052809291908181526020018280546111fc9061487f565b80156112495780601f1061121e57610100808354040283529160200191611249565b820191906000526020600020905b81548152906001019060200180831161122c57829003601f168201915b5050505050815260200190600101906111b1565b50505050915080805480602002602001604051908101604052809291908181526020016000905b828210156113305783829060005260206000200180546112a39061487f565b80601f01602080910402602001604051908101604052809291908181526020018280546112cf9061487f565b801561131c5780601f106112f15761010080835404028352916020019161131c565b820191906000526020600020905b8154815290600101906020018083116112ff57829003601f168201915b505050505081526020019060010190611284565b5050505090509450945094509450509193509193565b306001600160a01b037f000000000000000000000000000000000000000000000000000000000000000016141561138f5760405162461bcd60e51b8152600401610c07906148b4565b7f00000000000000000000000000000000000000000000000000000000000000006001600160a01b03166113d8600080516020614ccd833981519152546001600160a01b031690565b6001600160a01b0316146113fe5760405162461bcd60e51b8152600401610c0790614900565b6114078161353e565b60408051600080825260208201909252611423918391906135a6565b50565b6040805180820182526013815272476f6f6420476f7665726e6f7220427261766f60681b60209182015281517f8cad95687ba82c2ce50e74f7b754645e5117c3a5bec8151c0726d5857980a866818301527f286f34bd40fd5547889590745c77032d2d4a74ddf41fe0d7251d9742424c100181840152466060820152306080808301919091528351808303909101815260a0820184528051908301207f150214d74d59b7d1e90c73fc22ef3d991dd0a76b046543d4d80ab92d2a50328f60c083015260e0820189905260ff8816610100808401919091528451808403909101815261012083019094528351939092019290922061190160f01b6101408401526101428301829052610162830181905290916000906101820160408051601f198184030181528282528051602091820120600080855291840180845281905260ff8a169284019290925260608301889052608083018790529092509060019060a0016020604051602081039080840390855afa1580156115a9573d6000803e3d6000fd5b5050604051601f1901519150506001600160a01b0381166116245760405162461bcd60e51b815260206004820152602f60248201527f476f7665726e6f72427261766f3a3a63617374566f746542795369673a20696e60448201526e76616c6964207369676e617475726560881b6064820152608401610c07565b806001600160a01b03167fb8e138887d0aa13bab447e82de9d5c1777041ecd21ca36ba824ff1e6c07ddda48a8a61165c858e8e613725565b6040805193845260ff90921660208401529082015260806060820181905260009082015260a00160405180910390a2505050505050505050565b600081606c54101580156116ab5750606b5482115b6117095760405162461bcd60e51b815260206004820152602960248201527f476f7665726e6f72427261766f3a3a73746174653a20696e76616c69642070726044820152681bdc1bdcd85b081a5960ba1b6064820152608401610c07565b6000828152606f60205260409020600c81015460ff161561172d5750600292915050565b806007015443116117415750600092915050565b806008015443116117555750600192915050565b80600a0154816009015411158061177a57506aadb53acfa41aee120000008160090154105b156117885750600392915050565b600281015461179a5750600492915050565b600c810154610100900460ff16156117b55750600792915050565b6002810154606d54604080516360d143f160e11b8152905161183e93926001600160a01b03169163c1a287e2916004808301926020929190829003018186803b15801561180157600080fd5b505afa158015611815573d6000803e3d6000fd5b505050506040513d601f19601f82011682018060405250810190611839919061494c565b613490565b421061184d5750600692915050565b50600592915050565b50919050565b600761186782611696565b600781111561187857611878614311565b14156118e55760405162461bcd60e51b815260206004820152603660248201527f476f7665726e6f72427261766f3a3a63616e63656c3a2063616e6e6f742063616044820152751b98d95b08195e1958dd5d1959081c1c9bdc1bdcd85b60521b6064820152608401610c07565b6000818152606f6020526040902060018101546001600160a01b031633146119755760405162461bcd60e51b815260206004820152603860248201527f476f7665726e6f72427261766f3a3a63616e63656c3a204f746865722075736560448201527f722063616e6e6f742063616e63656c2070726f706f73616c00000000000000006064820152608401610c07565b600c8101805460ff1916600117905560005b6003820154811015611aa057606d546003830180546001600160a01b039092169163591fcdfe9190849081106119bf576119bf614965565b6000918252602090912001546004850180546001600160a01b0390921691859081106119ed576119ed614965565b9060005260206000200154856005018581548110611a0d57611a0d614965565b90600052602060002001866006018681548110611a2c57611a2c614965565b9060005260206000200187600201546040518663ffffffff1660e01b8152600401611a5b959493929190614a1c565b600060405180830381600087803b158015611a7557600080fd5b505af1158015611a89573d6000803e3d6000fd5b505050508080611a9890614a7e565b915050611987565b506040518281527f789cf55be980739dad1d0699b93b58e806b51c9d96619bfa8fe0a28abaa7b30c90602001610e38565b6065546001600160a01b0316331480611af457506072546001600160a01b031633145b611b665760405162461bcd60e51b815260206004820152603960248201527f476f7665726e6f72427261766f3a3a5f73657457686974656c6973744163636f60448201527f756e7445787069726174696f6e3a2061646d696e206f6e6c79000000000000006064820152608401610c07565b6001600160a01b038216600081815260716020908152604091829020849055815192835282018390527f4e7b7545bc5744d0e30425959f4687475774b6c7edad77d24cb51c7d967d45159101610e38565b306001600160a01b037f0000000000000000000000000000000000000000000000000000000000000000161415611c005760405162461bcd60e51b8152600401610c07906148b4565b7f00000000000000000000000000000000000000000000000000000000000000006001600160a01b0316611c49600080516020614ccd833981519152546001600160a01b031690565b6001600160a01b031614611c6f5760405162461bcd60e51b8152600401610c0790614900565b611c788261353e565b611c84828260016135a6565b5050565b6000306001600160a01b037f00000000000000000000000000000000000000000000000000000000000000001614611d285760405162461bcd60e51b815260206004820152603860248201527f555550535570677261646561626c653a206d757374206e6f742062652063616c60448201527f6c6564207468726f7567682064656c656761746563616c6c00000000000000006064820152608401610c07565b50600080516020614ccd83398151915290565b337fb8e138887d0aa13bab447e82de9d5c1777041ecd21ca36ba824ff1e6c07ddda48383611d6a848383613725565b6040805193845260ff90921660208401529082015260806060820181905260009082015260a00160405180910390a25050565b337fb8e138887d0aa13bab447e82de9d5c1777041ecd21ca36ba824ff1e6c07ddda48585611dcc848383613725565b8686604051611ddf959493929190614a99565b60405180910390a250505050565b6001600160a01b038116611e5d5760405162461bcd60e51b815260206004820152603160248201527f476f7665726e6f72427261766f3a5f73657457686974656c697374477561726460448201527069616e3a207a65726f206164647265737360781b6064820152608401610c07565b6065546001600160a01b03163314611ed05760405162461bcd60e51b815260206004820152603060248201527f476f7665726e6f72427261766f3a3a5f73657457686974656c6973744775617260448201526f6469616e3a2061646d696e206f6e6c7960801b6064820152608401610c07565b607280546001600160a01b038381166001600160a01b031983168117909355604080519190921680825260208201939093527f80a07e73e552148844a9c216d9724212d609cfa54e9c1a2e97203bdd2c4ad3419101610e38565b606d60009054906101000a90046001600160a01b03166001600160a01b0316630e18b6816040518163ffffffff1660e01b8152600401600060405180830381600087803b158015611f7a57600080fd5b505af1158015611f8e573d6000803e3d6000fd5b50505050565b600054610100900460ff1615808015611fb45750600054600160ff909116105b80611fce5750303b158015611fce575060005460ff166001145b6120315760405162461bcd60e51b815260206004820152602e60248201527f496e697469616c697a61626c653a20636f6e747261637420697320616c72656160448201526d191e481a5b9a5d1a585b1a5e995960921b6064820152608401610c07565b6000805460ff191660011790558015612054576000805461ff0019166101001790555b606d546001600160a01b0316156120c95760405162461bcd60e51b815260206004820152603360248201527f476f7665726e6f72427261766f3a3a696e697469616c697a653a2063616e206f6044820152726e6c7920696e697469616c697a65206f6e636560681b6064820152608401610c07565b6001600160a01b0387166121295760405162461bcd60e51b81526020600482015260336024820152600080516020614cad83398151915260448201527269642074696d656c6f636b206164647265737360681b6064820152608401610c07565b6001600160a01b0386166121865760405162461bcd60e51b81526020600482015260306024820152600080516020614cad83398151915260448201526f6964206947697665206164647265737360801b6064820152608401610c07565b6001851015801561219a575062013b008511155b6121ed5760405162461bcd60e51b81526020600482015260306024820152600080516020614cad83398151915260448201526f1a59081d9bdd1a5b99c81c195c9a5bd960821b6064820152608401610c07565b600184101580156122005750619d808411155b6122525760405162461bcd60e51b815260206004820152602f6024820152600080516020614cad83398151915260448201526e696420766f74696e672064656c617960881b6064820152608401610c07565b6871d75ab9b920500000831015801561227757506b43dacaf91c1a84ff080000008311155b6122cf5760405162461bcd60e51b81526020600482015260356024820152600080516020614cad8339815191526044820152741a59081c1c9bdc1bdcd85b081d1a1c995cda1bdb19605a1b6064820152608401610c07565b6001600160a01b03821661232f5760405162461bcd60e51b81526020600482015260336024820152600080516020614cad8339815191526044820152726964207472656173757279206164647265737360681b6064820152608401610c07565b606d80546001600160a01b03199081166001600160a01b038a8116918217909355606e805483168a851617905560698890556068879055606a86905560658054831690911790556076805490911691841691909117905580156123cc576000805461ff0019169055604051600181527f7f26b83ff96e1f2b6a682f133852f6798a09c465da95921460cefb38474024989060200160405180910390a15b50505050505050565b6001600160a01b0381166124405760405162461bcd60e51b815260206004820152602c60248201527f476f7665726e6f72427261766f3a5f73657450656e64696e6741646d696e3a2060448201526b7a65726f206164647265737360a01b6064820152608401610c07565b6065546001600160a01b031633146124ad5760405162461bcd60e51b815260206004820152602a60248201527f476f7665726e6f72427261766f3a5f73657450656e64696e6741646d696e3a2060448201526961646d696e206f6e6c7960b01b6064820152608401610c07565b606680546001600160a01b038381166001600160a01b031983168117909355604080519190921680825260208201939093527fca4f2f25d0898edd99413412fb94012f9e54ec8142f9b093e7720646a95b16a99101610e38565b606e54604051636e2e2d7360e01b8152600060048201819052336024830152916001600160a01b031690636e2e2d7390604401602060405180830381600087803b15801561255457600080fd5b505af1158015612568573d6000803e3d6000fd5b505050506040513d601f19601f8201168201806040525081019061258c9190614ae0565b6125e85760405162461bcd60e51b815260206004820152602760248201527f476f7665726e6f72427261766f3a3a70726f706f73653a206f6e6c7920746f706044820152661039ba30b5b2b960c91b6064820152608401610c07565b845186511480156125fa575083518651145b8015612607575082518651145b6126875760405162461bcd60e51b8152602060048201526044602482018190527f476f7665726e6f72427261766f3a3a70726f706f73653a2070726f706f73616c908201527f2066756e6374696f6e20696e666f726d6174696f6e206172697479206d69736d6064820152630c2e8c6d60e31b608482015260a401610c07565b85516126ea5760405162461bcd60e51b815260206004820152602c60248201527f476f7665726e6f72427261766f3a3a70726f706f73653a206d7573742070726f60448201526b7669646520616374696f6e7360a01b6064820152608401610c07565b60098651111561274d5760405162461bcd60e51b815260206004820152602860248201527f476f7665726e6f72427261766f3a3a70726f706f73653a20746f6f206d616e7960448201526720616374696f6e7360c01b6064820152608401610c07565b3360009081526070602052604090205480156128ce57600061276e82611696565b9050600181600781111561278457612784614311565b141561281e5760405162461bcd60e51b815260206004820152605860248201527f476f7665726e6f72427261766f3a3a70726f706f73653a206f6e65206c69766560448201527f2070726f706f73616c207065722070726f706f7365722c20666f756e6420616e60648201527f20616c7265616479206163746976652070726f706f73616c0000000000000000608482015260a401610c07565b600081600781111561283257612832614311565b14156128cc5760405162461bcd60e51b815260206004820152605960248201527f476f7665726e6f72427261766f3a3a70726f706f73653a206f6e65206c69766560448201527f2070726f706f73616c207065722070726f706f7365722c20666f756e6420616e60648201527f20616c72656164792070656e64696e672070726f706f73616c00000000000000608482015260a401610c07565b505b60006128dc43606854613490565b905060006128ec82606954613490565b606c805491925060006128fe83614a7e565b9091555050606c546000818152606f6020908152604082209283556001830180546001600160a01b0319163317905560028301919091558a51612949916003840191908d0190613e88565b50885161295f90600483019060208c0190613eed565b50875161297590600583019060208b0190613f28565b50865161298b90600683019060208a0190613f81565b5082816007018190555081816008018190555060008160090181905550600081600a0181905550600081600b0181905550600081600c0160006101000a81548160ff021916908315150217905550600081600c0160016101000a81548160ff0219169083151502179055508060000154607060008360010160009054906101000a90046001600160a01b03166001600160a01b03166001600160a01b03168152602001908152602001600020819055507f7d84a6263ae0d98d3329bd7b46bb4e8d6f98cd35a7adb45c274c8b7fd5ebd5e08160000154338c8c8c8c89898e604051612a7e99989796959493929190614b02565b60405180910390a1549998505050505050505050565b6004612a9f82611696565b6007811115612ab057612ab0614311565b14612b315760405162461bcd60e51b8152602060048201526044602482018190527f476f7665726e6f72427261766f3a3a71756575653a2070726f706f73616c2063908201527f616e206f6e6c79206265207175657565642069662069742069732073756363656064820152631959195960e21b608482015260a401610c07565b6000818152606f60209081526040808320606d548251630d48571f60e31b81529251919493612b8b9342936001600160a01b0390931692636a42b8f892600480840193919291829003018186803b15801561180157600080fd5b905060005b6003830154811015612d5557612d43836003018281548110612bb457612bb4614965565b6000918252602090912001546004850180546001600160a01b039092169184908110612be257612be2614965565b9060005260206000200154856005018481548110612c0257612c02614965565b906000526020600020018054612c179061487f565b80601f0160208091040260200160405190810160405280929190818152602001828054612c439061487f565b8015612c905780601f10612c6557610100808354040283529160200191612c90565b820191906000526020600020905b815481529060010190602001808311612c7357829003601f168201915b5050505050866006018581548110612caa57612caa614965565b906000526020600020018054612cbf9061487f565b80601f0160208091040260200160405190810160405280929190818152602001828054612ceb9061487f565b8015612d385780601f10612d0d57610100808354040283529160200191612d38565b820191906000526020600020905b815481529060010190602001808311612d1b57829003601f168201915b505050505086613a85565b80612d4d81614a7e565b915050612b90565b506002820181905560408051848152602081018390527f9a2e42fd6722813d69113e7d0079d3d940171428df7373df9c7f7617cfda2892910160405180910390a1505050565b6066546001600160a01b031633148015612db457503315155b612e175760405162461bcd60e51b815260206004820152602e60248201527f476f7665726e6f72427261766f3a5f61636365707441646d696e3a2070656e6460448201526d696e672061646d696e206f6e6c7960901b6064820152608401610c07565b60658054606680546001600160a01b038082166001600160a01b031980861682179096559490911690915560408051919092168082526020820184905292917ff9ffabca9c8276e99321725bcb43fb076a6c66a54b7f21c4e8146d8519b417dc910160405180910390a1606654604080516001600160a01b03808516825290921660208301527fca4f2f25d0898edd99413412fb94012f9e54ec8142f9b093e7720646a95b16a99101610e38565b6076546000906001600160a01b03163314612f365760405162461bcd60e51b815260206004820152602b60248201527f476f7665726e6f72427261766f3a3a5f66756e64496e7665737465653a20747260448201526a656173757279206f6e6c7960a81b6064820152608401610c07565b6074546075541115612fa05760405162461bcd60e51b815260206004820152602d60248201527f476f7665726e6f72427261766f3a3a5f66756e64496e7665737465653a204e6f60448201526c206e657720696e76657374656560981b6064820152608401610c07565b612fad6075546001613490565b6075819055507fc5c30592579df2868ccc9809f55485e57c9503d99abf37c40e084f99709f2e2060736000612fe560755460016134ea565b81526020810191909152604001600020546075546001600160a01b03909116906130109060016134ea565b604080516001600160a01b03909316835260208301919091520160405180910390a16073600061304360755460016134ea565b81526020810191909152604001600020546001600160a01b0316919050565b6065546001600160a01b031633146130c85760405162461bcd60e51b8152602060048201526024808201527f476f7665726e6f72427261766f3a3a5f696e6974696174653a2061646d696e206044820152636f6e6c7960e01b6064820152608401610c07565b606b54156131315760405162461bcd60e51b815260206004820152603060248201527f476f7665726e6f72427261766f3a3a5f696e6974696174653a2063616e206f6e60448201526f6c7920696e697469617465206f6e636560801b6064820152608401610c07565b806001600160a01b031663da35c6646040518163ffffffff1660e01b8152600401602060405180830381600087803b15801561316c57600080fd5b505af1158015613180573d6000803e3d6000fd5b505050506040513d601f19601f820116820180604052508101906131a4919061494c565b606c819055606b55606d5460408051630e18b68160e01b815290516001600160a01b0390921691630e18b6819160048082019260009290919082900301818387803b1580156131f257600080fd5b505af1158015613206573d6000803e3d6000fd5b50506040516001600160a01b03841681527fc6055e6fe22e34bcdffce73c5d2968b6b2b71a5202db09bf28a9cda3002c479a92506020019050610d06565b600561324f82611696565b600781111561326057613260614311565b146132e15760405162461bcd60e51b815260206004820152604560248201527f476f7665726e6f72427261766f3a3a657865637574653a2070726f706f73616c60448201527f2063616e206f6e6c7920626520657865637574656420696620697420697320716064820152641d595d595960da1b608482015260a401610c07565b6000818152606f60205260408120600c8101805461ff001916610100179055905b600382015481101561345f57606d546004830180546001600160a01b0390921691630825f38f91908490811061333a5761333a614965565b906000526020600020015484600301848154811061335a5761335a614965565b6000918252602090912001546004860180546001600160a01b03909216918690811061338857613388614965565b90600052602060002001548660050186815481106133a8576133a8614965565b906000526020600020018760060187815481106133c7576133c7614965565b9060005260206000200188600201546040518763ffffffff1660e01b81526004016133f6959493929190614a1c565b6000604051808303818588803b15801561340f57600080fd5b505af1158015613423573d6000803e3d6000fd5b50505050506040513d6000823e601f3d908101601f1916820160405261344c9190810190614b9a565b508061345781614a7e565b915050613302565b506040518281527f712ae1383f79ac853f8d882153778e0260ef8f03b504e2866e0593e04d2b291f90602001610e38565b60008061349d8385614c08565b9050838110156134e35760405162461bcd60e51b81526020600482015260116024820152706164646974696f6e206f766572666c6f7760781b6044820152606401610c07565b9392505050565b6000828211156135345760405162461bcd60e51b81526020600482015260156024820152747375627472616374696f6e20756e646572666c6f7760581b6044820152606401610c07565b6134e38284614c20565b6065546001600160a01b031633146114235760405162461bcd60e51b815260206004820152602560248201527f4f6e6c792061646d696e2063616e207570677261646520696d706c656d656e7460448201526430ba34b7b760d91b6064820152608401610c07565b7f4910fdfa16fed3260ed0e7147f7cc6da11a60208b5b9406d12a635614ffd91435460ff16156135de576135d983613c5a565b505050565b826001600160a01b03166352d1902d6040518163ffffffff1660e01b815260040160206040518083038186803b15801561361757600080fd5b505afa925050508015613647575060408051601f3d908101601f191682019092526136449181019061494c565b60015b6136aa5760405162461bcd60e51b815260206004820152602e60248201527f45524331393637557067726164653a206e657720696d706c656d656e7461746960448201526d6f6e206973206e6f74205555505360901b6064820152608401610c07565b600080516020614ccd83398151915281146137195760405162461bcd60e51b815260206004820152602960248201527f45524331393637557067726164653a20756e737570706f727465642070726f786044820152681a58589b195555525160ba1b6064820152608401610c07565b506135d9838383613cf6565b606e54604051636e2e2d7360e01b8152600060048201819052336024830152916001600160a01b031690636e2e2d7390604401602060405180830381600087803b15801561377257600080fd5b505af1158015613786573d6000803e3d6000fd5b505050506040513d601f19601f820116820180604052508101906137aa9190614ae0565b1561380b5760405162461bcd60e51b81526020600482015260376024820152600080516020614c8d83398151915260448201527f20546f70207374616b65722063616e6e6f7420766f74650000000000000000006064820152608401610c07565b600161381684611696565b600781111561382757613827614311565b1461387c5760405162461bcd60e51b81526020600482015260316024820152600080516020614c8d833981519152604482015270081d9bdd1a5b99c81a5cc818db1bdcd959607a1b6064820152608401610c07565b60028260ff1611156138d95760405162461bcd60e51b81526020600482015260326024820152600080516020614c8d83398151915260448201527120696e76616c696420766f7465207479706560701b6064820152608401610c07565b6000838152606f602090815260408083206001600160a01b0388168452600d8101909252909120805460ff161561395d5760405162461bcd60e51b81526020600482015260346024820152600080516020614c8d833981519152604482015273081d9bdd195c88185b1c9958591e481d9bdd195960621b6064820152608401610c07565b606e546007830154604051630748d63560e31b81526000926001600160a01b031691633a46b1a8916139a7918b916004016001600160a01b03929092168252602082015260400190565b60206040518083038186803b1580156139bf57600080fd5b505afa1580156139d3573d6000803e3d6000fd5b505050506040513d601f19601f820116820180604052508101906139f7919061494c565b905060ff8516613a1957613a0f83600a015482613490565b600a840155613a5d565b8460ff1660011415613a3d57613a33836009015482613490565b6009840155613a5d565b8460ff1660021415613a5d57613a5783600b015482613490565b600b8401555b8154600161ffff1990911661010060ff88160217811783559091018190559150509392505050565b606d546040516001600160a01b039091169063f2b0653790613ab39088908890889088908890602001614c37565b604051602081830303815290604052805190602001206040518263ffffffff1660e01b8152600401613ae791815260200190565b60206040518083038186803b158015613aff57600080fd5b505afa158015613b13573d6000803e3d6000fd5b505050506040513d601f19601f82011682018060405250810190613b379190614ae0565b15613bc85760405162461bcd60e51b815260206004820152605560248201527f476f7665726e6f72427261766f3a3a71756575654f72526576657274496e746560448201527f726e616c3a206964656e746963616c2070726f706f73616c20616374696f6e20606482015274616c7265616479207175657565642061742065746160581b608482015260a401610c07565b606d54604051633a66f90160e01b81526001600160a01b0390911690633a66f90190613c009088908890889088908890600401614c37565b602060405180830381600087803b158015613c1a57600080fd5b505af1158015613c2e573d6000803e3d6000fd5b505050506040513d601f19601f82011682018060405250810190613c52919061494c565b505050505050565b6001600160a01b0381163b613cc75760405162461bcd60e51b815260206004820152602d60248201527f455243313936373a206e657720696d706c656d656e746174696f6e206973206e60448201526c1bdd08184818dbdb9d1c9858dd609a1b6064820152608401610c07565b600080516020614ccd83398151915280546001600160a01b0319166001600160a01b0392909216919091179055565b613cff83613d1b565b600082511180613d0c5750805b156135d957611f8e8383613d5b565b613d2481613c5a565b6040516001600160a01b038216907fbc7cd75a20ee27fd9adebab32041f755214dbc6bffa90cc0225b39da2e5c2d3b90600090a250565b60606001600160a01b0383163b613dc35760405162461bcd60e51b815260206004820152602660248201527f416464726573733a2064656c65676174652063616c6c20746f206e6f6e2d636f6044820152651b9d1c9858dd60d21b6064820152608401610c07565b600080846001600160a01b031684604051613dde9190614c70565b600060405180830381855af49150503d8060008114613e19576040519150601f19603f3d011682016040523d82523d6000602084013e613e1e565b606091505b5091509150613e468282604051806060016040528060278152602001614ced60279139613e4f565b95945050505050565b60608315613e5e5750816134e3565b825115613e6e5782518084602001fd5b8160405162461bcd60e51b8152600401610c07919061417e565b828054828255906000526020600020908101928215613edd579160200282015b82811115613edd57825182546001600160a01b0319166001600160a01b03909116178255602090920191600190910190613ea8565b50613ee9929150613fda565b5090565b828054828255906000526020600020908101928215613edd579160200282015b82811115613edd578251825591602001919060010190613f0d565b828054828255906000526020600020908101928215613f75579160200282015b82811115613f755782518051613f65918491602090910190613fef565b5091602001919060010190613f48565b50613ee9929150614062565b828054828255906000526020600020908101928215613fce579160200282015b82811115613fce5782518051613fbe918491602090910190613fef565b5091602001919060010190613fa1565b50613ee992915061407f565b5b80821115613ee95760008155600101613fdb565b828054613ffb9061487f565b90600052602060002090601f01602090048101928261401d5760008555613edd565b82601f1061403657805160ff1916838001178555613edd565b82800160010185558215613edd5791820182811115613edd578251825591602001919060010190613f0d565b80821115613ee9576000614076828261409c565b50600101614062565b80821115613ee9576000614093828261409c565b5060010161407f565b5080546140a89061487f565b6000825580601f106140b8575050565b601f0160209004906000526020600020908101906114239190613fda565b6000602082840312156140e857600080fd5b5035919050565b80356001600160a01b038116811461410657600080fd5b919050565b60006020828403121561411d57600080fd5b6134e3826140ef565b60005b83811015614141578181015183820152602001614129565b83811115611f8e5750506000910152565b6000815180845261416a816020860160208601614126565b601f01601f19169290920160200192915050565b6020815260006134e36020830184614152565b600081518084526020808501945080840160005b838110156141ca5781516001600160a01b0316875295820195908201906001016141a5565b509495945050505050565b600081518084526020808501945080840160005b838110156141ca578151875295820195908201906001016141e9565b600081518084526020808501808196508360051b8101915082860160005b8581101561424d57828403895261423b848351614152565b98850198935090840190600101614223565b5091979650505050505050565b60808152600061426d6080830187614191565b828103602084015261427f81876141d5565b905082810360408401526142938186614205565b905082810360608401526142a78185614205565b979650505050505050565b803560ff8116811461410657600080fd5b600080600080600060a086880312156142db57600080fd5b853594506142eb602087016142b2565b93506142f9604087016142b2565b94979396509394606081013594506080013592915050565b634e487b7160e01b600052602160045260246000fd5b602081016008831061434957634e487b7160e01b600052602160045260246000fd5b91905290565b6000806040838503121561436257600080fd5b61436b836140ef565b946020939093013593505050565b634e487b7160e01b600052604160045260246000fd5b604051601f8201601f1916810167ffffffffffffffff811182821017156143b8576143b8614379565b604052919050565b600067ffffffffffffffff8211156143da576143da614379565b50601f01601f191660200190565b600082601f8301126143f957600080fd5b813561440c614407826143c0565b61438f565b81815284602083860101111561442157600080fd5b816020850160208301376000918101602001919091529392505050565b6000806040838503121561445157600080fd5b61445a836140ef565b9150602083013567ffffffffffffffff81111561447657600080fd5b614482858286016143e8565b9150509250929050565b6000806040838503121561449f57600080fd5b823591506144af602084016142b2565b90509250929050565b600080600080606085870312156144ce57600080fd5b843593506144de602086016142b2565b9250604085013567ffffffffffffffff808211156144fb57600080fd5b818701915087601f83011261450f57600080fd5b81358181111561451e57600080fd5b88602082850101111561453057600080fd5b95989497505060200194505050565b60008060008060008060c0878903121561455857600080fd5b614561876140ef565b955061456f602088016140ef565b945060408701359350606087013592506080870135915061459260a088016140ef565b90509295509295509295565b600067ffffffffffffffff8211156145b8576145b8614379565b5060051b60200190565b600082601f8301126145d357600080fd5b813560206145e36144078361459e565b82815260059290921b8401810191818101908684111561460257600080fd5b8286015b8481101561462457614617816140ef565b8352918301918301614606565b509695505050505050565b600082601f83011261464057600080fd5b813560206146506144078361459e565b82815260059290921b8401810191818101908684111561466f57600080fd5b8286015b848110156146245780358352918301918301614673565b600082601f83011261469b57600080fd5b813560206146ab6144078361459e565b82815260059290921b840181019181810190868411156146ca57600080fd5b8286015b8481101561462457803567ffffffffffffffff8111156146ee5760008081fd5b6146fc8986838b01016143e8565b8452509183019183016146ce565b600082601f83011261471b57600080fd5b8135602061472b6144078361459e565b82815260059290921b8401810191818101908684111561474a57600080fd5b8286015b8481101561462457803567ffffffffffffffff81111561476e5760008081fd5b61477c8986838b01016143e8565b84525091830191830161474e565b600080600080600060a086880312156147a257600080fd5b853567ffffffffffffffff808211156147ba57600080fd5b6147c689838a016145c2565b965060208801359150808211156147dc57600080fd5b6147e889838a0161462f565b955060408801359150808211156147fe57600080fd5b61480a89838a0161468a565b9450606088013591508082111561482057600080fd5b61482c89838a0161470a565b9350608088013591508082111561484257600080fd5b5061484f888289016143e8565b9150509295509295909350565b6000806040838503121561486f57600080fd5b823591506144af602084016140ef565b600181811c9082168061489357607f821691505b6020821081141561185657634e487b7160e01b600052602260045260246000fd5b6020808252602c908201527f46756e6374696f6e206d7573742062652063616c6c6564207468726f7567682060408201526b19195b1959d85d1958d85b1b60a21b606082015260800190565b6020808252602c908201527f46756e6374696f6e206d7573742062652063616c6c6564207468726f7567682060408201526b6163746976652070726f787960a01b606082015260800190565b60006020828403121561495e57600080fd5b5051919050565b634e487b7160e01b600052603260045260246000fd5b8054600090600181811c908083168061499557607f831692505b60208084108214156149b757634e487b7160e01b600052602260045260246000fd5b8388528180156149ce57600181146149e257614a10565b60ff19861689830152604089019650614a10565b876000528160002060005b86811015614a085781548b82018501529085019083016149ed565b8a0183019750505b50505050505092915050565b60018060a01b038616815284602082015260a060408201526000614a4360a083018661497b565b8281036060840152614a55818661497b565b9150508260808301529695505050505050565b634e487b7160e01b600052601160045260246000fd5b6000600019821415614a9257614a92614a68565b5060010190565b85815260ff8516602082015283604082015260806060820152816080820152818360a0830137600081830160a090810191909152601f909201601f19160101949350505050565b600060208284031215614af257600080fd5b815180151581146134e357600080fd5b8981526001600160a01b038916602082015261012060408201819052600090614b2d8382018b614191565b90508281036060840152614b41818a6141d5565b90508281036080840152614b558189614205565b905082810360a0840152614b698188614205565b90508560c08401528460e0840152828103610100840152614b8a8185614152565b9c9b505050505050505050505050565b600060208284031215614bac57600080fd5b815167ffffffffffffffff811115614bc357600080fd5b8201601f81018413614bd457600080fd5b8051614be2614407826143c0565b818152856020838501011115614bf757600080fd5b613e46826020830160208601614126565b60008219821115614c1b57614c1b614a68565b500190565b600082821015614c3257614c32614a68565b500390565b60018060a01b038616815284602082015260a060408201526000614c5e60a0830186614152565b8281036060840152614a558186614152565b60008251614c82818460208701614126565b919091019291505056fe476f7665726e6f72427261766f3a3a63617374566f7465496e7465726e616c3a476f7665726e6f72427261766f3a3a696e697469616c697a653a20696e76616c360894a13ba1a3210667c828492db98dca3e2076cc3735a920a3ca505d382bbc416464726573733a206c6f772d6c6576656c2064656c65676174652063616c6c206661696c6564a2646970667358221220f9825fb2f2f1e21bccc573c933106f8a5b36149a611eae5cb0fcd0a410af658364736f6c63430008080033",
  "linkReferences": {},
  "deployedLinkReferences": {}
}